:020000040800F2
:1000000000040020C1010008413D0008413D0008F6
:1000100021340008413D0008413D0008413D0008F1
:10002000413D0008413D0008413D0008715D000868
:10003000413D0008413D0008413D000811C2000853
:10004000413D000891910008219300087193000838
:10005000413D0008413D0008D18E0008218F000875
:10006000718F0008C18F00081190000811840008EA
:1000700061840008B18400080185000851850008EA
:10008000A1850008F1850008418D00081195000840
:100090008195000831960008E196000861900008FB
:1000A000413D0008413D0008C1BC0008413D000839
:1000B000D1BD000811BE000851BE0008A1A400086F
:1000C000E1A50008413D0008413D0008413D000810
:1000D000413D0008413D0008413D0008D1C20008F3
:1000E000F1900008E191000831920008413D0008BC
:1000F000413D0008413D0008413D0008418600089F
:10010000413D00087198000891BE0008413D00087B
:10011000413D0008413D000881BC0008413D000808
:1001200091860008E1860008318700088187000871
:10013000D1870008413D000881920008413D000838
:10014000413D0008413D0008413D0008C1B800089C
:100150002188000871880008C1880008413D000816
:10016000413D0008413D0008413D0008413D000877
:10017000D1920008413D000841210008413D00089E
:10018000413D0008413D0008413D0008413D000857
:10019000413D0008413D0008413D0008413D000847
:1001A000413D0008413D0008413D0008413D000837
:1001B000413D0008413D0008413D0008413D000827
:1001C00072B62E4880F3098840F20000CCF200009D
:1001D0004EF63471CEF20001086040F20000C0F229
:1001E000F0004EF68851CEF2000108604FF000009A
:1001F000E1EE100A4EF63C71CEF2000108600620D6
:1002000080F31488BFF36F8F0CF0AAF94FF05530CC
:100210001B491C4A91423CBF41F8040BFAE71A49BA
:10022000164A91423CBF41F8040BFAE71749184AB5
:10023000184B9A423EBF51F8040B42F8040BF8E702
:1002400000201549154A91423CBF41F8040BFAE7DA
:1002500003F05EFD124C134DAC4203DA54F8041B5C
:100260008847F9E701F024F80F4C104DAC4203DA4F
:1002700054F8041B8847F9E703F05ABD0008002032
:10028000000000200004002000040020F8300108D5
:10029000000800200C120020101200200062002034
:1002A000C0010008C0010008C0010008C00100082A
:1002B0002DE9F04F2DED108AC1F80CD0D0F80CD0FC
:1002C000BDEC108ABDE8F08F03F07AFE04F068FE02
:1002D000002383F311882846A047002004F000FC87
:1002E00004F046FE03F04CFE04F06AFA03F068FEE8
:1002F00004F056FE00DFFEE70000000000000000F2
:1003000081F0004102E000BF83F0004330B54FEAC6
:1003100041044FEA430594EA050F08BF90EA020F33
:100320001FBF54EA000C55EA020C7FEA645C7FEAC6
:10033000655C00F0E2804FEA5454D4EB5555B8BFE9
:100340006D420CDD2C4480EA020281EA030382EA5A
:10035000000083EA010180EA020281EA0303362DEC
:1003600088BF30BD11F0004F4FEA01314FF4801CBF
:100370004CEA113102D0404261EB410113F0004FD1
:100380004FEA03334CEA133302D0524263EB430388
:1003900094EA050F00F0A780A4F10104D5F1200E26
:1003A0000DDB02FA0EFC22FA05F2801841F1000181
:1003B00003FA0EF2801843FA05F359410EE0A5F155
:1003C00020050EF1200E012A03FA0EFC28BF4CF086
:1003D000020C43FA05F3C01851EBE37101F000453C
:1003E00007D54FF0000EDCF1000C7EEB00006EEB49
:1003F0000101B1F5801F1BD3B1F5001F0CD34908D3
:100400005FEA30004FEA3C0C04F101044FEA445229
:1004100012F5800F80F09A80BCF1004F08BF5FEAB0
:10042000500C50F1000041EB045141EA050130BD90
:100430005FEA4C0C404141EB010111F4801FA4F133
:100440000104E9D191F0000F04BF01460020B1FA88
:1004500081F308BF2033A3F10B03B3F120020CDAC0
:100460000C3208DD02F1140CC2F10C0201FA0CF09E
:1004700021FA02F10CE002F11402D8BFC2F1200C03
:1004800001FA02F120FA0CFCDCBF41EA0C019040B9
:10049000E41AA2BF01EB0451294330BD6FEA040402
:1004A0001F3C1CDA0C340EDC04F11404C4F12002ED
:1004B00020FA04F001FA02F340EA030021FA04F3FF
:1004C00045EA030130BDC4F10C04C4F1200220FA56
:1004D00002F001FA04F340EA0300294630BD21FA94
:1004E00004F0294630BD94F0000F83F4801306BF5A
:1004F00081F480110134013D4EE77FEA645C18BF4E
:100500007FEA655C29D094EA050F08BF90EA020FE4
:1005100005D054EA000C04BF1946104630BD91EADC
:10052000030F1EBF0021002030BD5FEA545C05D1DF
:100530004000494128BF41F0004130BD14F580041E
:100540003CBF01F5801130BD01F0004545F0FE4192
:1005500041F470014FF0000030BD7FEA645C1ABFC7
:10056000194610467FEA655C1CBF0B46024650EAFE
:10057000013406BF52EA033591EA030F41F400212A
:1005800030BD00BF90F0000F04BF0021704730B5B0
:100590004FF4806404F132044FF000054FF0000185
:1005A00050E700BF90F0000F04BF0021704730B546
:1005B0004FF4806404F1320410F0004548BF40421B
:1005C0004FF000013EE700BF42004FEAE2014FEA70
:1005D00031014FEA02701FBF12F07F4393F07F4F4B
:1005E00081F06051704732F07F4208BF704793F04E
:1005F0007F4F04BF41F40021704730B54FF4607461
:1006000001F0004521F000411CE700BF50EA010263
:1006100008BF704730B54FF000050AE050EA01020C
:1006200008BF704730B511F0004502D5404261EB7C
:1006300041014FF4806404F132045FEA915C3FF4BD
:10064000D8AE4FF003025FEADC0C18BF03325FEA5A
:10065000DC0C18BF033202EBDC02C2F1200300FA0B
:1006600003FC20FA02F001FA03FE40EA0E0021FA30
:1006700002F11444BDE600BF0000000000000000CD
:1006800070B54FF0FF0C4CF4E06C1CEA11541DBF28
:100690001CEA135594EA0C0F95EA0C0F00F0DEF8F3
:1006A0002C4481EA030621EA4C5123EA4C5350EAD8
:1006B000013518BF52EA033541F4801143F4801329
:1006C00038D0A0FB02CE4FF00005E1FB02E506F0BA
:1006D0000042E0FB03E54FF00006E1FB03569CF00F
:1006E000000F18BF4EF0010EA4F1FF04B6F5007F15
:1006F00064F5407404D25FEA4E0E6D4146EB060687
:1007000042EAC62141EA55514FEAC52040EA5E500F
:100710004FEACE2EB4F1FD0C88BFBCF5E06F1ED8B9
:10072000BEF1004F08BF5FEA500E50F1000041EBF0
:10073000045170BD06F0004646EA010140EA02009D
:1007400081EA0301B4EB5C04C2BFD4EB0C0541EABF
:10075000045170BD41F480114FF0000E013C00F3D4
:10076000AB8014F1360FDEBF002001F0004170BDF8
:10077000C4F10004203C35DA0C341BDC04F1140411
:10078000C4F1200500FA05F320FA04F001FA05F29D
:1007900040EA020001F0004221F0004110EBD3706A
:1007A00021FA04F642EB06015EEA430E08BF20EA96
:1007B000D37070BDC4F10C04C4F1200500FA04F339
:1007C00020FA05F001FA04F240EA020001F00041CB
:1007D00010EBD37041F100015EEA430E08BF20EA3E
:1007E000D37070BDC4F1200500FA05F24EEA020E86
:1007F00020FA04F301FA05F243EA020321FA04F0B5
:1008000001F0004121FA04F220EA020000EBD3706B
:100810005EEA430E08BF20EAD37070BD94F0000F6B
:100820000FD101F00046400041EB010111F4801F9F
:1008300008BF013CF7D041EA060195F0000F18BF50
:10084000704703F00046520043EB030313F4801F8C
:1008500008BF013DF7D043EA0603704794EA0C0F46
:100860000CEA135518BF95EA0C0F0CD050EA41065C
:1008700018BF52EA4306D1D181EA030101F00041D9
:100880004FF0000070BD50EA410606BF1046194601
:1008900052EA430619D094EA0C0F02D150EA01360D
:1008A00013D195EA0C0F05D152EA03361CBF10464E
:1008B00019460AD181EA030101F0004141F0FE41ED
:1008C00041F470014FF0000070BD41F0FE4141F471
:1008D000780170BD70B54FF0FF0C4CF4E06C1CEA71
:1008E00011541DBF1CEA135594EA0C0F95EA0C0F26
:1008F00000F0A7F8A4EB050481EA030E52EA0335E1
:100900004FEA013100F088804FEA03334FF0805501
:1009100045EA131343EA12634FEA022245EA11152E
:1009200045EA10654FEA00260EF000419D4208BFDF
:10093000964244F1FD0404F5407402D25B084FEA8C
:100940003202B61A65EB03055B084FEA32024FF438
:1009500080104FF4002CB6EB020E75EB030E22BF95
:10096000B61A754640EA0C005B084FEA3202B6EB55
:10097000020E75EB030E22BFB61A754640EA5C0004
:100980005B084FEA3202B6EB020E75EB030E22BF94
:10099000B61A754640EA9C005B084FEA3202B6EB95
:1009A000020E75EB030E22BFB61A754640EADC0054
:1009B00055EA060E18D04FEA051545EA16754FEAB6
:1009C00006164FEAC30343EA52734FEAC2025FEAD4
:1009D0001C1CC0D111F4801F0BD141EA00014FF063
:1009E00000004FF0004CB6E711F4801F04BF014334
:1009F0000020B4F1FD0C88BFBCF5E06F3FF6AFAE50
:100A0000B5EB030C04BFB6EB020C5FEA500C50F1DF
:100A1000000041EB045170BD0EF0004E4EEA113162
:100A200014EB5C04C2BFD4EB0C0541EA045170BD69
:100A300041F480114FF0000E013C90E645EA060EAD
:100A40008DE60CEA135594EA0C0F08BF95EA0C0FDB
:100A50003FF43BAF94EA0C0F0AD150EA01347FF423
:100A600034AF95EA0C0F7FF425AF104619462CE7FA
:100A700095EA0C0F06D152EA03353FF4FDAE10465D
:100A8000194622E750EA410618BF52EA43067FF4AE
:100A9000C5AE50EA41047FF40DAF52EA43057FF43E
:100AA000EBAE12E7000000000000000000000000B4
:100AB0004FF0FF3C06E000BF4FF0010C02E000BF2A
:100AC0004FF0010C4DF804CD4FEA410C7FEA6C5C0D
:100AD0004FEA430C18BF7FEA6C5C1BD001B050EAB0
:100AE000410C0CBF52EA430C91EA030F02BF90EA9B
:100AF000020F0020704710F1000F91EA030F58BF5A
:100B0000994208BF90422CBFD8176FEAE37040F0BB
:100B1000010070474FEA410C7FEA6C5C02D150EA59
:100B2000013C07D14FEA430C7FEA6C5CD6D152EA14
:100B3000033CD3D05DF8040B704700BF84461046D9
:100B400062468C461946634600E000BF01B5FFF7D8
:100B5000B7FF002848BF10F1000F01BD4DF808EDA8
:100B6000FFF7F4FF0CBF012000205DF808FB00BF79
:100B70004DF808EDFFF7EAFF34BF012000205DF8D3
:100B800008FB00BF4DF808EDFFF7E0FF94BF012020
:100B900000205DF808FB00BF4DF808EDFFF7CEFF21
:100BA00094BF012000205DF808FB00BF4DF808ED60
:100BB000FFF7C4FF34BF012000205DF808FB00BF31
:100BC0004FEA410C7FEA6C5C02D150EA013C0AD149
:100BD0004FEA430C7FEA6C5C02D152EA033C02D13B
:100BE0004FF0000070474FF0010070470000000018
:100BF0004FEA410212F5001215D211D56FF4787345
:100C0000B3EB625212D94FEAC12343F0004343EAE7
:100C1000505311F0004F23FA02F018BF40427047C2
:100C20004FF00000704750EA013005D111F000404C
:100C300008BF6FF0004070474FF00000704700BFE2
:100C40004FEA4102B2F1E04324BFB3F5001CDCF1EE
:100C5000FE5C0DD901F0004C4FEAC0024CEA507026
:100C6000B2F1004F40EB830008BF20F00100704755
:100C700011F0804F21D113F13872BCBF01F0004058
:100C8000704741F480114FEA5252C2F11802C2F18A
:100C9000200C10FA0CF320FA02F018BF40F001000B
:100CA0004FEAC1234FEAD32303FA0CFC40EA0C00BD
:100CB00023FA02F34FEA4303CCE77FEA625307D1FA
:100CC00050EA01331EBF4FF0FE4040F44000704731
:100CD00001F0004040F0FE4040F40000704700BFCB
:100CE00053B94AB9002908BF00281CBF4FF0FF3193
:100CF0004FF0FF3000F074B9ADF1080C6DE904CE8F
:100D000000F006F8DDF804E0DDE9022304B07047E6
:100D10002DE9F047089E04468846002B4BD18A42B5
:100D2000154667D9B2FA82F24AB1C2F1200701FA38
:100D300002F320FA07F7954047EA030894404FEA88
:100D4000154E230CB8FBFEF71FFA85FC0EFB178827
:100D500043EA084307FB0CF1994209D9EB1807F164
:100D6000FF3080F01B81994240F21881023F2B44F2
:100D70005B1AA4B2B3FBFEF00EFB103344EA03444B
:100D800000FB0CFCA44509D92C1900F1FF3380F0BD
:100D90000781A44540F2048102382C4440EA074010
:100DA000A4EB0C0400271EB1D4400023C6E9004385
:100DB0003946BDE8F0878B4209D9002E00F0EB8060
:100DC0000027C6E9000138463946BDE8F087B3FA86
:100DD00083F7002F47D18B4202D3824200F2FA8080
:100DE000841A61EB030301209846002EE0D0C6E987
:100DF0000048DDE702B9FFDEB2FA82F2002A40F0D5
:100E00008F80491B4FEA154E1FFA85F80127B1FB69
:100E1000FEFC230C0EFB1C1143EA014308FB0CF102
:100E2000994207D9EB180CF1FF3002D2994200F237
:100E3000CD808446591AA3B2B1FBFEF00EFB10140C
:100E400043EA044408FB00F8A04507D92C1900F137
:100E5000FF3302D2A04500F2B6801846A4EB080486
:100E600040EA0C409FE7C7F1200CBB4022FA0CFE81
:100E70004EEA030E01FA07F420FA0CF521FA0CF3FE
:100E80004FEA1E482543B3FBF8F92C0C08FB193335
:100E90001FFA8EFA44EA034309FB0AF49C4202FA61
:100EA00007F200FA07F10BD91EEB030309F1FF303B
:100EB00080F087809C4240F28480A9F1020973444B
:100EC0001B1BADB2B3FBF8F008FB103345EA03443B
:100ED00000FB0AFAA24508D91EEB040400F1FF3317
:100EE0006BD2A24569D90238744440EA0940A0FB9C
:100EF0000289A4EB0A044C45C2464B4654D351D058
:100F0000002E69D0B1EB0A0564EB030404FA0CFC73
:100F1000FD40FC404CEA0505C6E90054002747E7C0
:100F2000C2F1200320FA03F7954001FA02F021FAFA
:100F300003F34FEA154E3843010CB3FBFEF71FFADB
:100F400085F80EFB173341EA034107FB08F38B4298
:100F500004FA02F407D9691807F1FF3C2FD28B423B
:100F60002DD9023F2944CB1A81B2B3FBFEF00EFB10
:100F7000103341EA034100FB08F38B4207D969189B
:100F800000F1FF3C17D28B4215D902382944C91A07
:100F900040EA07473BE73746304609E70746E7E6BA
:100FA0001846FBE64145ABD2B8EB020A69EB0E02EC
:100FB00001381346A4E76046E9E7184695E7674617
:100FC000D1E781467CE702382C4447E7ACF1020CBC
:100FD0002B442FE7384608E73746E9E600000000D3
:100FE000704700BF0000000000000000000000008B
:100FF000844641EA000313F003036DD1403A41D324
:1010000051F8043B40F8043B51F8043B40F8043BE2
:1010100051F8043B40F8043B51F8043B40F8043BD2
:1010200051F8043B40F8043B51F8043B40F8043BC2
:1010300051F8043B40F8043B51F8043B40F8043BB2
:1010400051F8043B40F8043B51F8043B40F8043BA2
:1010500051F8043B40F8043B51F8043B40F8043B92
:1010600051F8043B40F8043B51F8043B40F8043B82
:1010700051F8043B40F8043B51F8043B40F8043B72
:10108000403ABDD2303211D351F8043B40F8043B12
:1010900051F8043B40F8043B51F8043B40F8043B52
:1010A00051F8043B40F8043B103AEDD20C3205D322
:1010B00051F8043B40F8043B043AF9D2043208D01A
:1010C000D2071CBF11F8013B00F8013B01D30B888C
:1010D00003806046704700BF082A13D38B078DD06A
:1010E00010F003038AD0C3F10403D21ADB071CBF3C
:1010F00011F8013B00F8013B80D331F8023B20F8A6
:10110000023B7BE7043AD9D3013A11F8013B00F8DE
:10111000013BF9D20B7803704B7843708B78837066
:101120006046704700000000000000000000000062
:1011300090F800F06DE9024520F007016FF0000C17
:1011400010F0070491F820F040F049804FF00004BF
:101150006FF00700D1E9002391F840F000F108009A
:1011600082FA4CF2A4FA8CF283FA4CF3A2FA8CF3D2
:101170004BBBD1E9022382FA4CF200F10800A4FA39
:101180008CF283FA4CF3A2FA8CF3E3B9D1E904238D
:1011900082FA4CF200F10800A4FA8CF283FA4CF3C4
:1011A000A2FA8CF37BB9D1E9062301F1200182FA7E
:1011B0004CF200F10800A4FA8CF283FA4CF3A2FA84
:1011C0008CF3002BC6D0002A04BF04301A4612BA92
:1011D000B2FA82F2FDE8024500EBD2007047D1E995
:1011E000002304F00305C4F100004FEAC50514F024
:1011F000040F91F840F00CFA05F562EA05021CBFF5
:1012000063EA050362464FF00004A9E7000000000E
:1012100001F0FF01102A2BDB10F0070F08D010F8A7
:10122000013B013A8B422DD010F0070F42B3F6D1AB
:10123000F0B441EA012141EA014122F007047FF0C4
:1012400000070023F0E80256083C85EA010586EA1B
:10125000010685FA47F5A3FA87F586FA47F6A5FA57
:1012600087F68EB9EED1F0BC01F0FF0102F0070263
:1012700032B110F8013B013A83EA010313B1F8D10E
:101280000020704701387047002D06BF35460338EF
:10129000073815F0010F07D1013015F4807F02BF28
:1012A000013015F4C03F0130F0BC0138704700BF79
:1012B000F0B5224B224F1B6885B001AE039304F0BA
:1012C000B7FD02F055FD02F053F81E491E4805F027
:1012D000EFFF02F085FC01F053FA01F029FE02F065
:1012E0007FFB00F055F900F0ABFE00F0E1FA00F0F2
:1012F0004FFE00F0C5FA00F0C3FA97E8030086E855
:101300000300304600F00CFB083700251E2003F0D8
:101310006FFB00F0B5FA00F0B3FA00F021FE0446CE
:101320000028F3D0002DF1D197E8030086E80300F0
:10133000304600F0F5FA2546E8E700BF0008002037
:10134000301B010804080020546100200000000048
:1013500000B5084B83B01A680192019A1B689A4243
:1013600005D1054803B05DF804EB02F069BDFFF755
:10137000EFFF00BF00080020401B01080000000034
:101380002DE9F04F494A4A4B92694A491B689161DD
:1013900085B00020039302F0F3FA002002F008FB6E
:1013A00001F0C6FADFF82481DFF810B1CDF804802F
:1013B0004FF0000E00F57063C446F1469A464FF0B8
:1013C00000020023ACF80020ACF80220ACF80420A6
:1013D00019461E4600EB0E070AEB0E08A7EB0E049B
:1013E0007A7814F81950540904EBC50404F03F044A
:1013F00002F01F0207F5A06706EBD506214413444F
:10140000B845B6B289B29BB2E8D1ABFB0626ABFBBE
:101410000121ABFB032309F10109760849085B08A8
:10142000B9F5207FACF80060ACF80210ACF80430DD
:101430000EF1020E0CF1060CC1D1DDF804801E483D
:101440001E4CB8F80210B8F80020B8F8043001FBC0
:1014500001F102FB021203FB0323A4FB03231B097C
:1014600000F8013F164B08F106084345E9D1154C39
:10147000124D2046017810F8013F42780B44134486
:10148000A5FB03235B0803700F4B8342F2D10B4D86
:10149000217814F8013F62780B441344A5FB032321
:1014A0005B08A0422370F3D17AE700BF30530020DD
:1014B00000080020701B01080F210020ABAAAAAA77
:1014C00010210020102100208E2300201012002067
:1014D00080B5274C274AA3692749996186B0032321
:1014E0002025002116680093EF224FF42073CDE9E8
:1014F00001553020059601F0C3FA642001F048FD43
:10150000002001F095FD1D4E1D4F002001F060FDF3
:1015100001F0BEF9002001F0F3F9B04601F058F9EE
:1015200013E003F025F902F04BFD03F039FD2368C9
:10153000A34207D0A2699B6892689A4202D23846B9
:1015400002F07EFC002383F3118801F019FA01F008
:101550007FF985F3118803F00BFD02F011FD02F015
:10156000DFFDB368002BDCDC404603F061FDD8E70B
:101570003053002000080020601B010810080020E4
:10158000801B0108000000000000000000000000B7
:1015900030B50E4C0E4B22680E4885B000250392E4
:1015A00042F278114022009503F0CAF90A4B0095E7
:1015B00040220A484FF41E7103F0C2F9039A2368CF
:1015C0009A4201D105B030BDFFF7C2FE00080020ED
:1015D0008113000808260020D11400089023002061
:1015E0000EB410B50A4C0B4923680B4883B0019325
:1015F00006AB1A4600930BF00BF8019A23689A4247
:1016000004D103B0BDE8104003B07047FFF7A0FE5F
:1016100000080020A01B0108546100200000000009
:101620002DE9F041104F114E3B6882B00546302243
:10163000202101936C1E0DF0ABF82F35B04601E070
:10164000AC4208D033684046DB689847C0B22D28CA
:1016500004F8010FF4D1019A3B689A4202D102B01A
:10166000BDE8F081FFF774FE0008002054610020FF
:10167000D0B5104C84B02368039300F039F90068AA
:10168000FEF7A2FF0F46064600F032F94068FEF76B
:101690009BFF3246CDE900013B4607490748FFF76B
:1016A0009FFF039A23689A4201D104B0D0BDFFF78F
:1016B0004FFE00BF00080020A01B0108546100205D
:1016C00000B56138C3B20B4A152B83B0116898BFBF
:1016D0000948019198BFD8400199136894BF00F060
:1016E00001000020994202D103B05DF804FBFFF72E
:1016F0002FFE00BF000800208D0030000000000019
:101700002DE9F04F474EDFF83091336885B04FF048
:101710000008039399F800300093434B1B78019322
:10172000834600F1300547465C4614F801ABBAF138
:101730002D0F1ED05046FFF7C3FFB8B123783A2BC8
:1017400023D00022AAF1610ABAF1150F0ED8DFE802
:101750000AF0490D433D0D0D0D370D0D0D0D0D0D0D
:101760000D0D0D0D0D0D4F0B304B5A80AC42A346A5
:10177000DAD1002F50D1B8F1000F48D1039A336865
:101780009A4242D105B0BDE8F08F0BF10601A446A4
:1017900000221CF801EFAEF130035FFA83FBBBF1CE
:1017A000090F2BD81A4492B202EB82025200614513
:1017B00092B2EED11E4BA3FB023242F3CF02C1E73D
:1017C000AC4207460090A346AED1D2E7194BAC42DB
:1017D0001A80A346A8D1CCE7AC4280460190A3462C
:1017E000A2D1C6E7134BAC425A80A3469CD1C0E7B6
:1017F0000E4BAC421A80A34696D1BAE7BEF1200F39
:10180000D8D0AC42A3468FD1B3E7FFF7A1FD064B7A
:101810009DF804201A70B1E79DF8003089F8003077
:10182000A9E700BF00080020804700208C47002067
:10183000CDCCCCCC8447002088470020000000009D
:1018400000B50A4A0A4B92690A491B680A4C916121
:1018500083B001932046FFF7E3FE2046FFF750FFD9
:10186000FFF706FF322003F0C3F8F3E73053002000
:1018700000080020901B0108904700200000000095
:1018800000B5074B83B01A680192019A1B689A420F
:1018900003D1044803B05DF804FBFFF759FD00BF16
:1018A0000008002084470020000000000000000025
:1018B00010B50A4C0A4B22680A4884B04FF45E7196
:1018C000039200220092402203F03AF8039A236820
:1018D0009A4201D104B010BDFFF73AFD0008002084
:1018E00041180008C0470020000000000000000070
:1018F00000B5074B83B01A680192019A1B689A429F
:1019000003D1044803B05DF804FBFFF721FD00BFDD
:101910000008002020080020000000000000000057
:1019200030B5184B184D93ED007AD3ED017AD0ED18
:10193000000A90ED010A1549154A2B6883B070EE34
:10194000C70A019330EE670A002304460B70137038
:101950000BF076FBDFED0F7A9FED0F7A0F4B2268CD
:101960001A6020EE270A01992A680D4864685C60B5
:10197000C0EE077A9142C0ED007A01D103B030BDCC
:10198000FFF7E6FC20080020000800201C080020CB
:101990002808002000003443DB0F4940404B002062
:1019A000384B002000000000000000000000000094
:1019B000F0B52DED068BDFED368A364D70EE287AC8
:1019C00085B02B68039317EE900AB0EE609A30EE64
:1019D000608AFEF7F9FD9FED2C1B41EC100B41ECEA
:1019E0001A0B0BF065FA79EE287A57EC106B17EEAC
:1019F000900AFEF7E9FD9FED241B41EC100B41EC32
:101A0000190B0BF055FAFDEEC87A53EC102B17EEBC
:101A1000904A3046002C3946B8BF6442FEF774FC49
:101A2000FFF7E6F80028B8BF404284421DDBB0EE65
:101A30004A0AF0EE6A0A9FED141B0BF039FA51ECDA
:101A4000100BB0EE490AF0EE690A9FED0F1BCDE9CD
:101A500000010BF02DFADDE9000153EC102BFEF72D
:101A600053FCFFF7EDF808EE100A039A2B689A4230
:101A7000B0EE480A03D105B0BDEC068BF0BDFFF710
:101A800067FC00BFAFF300800000000000807640DC
:101A900000003443000800200000000000000000A7
:101AA00070B52DED028B404E90ED007AD0ED017AAD
:101AB000D1ED000A91ED010A336882B070EEC70AD9
:101AC00030EE670A04460D4601930BF0B9FADFEDDC
:101AD000377A9FED377A374B20EE270A93ED008A4D
:101AE000C0EE078AB0EE480AF0EE680AFFF760FF22
:101AF000DFED317AB4EEE70AF1EE10FA0CD5F0EE34
:101B0000680AB0EE480AFFF753FFDFED2C7AB4EE17
:101B1000E70AF1EE10FA27DC94ED016AD5ED017ABF
:101B2000D4ED006A95ED007A77EEC67A37EE667AE4
:101B300067EEA77AE7EE077A17EE900AFEF744FD04
:101B400041EC100B0BF01CFA51EC100BFFF778F87E
:101B500080F00040019A33689A4200EE100A20D1CA
:101B600002B0BDEC028B70BD94ED016AD5ED017A37
:101B7000D4ED006A95ED007A77EEC67A37EE667A94
:101B800067EEA77AE7EE077A17EE900AFEF71CFDDC
:101B900041EC100B0BF0F4F951EC100BFFF750F87F
:101BA000D8E7FFF7D5FB00BF000800200000344352
:101BB000DB0F49403C4B00200000B4420000B4C29F
:101BC0002DE9F04F2DED0A8BCF4AD04B9269D049C9
:101BD0001B68916185B000200393002401F0D0FEC2
:101BE000002001F0E5FECB4ECB4DCC4FDFF86483F7
:101BF000DFF850A39FEDCA8ADFEDCA9A9FEDCA9A1B
:101C0000DFEDCA8ADFEDCAAA9FEDCAAAA3461BE090
:101C1000F4EECA7AF1EE10FAC8BF77EECA7AC6EDD2
:101C2000007A01F07DFE834601F092FE97F8009065
:101C30000446B9F1000F5ED098F80030002B00F098
:101C40008780142002F0D4FE01F06AFE814601F084
:101C50007FFEA9EB0B0B041B4FFA8BFB64B20BEB63
:101C6000040307EE903AD6ED00BAF8EEE77A2BEED1
:101C7000887A67EE887AC7EE28CAA4EB0B0467EE71
:101C8000A97AB0EE6C0A87EE89BA0BF071F895ED7F
:101C9000007A2BEE000AB6EE00CAA0EE0C7AB0EE87
:101CA0006C0A85ED007A0BF0B3F807EE904AF8EE77
:101CB000E77A2BEE000A67EE887A95ED017A67EEF7
:101CC000A97AA0EE0C7A87EE890A85ED017A80EE7A
:101CD0002A0A0AF075FF20EE280AC0EE087A77EE8D
:101CE000AB7AF5EEC07AF1EE10FA91D577EE8A7AFA
:101CF000C6ED007A95E7904B96ED000AD3ED000A09
:101D0000FFF756FEFDEEC07A9FED8C7A17EE903A03
:101D1000002BB8BF5B4207EE903AF8EEE77AF4EE9C
:101D2000C77AF1EE10FA69D4B5EEC00AF1EE10FAF6
:101D30006DDDB1EE047AB4EEC70AF1EE10FA75DD8E
:101D40004FF4C87001F0BCFD7D4801F0D1FD78E78B
:101D50007C497148FFF7A4FEFDEEC07AB0EE40BAB0
:101D600017EE903A6BB9012217EE900ACDED017A89
:101D700088F8002001F0A4FD019B184601F0B8FD91
:101D80005FE795ED007AD5ED017ADAED000A9AED7C
:101D9000010AD6ED00BA70EEC70A30EE670A0BF002
:101DA0004FF960EE280AB0EE6B0AC0EE880AFFF722
:101DB000FFFDB5EEC0BAF1EE10FAF0EE40BA63DD09
:101DC000B1EE047AB4EEC7BAF1EE10FA7ADD9FED07
:101DD0005EBAB2EE04CAF0EE4B7AE0EE0C7AFDEE9B
:101DE000E77A17EE900A01F06BFDABEECCBAFDEE90
:101DF000CB7A17EE900A01F07BFD22E701224846DC
:101E00003A7001F05DFD484601F072FD19E7F9EE08
:101E1000047AB4EEE70AF1EE10FA1DD5484801F055
:101E20004FFD4FF4C87001F063FD0AE7C0EE076A8A
:101E3000DFED467A66EEA77A67EEA67AFDEEE77AE0
:101E400017EE903A1BB21846019301F039FD019B41
:101E5000584201F04DFDF4E6F1EE047A80EE277A67
:101E6000DFED3A7A67EE277A67EE877AFDEEE77A5A
:101E700017EE903A1BB25842019301F021FD019BED
:101E8000184601F035FDDCE6F9EE047AB4EEE7BA67
:101E9000F1EE10FA25D59FED2EBAB2EE04CAF0EE9F
:101EA0004B7AE0EE4C7AFDEEE77A17EE900A01F0FD
:101EB00007FDABEE8CBAFDEECB7A17EE900A01F07F
:101EC00017FDBEE6CBEE076ADFED1F7A66EEA77A56
:101ED00067EEA67AFDEEE77A17EE903A1BB2184647
:101EE000CAE7F1EE047A8BEE277ADFED177A67EE18
:101EF000277A67EE877AFDEEE77A17EE903A1BB203
:101F00005B421846B8E700BF3053002000080020AD
:101F1000B01B01083C4B0020200800201C080020BA
:101F2000DB0F49400000244200007A4400003443A3
:101F3000000054420000B443384B0020CDCCCC3DCF
:101F400070FEFFFF404B002000005C440000C843CF
:101F500000005CC428080020000000000000000011
:101F600000B5074B07491A68087883B00192019AB7
:101F70001B689A4202D103B05DF804FBFFF7E8F951
:101F800000080020280800200000000000000000D9
:101F900010B50A4C0A4B22680A4884B04FF41E71EF
:101FA000039200220092412202F0CAFC039A2368A5
:101FB0009A4201D104B010BDFFF7CAF90008002011
:101FC000C11B0008484B002000000000000000007A
:101FD000F0B5144A144B926914491B68144C916172
:101FE00083B0032701930226012508E0022AA0F10D
:101FF000060010D825704FF4FA7002F0F9FC01F0D9
:1020000067FDC0B2C31E022BA0F10B024FF000030C
:10201000ECD82370EFE704288CBF3B46334623708F
:10202000E9E700BF3053002000080020C01B010872
:10203000290800200000000000000000000000004F
:1020400010B50A4C0A4B22680A4884B04FF4FC7160
:102050000392002200923F2202F072FC039A23684E
:102060009A4201D104B010BDFFF772F900080020B8
:10207000D11F0008C04D002000000000000000003B
:1020800030B5104D81682B680F4A83B001930B68FF
:1020900023F001030B608168946A03E0936A1B1BC1
:1020A000C72B09D8086810F00100F7D1019A2B68F6
:1020B0009A4204D103B030BD4FF0FF30F6E7FFF78E
:1020C00047F900BF00080020305300200000000046
:1020D00030B5184D83B02B68019311F00C0F0446F6
:1020E0000AD00378032B13D00622636822709A6803
:1020F0001AB100212046904763685B688BB1019953
:102100002A68914213D1204603B0BDE830401847F9
:10211000FFF7B6FF0622636822709A68002AE8D1AA
:10212000EBE7019A2B689A4201D103B030BDFFF76B
:102130000FF900BF000800200000000000000000B0
:10214000F0B5284D83B02B68019302F0D9FE01F061
:1021500097FF254B1E69F20715D55A69234C42F0AB
:1021600001025A612778BB1F012B2AD90522636817
:1021700022701B680BB120469847042F27D0022FEE
:1021800025D003232370B30710D5174A174C536982
:1021900043F0020353612378032B1DD063689B68CF
:1021A0000622227013B101211048984701F090FFD8
:1021B000019A2B689A4213D103B0BDE8F04003F0B6
:1021C000F7BD019A2B689A420AD103B0F0BD0223F1
:1021D0002370B307EAD5D8E72046FFF751FFDDE7C4
:1021E000FFF7B6F80008002000000550B84F0020A7
:1021F00030B50B4D0B4C2B6883B02046019300F09B
:102200002FF9019A2B680848084D094921619A4223
:10221000C4E9025001D103B030BDFFF799F800BF07
:1022200000080020B84F0020FC26010800000550DF
:10223000165502020000000000000000000000002F
:102240002DE9F0412F4C0578266882B0012D0196CA
:1022500006D0019A23689A4252D102B0BDE8F081BB
:10226000294DA842F5D10E4690461F46274AE868F8
:102270002B460C2106F084FB002839D1D5E9023227
:10228000126828339360EB681A68042151611B6857
:10229000C3F80C80EB681A6817611B68B6085E60AB
:1022A0002B694FB343F480232B61E968184A09680E
:1022B0000B60EB6819680B6843F001030B60536B0C
:1022C00043F0010353630B214E2006F039F8D5E9A2
:1022D0000113DA6842F00102DA60DA6842F00202C1
:1022E000DA60CA6822F4804222F001021A60B0E784
:1022F000084801F0A5FDC1E723F480232B61D4E752
:10230000FFF726F800080020B84F0020D120000871
:1023100000380240D01B010800000000000000004F
:1023200030B5184C0378226883B0022B019205D097
:10233000019A23689A4223D103B030BD124B9842D0
:102340000546F5D18168114A0B6823F4804323F0D8
:1023500001030B608168CB6823F00F03CB60536BE4
:1023600023F0010353634E2006F012F8019A23680C
:102370009A4205D1E86803B0BDE8304006F068BB7A
:10238000FEF7E6FF00080020B84F002000380240AA
:1023900000B50F4B0278196883B0022A01910ED163
:1023A00081680A6842F002020A6081680A6842F4A1
:1023B00080420A6081680A6842F001020A60019A5C
:1023C0001B689A4202D103B05DF804FBFEF7C0FF20
:1023D00000080020000000000000000000000000D5
:1023E00000B50F4B0278196883B0022A01910ED113
:1023F00081680A6822F002020A6081680A6842F471
:1024000080420A6081680A6842F001020A60019A0B
:102410001B689A4202D103B05DF804FBFEF798FFF7
:102420000008002000000000000000000000000084
:1024300000B5074B83B01A680192019A1B689A4253
:1024400004D103B05DF804EBFFF7D2BEFEF780FFC6
:102450000008002000000000000000000000000054
:1024600000B5084B83B01A68019201220270019AEC
:102470001B6800219A42416002D103B05DF804FB61
:10248000FEF766FF000800200000000000000000CA
:102490002DE9F043254D83B02C680194DDF8289098
:1024A0000F4616469846044618B111B1204B9A4281
:1024B0002FD9204801F0C4FC202383F3118802F0B7
:1024C00057FD01F05DFD2378012B02D0194801F082
:1024D000B7FC4246314620464B466760FFF7B0FEE8
:1024E0000223237001F06CFD02F05AFD124B1A68B2
:1024F0009A4204D0996993688A689A420FD300235C
:1025000083F31188019A2B689A420CD103B0BDE87D
:10251000F0839307CDD1B8F1000FCDD1C9E70748BB
:1025200001F08EFCEBE7FEF713FF00BF0008002070
:10253000FCFF0300001C010830530020F01B0108C1
:1025400030B51C4D83B02B680193044658B320234B
:1025500083F3118802F00CFD01F012FD2378022BA9
:1025600002D0154801F06CFC2046FFF7D9FE01238C
:10257000237001F025FD02F013FD104B1A689A42FA
:1025800004D0996993688A689A4208D3002383F338
:102590001188019A2B689A4209D103B030BD0848CE
:1025A00001F04EFCF2E7044801F04AFCCFE7FEF7E9
:1025B000CFFE00BF00080020101C0108305300208F
:1025C000F01B0108000000000000000000000000F7
:1025D00030B51C4D83B02B680193044658B32023BB
:1025E00083F3118802F0C4FC01F0CAFC2378022BAB
:1025F00002D0154801F024FC2046FFF7C9FE042351
:10260000237001F0DDFC02F0CBFC104B1A689A42FB
:1026100004D0996993688A689A4208D3002383F3A7
:102620001188019A2B689A4209D103B030BD08483D
:1026300001F006FCF2E7044801F002FCCFE7FEF7E8
:1026400087FE00BF00080020201C01083053002036
:10265000F01B010800000000000000000000000066
:1026600030B51C4D83B02B680193044658B320232A
:1026700083F3118802F07CFC01F082FC2378022BAA
:1026800002D0154801F0DCFB2046FFF7A9FE03232A
:10269000237001F095FC02F083FC104B1A689A42FB
:1026A00004D0996993688A689A4208D3002383F317
:1026B0001188019A2B689A4209D103B030BD0848AD
:1026C00001F0BEFBF2E7044801F0BAFBCFE7FEF7EA
:1026D0003FFE00BF00080020401C010830530020CE
:1026E000F01B0108000000000000000000000000D6
:1026F00000B5064B83B01A680192019A1B689A4292
:1027000002D103B05DF804FBFEF722FE00080020B2
:1027100000B5064B83B01A680192019A1B689A4271
:1027200002D103B05DF804FBFEF712FE00080020A2
:1027300010B5104C104B226882B0019201221A7021
:10274000202383F3118802F043FC01F059FC0B486D
:1027500002F0CEFE01F074FC02F052FC002383F381
:102760001188019A23689A4201D102B010BDFEF788
:10277000EFFD00BF00080020D84F00202C080020EB
:1027800030B50E4D0E4C2B6883B00193FFF750FE11
:10279000206808B10BF034FD4FF496400BF028FD93
:1027A00001992A682060B0FA80F35B099142C3F175
:1027B000000001D103B030BDFEF7CAFD00080020C3
:1027C000D04F0020000000000000000000000000CA
:1027D00030B5174D174C2B78226885B0012B03922A
:1027E00020D000F055FC144B1B78ABB9B0F5964FD8
:1027F00015D8124A124B12681B6812490092024601
:102800001148FFF745FE01232B700020039A23682F
:102810009A420BD105B030BDB0F5165FE9D94FF043
:10282000FF30F3E70848FFF78BFEDAE7FEF790FD8D
:10283000CD4F002000080020CE4F0020D44F0020B4
:10284000D04F0020501C0108B84F002000000000AD
:1028500010B50B4C0B48236882B0019302F010FDB9
:10286000094802F0B5FE019A23689A4205D105484D
:1028700002B0BDE8104002F03BBDFEF769FD00BFAD
:1028800000080020340800202C0800200000000070
:1028900030B5154D154C164B2268286883B001924F
:1028A00001221A7008B10BF0ABFC4FF416500BF07C
:1028B0009FFC286098B10F4D286808B10BF0A0FC70
:1028C0004FF416500BF094FCB0FA80F35B092860CB
:1028D0005842019A23689A4204D103B030BD4FF0A8
:1028E000FF30F6E7FEF734FDD04F0020000800204F
:1028F000CE4F0020D44F0020000000000000000058
:1029000000B5074B07491A68087083B00192019A15
:102910001B689A4202D103B05DF804FBFEF718FD74
:1029200000080020CC4F0020000000000000000044
:1029300000B50D4A0D4B1278196883B0019142B170
:102940000B4AD26812681268120302D4094A10684E
:1029500001E0094A1068019A1B689A4202D103B04B
:102960005DF804FBFEF7F4FCCE4F002000080020C9
:10297000B84F0020D44F0020D04F002000000000AE
:1029800000B50E4A0E4B1278196883B001914AB116
:10299000019A1B689A420FD10A4803B05DF804EB14
:1029A000FFF75EBE019A1B689A4205D1054803B045
:1029B0005DF804EBFFF70CBEFEF7CAFCCC4F00201D
:1029C00000080020B84F00200000000000000000B8
:1029D00070B5274D82B02B68019306460122032172
:1029E0006E2000F01DFC044630B1019A2B689A421B
:1029F00020463AD102B070BD32464E216E2000F022
:102A00000FFC04460028F0D1442E07D00246B7211F
:102A10006E2000F005FCB8B10446E6E70122B721BC
:102A20006E2000F0FDFB0028F6D1224603216E2027
:102A300000F0F6FB0028EFD1032211216E2000F0F8
:102A4000EFFB78B10446D0E7224603216E2000F068
:102A5000E7FB0028E0D10A2211216E2000F0E0FB04
:102A60000028D9D1034B1E71BFE7FEF771FC00BFF0
:102A700000080020DC4F00200000000000000000E3
:102A80002DE9F04F8FB0DFF80084DDF860C0D8F892
:102A900000400D940CF1FF355C1EB3F5207F9DF8CE
:102AA00064909DF868B00C44154400F21282BCF5A5
:102AB000F07F00F20E82B1F5207F0E4600F2128206
:102AC000B2F5F07F174600F21082A14280F0048236
:102AD000B4F5207F00F20082AA4280F00082B5F5B2
:102AE000F07F00F2FC81B9F1400F824600F0B08126
:102AF000B9F1800F23D0B9F1200F00F09C810023A1
:102B0000CDE90033BBF1400F2FD0BBF1800F00F0B7
:102B1000CB81BBF1200F00F0B9810023CDE9023356
:102B2000002203216E2000F07BFBA0B30D9AD8F8A1
:102B300000309A4240F0E2810FB0BDE8F08F9A0772
:102B400040F0D681CC4A8C085900661CA2FB0101DA
:102B5000A2FB030204EB930406EBD2030093BBF148
:102B6000400F06EBD1030193CFD11CF0010F40F0D1
:102B7000C281C14B7D084FEA4C026F1CA3FB0212BD
:102B8000A3FB0C1307EB9303029307EB920305EBF4
:102B90005C050393C4E702465B216E2000F040FB16
:102BA0000028C3D15046FFF713FF0028BED10246CC
:102BB00003216E2000F034FB0028B7D1C6F30723B1
:102BC0001A4608216E20049300F02AFB0028ADD19C
:102BD000F3B21A4609216E20059300F021FB00286C
:102BE000A4D1C7F307231A460A216E20069300F0EA
:102BF00017FB00289AD1FBB21A460B216E200793CF
:102C000000F00EFB002891D1C4F307231A460C21D3
:102C10006E20089300F004FB002887D1E3B21A4627
:102C20000D216E20099300F0FBFA00287FF47EAF9F
:102C3000C5F307231A460E216E200A9300F0F0FA1E
:102C400000287FF473AFEBB21A460F216E200B936E
:102C500000F0E6FA00287FF469AF049A35216E206F
:102C600000F0DEFA00287FF461AF059A36216E206D
:102C700000F0D6FA00287FF459AF089A37216E2069
:102C800000F0CEFA00287FF451AF099A38216E2067
:102C900000F0C6FA00287FF449AF069A39216E2069
:102CA00000F0BEFA00287FF441AF079A3A216E2067
:102CB00000F0B6FA00287FF439AF0A9A3B216E2063
:102CC00000F0AEFA00287FF431AF0B9A3C216E2061
:102CD00000F0A6FA00287FF429AF009B3D21C3F342
:102CE00007226E2000F09CFA00287FF41FAF9DF8A9
:102CF00000203E216E2000F093FA00287FF416AFEA
:102D0000019B3F21C3F307226E2000F089FA0028BF
:102D10007FF40CAF9DF8042040216E2000F080FA73
:102D200000287FF403AF029B4121C3F307226E20EA
:102D300000F076FA00287FF4F9AE9DF808204221D1
:102D40006E2000F06DFA00287FF4F0AE039B432163
:102D5000C3F307226E2000F063FA00287FF4E6AE8A
:102D60009DF80C2044216E2000F05AFA00287FF4D0
:102D7000DDAE012203216E2000F052FA00287FF41C
:102D8000D5AE4A4693216E2000F04AFA00287FF41F
:102D9000CDAE5A4694216E2000F042FA00287FF40E
:102DA000C5AE012203216E2000F03AFA00287FF41C
:102DB000BDAE0134A31B07EE103ADFED307AB8EE5A
:102DC000477ABAF1440F77EEC77A00F09980B0EEF7
:102DD000006AF2EE006AE7EE066A77EEA77AB0EED6
:102DE000667A67EE877ADFED266A87EEA67AFCEED2
:102DF000C77ACDED007A009B9521C3F307226E20A0
:102E000000F00EFA00287FF491AE9DF80020962184
:102E10006E2000F005FA00287FF488AE194B0135CA
:102E2000EF1BA41B5F801C8083F804A083F805902F
:102E300083F806B07AE610495A00A1FB030306EBBB
:102E40005303A1FB0212009306EB5203019359E6D0
:102E5000D9074DD4084A74085900661CA2FB010129
:102E6000A2FB030204EB530406EB9203009306EB70
:102E70009103019346E600BFABAAAAAA0000224430
:102E80000000A344DC4F002000080020244A4FEA41
:102E90004C03A2FB0C1CA2FB032307EB530307EB21
:102EA0005C02029203933BE61CF0030F23D11C4B00
:102EB000BD084FEA4C026F1CA3FB0212A3FB0C13CC
:102EC00007EBD303029307EBD20305EB9C050393B7
:102ED00026E66FF0070029E66FF0030026E66FF0A4
:102EE000040023E66FF0010020E66FF002001DE60B
:102EF0006FF005001AE66FF0060017E6FEF728FAF5
:102F0000F2EE006A37EE267ADFED066A67EE277A80
:102F100087EEA67AFCEEC77ACDED007A6BE700BFAC
:102F2000ABAAAAAA00002444000000000000000090
:102F300010B5114C86B02368059300F001F90F49D4
:102F40000F4803F04DFB012200210D4803F0E0FB88
:102F500020237822CDE901330092A023B422F0216E
:102F60000220FFF78DFD059A23689A4201D106B031
:102F700010BDFEF7EDF900BF00080020601C01083D
:102F80003861002000000000000000000000000088
:102F900030B50E4C83B0236801930122054603210E
:102FA0006E2000F03DF9019A236818B19A420BD1C6
:102FB00003B030BD9A4207D12A469D216E2003B04E
:102FC000BDE8304000F02CB9FEF7C2F9000800203F
:102FD00030B5164C83B023680193054600230222C6
:102FE00003216E208DF8033000F01AF928B1019A00
:102FF00023689A4218D103B030BD0DF103020421B9
:103000006E2000F0BDF80028F1D19DF80320012DBD
:103010000CBF02F0FB0242F0040204216E208DF886
:10302000032000F0FDF8E2E7FEF792F90008002027
:1030300030B5164C83B02368019305460023022265
:1030400003216E208DF8033000F0EAF828B1019AD0
:1030500023689A4218D103B030BD0DF10302042158
:103060006E2000F08DF80028F1D19DF80320012D8D
:103070000CBF02F0FC0242F0030204216E208DF826
:10308000032000F0CDF8E2E7FEF762F90008002027
:1030900010B50A4B0A4A1988146858881B7982B0FF
:1030A000442B019400FB01F00199136818BF400004
:1030B000994201D102B010BDFEF74AF9DC4F002061
:1030C00000080020000000000000000000000000D8
:1030D00070B5164E16483368154D82B005224FF470
:1030E0008071019307F0FCF820246B6983F48073EE
:1030F0006B61012001F07CFC631E13F0FF04F4D12E
:103100004FF4807140F206222983094807F0E8F85D
:10311000019A33689A4206D10649074802B0BDE8D1
:10312000704003F0A5B8FEF713F900BF00080020B7
:1031300000040240A01C0108B05D00200000000057
:1031400000B50C4A0C4B1278196883B0012A019122
:10315000019A1B6804D09A4209D103B05DF804FBC0
:103160009A4204D103B05DF804EBFFF7B1BFFEF75C
:10317000EFF800BFB05D0020000800200000000054
:103180002DE9F041224C234E88B0002335688DF89C
:103190001830804620468DF814101746079503F026
:1031A0007FF92378012B0CD00420012306AACDE956
:1031B00001300092414605AA204603F001F9054678
:1031C00068B9134803F08CF99DF818303B70002063
:1031D000079A33689A4218D108B0BDE8F0812046BA
:1031E00003F0D6F823780C4A052B106004D0084869
:1031F00003F076F968B2EBE7204603F081F8237814
:10320000012BF4D1FFF764FFF1E7FEF7A1F800BF4F
:10321000B05D002000080020E44F00200000000006
:10322000F0B5214C214E89B033680793074600253D
:1032300020468DF818108DF819208DF8145003F0E1
:103240002FF92378012B0CD0042205AB01950292B3
:1032500000933946022306AA204603F0B1F805463A
:1032600048B9114803F03CF90020079A33689A42A4
:1032700017D109B0F0BD204603F08AF823780C4A34
:10328000052B106004D0084803F02AF968B2ECE777
:10329000204603F035F82378012BF4D1FFF718FF0F
:1032A000F1E7FEF755F800BFB05D002000080020F0
:1032B000E44F0020000000000000000000000000BB
:1032C0002DE9F043254E83B034680194042A9DF81B
:1032D0002890144605460F46984639D9B9F1000F93
:1032E00014BF00224FF08052640002EB0863013CDF
:1032F0001C4405F00F0527F01F07202383F31188D6
:1033000001F036FE3D4300F03BFE154B1035DD600D
:103310001C6100F055FE01F043FE124B1A689A4200
:1033200004D0996993688A689A420DD3002383F385
:103330001188BFF36F8FBFF34F8F019A33689A42A2
:103340000AD103B0BDE8F083074800F079FDEDE74E
:10335000064800F075FDC1E7FDF7FAFF0008002000
:1033600090ED00E030530020301D0108101D0108D1
:1033700030B5224D224C2B68224A85B003936368F6
:1033800043F004036360536A43F4803353622023A1
:1033900083F3118801F0ECFD00F0F2FD17221A4BC7
:1033A000E260236100F00CFE01F0FAFD174B1A6891
:1033B0009A4204D0996993688A689A4218D3002087
:1033C00080F31188BFF36F8FBFF34F8F03231D224C
:1033D00000904FF00051FFF773FF094A536843F024
:1033E00001035360039A2B689A4205D105B030BDA2
:1033F000074800F025FDE2E7FDF7AAFF00080020DE
:1034000090ED00E000ED00E00900001030530020D6
:10341000301D010800000000000000000000000056
:1034200070B51A4D1A4C1B4E0FCD0FC49EB02A68B2
:10343000336822801D93EFF30981682203A8FDF70A
:10344000D7FD154B9D6AAA0714D4EB0708D5124B7C
:1034500008995B6B114A00910D4880210BF0E8F947
:103460001D9A33689A420FD109481EB0BDE87040DA
:1034700000F0E6BC099A5B6B0092A4F11000084AC8
:1034800080210BF0D5F9E0E7FDF762FFF41C01089D
:10349000E84F00200008002000ED00E0D01C0108EB
:1034A000B01C010800000000000000000000000047
:1034B00000B51F4B0278196883B00191E2B11D4A33
:1034C0004FF4005111834278EAB11A4A4FF4805107
:1034D00011838278F2B1174A4FF480411183C27888
:1034E000FAB9144A4FF400415183019A1B689A4279
:1034F0001CD103B05DF804FB0E4A4FF40051518318
:103500004278002AE1D10B4A4FF4805151838278EE
:10351000002AE0D1074A4FF480415183C278002A43
:10352000DFD0044A4FF400411183DEE7FDF710FFBE
:103530000008002000100240000000000000000011
:1035400000B51F4B0278196883B00191E2B11D4AA2
:103550004FF4007111834278EAB11A4A4FF4807136
:1035600011838278F2B1174A4FF400611183C27857
:10357000FAB9144A4FF480615183019A1B689A4248
:103580001CD103B05DF804FB0E4A4FF40071518367
:103590004278002AE1D10B4A4FF48071518382783E
:1035A000002AE0D1074A4FF400615183C278002A13
:1035B000DFD0044A4FF480611183DEE7FDF7C8FED7
:1035C0000008002000100240000000000000000081
:1035D00030B50C4A0C4B116883B04FF40055019183
:1035E0004FF480544FF400414FF480405D835C837E
:1035F0005883598301991368994201D103B030BDB2
:10360000FDF7A6FE000800200010024000000000A8
:1036100030B50C4A0C4B116883B04FF40075019122
:103620004FF480744FF480614FF400605D835C83DD
:103630005883598301991368994201D103B030BD71
:10364000FDF786FE00080020001002400000000088
:1036500010B50B4C0B48236882B0992200210193CE
:1036600003F056F8019A23689A4206D105480021D2
:1036700002B0BDE8104003F033B9FDF769FE00BFAA
:103680000008002000610020000000000000000091
:1036900010B50B4C0B48236882B09922002101938E
:1036A00003F036F8019A23689A4206D105480021B2
:1036B00002B0BDE8104003F013B9FDF749FE00BFAA
:1036C000000800201C610020000000000000000035
:1036D00000B5084B83B01A680192019A1B689A42A0
:1036E00006D10548002103B05DF804EB03F060B893
:1036F000FDF72EFE00080020006100200000000001
:1037000000B5084B83B01A680192019A1B689A426F
:1037100006D10548002103B05DF804EB03F048B87A
:10372000FDF716FE000800201C61002000000000CC
:1037300070B51A4C1A4E2378326882B0022B01926F
:10374000A26811D165781748013505F0070500EB2F
:103750008500904763686570013B6360019A336838
:103760009A4219D102B070BD012B08D0019933687B
:10377000994211D10C4802B0BDE8704010476578FD
:103780000848013D05F0070500EB85009047636898
:10379000657001336360E1E7FDF7DAFD80500020DA
:1037A00000080020D01D0108C01D01080000000015
:1037B00070B51A4C1A4E2378326882B0012B0192F0
:1037C000A26811D165781748013505F0070500EBAF
:1037D000850090476368657001336360019A3368C0
:1037E0009A4219D102B070BD022B08D001993368FA
:1037F000994211D10C4802B0BDE87040104765787D
:103800000848013D05F0070500EB85009047636817
:103810006570013B6360E1E7FDF79AFD68500020A9
:1038200000080020D01D0108C01D01080000000094
:1038300030B51F4D85B02B68039340F24C4399423D
:10384000044626DCA3F69803994211DB4B00002BBB
:1038500029D10370036998474FF47A71039A2B6852
:103860009A421ED1606905B0BDE8304002F008BF41
:10387000104B02225B42227040F2892293420E4991
:1038800091FBF3F189B207DC0191E3689847019954
:10389000E4E7012303702D210191236998470199E1
:1038A000DCE7FDF755FDE4DD01220270E4E700BF2F
:1038B0000008002068F7FFFFA0860100000000005C
:1038C00000B5084B83B01A680192019A1B689A42AE
:1038D00006D10146044803B05DF804EBFFF7A8BF2A
:1038E000FDF736FD000800206850002000000000B1
:1038F00000B5084B83B01A680192019A1B689A427E
:1039000006D10146044803B05DF804EBFFF790BF11
:10391000FDF71EFD00080020805000200000000080
:1039200000B5094B094A1968506883B000EBD070A4
:103930000191019A1B689A4203D1401003B05DF8CF
:1039400004FBFDF705FD00BF0008002068500020C3
:1039500000B5094B094A1968506883B000EBD07074
:103960000191019A1B689A4203D1401003B05DF89F
:1039700004FBFDF7EDFC00BF000800208050002094
:1039800000B5084B08491A6883B040000192019ABB
:103990001B6848609A4202D103B05DF804FBFDF752
:1039A000D7FC00BF00080020685000200000000085
:1039B00000B5084B08491A6883B040000192019A8B
:1039C0001B6848609A4202D103B05DF804FBFDF722
:1039D000BFFC00BF00080020805000200000000055
:1039E00070B51D4E1D4A1E4B30681E491E4C91601D
:1039F00082B00021D46001901C4C1D481D4D9D607B
:103A0000117051705160106154611B481B4A1C4D6C
:103A1000D8601C48197059705960C3E90425FFF734
:103A200047FD1848FFF78CFD1749204602F0D8FDE6
:103A3000204602F00DFF2846144902F0D1FD019AFC
:103A400033689A4205D1284602B0BDE8704002F0C2
:103A5000FFBEFDF77DFC00BF000800208050002065
:103A600068500020B1340008513600080061002081
:103A7000D1360008413500089136000801370008AA
:103A80001C610020C01D0108801D0108401D0108A7
:103A90000A490B4B09680B4A82B020200191402152
:103AA00058834FF4806559834FF400644FF480408D
:103AB00004215D835C8358835183FEE70008002066
:103AC000000C024000040240000000000000000062
:103AD00030B5104C104B2268104983B00192186920
:103AE0001A6909691B69019D2468C2F3C032C1F3D8
:103AF000001102EB4102C3F38033C0F3403003EB0B
:103B00004203A54200EB430001D103B030BDFDF7F5
:103B10001FFC00BF0008002000080240000C02400B
:103B200000B50F4B83B01868019002290CD003290F
:103B30000CD001290B4818BF0020019A1B689A423B
:103B40000BD103B05DF804FB0748F6E7032A96BFE4
:103B50000648002000EBC200EFE7FDF7F9FB00BFCD
:103B600000080020D01E0108701E0108801F0108F7
:103B700070B5154C82B02368019302291CD10D4603
:103B80000646202383F3118801F022FA00F038FA68
:103B900030460E4A012104F02BF829460C4A3046E3
:103BA00004F026F80B4803F023FE00F049FA01F078
:103BB00027FA002383F31188019A23689A4201D1DE
:103BC00002B070BDFDF7C4FB00080020F01D010825
:103BD000201E010898500020000000000000000096
:103BE00030B5134D134C2B68134883B0019303F089
:103BF00077FD1249104803F0A3FD226D936B23F467
:103C0000002393634FF47A7000F0F2FE20460C49D3
:103C100003F09EFF226D936B43F400239363019A9C
:103C20002B689A4201D103B030BDFDF791FB00BF74
:103C300000080020F05D002098500020501E010870
:103C4000601E0108000000000000000000000000ED
:103C500000B5084B83B01A680192019A1B689A421A
:103C600005D1054803B05DF804EB01F009BBFDF791
:103C70006FFB00BF00080020480800200000000083
:103C800000B5084B83B01A680192019A1B689A42EA
:103C900005D1054803B05DF804EB01F029BBFDF741
:103CA00057FB00BF0008002048080020000000006B
:103CB00070B50D4C82B0236801930D1E06460DDDD4
:103CC000284601F0EDFF18B90C2333604FF0FF30A8
:103CD000019A23689A4205D102B070BD034800F0F2
:103CE000AFF8EDE7FDF734FB00080020A01F010846
:103CF00000B5064B83B01A680192019A1B689A427C
:103D000002D103B05DF804FBFDF722FB00080020A0
:103D100000B5064B83B01A680192019A1B689A425B
:103D200002D103B05DF804FBFDF712FB0008002090
:103D3000024B82B01B680193FEE700BF0008002021
:103D400000B5044B04481B6883B0019300F078F879
:103D5000FEE700BF00080020B01F010800000000BF
:103D6000024B82B01B680193FEE700BF00080020F1
:103D7000F0B5294E294B3268294885B000240392BA
:103D80009C60D968274A4FF6FF0529400A43DA604C
:103D9000C2682549254D42F08072C2600A6842F02F
:103DA00001020A6010202022D87783F8222000F038
:103DB000DFFA00F045FA01F02BF801F049FF01F0BD
:103DC000B7FF01F07DF800F0FBF9402105F58860B0
:103DD00000F01EFD0127164BC36180F82070A8611A
:103DE00000F0A6F884F3118862B6AB69114A9A61B3
:103DF0004FF4C4713A46104B009405F59D6000F0F5
:103E00009FFD039A33680D4981619A4201D105B043
:103E1000F0BDFDF79DFA00BF0008002000ED00E0B6
:103E2000F0ED00E00003FA05001000E03053002040
:103E30000004002050210108613D0008D01F010846
:103E400000B5054B83B01B680193044672B6FFF7BB
:103E50001FFE024BDC62FEE700080020305300200A
:103E60002DE9F047DFF890A0224DDAF8003082B05B
:103E7000019300F055F9AB6993F8232012B1013A90
:103E800083F823205A6ADFF8748001325A6200F006
:103E900047F9AB6AEA6901334245AB6220D09368C7
:103EA000013B9360EC69A668D6B94FF020092368FE
:103EB000E768E660C3F804802368EB6100F0C0F8AF
:103EC00001F09EF886F311882069B84789F31188BC
:103ED00001F07EF800F094F8EC69A368002BE6D0BE
:103EE000019ADAF800309A4202D102B0BDE8F087B8
:103EF000FDF72EFA30530020000800204C5300201C
:103F000010B5094C094A236882B00193516853687F
:103F10005B1A9842FBD8019A23689A4201D102B0F9
:103F200010BDFDF715FA00BF00080020001000E0EA
:103F300000B50E4A0E4B116B186883B0019009B999
:103F4000526B4AB1019A1B689A420CD1094803B0DE
:103F50005DF804EBFFF774BF019A1B689A4202D127
:103F600003B05DF804FBFDF7F3F900BF3053002008
:103F700000080020E01F0108000000000000000011
:103F800030B50B4C0B4D236B2A6883B001920BB9F3
:103F9000636B13B10848FFF753FF019A2B680121A7
:103FA0009A42616301D103B030BDFDF7D1F900BF82
:103FB00030530020000800201020010800000000FD
:103FC00030B50C4C0C4D236B2A6883B0019253B969
:103FD000636B002B07DD019A2B6800219A42616315
:103FE00005D103B030BD0548FFF72AFFF3E7FDF721
:103FF000AFF900BF30530020000800203020010836
:1040000030B50B4C0B4D236B2A6883B0002B01920B
:1040100001DD636B13B10848FFF712FF019A2B68AB
:1040200001219A42616301D103B030BDFDF790F9DF
:10403000305300200008002020200108000000006C
:1040400030B50C4C0C4D236B2A6883B0002B0192C9
:104050000ADD636B002B07DD019A2B6800219A4271
:10406000616305D103B030BD0448FFF7E9FEF3E713
:10407000FDF76EF9305300200008002040200108B1
:1040800030B50F4D83B02B680193202383F3118843
:104090000C4C236B002B01DB626B1AB10A48FFF753
:1040A000CFFE236B01332363002383F31188019A2E
:1040B0002B689A4201D103B030BDFDF749F900BF2A
:1040C0000008002030530020F01F0108000000000D
:1040D00030B50F4D83B02B680193202383F31188F3
:1040E0000C4C236B002B01DD626B1AB10A48FFF701
:1040F000A7FE236B013B2363002383F31188019AFE
:104100002B689A4201D103B030BDFDF721F900BF01
:1041100000080020305300200020010800000000AB
:1041200000B50F4A0F4B116B186883B0002901903E
:1041300009DB526B002A06DD019A1B689A420CD1FA
:1041400003B05DF804FB019A1B689A4205D106484A
:1041500003B05DF804EBFFF773BEFDF7F9F800BF9D
:10416000305300200008002050200108000000000B
:1041700000B50E4A0E4B116B186883B0019049B917
:10418000526B002A06DD019A1B689A420CD103B0DB
:104190005DF804FB019A1B689A4205D1054803B0FB
:1041A0005DF804EBFFF74CBEFDF7D2F8305300206A
:1041B000000800206020010800000000000000004E
:1041C00010B5084A084B116882B04024019101994A
:1041D000126818199142C3E90E4001D102B010BD16
:1041E000FDF7B6F800080020305300200000000062
:1041F00010B51149114B0A6882B00192DA6B9C6AC2
:104200001460DA6B9C695460DA6B846A9460DA6BD0
:1042100090F820001073DA6B03F588601032824248
:1042200028BF03F14002DA63019A0B689A4201D178
:1042300002B010BDFDF78CF80008002030530020BC
:1042400010B50B4A0B4B116882B04FF0FF3401914F
:1042500000219962019811685C6203F11C02884296
:10426000C3E9072201D102B010BDFDF771F800BF0C
:104270000008002030530020000000000000000073
:104280002DE9F041184E82B00546306801900C4689
:1042900017469846FFF744FF05B3FFB1F4B1C5E9EF
:1042A00003781248C3699A68944204D91B68A41A17
:1042B0009A68A242FAD32B605A686A6015605D6002
:1042C000AC609968019D3268091B95424FF0FF343C
:1042D0009960446206D102B0BDE8F0810448FFF75E
:1042E000AFFDDCE7FDF734F8000800203053002074
:1042F0007020010800000000000000000000000025
:1043000030B5164D83B004462B680193FFF708FFC4
:10431000ECB1E368BBB12268A068936801990344DB
:104320009360D4E900231A6020682B680C4A656802
:10433000456099424FF000054FF0FF30E560506254
:1043400009D103B030BD0748FFF77AFDE3E7054820
:10435000FFF776FDDDE7FCF7FBFF00BF000800205C
:104360003053002080200108000000000000000001
:1043700000B50A4A0A4B11681B6083B00020019106
:10438000019912685B609142C3E90433986002D1DD
:1043900003B05DF804FBFCF7DBFF00BF0008002062
:1043A000305300200000000000000000000000006A
:1043B00030B5164D83B004462B680193FFF7B0FE6D
:1043C000ECB194F82030B3B10F2B14D00022A168C7
:1043D0000F4B84F820201B689A688A42FBD2236026
:1043E0005A686260146001992A685C6091422046B4
:1043F00009D103B030BD0748FFF722FDE6E70548C5
:10440000FFF71EFDDDE7FCF7A3FF00BF000800205B
:104410003053002090200108000000000000000040
:1044200070B5204D82B02B6801930446202383F39E
:10443000118800F0CDFDFFF7E3FD94F82030072B45
:1044400011D8DFE803F0161010230A04100AA66A38
:10445000FFF766FEB3680133B360D4E900231A6046
:10446000D4E900325A604FF0FF33A3622046FFF7D1
:104470009FFFFFF7E5FD00F0C3FD002383F31188E4
:10448000019A2B689A420BD102B070BDA36A002238
:104490001A604FF0FF33A3622046FFF789FFE8E779
:1044A000FCF756FF0008002000000000000000009C
:1044B000F0B5194E194C336883B007460193FFF7E6
:1044C00057FEA569236885F82070142285F82320FB
:1044D0001A68226001215460284683F82010A361E5
:1044E000FFF786FE2946A06900F022FDEFF309835D
:1044F000EA69643B9A4202D90948FFF7A1FC019A94
:1045000033689A4206D1A069294603B0BDE8F0405D
:10451000FBF7CEBEFCF71CFF000800203053002044
:10452000A0200108000000000000000000000000C2
:10453000F0B5154C87B0236805930E460746FFF784
:1045400017FE731C18D0114D114AAB6931466846ED
:10455000FFF796FE3846FFF7ABFFFFF7E1FD039B41
:1045600013B16846FFF7CCFE059A2368A9699A4201
:10457000886A06D107B0F0BD3846FFF799FF034DB2
:10458000F2E7FCF7E5FE00BF0008002030530020F2
:1045900021440008000000000000000000000000AE
:1045A000F0B51E4D1E4E2B6883B0044601930F4696
:1045B000FFF7DEFDB069A7628368A2689A421DD941
:1045C000FFF7F6FE0123074684F82030B461FFF7B9
:1045D0000FFE3946204600F0ABFCEFF30983FA6981
:1045E000643B9A4214D8019A2B689A4214D13946F6
:1045F000204603B0BDE8F040FBF75ABE019A2B6895
:104600009A4209D1204603B0BDE8F040FFF7D0BE82
:104610000448FFF715FCE6E7FCF79AFE00080020C7
:1046200030530020A020010800000000000000001E
:1046300010B50E490E4B8A69086892F823101C6861
:104640008068926882B0019449B9904234BF0020DA
:104650000120019A1B689A4206D102B010BD904217
:1046600094BF00200120F4E7FCF772FE30530020D5
:104670000008002000000000000000000000000012
:1046800070B5184C184E2368A5691A6822605460EA
:10469000012283F8202082B01422316885F823207B
:1046A0002846A3610191FFF783FE2846FFF7A0FD8E
:1046B0002946A06900F03CFCEFF30983EA69643BFA
:1046C0009A4202D90948FFF7BBFB019A33689A4224
:1046D00006D1A069294602B0BDE87040FBF7E8BDED
:1046E000FCF736FE3053002000080020A02001080F
:1046F00070B51C4D1C4E2A68AC6913682B600121F3
:1047000082B05D60002082F82010AA613268A16842
:1047100084F82000019200E01B689A688A42FBD866
:1047200023605A686260204614605C60FFF760FD99
:104730002146A86900F0FCFBEFF30983E269643BC2
:104740009A4202D90948FFF77BFB019A33689A42E3
:1047500006D1A869214602B0BDE87040FBF7A8BDAC
:10476000FCF7F6FD3053002000080020A0200108CF
:1047700010B50F4C82B023680193FFF7F9FCFFF7E7
:10478000CFFC0C4B1A689B6992689B689A42019A0D
:10479000236803D89A4208D102B010BD9A4204D1CE
:1047A00002B0BDE81040FFF7A3BFFCF7D1FD00BF8A
:1047B000000800203053002000000000000000002E
:1047C00000B50E4A0E4B9269196892F8232083B007
:1047D000019142B1019A1B689A420DD103B05DF874
:1047E00004EBFFF785BF019A1B689A4204D103B01E
:1047F0005DF804EBFFF744BFFCF7AAFD305300203F
:104800000008002000000000000000000000000080
:10481000F0B51A4A1A4D02610446816083B0142330
:1048200050692E68616484F8233002270023012137
:10483000278484F82210C4E90F3304F16801A361CE
:10484000019604F12C07636204F1500604F1300371
:1048500060610461C4E90C33E1613046E762546190
:1048600000F06EFA304600F08BFA019A2B689A42FB
:1048700002D1204603B0F0BDFCF76AFD30530020A2
:104880000008002000000000000000000000000000
:1048900010B5094B82B01C680194884203D200F81D
:1048A000012B8142FBD1019A1B689A4201D102B0CF
:1048B00010BDFCF74DFD00BF000800200000000007
:1048C0002DE9F043184E83B0346801940546DDF8B5
:1048D00028900C4617469846FFF722FC15B1B4F510
:1048E000BC7F19D21148FFF7ABFAA4F16401294447
:1048F000E960C1F84080EB68019AC3F844903368DE
:10490000E9680B4808669A420CD13946284603B03C
:10491000BDE8F043FFF77CBF7F2FE3D8B8F1000F6D
:10492000E3D1DFE7FCF714FD00080020F0200108C8
:10493000C9020008000000000000000000000000A4
:104940002DE9F04FDFF8A48087B0D8F80040DDF8FB
:104950004090059407468A46934600F1680604464F
:10496000FF2504F8015BA642FBD107EB0A05A5422F
:1049700004D9552604F8016BA542FBD103932022EC
:1049800082F3118800F0F4FAFFF7FAFA039BCDF8EE
:1049900000905A4651463846FFF792FF00210446E0
:1049A000FFF7FEFDFFF70CFB00F0FAFA0D4B1A685B
:1049B0009A4204D0996993688A689A420BD300237B
:1049C00083F31188059AD8F800309A42204606D120
:1049D00007B0BDE8F08F0448FFF732FAEFE7FCF7C5
:1049E000B7FC00BF30530020B020010800080020B1
:1049F00030B5184C83B0236801930546202383F318
:104A0000118800F0B5FAFFF7BBFA15B91248FFF7A5
:104A100017FA29460820FFF78BFDFFF7D1FA00F0BF
:104A2000BFFA0E4B1A689A4204D0996993688A6853
:104A30009A4208D3002383F31188019A23689A428B
:104A400005D103B030BD0648FFF7FAF9F2E7FCF7ED
:104A50007FFC00BF00080020C02001083053002068
:104A6000B02001080000000000000000000000006D
:104A700070B5164B164E9C693268E36AA06282B02C
:104A800004F12C05AB42019207D01A68E262184685
:104A9000FFF78EFCE36AAB42F7D194F821309B0715
:104AA00005D1D4E904231A61D4E904325A610F20F4
:104AB000FFF7FEFC019A33689A4205D1054802B01F
:104AC000BDE87040FFF7BCB9FCF742FC3053002052
:104AD0000008002000210108000000000000000084
:104AE00030B50C4C83B0236801930546202383F333
:104AF000118800F03DFAFFF743FA019A23689A42C1
:104B000005D1284603B0BDE83040FFF7B1BFFCF740
:104B10001FFC00BF00080020000000000000000093
:104B2000F0B50D4D0D4E03682A68B76983B0044691
:104B3000019213B10A48FFF783F927600320BC6292
:104B4000FFF7B6FC019A2B68B1699A42886A01D1D5
:104B500003B0F0BDFCF7FCFB000800203053002040
:104B6000102101080000000000000000000000000B
:104B7000F0B5124D0368124A83B0044628680190CC
:104B80000E46976913B10F48FFF75AF966B12760CF
:104B9000019A2B68BC629A420ED13146032003B0C1
:104BA000BDE8F040FFF7C4BC019A2B689A424FF071
:104BB000FF3001D103B0F0BDFCF7CAFB00080020B4
:104BC00030530020202101080000000000000000F8
:104BD000F0B5124D04682B6883B00193B4B194F81A
:104BE0002030032B06460F460CD100233360019A78
:104BF0002B68A7629A420FD1204603B0BDE8F0406F
:104C0000FFF7D6BB0648FFF71BF9EEE7019A2B68C2
:104C10009A4201D103B0F0BDFCF79AFB00080020D6
:104C2000402101080000000000000000000000001A
:104C300030B5104A83B01368019381B10E4B019DCA
:104C40009B69186044685C60236012684360954209
:104C50000DD1042003B0BDE83040FFF769BC0199D5
:104C6000136899424FF0FF3001D103B030BDFCF71B
:104C70006FFB00BF00080020305300200000000040
:104C800070B5124D04682B6882B0A042019315D014
:104C900023680360586094F82030042B0E4602D03D
:104CA0000B48FFF7CDF8019A2B68A6629A420BD108
:104CB000204602B0BDE87040FFF77ABB019A2B682E
:104CC0009A4201D102B070BDFCF742FB00080020FF
:104CD000D0200108000000000000000000000000DB
:104CE0002DE9F041DFF850800468D8F8003082B038
:104CF000A042019313D00F4F05460E4623682B6048
:104D00005D6094F82030042B02D03846FFF798F805
:104D1000A6622046FFF74CFB2C68A542EED1019A13
:104D2000D8F800309A4202D102B0BDE8F081FCF719
:104D30000FFB00BFD0200108000800200000000089
:104D400030B50B4B83B01A6801924FF0FF3202600E
:104D500001991A680024002300259142C0E9044506
:104D6000C0E90133C36001D103B030BDFCF7F0FAF4
:104D7000000800200000000000000000000000000B
:104D800000B5084B084A196883B001915168019A2F
:104D90001B6881609A4202D103B05DF804FBFCF706
:104DA000D7FA00BF00080020001000E0000000005B
:104DB000F0B51449144B0A68846883B00192134A11
:104DC0005B68D2F8A864C2681B1BD0E904450132B5
:104DD0009B1BC26042688360E61845F1000793425E
:104DE000C0E9046709D80268934238BF0360019A9A
:104DF0000B689A4203D103B0F0BD4360F7E7FCF7BC
:104E0000A7FA00BF00080020001000E03053002087
:104E100030B5114D114C2B6889B04FF0FF3107931D
:104E2000002300226846C4F8A834CDE90133039377
:104E30000023CDE904230091FFF7A2FF6846FFF7A6
:104E4000B7FF079A2B680299C4F8A8149A4201D1B7
:104E500009B030BDFCF77CFA000800203053002078
:104E60002DE97048134E144B326883B001925B6891
:104E70008B60D0E902411B1BD0E90445426814EB6A
:104E8000030B45F1000C01319342C0E90231C0E946
:104E900004BC0AD80268934238BF0360019A3368A1
:104EA0009A4204D103B0BDE870884360F6E7FCF78E
:104EB0004FFA00BF00080020001000E000000000D2
:104EC00030B50D4D0D4C2B6883B004F59760019300
:104ED0000023C4F8B034C4F8B434FFF731FF019AAA
:104EE0002B689A4206D104F59A6003B0BDE83040C1
:104EF000FFF726BFFCF72CFA0008002030530020F3
:104F000000B50949094A0B6883B001930198D2F8AA
:104F1000B034096801338842C2F8B03402D103B01A
:104F20005DF804FBFCF714FA000800203053002061
:104F300070B50D4C0D4A236882B00193019DD2F8E3
:104F4000B43424680133A542C2F8B43409D10E4602
:104F500000F1500106F1500002B0BDE87040FFF7CB
:104F60007FBFFCF7F5F900BF000800203053002098
:104F700000B5084B83B01A680192019A1B689A42E7
:104F800005D1054803B05DF804EBFFF7F9BEFCF767
:104F9000DFF900BF00080020E857002000000000F3
:104FA00000B5084B83B01A680192019A1B689A42B7
:104FB00005D1054803B05DF804EBFFF7F9BEFCF737
:104FC000C7F900BF00080020E857002000000000DB
:104FD00000B5084B83B01A680192019A1B689A4287
:104FE00005D1054803B05DF804EBFFF7C9BEFCF737
:104FF000AFF900BF000800200058002000000000AA
:1050000000B5084B83B01A680192019A1B689A4256
:1050100005D1054803B05DF804EBFFF7C9BEFCF706
:1050200097F900BF00080020005800200000000091
:1050300030B51C4D83B004462B680193FFF770F820
:105040004CB3A3682268002B0FDBA24203D01648A2
:10505000FEF7F6FEA3680133002BA3600BDD019A77
:105060002B689A421BD103B030BDA242EFD001336E
:10507000002BA360F3DC20680199036823602A6891
:105080005C6091424FF00003836208D103B0BDE839
:105090003040FFF78DB90448FEF7D2FED1E7FCF7A8
:1050A00057F900BF0008002070210108000000002F
:1050B00030B50B4D83B02B680193044650B124608A
:1050C00001992A68646000239142A360236105D19D
:1050D00003B030BD0348FEF7B3FEF0E7FCF738F944
:1050E00000080020902101080000000000000000DE
:1050F000F0B55D4E5D4B32689D6983B00446019208
:10510000FFF736F8002C00F08480A068236900289F
:1051100043D0002B40F39780854276D0AA688368FD
:105120009A4208D990F820308260062B40D0072B95
:1051300073D0002B5DD02746234603E09968AA6808
:10514000914233D31B689C42F8D12F607B686B601F
:1051500006201D607D60AC62FFF7AAF9A368AB4230
:1051600002D04348FEF76CFE2B6CA34202D04048AD
:10517000FEF766FE2369012B05D1019A33689A4236
:105180006FD103B0F0BD019A33689A4269D13848B3
:1051900003B0BDE8F040FEF753BE002B58D10133F9
:1051A000A56023612B6CE3602C64E6E71F46CCE727
:1051B000D0E900231A60D0E900325A60876A3B4682
:1051C00003E099688268914247D31B689F42F8D1F7
:1051D00007607B68436018607860836AAA68986893
:1051E00083689342A7D290F820308260062B9ED12C
:1051F000DEE7D0E90023012180F820101A60D0E911
:1052000000325A60FFF7D4F895E723690133236130
:10521000B3E71748FEF714FE77E7D0E900231A60DA
:10522000D0E900325A60876A3B4603E09968826899
:10523000914214D31B689F42F8D107607B6843609A
:105240001860786077E70A48FEF7FAFDA06863E720
:105250000748FEF7F5FD2369A1E71F46B8E71F469B
:10526000EBE7FCF775F800BF000800203053002082
:10527000A021010800000000000000000000000064
:1052800030B5154C83B0236801930546202383F382
:105290001188FFF76DFEFEF773FE2846FFF728FF23
:1052A000FEF78EFEFFF77CFE0C4B1A689A4204D084
:1052B000996993688A689A4208D3002383F3118816
:1052C000019A23689A4205D103B030BD0448FEF725
:1052D000B7FDF2E7FCF73CF800080020305300204F
:1052E0008021010800000000000000000000000014
:1052F0002DE9F043DFF800813C4FD8F80030BE695B
:1053000083B005460193002864D0202383F31188DD
:10531000FFF72EFEFEF734FE336C002B5ED09B6849
:10532000B34202D03248FEF78BFD2B69002B49DDDA
:10533000013B2B615BBB336CAB4202D02C48FEF7C8
:105340007FFDEB683364FEF713FF2B689D423ED070
:10535000D6E910495CB1FEF70BFF23689C4203D0ED
:105360009B68994538BF9946E468002CF3D1C6F88C
:1053700008902B6801222A611A682A605560AB6088
:105380001A6CEA6018461D640021FFF709F9FEF760
:1053900017FEFFF705FE3B68BB4204D0BA699B6865
:1053A00092689A420AD3002383F31188019AD8F8AD
:1053B00000309A4217D103B0BDE8F0830D48FEF7E4
:1053C0003FFDF0E70A48FEF73BFD2B69B0E70023FD
:1053D000AB60DCE70648FEF733FD96E70448FEF7CE
:1053E0002FFD336C9BE7FBF7B3FF00BF305300206A
:1053F000B021010880210108000800200000000001
:105400002DE9F041DFF8D880334BD8F800209E69B1
:1054100082B005460192FEF7ABFE002D4FD0336CF3
:10542000002B52D09B68B34202D02C48FEF708FDF7
:105430002B69002B3EDD013B2B61002B32D1336CFD
:10544000AB4202D02548FEF7FBFCEB683364FEF765
:105450008FFE2B689D4223D0D6E910475CB1FEF742
:1054600087FE23689C4203D09B689F4238BF1F463B
:10547000E468002CF3D1B7602868019901232B61FF
:1054800003682B60D8F800205D60A860036CEB60B7
:10549000914205641ED102B0BDE8F041FEF788BF1D
:1054A0000023AB60019AD8F800309A4212D102B0C2
:1054B000BDE8F0810948FEF7C3FC2B69BBE707484C
:1054C000FEF7BEFC336C002BACD10448FEF7B8FCF1
:1054D000336CA7E7FBF73CFF30530020C0210108E5
:1054E0000008002000000000000000000000000094
:1054F00070B5114E82B0044633680193FEF710FE7A
:105500009CB12068A0420AD06FF0010503682360B7
:105510005C60FEF74DFF85622068A042F6D1019ADB
:1055200033689A4205D102B070BD0448FEF788FC8A
:10553000E7E7FBF70DFF00BF00080020E0210108AE
:105540002DE9F0411E4F1F4E3B68B46982B00546FD
:105550000193FEF70DFE65B3236C33B3B369D3F843
:1055600040804046FFF74CFF2E46A5622B4603E0E5
:105570009968A268914216D31B689D42F8D12660B3
:105580007368636007201C607460FEF791FF4046FB
:10559000A46AFFF7ADFD019A3B689A4220460CD100
:1055A00002B0BDE8F0811E46E9E70748FEF748FC77
:1055B000D4E70548FEF744FCCEE7FBF7C9FE00BF81
:1055C00000080020305300200022010800000000E5
:1055D00030B5164C83B0236801930546202383F32E
:1055E0001188FFF7C5FCFEF7CBFC2846FFF7A8FFA4
:1055F0000546FEF7E5FCFFF7D3FC0D4B1A689A420F
:1056000004D0996993688A689A4209D3002383F386
:105610001188019A23689A42284605D103B030BD0B
:105620000448FEF70DFCF1E7FBF792FE00080020AE
:1056300030530020D02101080000000000000000CD
:1056400070B5184E82B00446336801930D46FEF7DC
:1056500067FD0CB3E16B94F8203029430A2BE1631A
:1056600016D00B2B05D0019A33689A4218D102B09C
:1056700070BDA36A8B43F6D1019A336800219A4228
:10568000A1620DD1204602B0BDE87040FEF790BE89
:10569000A36A1942F0D1E6E70348FEF7D1FBD9E748
:1056A000FBF756FE00080020302201080000000031
:1056B000F0B5134F83B006463B6801930D46FEF7E5
:1056C0002FFDB6B13468A6420DD0E3682B43E360EA
:1056D00015B12269134203D0D4E90101FFF7B0FFED
:1056E0002468A642F1D1019A3B689A4205D103B0E1
:1056F000F0BD0448FEF7A4FBE4E7FBF729FE00BF7A
:105700000008002010220108000000000000000036
:1057100070B50C4CC16082B0266801960A440060E6
:10572000019E02612268069D4060C0E90511964213
:105730004FF00001C3618160056201D102B070BD0C
:10574000FBF706FE0008002000000000000000003B
:1057500030B50D4D83B02B6801930446FEF7E0FC95
:1057600001992A68E368A36100209142A060636107
:1057700007D120466FF0010103B0BDE83040FFF7CC
:10578000AFBAFBF7E5FD00BF0008002000000000F5
:1057900070B5164D82B004462B6801930E46FEF795
:1057A000BFFCFEF7BDFCD4E905239A42A36816D0DE
:1057B0000133511CA36061611670D4E904329A422E
:1057C0000AD220460021FFF75BFA0020019A2B68DD
:1057D0009A4209D102B070BDE3686361F1E7002B22
:1057E000E6D06FF00300F1E7FBF7B2FD0008002000
:1057F000F0B5234F83B03B68019304460E46202347
:1058000083F31188FFF7B4FBFEF7BAFBE36943B1FA
:105810002046984705E031462046FFF709FA051E65
:1058200010DBFEF77DFCA368002BF4D0A169206992
:105830004A1C013B8242A360A26128BFE3680D7845
:1058400028BFA361FEF7BCFBFFF7AAFB0D4B1A684C
:105850009A4204D0996993688A689A4209D30023CE
:1058600083F31188019A3B689A42284605D103B018
:10587000F0BD0548FEF7E4FAF1E7FBF769FD00BF6C
:1058800000080020305300204022010800000000E2
:105890002DE9F04FDFF8F490044685B0D9F8000008
:1058A00003908A461D46D4F81C809346002A60D097
:1058B000202383F311880193FFF75AFBFEF760FB67
:1058C0002F4E0027B8F1000F07D02046C04704E054
:1058D00029462046FFF7ACF960BBFEF721FCA36820
:1058E000002BF5D0A269013B511CA161A360137884
:1058F0000AF8013B2369A2699A4224BFE368A361C5
:10590000FEF75EFBFFF74CFB3368B34204D0B2698D
:105910009B6892689A4228D3002383F31188013749
:10592000BB4519D0019B83F31188FFF721FBFEF7DC
:1059300027FBC7E7FEF744FBFFF732FB3368B342B0
:1059400007D0B2699B6892689A4202D20D48FEF76E
:1059500077FA002383F31188039AD9F800309A422A
:1059600038460AD105B0BDE8F08F0648FEF768FA60
:10597000D2E70548FEF764FA9AE7FBF7E9FC00BFB7
:105980003053002040220108502201080008002066
:1059900070B50B4D82602E68C16082B0C0E9000016
:1059A00001960A44019E02612A68069C9642C0E95B
:1059B0000511C0E9073401D102B070BDFBF7C8FC86
:1059C00000080020000000000000000000000000AF
:1059D00030B50D4D83B004462B680193FEF7A0FB54
:1059E000D4E9032301982968A2619B1A8842626165
:1059F000A36007D120466FF0010103B0BDE830403D
:105A0000FFF76EB9FBF7A4FC0008002000000000BF
:105A10002DE9F0412E4F82B03B6801930446884641
:105A20001646202383F31188FFF7A2FAFEF7A8FA9F
:105A300005E031462046FFF7FBF8051E2DDBFEF79B
:105A40006FFBA368002BF4D06269013B511C6161BC
:105A5000A36082F80080D4E904329A4224BFE3684C
:105A60006361E3690BB120469847FEF7A9FAFFF797
:105A700097FA184B1A689A4204D0996993688A6811
:105A80009A421ED3002585F31188019A3B689A42F9
:105A900028461AD102B0BDE8F081FEF791FAFFF76F
:105AA0007FFA0C4B1A689A4207D0996993688A6802
:105AB0009A4202D20848FEF7C3F9002383F3118803
:105AC000E3E70548FEF7BCF9DCE7FBF741FC00BF64
:105AD0000008002030530020402201080000000090
