:020000040800F2
:1000000000040020C10100089187000891870008C2
:1000100091460008918700089187000891870008A1
:10002000918700089187000891870008B1A800080F
:10003000918700089187000891870008510D0108F9
:1000400091870008D1DC000861DE0008B1DE0008FD
:10005000918700089187000811DA000861DA00082A
:10006000B1DA000801DB000851DB000851CF0008BD
:10007000A1CF0008F1CF000841D0000891D00008BE
:10008000E1D0000831D1000881D8000851E0000813
:10009000C1E0000871E1000821E20008A1DB0008CE
:1000A00091870008918700080108010891870008DE
:1000B000110901085109010891090108E1EF00083F
:1000C00021F10008918700089187000891870008B6
:1000D000918700089187000891870008110E010898
:1000E00031DC000821DD000871DD0008918700087F
:1000F00091870008918700089187000881D1000846
:1001000091870008B1E30008D10901089187000830
:100110009187000891870008C107010891870008AE
:10012000D1D1000821D2000871D20008C1D2000844
:1001300011D3000891870008C1DD000891870008ED
:100140009187000891870008918700080104010841
:1001500061D30008B1D3000801D4000891870008DA
:10016000918700089187000891870008918700080F
:1001700011DE000891870008D1320008918700083D
:1001800091870008918700089187000891870008EF
:1001900091870008918700089187000891870008DF
:1001A00091870008918700089187000891870008CF
:1001B00091870008918700089187000891870008BF
:1001C00072B62E4880F3098840F20000CCF200009D
:1001D0004EF63471CEF20001086040F20000C0F229
:1001E000F0004EF68851CEF2000108604FF000009A
:1001F000E1EE100A4EF63C71CEF2000108600620D6
:1002000080F31488BFF36F8F10F04AFF4FF0553022
:100210001B491C4A91423CBF41F8040BFAE71A49BA
:10022000164A91423CBF41F8040BFAE71749184AB5
:10023000184B9A423EBF51F8040B42F8040BF8E702
:1002400000201549154A91423CBF41F8040BFAE7DA
:1002500008F086FA124C134DAC4203DA54F8041B32
:100260008847F9E701F0F4FB0F4C104DAC4203DA7C
:1002700054F8041B8847F9E708F082BA0008002008
:10028000000000200004002000040020F893010872
:1002900000080020D4140020D8140020305B002077
:1002A000C0010008C0010008C0010008C00100082A
:1002B0002DE9F04F2DED108AC1F80CD0D0F80CD0FC
:1002C000BDEC108ABDE8F08F08F0A2FB09F090FBAE
:1002D000002383F311882846A047002009F028F95D
:1002E00009F06EFB08F074FB08F092FF08F090FB39
:1002F00009F07EFB00DFFEE70000000000000000C8
:1003000081F0004102E000BF83F0004330B54FEAC6
:1003100041044FEA430594EA050F08BF90EA020F33
:100320001FBF54EA000C55EA020C7FEA645C7FEAC6
:10033000655C00F0E2804FEA5454D4EB5555B8BFE9
:100340006D420CDD2C4480EA020281EA030382EA5A
:10035000000083EA010180EA020281EA0303362DEC
:1003600088BF30BD11F0004F4FEA01314FF4801CBF
:100370004CEA113102D0404261EB410113F0004FD1
:100380004FEA03334CEA133302D0524263EB430388
:1003900094EA050F00F0A780A4F10104D5F1200E26
:1003A0000DDB02FA0EFC22FA05F2801841F1000181
:1003B00003FA0EF2801843FA05F359410EE0A5F155
:1003C00020050EF1200E012A03FA0EFC28BF4CF086
:1003D000020C43FA05F3C01851EBE37101F000453C
:1003E00007D54FF0000EDCF1000C7EEB00006EEB49
:1003F0000101B1F5801F1BD3B1F5001F0CD34908D3
:100400005FEA30004FEA3C0C04F101044FEA445229
:1004100012F5800F80F09A80BCF1004F08BF5FEAB0
:10042000500C50F1000041EB045141EA050130BD90
:100430005FEA4C0C404141EB010111F4801FA4F133
:100440000104E9D191F0000F04BF01460020B1FA88
:1004500081F308BF2033A3F10B03B3F120020CDAC0
:100460000C3208DD02F1140CC2F10C0201FA0CF09E
:1004700021FA02F10CE002F11402D8BFC2F1200C03
:1004800001FA02F120FA0CFCDCBF41EA0C019040B9
:10049000E41AA2BF01EB0451294330BD6FEA040402
:1004A0001F3C1CDA0C340EDC04F11404C4F12002ED
:1004B00020FA04F001FA02F340EA030021FA04F3FF
:1004C00045EA030130BDC4F10C04C4F1200220FA56
:1004D00002F001FA04F340EA0300294630BD21FA94
:1004E00004F0294630BD94F0000F83F4801306BF5A
:1004F00081F480110134013D4EE77FEA645C18BF4E
:100500007FEA655C29D094EA050F08BF90EA020FE4
:1005100005D054EA000C04BF1946104630BD91EADC
:10052000030F1EBF0021002030BD5FEA545C05D1DF
:100530004000494128BF41F0004130BD14F580041E
:100540003CBF01F5801130BD01F0004545F0FE4192
:1005500041F470014FF0000030BD7FEA645C1ABFC7
:10056000194610467FEA655C1CBF0B46024650EAFE
:10057000013406BF52EA033591EA030F41F400212A
:1005800030BD00BF90F0000F04BF0021704730B5B0
:100590004FF4806404F132044FF000054FF0000185
:1005A00050E700BF90F0000F04BF0021704730B546
:1005B0004FF4806404F1320410F0004548BF40421B
:1005C0004FF000013EE700BF42004FEAE2014FEA70
:1005D00031014FEA02701FBF12F07F4393F07F4F4B
:1005E00081F06051704732F07F4208BF704793F04E
:1005F0007F4F04BF41F40021704730B54FF4607461
:1006000001F0004521F000411CE700BF50EA010263
:1006100008BF704730B54FF000050AE050EA01020C
:1006200008BF704730B511F0004502D5404261EB7C
:1006300041014FF4806404F132045FEA915C3FF4BD
:10064000D8AE4FF003025FEADC0C18BF03325FEA5A
:10065000DC0C18BF033202EBDC02C2F1200300FA0B
:1006600003FC20FA02F001FA03FE40EA0E0021FA30
:1006700002F11444BDE600BF0000000000000000CD
:1006800070B54FF0FF0C4CF4E06C1CEA11541DBF28
:100690001CEA135594EA0C0F95EA0C0F00F0DEF8F3
:1006A0002C4481EA030621EA4C5123EA4C5350EAD8
:1006B000013518BF52EA033541F4801143F4801329
:1006C00038D0A0FB02CE4FF00005E1FB02E506F0BA
:1006D0000042E0FB03E54FF00006E1FB03569CF00F
:1006E000000F18BF4EF0010EA4F1FF04B6F5007F15
:1006F00064F5407404D25FEA4E0E6D4146EB060687
:1007000042EAC62141EA55514FEAC52040EA5E500F
:100710004FEACE2EB4F1FD0C88BFBCF5E06F1ED8B9
:10072000BEF1004F08BF5FEA500E50F1000041EBF0
:10073000045170BD06F0004646EA010140EA02009D
:1007400081EA0301B4EB5C04C2BFD4EB0C0541EABF
:10075000045170BD41F480114FF0000E013C00F3D4
:10076000AB8014F1360FDEBF002001F0004170BDF8
:10077000C4F10004203C35DA0C341BDC04F1140411
:10078000C4F1200500FA05F320FA04F001FA05F29D
:1007900040EA020001F0004221F0004110EBD3706A
:1007A00021FA04F642EB06015EEA430E08BF20EA96
:1007B000D37070BDC4F10C04C4F1200500FA04F339
:1007C00020FA05F001FA04F240EA020001F00041CB
:1007D00010EBD37041F100015EEA430E08BF20EA3E
:1007E000D37070BDC4F1200500FA05F24EEA020E86
:1007F00020FA04F301FA05F243EA020321FA04F0B5
:1008000001F0004121FA04F220EA020000EBD3706B
:100810005EEA430E08BF20EAD37070BD94F0000F6B
:100820000FD101F00046400041EB010111F4801F9F
:1008300008BF013CF7D041EA060195F0000F18BF50
:10084000704703F00046520043EB030313F4801F8C
:1008500008BF013DF7D043EA0603704794EA0C0F46
:100860000CEA135518BF95EA0C0F0CD050EA41065C
:1008700018BF52EA4306D1D181EA030101F00041D9
:100880004FF0000070BD50EA410606BF1046194601
:1008900052EA430619D094EA0C0F02D150EA01360D
:1008A00013D195EA0C0F05D152EA03361CBF10464E
:1008B00019460AD181EA030101F0004141F0FE41ED
:1008C00041F470014FF0000070BD41F0FE4141F471
:1008D000780170BD70B54FF0FF0C4CF4E06C1CEA71
:1008E00011541DBF1CEA135594EA0C0F95EA0C0F26
:1008F00000F0A7F8A4EB050481EA030E52EA0335E1
:100900004FEA013100F088804FEA03334FF0805501
:1009100045EA131343EA12634FEA022245EA11152E
:1009200045EA10654FEA00260EF000419D4208BFDF
:10093000964244F1FD0404F5407402D25B084FEA8C
:100940003202B61A65EB03055B084FEA32024FF438
:1009500080104FF4002CB6EB020E75EB030E22BF95
:10096000B61A754640EA0C005B084FEA3202B6EB55
:10097000020E75EB030E22BFB61A754640EA5C0004
:100980005B084FEA3202B6EB020E75EB030E22BF94
:10099000B61A754640EA9C005B084FEA3202B6EB95
:1009A000020E75EB030E22BFB61A754640EADC0054
:1009B00055EA060E18D04FEA051545EA16754FEAB6
:1009C00006164FEAC30343EA52734FEAC2025FEAD4
:1009D0001C1CC0D111F4801F0BD141EA00014FF063
:1009E00000004FF0004CB6E711F4801F04BF014334
:1009F0000020B4F1FD0C88BFBCF5E06F3FF6AFAE50
:100A0000B5EB030C04BFB6EB020C5FEA500C50F1DF
:100A1000000041EB045170BD0EF0004E4EEA113162
:100A200014EB5C04C2BFD4EB0C0541EA045170BD69
:100A300041F480114FF0000E013C90E645EA060EAD
:100A40008DE60CEA135594EA0C0F08BF95EA0C0FDB
:100A50003FF43BAF94EA0C0F0AD150EA01347FF423
:100A600034AF95EA0C0F7FF425AF104619462CE7FA
:100A700095EA0C0F06D152EA03353FF4FDAE10465D
:100A8000194622E750EA410618BF52EA43067FF4AE
:100A9000C5AE50EA41047FF40DAF52EA43057FF43E
:100AA000EBAE12E7000000000000000000000000B4
:100AB0004FF0FF3C06E000BF4FF0010C02E000BF2A
:100AC0004FF0010C4DF804CD4FEA410C7FEA6C5C0D
:100AD0004FEA430C18BF7FEA6C5C1BD001B050EAB0
:100AE000410C0CBF52EA430C91EA030F02BF90EA9B
:100AF000020F0020704710F1000F91EA030F58BF5A
:100B0000994208BF90422CBFD8176FEAE37040F0BB
:100B1000010070474FEA410C7FEA6C5C02D150EA59
:100B2000013C07D14FEA430C7FEA6C5CD6D152EA14
:100B3000033CD3D05DF8040B704700BF84461046D9
:100B400062468C461946634600E000BF01B5FFF7D8
:100B5000B7FF002848BF10F1000F01BD4DF808EDA8
:100B6000FFF7F4FF0CBF012000205DF808FB00BF79
:100B70004DF808EDFFF7EAFF34BF012000205DF8D3
:100B800008FB00BF4DF808EDFFF7E0FF94BF012020
:100B900000205DF808FB00BF4DF808EDFFF7CEFF21
:100BA00094BF012000205DF808FB00BF4DF808ED60
:100BB000FFF7C4FF34BF012000205DF808FB00BF31
:100BC0004FEA410C7FEA6C5C02D150EA013C0AD149
:100BD0004FEA430C7FEA6C5C02D152EA033C02D13B
:100BE0004FF0000070474FF0010070470000000018
:100BF0004FEA410212F5001215D211D56FF4787345
:100C0000B3EB625212D94FEAC12343F0004343EAE7
:100C1000505311F0004F23FA02F018BF40427047C2
:100C20004FF00000704750EA013005D111F000404C
:100C300008BF6FF0004070474FF00000704700BFE2
:100C40004FEA4102B2F1E04324BFB3F5001CDCF1EE
:100C5000FE5C0DD901F0004C4FEAC0024CEA507026
:100C6000B2F1004F40EB830008BF20F00100704755
:100C700011F0804F21D113F13872BCBF01F0004058
:100C8000704741F480114FEA5252C2F11802C2F18A
:100C9000200C10FA0CF320FA02F018BF40F001000B
:100CA0004FEAC1234FEAD32303FA0CFC40EA0C00BD
:100CB00023FA02F34FEA4303CCE77FEA625307D1FA
:100CC00050EA01331EBF4FF0FE4040F44000704731
:100CD00001F0004040F0FE4040F40000704700BFCB
:100CE00053B94AB9002908BF00281CBF4FF0FF3193
:100CF0004FF0FF3000F074B9ADF1080C6DE904CE8F
:100D000000F006F8DDF804E0DDE9022304B07047E6
:100D10002DE9F047089E04468846002B4BD18A42B5
:100D2000154667D9B2FA82F24AB1C2F1200701FA38
:100D300002F320FA07F7954047EA030894404FEA88
:100D4000154E230CB8FBFEF71FFA85FC0EFB178827
:100D500043EA084307FB0CF1994209D9EB1807F164
:100D6000FF3080F01B81994240F21881023F2B44F2
:100D70005B1AA4B2B3FBFEF00EFB103344EA03444B
:100D800000FB0CFCA44509D92C1900F1FF3380F0BD
:100D90000781A44540F2048102382C4440EA074010
:100DA000A4EB0C0400271EB1D4400023C6E9004385
:100DB0003946BDE8F0878B4209D9002E00F0EB8060
:100DC0000027C6E9000138463946BDE8F087B3FA86
:100DD00083F7002F47D18B4202D3824200F2FA8080
:100DE000841A61EB030301209846002EE0D0C6E987
:100DF0000048DDE702B9FFDEB2FA82F2002A40F0D5
:100E00008F80491B4FEA154E1FFA85F80127B1FB69
:100E1000FEFC230C0EFB1C1143EA014308FB0CF102
:100E2000994207D9EB180CF1FF3002D2994200F237
:100E3000CD808446591AA3B2B1FBFEF00EFB10140C
:100E400043EA044408FB00F8A04507D92C1900F137
:100E5000FF3302D2A04500F2B6801846A4EB080486
:100E600040EA0C409FE7C7F1200CBB4022FA0CFE81
:100E70004EEA030E01FA07F420FA0CF521FA0CF3FE
:100E80004FEA1E482543B3FBF8F92C0C08FB193335
:100E90001FFA8EFA44EA034309FB0AF49C4202FA61
:100EA00007F200FA07F10BD91EEB030309F1FF303B
:100EB00080F087809C4240F28480A9F1020973444B
:100EC0001B1BADB2B3FBF8F008FB103345EA03443B
:100ED00000FB0AFAA24508D91EEB040400F1FF3317
:100EE0006BD2A24569D90238744440EA0940A0FB9C
:100EF0000289A4EB0A044C45C2464B4654D351D058
:100F0000002E69D0B1EB0A0564EB030404FA0CFC73
:100F1000FD40FC404CEA0505C6E90054002747E7C0
:100F2000C2F1200320FA03F7954001FA02F021FAFA
:100F300003F34FEA154E3843010CB3FBFEF71FFADB
:100F400085F80EFB173341EA034107FB08F38B4298
:100F500004FA02F407D9691807F1FF3C2FD28B423B
:100F60002DD9023F2944CB1A81B2B3FBFEF00EFB10
:100F7000103341EA034100FB08F38B4207D969189B
:100F800000F1FF3C17D28B4215D902382944C91A07
:100F900040EA07473BE73746304609E70746E7E6BA
:100FA0001846FBE64145ABD2B8EB020A69EB0E02EC
:100FB00001381346A4E76046E9E7184695E7674617
:100FC000D1E781467CE702382C4447E7ACF1020CBC
:100FD0002B442FE7384608E73746E9E600000000D3
:100FE000704700BF0000000000000000000000008B
:100FF000844641EA000313F003036DD1403A41D324
:1010000051F8043B40F8043B51F8043B40F8043BE2
:1010100051F8043B40F8043B51F8043B40F8043BD2
:1010200051F8043B40F8043B51F8043B40F8043BC2
:1010300051F8043B40F8043B51F8043B40F8043BB2
:1010400051F8043B40F8043B51F8043B40F8043BA2
:1010500051F8043B40F8043B51F8043B40F8043B92
:1010600051F8043B40F8043B51F8043B40F8043B82
:1010700051F8043B40F8043B51F8043B40F8043B72
:10108000403ABDD2303211D351F8043B40F8043B12
:1010900051F8043B40F8043B51F8043B40F8043B52
:1010A00051F8043B40F8043B103AEDD20C3205D322
:1010B00051F8043B40F8043B043AF9D2043208D01A
:1010C000D2071CBF11F8013B00F8013B01D30B888C
:1010D00003806046704700BF082A13D38B078DD06A
:1010E00010F003038AD0C3F10403D21ADB071CBF3C
:1010F00011F8013B00F8013B80D331F8023B20F8A6
:10110000023B7BE7043AD9D3013A11F8013B00F8DE
:10111000013BF9D20B7803704B7843708B78837066
:101120006046704700000000000000000000000062
:1011300090F800F06DE9024520F007016FF0000C17
:1011400010F0070491F820F040F049804FF00004BF
:101150006FF00700D1E9002391F840F000F108009A
:1011600082FA4CF2A4FA8CF283FA4CF3A2FA8CF3D2
:101170004BBBD1E9022382FA4CF200F10800A4FA39
:101180008CF283FA4CF3A2FA8CF3E3B9D1E904238D
:1011900082FA4CF200F10800A4FA8CF283FA4CF3C4
:1011A000A2FA8CF37BB9D1E9062301F1200182FA7E
:1011B0004CF200F10800A4FA8CF283FA4CF3A2FA84
:1011C0008CF3002BC6D0002A04BF04301A4612BA92
:1011D000B2FA82F2FDE8024500EBD2007047D1E995
:1011E000002304F00305C4F100004FEAC50514F024
:1011F000040F91F840F00CFA05F562EA05021CBFF5
:1012000063EA050362464FF00004A9E7000000000E
:1012100001F0FF01102A2BDB10F0070F08D010F8A7
:10122000013B013A8B422DD010F0070F42B3F6D1AB
:10123000F0B441EA012141EA014122F007047FF0C4
:1012400000070023F0E80256083C85EA010586EA1B
:10125000010685FA47F5A3FA87F586FA47F6A5FA57
:1012600087F68EB9EED1F0BC01F0FF0102F0070263
:1012700032B110F8013B013A83EA010313B1F8D10E
:101280000020704701387047002D06BF35460338EF
:10129000073815F0010F07D1013015F4807F02BF28
:1012A000013015F4C03F0130F0BC0138704700BF79
:1012B00000B5084B83B01A680192019A1B689A42E4
:1012C00005D1054803B05DF804EB07F0E1BAFFF77C
:1012D000EFFF00BF00080020E07B010800000000D5
:1012E00010B5124C82B02368019301F0D1F850B9C7
:1012F00001F0B6F8019A23689A4215D102B0BDE810
:10130000104001F04DBE01F01BFE4FF42F7008F0AD
:1013100097F801F0D5F8019A23689A4204D102B0F7
:10132000BDE8104001F024BEFFF7C2FF0008002016
:101330002DE9F0412DED028BC44C82B0236801935E
:1013400050B9C34D2B78042B3CD8DFE813F04F0085
:1013500022006500F000590001F0FAF90388962B8D
:101360003AD901F0F5F90388B3F5E17F34D201F001
:10137000EFF94388282B2FD901F0EAF94388312B64
:101380002AD8A02001F02CFAB14DB24A01231370E3
:101390002B7000F0DDFE002800F0D58000F0D8FEB4
:1013A000012800F0D08001F09BFD58B1A94D2B78A9
:1013B000002B00F04581142001F012FA2B7883F005
:1013C00001032B70019A23689A4240F03D8102B0DC
:1013D000BDEC028BBDE8F0819F4B9D4D1B6802A8C0
:1013E00040F8083D01F01CFA00232B7001F090FD3D
:1013F0000028E7D0A02001F0F3F901232B70E1E7EA
:1014000001F06EFD0028DDD000F0A2FE002840F0C3
:10141000D38002232B70D5E700F09AFE012800F05C
:10142000D88000F095FE002840F0CB8000F078FED8
:10143000B0F90230002BC5DA00F072FEB0F900708E
:1014400000F06EFEB0F9006000F06AFEB0F90280B4
:1014500000F066FE438813FB08F307FB0636082EF0
:10146000B0DD00F045FEB0F9026000F059FE7A4BA5
:10147000B0F902201B680093C6F1320696FBF2F623
:1014800007EE906AF8EEE78A00F032FEB0F900301D
:1014900007EE903AB8EEE78A00F042FEB0F900306D
:1014A00007EE903AF8EEE77AA7EEA88AFDEEC87A42
:1014B00017EE903A1BB2A3F1970292B2B2F5957F64
:1014C000ADF800303FF67EAF684601F0A9F900F0B4
:1014D0000FFEBDF90220B0F902309B1A07EE903AD8
:1014E000B8EEE78A00F004FEBDF90020B0F9003044
:1014F0009B1A00EE903AB0EE480AF8EEE00A10F0BF
:10150000FFFBDFED567A9FED567A564A20EE270A0A
:10151000C0EE077AFDEEE77A17EE903A1BB2002B89
:10152000B8BF03F5B473138003232B704AE701F0AF
:10153000EFFC00283FF446AF4A4B188801F050F901
:1015400004232B703EE700F0D3FDB0F9026001F0F8
:10155000FFF8B0F90230F61A07EE906AB8EEE78AA3
:1015600000F0C6FDB0F9006001F0F2F8B0F9023009
:10157000F31A00EE903AB0EE480AF8EEE00A10F0E6
:10158000BFFBDFED367A9FED367A20EE270AC0EEFC
:10159000077AF5EEC07AF1EE10FA03D59FED327AB4
:1015A00077EE877AFCEEE77A17EE903A98B201F080
:1015B00017F902232B7005E700F0CAFD01283FF45C
:1015C00028AF00F0C5FD02287FF4FCAE01232B708C
:1015D000F8E600F08DFDB0F9025001F0B9F8B0F96D
:1015E0000230ED1A07EE905AB8EEE78A00F080FD5F
:1015F000B0F9005001F0ACF8B0F90030EB1A00EE91
:10160000903AB0EE480AF8EEE00A10F079FBDFED10
:10161000137A9FED137A20EE270AC0EE077AF5EED3
:10162000C07AF1EE10FA44BF9FED0F7A77EE877A19
:10163000FCEEE77A17EE903A98B201F0D1F8C1E6E5
:10164000A02001F0CDF8B9E6FFF732FE0008002037
:101650000408002005080020D07B01080000344366
:10166000DB0F4940DE1400200000B44300000000FE
:101670002DE9F0432DED028BCA4D85B02B68039305
:10168000002840F0C880C84C2178B1FA81F149099E
:10169000002002F0F5FE21780120091AB1FA81F14B
:1016A000490902F0EDFE21780220091AB1FA81F110
:1016B000490902F0E5FE21780320091AB1FA81F107
:1016C000490902F0DDFE2378042B00F29A80DFE85E
:1016D00013F0B7000500F7000201AC0000F038FD80
:1016E000002840F0118100F003FDB0F90230AF4E48
:1016F000AF4FC3F57A7307EE903AB8EEE78A00F081
:10170000F7FCB0F90030C3F5967300EE903AB0EEF6
:10171000480AF8EEE00A10F0F3FADFEDA77A9FED41
:10172000A77A20EE270AC0EE077AFDEEE77A17EED9
:10173000903A1BB2002BB8BF03F5B473338000F0AE
:10174000D7FC8046B6F90000FEF72CFF41EC100BE9
:101750000FF0D6FFB8F900008DED000BFEF722FF69
:101760009DED000B80468946002251EC100B914BF9
:10177000FEF786FF02460B4640464946FEF7C4FD8B
:10178000FFF736FA388000F0B3FC8046B6F9000067
:10179000FEF708FF41EC100B10F012F8B8F9020048
:1017A0008DED000BFEF7FEFE9DED000B8046894699
:1017B000002251EC100B7F4BFEF762FF0B460246F6
:1017C00049464046FEF7A0FDFFF712FAB7F9003090
:1017D00000B2282B788040F3DF80B3F50C7F04DB68
:1017E0004FF40C725A233A803380282800F3238167
:1017F000282200237A8033806D4801F011F80223FB
:101800002370039A2B689A4240F01F8105B0BDEC0B
:10181000028BBDE8F08300214FF45C70624C01F054
:1018200057F800232370012132E701F089FB4FF4C0
:10183000617007F005FE01F09BFB01232370E0E7D8
:1018400000F086FC18B100F083FC0128D9D100F02B
:101850004FFCB0F9026000F07BFFB0F90230F61ADD
:1018600007EE906AB8EEE78A00F042FCB0F900603B
:1018700000F06EFFB0F90030F31A00EE903AB0EECF
:10188000480AF8EEE00A10F03BFADFED4B7A9FEDE4
:101890004B7A20EE270AC0EE077AF5EEC07AF1EE19
:1018A00010FA03D59FED467A77EE877AFCEEE77A59
:1018B00017EE903A98B200F093FF01232370A0E74F
:1018C00001F026FB00289CD0384B188800F088FFD8
:1018D0000323237095E701F003FB002891D000F06B
:1018E00037FC08B90423237000F032FC012869D0CA
:1018F00000F02EFC022884D100214FF45C7000F02F
:10190000E7FF002323707CE700F022FC0228F3D0DD
:1019100000F01EFC01287FF474AF00F0E9FBB0F981
:10192000024000F015FFB0F90230E41A07EE904AC9
:10193000B8EEE78A00F0DCFBB0F9004000F008FFE9
:10194000B0F90030E31A00EE903AB0EE480AF8EE33
:10195000E00A10F0D5F9DFED187A9FED187A039AB6
:101960002B6820EE270AC0EE077AF5EEC07AF1EE7A
:1019700010FA44BF9FED127A77EE877A9A4264D1CB
:10198000FCEEE77A17EE903A98B205B0BDEC028B08
:10199000BDE8F04300F024BF28225A233A80338068
:1019A00023E700BF00080020DC140020E014002022
:1019B000D81400200000544000003443DB0F49409D
:1019C0000000B44300F094FBB0F9026000F0C0FEE8
:1019D000B0F90230F61A07EE906AB8EEE78A00F026
:1019E00087FBB0F9006000F0B3FEB0F90030F31AE5
:1019F00000EE903AB0EE480AF8EEE00A10F080F9F6
:101A00005FED137A1FED137A20EE270AC0EE077AF6
:101A1000F5EEC07AF1EE10FA44BF1FED177A77EEBB
:101A2000877AFCEEE77A17EE903A98B200F0D8FE8B
:101A3000012323705CE7B0F5707FFFF6DDAE4FF455
:101A4000707200237A803380D6E6FFF731FC00BF46
:101A500030B51E4B83B01B68019308F089FF06F078
:101A6000AFFE02F0BDFD1A491A480AF0C1F902247E
:101A700003F0EEF901F04CFF02F022FB03F0E8F86E
:101A800000F07EFB01F0A4FB00F032FD01F030FB22
:101A900000F036FE07E014D3032801D1FFF720FC45
:101AA0001E2007F0CDFC01F07BFB051B18BF0125B4
:101AB00001F076FB01280446EDD12846FFF7D8FD5A
:101AC000EEE72846FFF734FCEAE700BF00080020F5
:101AD00008080020845A00200000000000000000D8
:101AE00080B5274C274AA3692749996186B003230B
:101AF0002025002116680093EF224FF42073CDE9D2
:101B000001554420059602F083F82D2002F008FBD1
:101B1000002002F055FB1D4E1D4F002002F020FB5F
:101B200001F07EFF002001F0B3FFB04601F018FF86
:101B300013E007F045FB06F06BFF07F059FF236841
:101B4000A34207D0A2699B6892689A4202D23846A3
:101B500006F09EFE002383F3118801F0D9FF01F007
:101B60003FFF85F3118807F02BFF06F031FF06F0E9
:101B7000FFFFB368002BDCDC404607F0F9FFD8E735
:101B8000604C002000080020007C0108180800209C
:101B9000207C0108000000000000000000000000A0
:101BA0002DE9F04F2B4D04782D680C7044784C7063
:101BB00087B090F87F420595002581F87F42CDE9F6
:101BC000015290F87E42DFF89080039381F87E42C4
:101BD00001F1010C00F5F06BAA4602270CF801AFE9
:101BE0001FFA87F9C6190BEB070E002316F8024CF3
:101BF00016F8012C3578B178224474782A442244AE
:101C00000A44A8FB021203EBD20306F52076DBB2EE
:101C1000B6458CF80030E9D10A2B06D8019B93B960
:101C2000029BA3F8009001230193013740F27E2329
:101C30009F42D3D1074B059A1B6801989A4206D15F
:101C400007B0BDE8F08F039BA3F80090EDE7FFF726
:101C50002FFB00BF00080020898888880000000052
:101C6000F0B51F4D0C882B6883B0092C019313D954
:101C70001C4F06192744737816F801CDA3EB0C030B
:101C800003EBD3735B1007F8013901330C8003DBDE
:101C9000013CA4B2012CEED1118840F27523994287
:101CA00015D8104C08440C4440F27F2710F8013F2F
:101CB00010F8026C9B1B03EBD3735B10012B04F831
:101CC000013B118003DC013189B2B942EED1019AA6
:101CD0002B689A4201D103B0F0BDFFF7E9FA00BFCB
:101CE00000080020F81400200000000000000000A0
:101CF0002DE9F04F2DED0A8BC94E83B03368019367
:101D00000A2807460C46A1EB000303D9B1F51D7F55
:101D100040F26E81C34A0121117007EE903ADFED67
:101D2000C2AA9FEDC27A9FEDC2AADFEDC29A9FEDD3
:101D3000C2BADFF82C83C14DF8EEE77AB6EE009A0E
:101D400067EEAA7A3C4487EE870A20EE090A0FF074
:101D5000BFFE07EE904A9FEDBA6ADFEDBA6AF8EE71
:101D6000E77AC6EE80BA87EE867A39EE479A00F0B7
:101D7000EFFCB0F9003008EE903A00F011FD07EEEC
:101D8000900AB8EEE70AF8EEE88A20EE0A0A80EE3A
:101D9000290A0FF04DFEE0EE0B8A00F001FD07EE80
:101DA000900AF8EEE77A67EE8A7A87EEA90AA9EE3A
:101DB0002A0A0FF03DFEB0EE40CA00F0C9FCB0F9AF
:101DC000023008EE103A00F0EBFC07EE900AB8EE95
:101DD000E70AB8EEC88A20EE0A0A80EE290A0FF058
:101DE00077FEA0EE0B8A00F0DBFC07EE900AF8EE1F
:101DF000E77A27EE8AAA8AEE290AA9EE2A0A0FF0C4
:101E000067FEF0EE687AEBEE8C7AB8F90030B5F93F
:101E10000070DFED8D5A9FED8D6AABEE808AFDEE8E
:101E2000E77A06EE903A17EE902AB8F90230BDEE46
:101E3000C88A12B207EE103A07EE902A18EE102A5E
:101E4000F8EEE66A12B2B8EEC77AF8EEE77A66EE16
:101E5000A56A08EE102A27EE257AE7EE866A202387
:101E6000B8EEC88AF0EE477AE8EE067ABDEEE67A7A
:101E7000FDEEE77A17EE102A14B217EE902AA8F8B2
:101E80000040A8F8022083F31188DFF8D89107F00A
:101E900097FD06F09DFDD9F828B006F0B9FD07F0D2
:101EA000A7FDD9F800204A4506D0D9F81830926825
:101EB0009B689342C0F0AA80002383F31188DFF867
:101EC000A8A1634ADAF80030DFED626AABEB030BDE
:101ED0004FF47A730BFB0333013BA2FB0323E41B98
:101EE0009B0907EE903A07EE104AF8EEE77AB8EE53
:101EF000C77AB5F90220B8F90230C7EE278A9B1AD3
:101F0000202207EE903A68EEA68AB8EEE78A82F3BE
:101F1000118807F055FD06F05BFDD9F8284006F062
:101F200077FD07F065FDD9F800304B4505D0D9F8AD
:101F300018209B6892689A4260D3002383F311882B
:101F4000DAF80030424A9FED405ADFED424ADFEDB9
:101F50003F5AB8F800102980E41A4FF47A7304FB52
:101F60000333013BA2FB03239B0907EE903AF8EEF3
:101F7000E77A394BB8F80220D3ED016A93ED007A85
:101F80006A8088EE276A202266EE856A67EE057A07
:101F900026EE246AB0EE667AA6EE257AE8EEA57AF9
:101FA00083ED017AC3ED007A82F3118807F008FD12
:101FB00006F00EFDD9F8284006F02AFD07F018FDBE
:101FC000D9F800304B4505D0D9F818209B689268A5
:101FD0009A4217D3002383F31188CAF80040019A6C
:101FE00033689A421AD103B0BDEC0A8BBDE8F08F7A
:101FF0000E2B0FDC0B4B02221A70F0E7174806F08D
:1020000047FC9AE7154806F043FCE3E7134806F05F
:102010003FFC51E7034A002111707EE6FFF748F9C3
:102020000008002014080020F90F493F0000204458
:10203000DB0F49400000344300000C42E414002050
:102040000000A04448E19541CDCC4C3FCDCC4C3E66
:10205000D34D62100000C842EC140020207C01081F
:10206000E8140020604C0020F41400200000000060
:1020700070B5194A194B926919499161ADF5227DE4
:102080001B68A19301A84FF42072002112F070FB8D
:10209000144E154C0023ADF80030ADF80230022587
:1020A000204607F02DFD01F00BFD0DF102036A46FD
:1020B00001A9FFF775FD08B93570F1E7694601A878
:1020C0000DF10202FFF7CCFDBDF80210BDF80000D3
:1020D000FFF70EFEE4E700BF604C00200008002080
:1020E000107C0108140800201808002000000000DF
:1020F00000B5074B83B01A680192019A1B689A4297
:1021000003D1044803B05DF804FBFFF7D1F800BF2A
:1021100000080020E814002000000000000000007B
:1021200000B5074B83B01A680192019A1B689A4266
:1021300003D1044803B05DF804FBFFF7B9F800BF12
:1021400000080020EC140020000000000000000047
:1021500000B5074B07491A68087883B00192019AC5
:102160001B689A4202D103B05DF804FBFFF7A0F8A8
:1021700000080020140800200000000000000000FB
:1021800030B50E4C0E4B22680E4885B000250392E8
:1021900042F278114022009507F0FAF80A4B0095B8
:1021A00040220A484FF41E7107F0F2F8039A2368A0
:1021B0009A4201D105B030BDFFF77AF8000800203F
:1021C00071200008F0190020E11A0008781700209B
:1021D0000EB410B50A4C0B4923680B4883B0019329
:1021E00006AB1A4600930EF0B3FF019A23689A4299
:1021F00004D103B0BDE8104003B07047FFF758F8B2
:1022000000080020407C0108845A002000000000E3
:102210002DE9F041104F114E3B6882B00546302247
:10222000202101936C1E12F0A3FA2F35B04601E075
:10223000AC4208D033684046DB689847C0B22D28CE
:1022400004F8010FF4D1019A3B689A4202D102B01E
:10225000BDE8F081FFF72CF800080020845A002028
:1022600030B50C4C83B02368019300F071FA0588F7
:1022700000F06EFA01992368994208D14388064913
:1022800006482A4603B0BDE83040FFF7A1BFFFF77C
:102290000FF800BF00080020407C0108845A00208D
:1022A00000B56138C3B20B4A152B83B0116898BFD3
:1022B0000948019198BFD8400199136894BF00F074
:1022C00001000020994202D103B05DF804FBFEF743
:1022D000EFFF00BF000800208D003000000000006C
:1022E0002DE9F04F474EDFF83091336885B04FF05D
:1022F0000008039399F800300093434B1B78019337
:10230000834600F1300547465C4614F801ABBAF14C
:102310002D0F1ED05046FFF7C3FFB8B123783A2BDC
:1023200023D00022AAF1610ABAF1150F0ED8DFE816
:102330000AF0490D433D0D0D0D370D0D0D0D0D0D21
:102340000D0D0D0D0D0D4F0B304B5A80AC42A346B9
:10235000DAD1002F50D1B8F1000F48D1039A336879
:102360009A4242D105B0BDE8F08F0BF10601A446B8
:1023700000221CF801EFAEF130035FFA83FBBBF1E2
:10238000090F2BD81A4492B202EB82025200614527
:1023900092B2EED11E4BA3FB023242F3CF02C1E751
:1023A000AC4207460090A346AED1D2E7194BAC42EF
:1023B0001A80A346A8D1CCE7AC4280460190A34640
:1023C000A2D1C6E7134BAC425A80A3469CD1C0E7CA
:1023D0000E4BAC421A80A34696D1BAE7BEF1200F4D
:1023E000D8D0AC42A3468FD1B3E7FEF761FF064BCE
:1023F0009DF804201A70B1E79DF8003089F800308C
:10240000A9E700BF00080020683B0020743B0020C3
:10241000CDCCCCCC6C3B0020703B002000000000F9
:1024200000B50A4A0A4B92690A491B680A4C916135
:1024300083B001932046FFF7EBFE2046FFF750FFE5
:10244000FFF70EFF322006F0FBFFF3E7604C0020A1
:1024500000080020307C0108783B002000000000CC
:1024600000B5074B83B01A680192019A1B689A4223
:1024700003D1044803B05DF804FBFEF719FF00BF69
:10248000000800206C3B002000000000000000005D
:1024900000B5074B07491A68087883B00192019A82
:1024A0001B689A4202D103B05DF804FBFEF700FFFF
:1024B00000080020703B0020000000000000000029
:1024C00000B5084B08491A6883B000200192019AB0
:1024D0001B6808709A4202D103B05DF804FBFEF756
:1024E000E7FE00BF00080020703B00200000000055
:1024F00010B50A4C0A4B22680A4884B04FF45E714A
:10250000039200220092402206F042FF039A2368C1
:102510009A4201D104B010BDFEF7CAFE00080020A7
:1025200021240008A83B002000000000000000005B
:102530002DE9F043664D674FAB69674E674A2DED55
:10254000068B85B09A613B6803933046522386F828
:10255000BF3105F0EDFF50B90121304606F018F803
:102560000121304606F0C4F85D4B01221A70DFED00
:102570005D9A9FED5D8A9FED5D9ADFED5D8AB0EE1D
:1025800069AA4FF00008AB6993F821305B072ED49D
:10259000534B1B78002B40F08180564B1B88564CC8
:1025A00007EE903AF8EEE77A237867EE897AE8EE5C
:1025B000287AB0EE678A002B6BD0DFF8409199F84B
:1025C0000030042B0BD8DFE803F03C284A1B030043
:1025D000F4EEE79AF1EE10FA68DDF0EE489A052085
:1025E00006F02EFFAB6993F821305B07D0D5039A34
:1025F0003B689A426AD105B0BDEC068BBDE8F0831A
:1026000000F06EFC0028EAD00423052089F8003091
:10261000F0EE4A9A06F014FFE4E700F061FC0028AF
:10262000DDD0142002F09CFA6FF0130002F080FA63
:102630000223052089F80030F0EE4A9A06F000FFE8
:10264000D0E700F065FC0028C9D0A02000F0C8F851
:102650000123052089F8003006F0F2FEC2E7F4EE0F
:10266000E79AF1EE10FAB8DCB9D5FDEEE97AB420BC
:10267000CDED017ABDF9048000F0FAFC4FF48770CB
:1026800000F0AEF80323052089F8003006F0D8FEEC
:10269000A8E74FF4FA7006F0D3FE74E70E4806F090
:1026A00047F8144AB6F85830138078E797D5FDEE0E
:1026B000E97A4046CDED017ABDF9041000F0F8FC4E
:1026C00000230520237006F0BBFE8BE7FEF7F0FD2C
:1026D000604C002000080020243F0020507C0108AE
:1026E000203F00200050C347000000000AD7233CD1
:1026F000A4707D3FE4400020213F0020223F0020C5
:1027000030B50C4B0C4C1D78236885B003934DB944
:1027100001F0DEFD0095094B09484A224FF45E7135
:1027200006F036FE039A23689A4201D105B030BD07
:10273000FEF7BEFD203F00200008002031250008E4
:10274000E840002000000000000000000000000041
:1027500000B50E4A0E4B92ED007AD2ED017A19685F
:102760000C4883B0BDEEC77A0191FDEEE77A17EE13
:10277000101A019A1B68018017EE901A9A42418044
:1027800002D103B05DF804FBFEF792FD280800209B
:102790000008002068440020000000000000000045
:1027A00000B50A4B0A491A68D1ED007A83B001924C
:1027B000019A1B689A4207D1FDEEE77A17EE901A4C
:1027C00008B203B05DF804FBFEF772FD00080020BC
:1027D0006444002000000000000000000000000031
:1027E00010B50B4B0B4C1A680B4982B007EE900AE0
:1027F0000192019A1B68F8EE677A00209A422070D5
:10280000C1ED007A01D102B010BDFEF751FD00BF4D
:102810000008002024080020604400200000000080
:1028200030B5B0F90020214B214D93ED007AD3ED66
:10283000017A20492B6800EE902AB0F9022000EEC0
:10284000102A83B0F8EEE00AB8EEC00A1A4A0193E3
:1028500070EEC70A002330EE670A04460B7013704F
:102860000FF04EFA9FED157ADFED156AB4F90030DE
:1028700001992A68134820EE070A07EE903A80EE85
:10288000267A114B9142F8EEE77A80ED007AC3ED9B
:10289000007AB4F9024007EE904AF8EEE77AC3ED09
:1028A000017A01D103B030BDFEF702FD28080020F7
:1028B00000080020240800203008002000003443D5
:1028C000DB0F4940604400206C4400200000000001
:1028D00070B5124C124D2368124A82B046420193E1
:1028E00001232B70137071B90546304602F020F9B0
:1028F000019A23689A4208BF28460CD102B0BDE86D
:10290000704002F02DB902F013F9019A23689A423F
:1029100008BF3046F2D0FEF7CBFC00BF0008002015
:102920002408002030080020000000000000000003
:10293000F0B52DED068BDFED368A364D70EE287A38
:1029400085B02B68039317EE900AB0EE609A30EED4
:10295000608AFDF739FE9FED2C1B41EC100B41EC1A
:102960001A0B0FF005F979EE287A57EC106B17EE79
:10297000900AFDF729FE9FED241B41EC100B41EC62
:10298000190B0FF0F5F8FDEEC87A53EC102B17EE8B
:10299000904A3046002C3946B8BF6442FDF7B4FC7B
:1029A000FEF726F90028B8BF404284421DDBB0EE96
:1029B0004A0AF0EE6A0A9FED141B0FF0D9F851ECA9
:1029C000100BB0EE490AF0EE690A9FED0F1BCDE93E
:1029D00000010FF0CDF8DDE9000153EC102BFDF7FD
:1029E00093FCFEF72DF908EE100A039A2B689A4221
:1029F000B0EE480A03D105B0BDEC068BF0BDFEF782
:102A000057FC00BFAFF3008000000000008076405C
:102A10000000344300080020000000000000000017
:102A200070B52DED028B404E90ED007AD0ED017A1D
:102A3000D1ED000A91ED010A336882B070EEC70A49
:102A400030EE670A04460D4601930FF059F9DFEDA9
:102A5000377A9FED377A374B20EE270A93ED008ABD
:102A6000C0EE078AB0EE480AF0EE680AFFF760FF92
:102A7000DFED317AB4EEE70AF1EE10FA0CD5F0EEA4
:102A8000680AB0EE480AFFF753FFDFED2C7AB4EE88
:102A9000E70AF1EE10FA27DC94ED016AD5ED017A30
:102AA000D4ED006A95ED007A77EEC67A37EE667A55
:102AB00067EEA77AE7EE077A17EE900AFDF784FD36
:102AC00041EC100B0FF0BCF851EC100BFEF7B8F80E
:102AD00080F00040019A33689A4200EE100A20D13B
:102AE00002B0BDEC028B70BD94ED016AD5ED017AA8
:102AF000D4ED006A95ED007A77EEC67A37EE667A05
:102B000067EEA77AE7EE077A17EE900AFDF75CFD0D
:102B100041EC100B0FF094F851EC100BFEF790F80D
:102B2000D8E7FEF7C5FB00BF0008002000003443D3
:102B3000DB0F4940644400200000B4420000B4C2EE
:102B40002DE9F04F2DED0A8BD14AD24B9269D24933
:102B50001B68916185B000200393002402F048F8BF
:102B6000002002F05DF8CD4ECD4DCE4FDFF86C83E6
:102B7000DFF858A39FEDCC8ADFEDCC9A9FEDCC9A7D
:102B8000DFEDCC8ADFEDCCAA9FEDCCAAA3461CE0FA
:102B9000F4EECA7AF1EE10FAC8BF77EECA7AC6ED43
:102BA000007A01F0F5FF834602F00AF897F80090EA
:102BB0000446B9F1000F5FD098F80090B9F1000F0A
:102BC00000F08780142006F03BFC01F0E1FF814615
:102BD00001F0F6FFA9EB0B0B041B4FFA8BFB64B261
:102BE0000BEB040307EE903AD6ED00BAF8EEE77A65
:102BF0002BEE887A67EE887AC7EE28CAA4EB0B041E
:102C000067EEA97AB0EE6C0A87EE89BA0EF010FF73
:102C100095ED007A2BEE000AB6EE00CAA0EE0C7A13
:102C2000B0EE6C0A85ED007A0EF052FF07EE904A86
:102C3000F8EEE77A2BEE000A67EE887A95ED017AD6
:102C400067EEA97AA0EE0C7A87EE890A85ED017A03
:102C500080EE2A0A0EF014FE20EE280AC0EE087A52
:102C600077EEAB7AF5EEC07AF1EE10FA90D577EE0A
:102C70008A7AC6ED007A94E7914B96ED000AD3ED7F
:102C8000000AFFF755FEFDEEC07A9FED8E7A17EE33
:102C9000903A002BB8BF5B4207EE903AF8EEE77A25
:102CA000F4EEC77AF1EE10FA67D4B5EEC00AF1EE91
:102CB00010FA6BDDB1EE047AB4EEC70AF1EE10FA49
:102CC00073DD4FF4C87001F033FF7F4801F048FF17
:102CD00078E77E497248FFF7A3FEFDEEC07AB0EEBA
:102CE00040BA17EE902A0132022A09D8012248463A
:102CF00088F8002001F01CFF484601F031FF61E731
:102D000095ED007AD5ED017ADAED000A9AED010A27
:102D1000D6ED00BA70EEC70A30EE670A0EF0F0FF8B
:102D200060EE280AB0EE6B0AC0EE880AFFF700FEDC
:102D3000B5EEC0BAF1EE10FAF0EE40BA63DDB1EED6
:102D4000047AB4EEC7BAF1EE10FA7ADD9FED60BAFC
:102D5000B2EE04CAF0EE4B7AE0EE0C7AFDEEE77AC2
:102D600017EE900A01F0E4FEABEECCBAFDEECB7AA2
:102D700017EE900A01F0F4FE24E7012248463A706B
:102D800001F0D6FE484601F0EBFE1BE7F9EE047AAF
:102D9000B4EEE70AF1EE10FA1DD54B4801F0C8FE7B
:102DA0004FF4C87001F0DCFE0CE7C0EE076ADFEDFF
:102DB000497A66EEA77A67EEA67AFDEEE77A17EE15
:102DC000903A0FFA83F9484601F0B2FEC9F10000CB
:102DD00001F0C6FEF6E6F1EE047A80EE277ADFED2A
:102DE0003D7A67EE277A67EE877AFDEEE77A17EE8F
:102DF000903A0FFA83F9C9F1000001F099FE4846B4
:102E000001F0AEFEDEE6F9EE047AB4EEE7BAF1EEDA
:102E100010FA2CD59FED30BAB2EE04CAF0EE4B7A20
:102E2000E0EE4C7AFDEEE77A17EE900A01F080FEB4
:102E3000ABEE8CBAFDEECB7A17EE900A01F090FE65
:102E4000C0E6CBEE076ADFED227A66EEA77A67EE80
:102E5000A67AFDEEE77A17EE903A1BB21846019378
:102E600001F066FE019B184601F07AFEAAE6F1EE3B
:102E7000047A8BEE277ADFED167A67EE277A67EE13
:102E8000877AFDEEE77A17EE903A1BB25B42E5E7F0
:102E9000604C002000080020607C01086444002091
:102EA0002808002024080020DB0F494000002442AD
:102EB00000007A4400003443000054420000B44350
:102EC00060440020CDCCCC3D70FEFFFF6C44002060
:102ED00000005C440000C84300005CC430080020CF
:102EE00000B5074B07491A68087883B00192019A28
:102EF0001B689A4202D103B05DF804FBFEF7D8F9D3
:102F0000000800202408002000000000000000004D
:102F100000B5074B07491A68087883B00192019AF7
:102F20001B689A4202D103B05DF804FBFEF7C0F9BA
:102F30000008002030080020000000000000000011
:102F400010B50A4C82B02368019340F24C4001F066
:102F5000EFFD019A23689A4206D140F24C4002B03C
:102F6000BDE8104001F0FCBDFEF7A2F9000800200A
:102F700010B5094C82B023680193002001F0D8FD00
:102F8000019A23689A4205D1002002B0BDE81040A2
:102F900001F0E6BDFEF78CF90008002000000000FB
:102FA0002DE9F0472DED028B0646DFF8B4A000783E
:102FB000DAF8003082B0C0000193FDF7F3FA7388AD
:102FC000DFED256A9FED257A07EE903AF8EEE77A75
:102FD000044667EEA67A0D46C7EE877A17EE900A8A
:102FE000FDF7F2FA41EC100B41EC180B0EF088FBE8
:102FF00057EC106BB0EE480AF0EE680A0EF0E0FBFA
:1030000059EC108B10EE102A4B4630463946FDF72E
:103010007DF922462B46FDF733FBFDF7E9FD01F074
:1030200087FD019ADAF800309A4212D142464B46A7
:1030300030463946FDF768F922462B46FDF720FB5E
:10304000FDF7D6FD02B0BDEC028BBDE8F04701F004
:1030500087BDFEF72DF900BFDB0F49400000344368
:103060000008002000000000000000000000000038
:1030700000B50A4B0A491A6883B007EE900A01921C
:10308000019A1B68F8EE677A9A42C1ED007A02D184
:1030900003B05DF804FBFEF70BF900BF0008002049
:1030A0006444002000000000000000000000000058
:1030B00010B50C4A0C4B146882B007EE900A0194CC
:1030C000B8EEE77A07EE901A019C126883ED007A59
:1030D000F8EEE77A9442C3ED017A01D102B010BD57
:1030E000FEF7E6F800080020280800200000000095
:1030F00010B50A4C0A4B22680A4884B04FF41E717E
:10310000039200220092412206F042F9039A2368BA
:103110009A4201D104B010BDFEF7CAF800080020A1
:10312000412B00087844002000000000000000004F
:10313000F0B5144A144B926914491B68144C916100
:1031400083B0032701930226012508E0022AA0F19B
:10315000060010D825704FF4FA7006F071F901F0EE
:10316000EFFDC0B2C31E022BA0F10B024FF0000313
:10317000ECD82370EFE704288CBF3B46334623701E
:10318000E9E700BF604C002000080020707C0108C7
:1031900031080020000000000000000000000000D6
:1031A00000B5074B07491A68087883B00192019A65
:1031B0001B689A4202D103B05DF804FBFEF778F871
:1031C000000800203108002000000000000000007E
:1031D00010B50A4C0A4B22680A4884B04FF4FC71BF
:1031E0000392002200923F2206F0D2F8039A23684D
:1031F0009A4201D104B010BDFEF75AF80008002031
:1032000031310008F04600200000000000000000FE
:1032100030B5104D81682B680F4A83B001930B685D
:1032200023F001030B608168946A03E0936A1B1B1F
:10323000C72B09D8086810F00100F7D1019A2B6854
:103240009A4204D103B030BD4FF0FF30F6E7FEF7ED
:103250002FF800BF00080020604C00200000000094
:1032600030B5184D83B02B68019311F00C0F044654
:103270000AD00378032B13D00622636822709A6861
:103280001AB100212046904763685B688BB10199B1
:103290002A68914213D1204603B0BDE83040184758
:1032A000FFF7B6FF0622636822709A68002AE8D109
:1032B000EBE7019A2B689A4201D103B030BDFDF7CC
:1032C000F7FF00BF00080020000000000000000021
:1032D000F0B5284D83B02B68019306F039FB05F05B
:1032E000F7FB254B1E69F20715D55A69234C42F0AE
:1032F00001025A612778BB1F012B2AD90522636876
:1033000022701B680BB120469847042F27D0022F4C
:1033100025D003232370B30710D5174A174C5369E0
:1033200043F0020353612378032B1DD063689B682D
:103330000622227013B101211048984705F0F0FBD6
:10334000019A2B689A4213D103B0BDE8F04007F010
:10335000CFBA019A2B689A420AD103B0F0BD02237A
:103360002370B307EAD5D8E72046FFF751FFDDE722
:10337000FDF79EFF0008002000000550E8480020EF
:1033800030B50B4D0B4C2B6883B02046019300F0F9
:103390002FF9019A2B680848084D094921619A4282
:1033A000C4E9025001D103B030BDFDF781FF00BF79
:1033B00000080020E84800201C8801080000055093
:1033C000165502020000000000000000000000008E
:1033D0002DE9F0412F4C0578266882B0012D019629
:1033E00006D0019A23689A4252D102B0BDE8F0811A
:1033F000294DA842F5D10E4690461F46274AE86857
:103400002B460C210AF05CF8002839D1D5E90232AC
:10341000126828339360EB681A68042151611B68B5
:10342000C3F80C80EB681A6817611B68B6085E6009
:103430002B694FB343F480232B61E968184A09686C
:103440000B60EB6819680B6843F001030B60536B6A
:1034500043F0010353630B214E2009F011FDD5E920
:103460000113DA6842F00102DA60DA6842F002021F
:10347000DA60CA6822F4804222F001021A60B0E7E2
:10348000084805F005FAC1E723F480232B61D4E74F
:10349000FDF70EFF00080020E84800206132000818
:1034A00000380240807C010800000000000000009D
:1034B00030B5184C0378226883B0022B019205D0F6
:1034C000019A23689A4223D103B030BD124B98422F
:1034D0000546F5D18168114A0B6823F4804323F037
:1034E00001030B608168CB6823F00F03CB60536B43
:1034F00023F0010353634E2009F0EAFC019A23688C
:103500009A4205D1E86803B0BDE830400AF040B8FF
:10351000FDF7CEFE00080020E848002000380240F9
:1035200000B50F4B0278196883B0022A01910ED1C1
:1035300081680A6842F002020A6081680A6842F4FF
:1035400080420A6081680A6842F001020A60019ABA
:103550001B689A4202D103B05DF804FBFDF7A8FE98
:103560000008002000000000000000000000000033
:1035700000B50F4B0278196883B0022A01910ED171
:1035800081680A6822F002020A6081680A6842F4CF
:1035900080420A6081680A6842F001020A60019A6A
:1035A0001B689A4202D103B05DF804FBFDF780FE70
:1035B00000080020000000000000000000000000E3
:1035C00000B5074B83B01A680192019A1B689A42B2
:1035D00004D103B05DF804EBFFF7D2BEFDF768FE3F
:1035E00000080020000000000000000000000000B3
:1035F00000B5084B83B01A68019201220270019A4B
:103600001B6800219A42416002D103B05DF804FBBF
:10361000FDF74EFE00080020000000000000000042
:103620002DE9F043254D83B02C680194DDF82890F6
:103630000F4616469846044618B111B1204B9A42DF
:103640002FD9204805F024F9202383F3118806F0B0
:10365000B7F905F0BDF92378012B02D0194805F020
:1036600017F94246314620464B466760FFF7B0FEE9
:103670000223237005F0CCF906F0BAF9124B1A6850
:103680009A4204D0996993688A689A420FD30023BA
:1036900083F31188019A2B689A420CD103B0BDE8DC
:1036A000F0839307CDD1B8F1000FCDD1C9E707481A
:1036B00005F0EEF8EBE7FDF7FBFD00BF000800208A
:1036C000FCFF0300B07C0108604C0020A07C0108D6
:1036D00030B51C4D83B02B680193044658B32023AA
:1036E00083F3118806F06CF905F072F92378022B48
:1036F00002D0154805F0CCF82046FFF7D9FE01238B
:10370000237005F085F906F073F9104B1A689A4298
:1037100004D0996993688A689A4208D3002383F396
:103720001188019A2B689A4209D103B030BD08482C
:1037300005F0AEF8F2E7044805F0AAF8CFE7FDF788
:10374000B7FD00BF00080020C07C0108604C0020CD
:10375000A07C010800000000000000000000000044
:1037600030B51C4D83B02B680193044658B3202319
:1037700083F3118806F024F905F02AF92378022B47
:1037800002D0154805F084F82046FFF7C9FE04234F
:10379000237005F03DF906F02BF9104B1A689A4298
:1037A00004D0996993688A689A4208D3002383F306
:1037B0001188019A2B689A4209D103B030BD08489C
:1037C00005F066F8F2E7044805F062F8CFE7FDF788
:1037D0006FFD00BF00080020D07C0108604C002075
:1037E000A07C0108000000000000000000000000B4
:1037F00030B51C4D83B02B680193044658B3202389
:1038000083F3118806F0DCF805F0E2F82378022B48
:1038100002D0154805F03CF82046FFF7A9FE032327
:10382000237005F0F5F806F0E3F8104B1A689A4299
:1038300004D0996993688A689A4208D3002383F375
:103840001188019A2B689A4209D103B030BD08480B
:1038500005F01EF8F2E7044805F01AF8CFE7FDF787
:1038600027FD00BF00080020F07C0108604C00200C
:10387000A07C010800000000000000000000000023
:1038800000B5064B83B01A680192019A1B689A42F0
:1038900002D103B05DF804FBFDF70AFD000800202B
:1038A00000B5064B83B01A680192019A1B689A42D0
:1038B00002D103B05DF804FBFDF7FAFC000800201C
:1038C00010B5104C104B226882B0019201221A7080
:1038D000202383F3118806F0A3F805F0B9F80B480C
:1038E00006F0A6FB05F0D4F806F0B2F8002383F347
:1038F0001188019A23689A4201D102B010BDFDF7E8
:10390000D7FC00BF00080020084900203408002030
:1039100030B50E4D0E4C2B6883B00193FFF750FE6F
:10392000206808B110F05CFC4FF4964010F050FC99
:1039300001992A682060B0FA80F35B099142C3F1D3
:10394000000001D103B030BDFDF7B2FC000800203B
:1039500000490020000000000000000000000000FE
:1039600030B5174D174C2B78226885B0012B039288
:1039700020D000F055FC144B1B78ABB9B0F5964F36
:1039800015D8124A124B12681B681249009202465F
:103990001148FFF745FE01232B700020039A23688E
:1039A0009A420BD105B030BDB0F5165FE9D94FF0A2
:1039B000FF30F3E70848FFF78BFEDAE7FDF778FC06
:1039C000FD48002000080020FE4800200449002097
:1039D00000490020007D0108E848002000000000A8
:1039E00010B50B4C0B48236882B0019306F0E8F940
:1039F000094806F08DFB019A23689A4205D10548D3
:103A000002B0BDE8104006F013BAFDF751FC00BF4C
:103A1000000800203C0800203408002000000000BE
:103A200030B5154D154C164B2268286883B00192AD
:103A300001221A7008B110F0D3FB4FF4165010F0A9
:103A4000C7FB286098B10F4D286808B110F0C8FB7B
:103A50004FF4165010F0BCFBB0FA80F35B092860FD
:103A60005842019A23689A4204D103B030BD4FF006
:103A7000FF30F6E7FDF71CFC00490020000800209D
:103A8000FE48002004490020000000000000000063
:103A900000B5074B07491A68087083B00192019A74
:103AA0001B689A4202D103B05DF804FBFDF700FCED
:103AB00000080020FC48002000000000000000007A
:103AC00000B50D4A0D4B1278196883B0019142B1CF
:103AD0000B4AD26812681268120302D4094A1068AD
:103AE00001E0094A1068019A1B689A4202D103B0AA
:103AF0005DF804FBFDF7DCFBFE4800200008002019
:103B0000E84800200449002000490020000000008F
:103B100000B50E4A0E4B1278196883B001914AB174
:103B2000019A1B689A420FD10A4803B05DF804EB72
:103B3000FFF75EBE019A1B689A4205D1054803B0A3
:103B40005DF804EBFFF70CBEFDF7B2FBFC4800206C
:103B500000080020E84800200000000000000000ED
:103B600070B5274D82B02B680193064601220321D0
:103B70006E2000F035FC044630B1019A2B689A4261
:103B800020463AD102B070BD32464E216E2000F080
:103B900027FC04460028F0D1442E07D00246B72166
:103BA0006E2000F01DFCB8B10446E6E70122B72103
:103BB0006E2000F015FC0028F6D1224603216E206D
:103BC00000F00EFC0028EFD1032211216E2000F03E
:103BD00007FC78B10446D0E7224603216E2000F0AE
:103BE000FFFB0028E0D10A2211216E2000F0F8FB33
:103BF0000028D9D1034B1E71BFE7FDF759FB00BF69
:103C0000000800200C490020000000000000000017
:103C10002DE9F04F8FB0DFF80084DDF860C0D8F8F0
:103C200000400D940CF1FF355C1EB3F5207F9DF82C
:103C300064909DF868B00C44154400F21282BCF503
:103C4000F07F00F20E82B1F5207F0E4600F2128264
:103C5000B2F5F07F174600F21082A14280F0048294
:103C6000B4F5207F00F20082AA4280F00082B5F510
:103C7000F07F00F2FC81B9F1400F824600F0B08184
:103C8000B9F1800F23D0B9F1200F00F09C810023FF
:103C9000CDE90033BBF1400F2FD0BBF1800F00F016
:103CA000CB81BBF1200F00F0B9810023CDE90233B5
:103CB000002203216E2000F093FBA0B30D9AD8F8E8
:103CC00000309A4240F0E2810FB0BDE8F08F9A07D1
:103CD00040F0D681CC4A8C085900661CA2FB010139
:103CE000A2FB030204EB930406EBD2030093BBF1A7
:103CF000400F06EBD1030193CFD11CF0010F40F030
:103D0000C281C14B7D084FEA4C026F1CA3FB02121B
:103D1000A3FB0C1307EB9303029307EB920305EB52
:103D20005C050393C4E702465B216E2000F058FB5C
:103D30000028C3D15046FFF713FF0028BED102462A
:103D400003216E2000F04CFB0028B7D1C6F30723F7
:103D50001A4608216E20049300F042FB0028ADD1E2
:103D6000F3B21A4609216E20059300F039FB0028B2
:103D7000A4D1C7F307231A460A216E20069300F048
:103D80002FFB00289AD1FBB21A460B216E20079315
:103D900000F026FB002891D1C4F307231A460C211A
:103DA0006E20089300F01CFB002887D1E3B21A466E
:103DB0000D216E20099300F013FB00287FF47EAFE5
:103DC000C5F307231A460E216E200A9300F008FB64
:103DD00000287FF473AFEBB21A460F216E200B93CD
:103DE00000F0FEFA00287FF469AF049A35216E20B6
:103DF00000F0F6FA00287FF461AF059A36216E20B4
:103E000000F0EEFA00287FF459AF089A37216E20AF
:103E100000F0E6FA00287FF451AF099A38216E20AD
:103E200000F0DEFA00287FF449AF069A39216E20AF
:103E300000F0D6FA00287FF441AF079A3A216E20AD
:103E400000F0CEFA00287FF439AF0A9A3B216E20A9
:103E500000F0C6FA00287FF431AF0B9A3C216E20A7
:103E600000F0BEFA00287FF429AF009B3D21C3F388
:103E700007226E2000F0B4FA00287FF41FAF9DF8EF
:103E800000203E216E2000F0ABFA00287FF416AF30
:103E9000019B3F21C3F307226E2000F0A1FA002806
:103EA0007FF40CAF9DF8042040216E2000F098FABA
:103EB00000287FF403AF029B4121C3F307226E2049
:103EC00000F08EFA00287FF4F9AE9DF80820422118
:103ED0006E2000F085FA00287FF4F0AE039B4321AA
:103EE000C3F307226E2000F07BFA00287FF4E6AED1
:103EF0009DF80C2044216E2000F072FA00287FF417
:103F0000DDAE012203216E2000F06AFA00287FF462
:103F1000D5AE4A4693216E2000F062FA00287FF465
:103F2000CDAE5A4694216E2000F05AFA00287FF454
:103F3000C5AE012203216E2000F052FA00287FF462
:103F4000BDAE0134A31B07EE103ADFED307AB8EEB8
:103F5000477ABAF1440F77EEC77A00F09980B0EE55
:103F6000006AF2EE006AE7EE066A77EEA77AB0EE34
:103F7000667A67EE877ADFED266A87EEA67AFCEE30
:103F8000C77ACDED007A009B9521C3F307226E20FE
:103F900000F026FA00287FF491AE9DF800209621CB
:103FA0006E2000F01DFA00287FF488AE194B013511
:103FB000EF1BA41B5F801C8083F804A083F805908E
:103FC00083F806B07AE610495A00A1FB030306EB1A
:103FD0005303A1FB0212009306EB5203019359E62F
:103FE000D9074DD4084A74085900661CA2FB010188
:103FF000A2FB030204EB530406EB9203009306EBCF
:104000009103019346E600BFABAAAAAA000022448E
:104010000000A3440C49002000080020244A4FEA75
:104020004C03A2FB0C1CA2FB032307EB530307EB7F
:104030005C02029203933BE61CF0030F23D11C4B5E
:10404000BD084FEA4C026F1CA3FB0212A3FB0C132A
:1040500007EBD303029307EBD20305EB9C05039315
:1040600026E66FF0070029E66FF0030026E66FF002
:10407000040023E66FF0010020E66FF002001DE669
:104080006FF005001AE66FF0060017E6FDF710F96D
:10409000F2EE006A37EE267ADFED066A67EE277ADF
:1040A00087EEA67AFCEEC77ACDED007A6BE700BF0B
:1040B000ABAAAAAA000024440000000000000000EF
:1040C00010B5114C86B02368059300F001F90F4933
:1040D0000F4807F025F8012200210D4807F0B8F835
:1040E00020237822CDE901330092A023B422F021CD
:1040F0000220FFF78DFD059A23689A4201D106B090
:1041000010BDFDF7D5F800BF00080020107D0108A4
:10411000685A0020000000000000000000000000BD
:1041200030B50E4C83B0236801930122054603216C
:104130006E2000F055F9019A236818B19A420BD10C
:1041400003B030BD9A4207D12A469D216E2003B0AC
:10415000BDE8304000F044B9FDF7AAF8000800209F
:1041600030B5164C83B02368019305460023022224
:1041700003216E208DF8033000F032F928B1019A46
:1041800023689A4218D103B030BD0DF10302042117
:104190006E2000F0D5F80028F1D19DF80320012D04
:1041A0000CBF02F0FB0242F0040204216E208DF8E5
:1041B000032000F015F9E2E7FDF77AF80008002087
:1041C00030B5164C83B023680193054600230222C4
:1041D00003216E208DF8033000F002F928B1019A16
:1041E00023689A4218D103B030BD0DF103020421B7
:1041F0006E2000F0A5F80028F1D19DF80320012DD4
:104200000CBF02F0FC0242F0030204216E208DF884
:10421000032000F0E5F8E2E7FDF74AF80008002087
:1042200010B50A4B0A4A1988146858881B7982B05D
:10423000442B019400FB01F00199136818BF400062
:10424000994201D102B010BDFDF732F80C490020AF
:104250000008002000000000000000000000000036
:1042600070B5164E16483368154D82B005224FF4CE
:10427000807101930AF0D4FD20246B6983F480736C
:104280006B61012005F0DCF8631E13F0FF04F4D12C
:104290004FF4807140F20622298309480AF0C0FDDC
:1042A000019A33689A4206D10649074802B0BDE830
:1042B000704006F07DBDFCF7FBFF00BF000800204A
:1042C00000040240507D0108E0560020000000007C
:1042D00000B50C4A0C4B1278196883B0012A019181
:1042E000019A1B6804D09A4209D103B05DF804FB1F
:1042F0009A4204D103B05DF804EBFFF7B1BFFCF7BD
:10430000D7FF00BFE056002000080020000000009A
:1043100000B5084B83B01A680192019A1B689A4253
:1043200005D1054803B05DF804EB06F089BDFCF744
:10433000BFFF00BF00080020E05600200000000082
:104340002DE9F041224C234E88B0002335688DF8CA
:104350001830804620468DF814101746079506F051
:104360003FFE2378012B0CD00420012306AACDE9BF
:1043700001300092414605AA204606F0C1FD0546DF
:1043800068B9134806F04CFE9DF818303B700020C9
:10439000079A33689A4218D108B0BDE8F0812046E8
:1043A00006F096FD23780C4A052B106004D00848CF
:1043B00006F036FE68B2EBE7204606F041FD2378B2
:1043C000012BF4D1FFF74CFFF1E7FCF771FF00BFC1
:1043D000E0560020000800201449002000000000E2
:1043E000F0B5214C214E89B033680793074600256C
:1043F00020468DF818108DF819208DF8145006F00D
:10440000EFFD2378012B0CD0042205AB019502921D
:1044100000933946022306AA204606F071FD0546A0
:1044200048B9114806F0FCFD0020079A33689A420B
:1044300017D109B0F0BD204606F04AFD23780C4A9A
:10444000052B106004D0084806F0EAFD68B2ECE7DE
:10445000204606F0F5FC2378012BF4D1FFF700FF8E
:10446000F1E7FCF725FF00BFE05600200008002020
:1044700014490020000000000000000000000000BF
:1044800070B5294D82B02B6801930E46032841D8A0
:10449000DFE800F01A120A02012922D9234A5369DF
:1044A00083F40063536116E0012926D91F4A53693A
:1044B00083F4806353610EE0012918D91B4A5369C4
:1044C00083F04003536106E001291CD9174A536960
:1044D00083F020035361019A2B689A4218D102B0ED
:1044E00070BD124B4FF4006229B15A83F3E70F4BB2
:1044F00040220029F9D11A83EDE70C4B4FF480627A
:104500000029F8D0F1E7094B20220029F3D0ECE78D
:10451000FCF7CEFE0024E0B231460134FFF7B0FFD5
:10452000042CF8D1D7E700BF00080020000C02409F
:104530002DE9F043254E83B034680194042A9DF898
:104540002890144605460F46984639D9B9F1000F10
:1045500014BF00224FF08052640002EB0863013C5C
:104560001C4405F00F0527F01F07202383F3118853
:1045700005F026FA3D4304F02BFA154B1035DD60AB
:104580001C6104F045FA05F033FA124B1A689A429E
:1045900004D0996993688A689A420DD3002383F303
:1045A0001188BFF36F8FBFF34F8F019A33689A4220
:1045B0000AD103B0BDE8F083074804F069F9EDE7DC
:1045C000064804F065F9C1E7FCF772FE0008002018
:1045D00090ED00E0604C0020E07D0108C07D010806
:1045E00030B5224D224C2B68224A85B00393636874
:1045F00043F004036360536A43F48033536220231F
:1046000083F3118805F0DCF904F0E2F917221A4B64
:10461000E260236104F0FCF905F0EAF9174B1A682F
:104620009A4204D0996993688A689A4218D3002004
:1046300080F31188BFF36F8FBFF34F8F03231D22C9
:1046400000904FF00051FFF773FF094A536843F0A1
:1046500001035360039A2B689A4205D105B030BD1F
:10466000074804F015F9E2E7FCF722FE00080020F5
:1046700090ED00E000ED00E009000010604C00202B
:10468000E07D0108000000000000000000000000C4
:1046900070B51A4D1A4C1B4E0FCD0FC49EB02A6830
:1046A000336822801D93EFF30981682203A8FCF789
:1046B0009FFC154B9D6AAA0714D4EB0708D5124B33
:1046C00008995B6B114A00910D48802110F0A0F809
:1046D0001D9A33689A420FD109481EB0BDE8704058
:1046E00004F0D6B8099A5B6B0092A4F11000084A56
:1046F000802110F08DF8E0E7FCF7DAFDA47D0108D9
:10470000184900200008002000ED00E0807D01082D
:10471000607D0108000000000000000000000000B3
:1047200000B51F4B0278196883B00191E2B11D4AB0
:104730004FF4005111834278EAB11A4A4FF4805184
:1047400011838278F2B1174A4FF480411183C27805
:10475000FAB9144A4FF400415183019A1B689A42F6
:104760001CD103B05DF804FB0E4A4FF40051518395
:104770004278002AE1D10B4A4FF48051518382786C
:10478000002AE0D1074A4FF480415183C278002AC1
:10479000DFD0044A4FF400411183DEE7FCF788FDC7
:1047A000000800200010024000000000000000008F
:1047B00000B51F4B0278196883B00191E2B11D4A20
:1047C0004FF4007111834278EAB11A4A4FF48071B4
:1047D00011838278F2B1174A4FF400611183C278D5
:1047E000FAB9144A4FF480615183019A1B689A42C6
:1047F0001CD103B05DF804FB0E4A4FF400715183E5
:104800004278002AE1D10B4A4FF4807151838278BB
:10481000002AE0D1074A4FF400615183C278002A90
:10482000DFD0044A4FF480611183DEE7FCF740FDDE
:1048300000080020001002400000000000000000FE
:1048400030B50C4A0C4B116883B04FF40055019100
:104850004FF480544FF400414FF480405D835C83FB
:104860005883598301991368994201D103B030BD2F
:10487000FCF71EFD000800200010024000000000B0
:1048800030B50C4A0C4B116883B04FF400750191A0
:104890004FF480744FF480614FF400605D835C835B
:1048A0005883598301991368994201D103B030BDEF
:1048B000FCF7FEFC00080020001002400000000091
:1048C00010B50B4C0B48236882B09922002101934C
:1048D00006F0BEFC019A23689A4206D105480021E1
:1048E00002B0BDE8104006F09BBDFCF7E1FC00BF44
:1048F00000080020305A00200000000000000000E6
:1049000010B50B4C0B48236882B09922002101930B
:1049100006F09EFC019A23689A4206D105480021C0
:1049200002B0BDE8104006F07BBDFCF7C1FC00BF43
:10493000000800204C5A0020000000000000000089
:1049400000B5084B83B01A680192019A1B689A421D
:1049500006D10548002103B05DF804EB06F0C8BCA1
:10496000FCF7A6FC00080020305A002000000000E0
:1049700000B5084B83B01A680192019A1B689A42ED
:1049800006D10548002103B05DF804EB06F0B0BC89
:10499000FCF78EFC000800204C5A002000000000AC
:1049A00070B51A4C1A4E2378326882B0022B0192ED
:1049B000A26811D165781748013505F0070500EBAD
:1049C0008500904763686570013B6360019A3368B6
:1049D0009A4219D102B070BD012B08D001993368F9
:1049E000994211D10C4802B0BDE87040104765787B
:1049F0000848013D05F0070500EB85009047636816
:104A0000657001336360E1E7FCF752FCB0490020B8
:104A100000080020807E0108707E01080000000070
:104A200070B51A4C1A4E2378326882B0012B01926D
:104A3000A26811D165781748013505F0070500EB2C
:104A4000850090476368657001336360019A33683D
:104A50009A4219D102B070BD022B08D00199336877
:104A6000994211D10C4802B0BDE8704010476578FA
:104A70000848013D05F0070500EB85009047636895
:104A80006570013B6360E1E7FCF712FC9849002088
:104A900000080020807E0108707E010800000000F0
:104AA00030B51F4D85B02B68039340F24C439942BB
:104AB000044626DCA3F69803994211DB4B00002B39
:104AC00029D10370036998474FF47A71039A2B68D0
:104AD0009A421ED1606905B0BDE8304006F070BB57
:104AE000104B02225B42227040F2892293420E490F
:104AF00091FBF3F189B207DC0191E36898470199D2
:104B0000E4E7012303702D2101912369984701995E
:104B1000DCE7FCF7CDFBE4DD01220270E4E700BF37
:104B20000008002068F7FFFFA086010000000000D9
:104B300000B5084B83B01A680192019A1B689A422B
:104B400006D10146044803B05DF804EBFFF7A8BFA7
:104B5000FCF7AEFB00080020984900200000000090
:104B600000B5084B83B01A680192019A1B689A42FB
:104B700006D10146044803B05DF804EBFFF790BF8F
:104B8000FCF796FB00080020B04900200000000060
:104B900000B5094B094A1968506883B000EBD07022
:104BA0000191019A1B689A4203D1401003B05DF84D
:104BB00004FBFCF77DFB00BF0008002098490020A3
:104BC00000B5094B094A1968506883B000EBD070F2
:104BD0000191019A1B689A4203D1401003B05DF81D
:104BE00004FBFCF765FB00BF00080020B049002073
:104BF00000B5084B08491A6883B040000192019A39
:104C00001B6848609A4202D103B05DF804FBFCF7D0
:104C10004FFB00BF00080020984900200000000062
:104C200000B5084B08491A6883B040000192019A08
:104C30001B6848609A4202D103B05DF804FBFCF7A0
:104C400037FB00BF00080020B04900200000000032
:104C500070B51D4E1D4A1E4B30681E491E4C91609A
:104C600082B00021D46001901C4C1D481D4D9D60F8
:104C7000117051705160106154611B481B4A1C4DEA
:104C8000D8601C48197059705960C3E90425FFF7B2
:104C900047FD1848FFF78CFD1749204606F040FAFB
:104CA000204606F075FB2846144906F039FA019AA9
:104CB00033689A4205D1284602B0BDE8704006F03C
:104CC00067BBFCF7F5FA00BF00080020B0490020E0
:104CD0009849002021470008C1480008305A0020A8
:104CE00041490008B147000801490008714900081E
:104CF0004C5A0020707E0108307E0108F07D0108CA
:104D00000A490B4B09680B4A82B0202001914021CF
:104D100058834FF4806559834FF400644FF480400A
:104D200004215D835C8358835183FEE700080020E3
:104D3000000C0240000402400000000000000000DF
:104D400030B5104C104B2268104983B0019218699D
:104D50001A6909691B69019D2468C2F3C032C1F355
:104D6000001102EB4102C3F38033C0F3403003EB88
:104D70004203A54200EB430001D103B030BDFCF774
:104D800097FA00BF0008002000080240000C024013
:104D900000B50F4B83B01868019002290CD003298D
:104DA0000CD001290B4818BF0020019A1B689A42B9
:104DB0000BD103B05DF804FB0748F6E7032A96BF62
:104DC0000648002000EBC200EFE7FCF771FA00BFD5
:104DD00000080020807F0108207F01083080010842
:104DE00070B5154C82B02368019302291CD10D4681
:104DF0000646202383F3118804F012FE03F028FEF8
:104E000030460E4A012107F093FC29460C4A3046F1
:104E100007F08EFC0B4807F08BFA03F039FE04F024
:104E200017FE002383F31188019A23689A4201D167
:104E300002B070BDFCF73CFA00080020A07E01081B
:104E4000D07E0108C84900200000000000000000DA
:104E500030B5134D134C2B68134883B0019307F002
:104E6000DFF91249104807F00BFA226D936B23F417
:104E7000002393634FF47A7004F0E2FA20460C4961
:104E800007F006FC226D936B43F400239363019AB1
:104E90002B689A4201D103B030BDFCF709FA00BF7C
:104EA0000008002020570020C8490020007F01088A
:104EB000107F01080000000000000000000000005A
:104EC00000B5084B83B01A680192019A1B689A4298
:104ED00005D1054803B05DF804EB04F071BFFCF7A1
:104EE000E7F900BF00080020500800200000000083
:104EF00000B5084B83B01A680192019A1B689A4268
:104F000005D1054803B05DF804EB04F091BFFCF750
:104F1000CFF900BF0008002050080020000000006A
:104F200070B50D4C82B0236801930D1E06460DDD51
:104F3000284605F055FC18B90C2333604FF0FF30BC
:104F4000019A23689A4205D102B070BD034803F06C
:104F50009FFCEDE7FCF7ACF9000800205080010849
:104F600000B5064B83B01A680192019A1B689A42F9
:104F700002D103B05DF804FBFCF79AF900080020A9
:104F800000B5074B83B01A680192019A1B689A42D8
:104F900004D103B05DF804EB03F03AB8FCF788F9EC
:104FA00000080020000000000000000000000000D9
:104FB00010B50C4C82B02368019315290CD801223E
:104FC000094B8A4013403BB101740020019A2368C9
:104FD0009A4204D102B010BD6FF00700F6E7FCF76B
:104FE00067F900BF000800200B003000000000003F
:104FF00000B5074B83B01A680192019A1B689A4268
:1050000004D103B05DF804EB02F0CABAFCF750F922
:105010000008002000000000000000000000000068
:1050200010B5074B82B01C680194019C1B689C4220
:1050300004D102B0BDE8104002F072B9FCF738F9B3
:105040000008002000000000000000000000000038
:1050500010B5074B82B01C680194019C1B689C42F0
:1050600004D102B0BDE8104002F072BAFCF720F99A
:105070000008002000000000000000000000000008
:105080002DE9F04182B002AB0024364D03F8054D06
:1050900090462A6801920F461A460121064603F0FF
:1050A000DFF90446E0B9B8F1010F9DF803301FD0D5
:1050B000042F53D8DFE807F0322D0328230003F034
:1050C000FB07BB420CD03A460121304603F068F999
:1050D000044628B986F830717169304602F060FAEA
:1050E000019A2B689A42204636D102B0BDE8F08181
:1050F000042F33D8DFE807F02B26211C170003F01C
:105100007F07BB42DFD1EBE703F0BF07BB42DAD139
:10511000E6E703F0D707BB42D5D1E1E703F0EF079D
:10512000BB42D0D1DCE743F08007BB42CBD1D7E70D
:1051300043F04007BB42C6D1D2E743F00407BB426D
:10514000C1D1CDE743F02807BB42BCD1C8E743F04B
:105150001007BB42B7D1C3E7FCF7AAF86FF003040E
:10516000BEE700BF000800200000000000000000B3
:1051700030B583B002AA114D002302F8053D0C465C
:105180002B680193012103F06BF978B99DF8033086
:10519000C3F30011C3F3C0022170A270C3F38001F6
:1051A000C3F38012DB096170E2702371019A2B68EE
:1051B0009A4201D103B030BDFCF77AF80008002014
:1051C00070B5134C84B00E46236803930DF10602AC
:1051D000F821054603F05CF928B1039A23689A4246
:1051E00013D104B070BD02AA0421284603F068F967
:1051F0000028F2D1BDF8062012B93368AB61ECE7A4
:10520000029BB3FBF2F33360F8E7FCF751F800BF01
:105210000008002000000000000000000000000066
:1052200000B5084B027F18680A7083B00190019A9C
:105230001B689A4203D1002003B05DF804FBFCF721
:1052400037F800BF00080020000000000000000048
:1052500070B5104C82B00E46236801930DF1020226
:105260002021054603F014F938B9BDF8023053B1D6
:10527000DB00012233602B622A77019A23689A426D
:1052800005D102B070BD2B6A33602877F5E7FCF7D3
:105290000FF800BF00080020000000000000000020
:1052A000F0B5294F83B03B680193052947D80E46D6
:1052B0000446154662B100EB81020023526B0120C7
:1052C000711E04292FD8DFE801F0252213063100D2
:1052D00010460123F4E75B00FE226021204603F024
:1052E0008FF870B9344445B9284684F8285008E04E
:1052F00084F82B003444002DF6D0012384F82830A4
:105300000020019A3B689A421CD103B0F0BD84F89A
:105310002A00EFE7C2F34F224421204603F058F859
:105320000028DFD0EDE784F82800E3E71B01EF2237
:105330006021204603F064F80028D3D0E1E76FF045
:105340000300DEE7FBF7B4FF0008002000000000C8
:1053500010B50C4B82B01C68019405290AD8014491
:10536000002091F828101170019A1B689A4206D10A
:1053700002B010BD002111706FF00300F4E7FBF7DD
:1053800097FF00BF000800200000000000000000A0
:10539000F0B543181C4E83B0044693F828003368D8
:1053A00001930D46174630B105292AD8DFE801F0F0
:1053B000141E1A1C0C0C04EB81046263019A3368FE
:1053C0009A421CD103B0F0BDC2F34F2264212046A3
:1053D00002F0FEFF08B1F1E7626304EB85040020F0
:1053E0006763EBE7E263F8E72264F6E7C2F34F2274
:1053F0004421204602F0ECFF0028EED0DEE7FBF768
:1054000057FF6FF00300D9E70008002000000000FC
:1054100070B5204C82B023680193054616460529D5
:1054200034D8DFE801F0030E0C1E2020436B3360FC
:105430000020019A23689A4226D102B070BDC36B46
:10544000F5E70DF10202442103F022F80028F0D123
:10545000BDF802305A028BB9AB6B336085F8290076
:10546000E7E7036CE3E70DF10202642103F010F8B3
:105470000028DED1BDF802305B02D8E7012332609C
:10548000AA6385F82930D4E7FBF712FF6FF0030019
:10549000CFE700BF0008002000000000000000006F
:1054A00070B5104C82B00E46236801930DF10302D3
:1054B0000121054602F0D4FF58B99DF8033085F864
:1054C00030311B064BBF012303463370307085F823
:1054D0004C30019A23689A4201D102B070BDFBF7AB
:1054E000E7FE00BF000800200000000000000000F0
:1054F0002DE9F047DFF898A0027CDAF8003082B09E
:105500000F4601F8082B06460193FFF759FEA0BB92
:10551000387307F110013046FFF79AFE68BB07F1B8
:105520001401304600F064FD38BB044607F1240541
:1055300006F1280907F118082A46A1B23046FFF7FC
:1055400067FFD0B9013419F8013B08F8013B062C7C
:1055500005F10405F0D107F13C013046FFF7A0FF4B
:1055600058B9019ADAF800309A420ED1391D304606
:1055700002B0BDE8F04702F08BB8019ADAF80030CB
:105580009A4202D102B0BDE8F087FBF791FE00BF5E
:1055900000080020000000000000000000000000E3
:1055A0002DE9F041614F92B005463B68119300220E
:1055B000882102F0F5FE4FF47A724FF4C8735C490B
:1055C000A5F85221A5F854315A4AC5F858110023BC
:1055D000C5F8D42085F8F0302B62284601A9FFF7E2
:1055E00087FF044688B9ADF8040001AE0FCE05F17F
:1055F000100CACE80F000FCEACE80F000FCEACE8FB
:105600000F0096E80F008CE80F004B4BC5F83431C3
:1056100001264FF420634FF4FA72A5F83C31A5F847
:1056200038218021324685F85061284602F0B8FEC4
:1056300032468046FF21284602F0B2FE002248EAA8
:10564000000011460443284602F0AAFE64B20DF1A0
:10565000030204439121284602F002FF64B29DF840
:10566000033085F83A31044332460021284602F0DF
:1056700097FE64B200220443FF21284602F090FE08
:1056800064B2044300228021284602F089FE64B2FD
:10569000204340B278B90146324628463446FFF7E7
:1056A000FFFD40B90122A1B228461444FFF7F8FDDE
:1056B000062CF6D130B1119A3B689A4233D112B020
:1056C000BDE8F0816885024604212846FFF7E8FD21
:1056D0000028F0D1024605212846FFF7E1FD002809
:1056E000E9D14FF490136B634FF4804201212846B7
:1056F000FFF74EFE0028DED14FF40C13EB6395F854
:105700002B3003B10023FF222B6485F830210121C7
:10571000284602F045FE012385F832310028CAD11F
:1057200085F81501C7E7FBF7C3FD00BF000800209F
:10573000856B0100A4700900640084030000000070
:1057400010B5084B82B01C680194019C1B689C42F8
:1057500005D1012302B0BDE8104000F039BFFBF7CE
:10576000A7FD00BF000800200000000000000000AE
:1057700030B5184C90F8DA30226883B0042B0192CF
:105780000D460DF1030211D0142102F069FE20B97B
:105790009DF80330DB0706D42870019A23689A42EB
:1057A00015D103B030BD01232B70F6E7132102F0B1
:1057B00057FE9DF8033013F0180F03F0070318BFCE
:1057C0006FF00500042BEED000232B70E5E7FBF70C
:1057D0006FFD00BF00080020000000000000000076
:1057E0002DE9F047564F8EB03B680D930C460C23C5
:1057F0000AAA1421054602F0B3FD8646002840F0AF
:105800008B809DF82EE09DF830C09DF82F209DF8EC
:1058100031109DF82A609DF82B30A07502EB0E2206
:1058200001EB0C2192B289B249025202C4E9032170
:1058300003EB0623C4E900009BB2A3829DF83280EB
:105840009DF83360B5F852E195F831C19DF8281004
:1058500006EB0826BEF57A7FB6B21FD006FB0EF621
:10586000DFF8E09095F81C80D5F820E006F5FA7690
:10587000A9FB0696B609B8F1000F0ED01FFA8EFEEE
:1058800003FB0EFE4FEA2E2E72454DD0B6B202FB40
:1058900006F6A2EB0E0EB6FBFEF6B6B2BCF1000F9A
:1058A00047D0B001C0B2B608E0750DF10B002681FB
:1058B000CDE90040284602F043FA864660BB9DF8D9
:1058C0000B8084F8188005F150060FCE0DF10C0CFA
:1058D000ACE80F002389ADF8143096E8070063891F
:1058E000ADF81630E36894F817A0B4F81490069356
:1058F0002369646804948CE8070003AC8DF8248065
:105900008DF823A00793ADF820900FCC50350FC52C
:105910009CE8070086E807000D9A3B689A427046AB
:105920000CD10EB0BDE8F087BCF1000F03D148F6F2
:10593000E0260020B8E740F6AE06B5E7FBF7B8FC76
:1059400000080020D34D621000000000000000009D
:105950002DE9F041134D144C296882B0164601918F
:105960000DF102020E211F46804602F091FDBDF8A6
:10597000023004EA4343336050B90DF1020240465D
:105980000C2102F085FDBDF8023004EA43443C607E
:10599000019A2B689A4202D102B0BDE8F081FBF770
:1059A00087FC00BF000800200000FE1F0000000070
:1059B000F0B590F8DA30254C85B0013B22680392AF
:1059C000022B07D90025039A23689A4228463AD128
:1059D00005B0F0BD02AB0F4601AA01210646FFF754
:1059E000B7FF019BB3F57F0F05461FD9002DEAD104
:1059F0001FBB0422FF21304602F0D2FC2A46074694
:105A00007021304602F0CCFC2A460743FF21304685
:105A100002F0C6FC7FB22A46802147EA00053046E4
:105A200002F0BEFC6DB205436DB2CCE7029BB3F54C
:105A30007F0FC8D9002DDBD0C5E73046044901F0FF
:105A40009FFE0546BFE7FBF733FC00BF00080020C0
:105A500058090020000000000000000000000000C5
:105A6000F0B53F4F057C3B6883B00446012280219E
:105A7000019302F095FC0122FF21204602F090FCE8
:105A800000221146204602F08BFC94F83A21912125
:105A9000204602F085FC01220021204602F080FC15
:105AA0000022FF21204602F07BFC204600228021BC
:105AB00002F076FC012D37D017D3032D08D06FF0FC
:105AC0000706019A3B689A42304647D103B0F0BDC1
:105AD00068B304220021204602F062FC064600283A
