:020000040800F2
:1000000000040020C1010008F1330008F1330008AA
:10001000212C0008F1330008F1330008F133000807
:10002000F1330008F1330008F133000821540008CF
:10003000F1330008F1330008F133000831B800084B
:10004000F1330008B1870008418900089189000850
:10005000F1330008F1330008F184000841850008FD
:1000600091850008E185000831860008317A000892
:10007000817A0008D17A0008217B0008717B000892
:10008000C17B0008117C000861830008318B0008E7
:10009000A18B0008518C0008018D000881860008A2
:1000A000F1330008F1330008E1B20008F133000831
:1000B000F1B3000831B4000871B40008C19A000817
:1000C000019C0008F1330008F1330008F133000807
:1000D000F1330008F1330008F1330008F1B80008EB
:1000E000118700080188000851880008F1330008D2
:1000F000F1330008F1330008F1330008617C000897
:10010000F1330008918E0008B1B40008F133000803
:10011000F1330008F1330008A1B20008F133000800
:10012000B17C0008017D0008517D0008A17D000818
:10013000F17D0008F1330008A1880008F1330008C0
:10014000F1330008F1330008F1330008E1AE000894
:10015000417E0008917E0008E17E0008F13300082E
:10016000F1330008F1330008F1330008F1330008DF
:10017000F1880008F133000891180008F1330008F5
:10018000F1330008F1330008F1330008F1330008BF
:10019000F1330008F1330008F1330008F1330008AF
:1001A000F1330008F1330008F1330008F13300089F
:1001B000F1330008F1330008F1330008F13300088F
:1001C00072B62E4880F3098840F20000CCF200009D
:1001D0004EF63471CEF20001086040F20000C0F229
:1001E000F0004EF68851CEF2000108604FF000009A
:1001F000E1EE100A4EF63C71CEF2000108600620D6
:1002000080F31488BFF36F8F0BF0BAFC4FF05530BA
:100210001B491C4A91423CBF41F8040BFAE71A49BA
:10022000164A91423CBF41F8040BFAE71749184AB5
:10023000184B9A423EBF51F8040B42F8040BF8E702
:1002400000201549154A91423CBF41F8040BFAE7DA
:1002500003F0B6F8124C134DAC4203DA54F8041B09
:100260008847F9E700F0D4FF0F4C104DAC4203DA99
:1002700054F8041B8847F9E703F0B2B800080020DF
:10028000000000200004002000040020081D0108D8
:10029000000800200412002008120020605F0020E7
:1002A000C0010008C0010008C0010008C00100082A
:1002B0002DE9F04F2DED108AC1F80CD0D0F80CD0FC
:1002C000BDEC108ABDE8F08F03F0D2F904F0C0F95C
:1002D000002383F311882846A047002003F058FF2D
:1002E00004F09EF903F0A4F903F0C2FD03F0C0F995
:1002F00004F0AEF900DFFEE700000000000000009F
:1003000081F0004102E000BF83F0004330B54FEAC6
:1003100041044FEA430594EA050F08BF90EA020F33
:100320001FBF54EA000C55EA020C7FEA645C7FEAC6
:10033000655C00F0E2804FEA5454D4EB5555B8BFE9
:100340006D420CDD2C4480EA020281EA030382EA5A
:10035000000083EA010180EA020281EA0303362DEC
:1003600088BF30BD11F0004F4FEA01314FF4801CBF
:100370004CEA113102D0404261EB410113F0004FD1
:100380004FEA03334CEA133302D0524263EB430388
:1003900094EA050F00F0A780A4F10104D5F1200E26
:1003A0000DDB02FA0EFC22FA05F2801841F1000181
:1003B00003FA0EF2801843FA05F359410EE0A5F155
:1003C00020050EF1200E012A03FA0EFC28BF4CF086
:1003D000020C43FA05F3C01851EBE37101F000453C
:1003E00007D54FF0000EDCF1000C7EEB00006EEB49
:1003F0000101B1F5801F1BD3B1F5001F0CD34908D3
:100400005FEA30004FEA3C0C04F101044FEA445229
:1004100012F5800F80F09A80BCF1004F08BF5FEAB0
:10042000500C50F1000041EB045141EA050130BD90
:100430005FEA4C0C404141EB010111F4801FA4F133
:100440000104E9D191F0000F04BF01460020B1FA88
:1004500081F308BF2033A3F10B03B3F120020CDAC0
:100460000C3208DD02F1140CC2F10C0201FA0CF09E
:1004700021FA02F10CE002F11402D8BFC2F1200C03
:1004800001FA02F120FA0CFCDCBF41EA0C019040B9
:10049000E41AA2BF01EB0451294330BD6FEA040402
:1004A0001F3C1CDA0C340EDC04F11404C4F12002ED
:1004B00020FA04F001FA02F340EA030021FA04F3FF
:1004C00045EA030130BDC4F10C04C4F1200220FA56
:1004D00002F001FA04F340EA0300294630BD21FA94
:1004E00004F0294630BD94F0000F83F4801306BF5A
:1004F00081F480110134013D4EE77FEA645C18BF4E
:100500007FEA655C29D094EA050F08BF90EA020FE4
:1005100005D054EA000C04BF1946104630BD91EADC
:10052000030F1EBF0021002030BD5FEA545C05D1DF
:100530004000494128BF41F0004130BD14F580041E
:100540003CBF01F5801130BD01F0004545F0FE4192
:1005500041F470014FF0000030BD7FEA645C1ABFC7
:10056000194610467FEA655C1CBF0B46024650EAFE
:10057000013406BF52EA033591EA030F41F400212A
:1005800030BD00BF90F0000F04BF0021704730B5B0
:100590004FF4806404F132044FF000054FF0000185
:1005A00050E700BF90F0000F04BF0021704730B546
:1005B0004FF4806404F1320410F0004548BF40421B
:1005C0004FF000013EE700BF42004FEAE2014FEA70
:1005D00031014FEA02701FBF12F07F4393F07F4F4B
:1005E00081F06051704732F07F4208BF704793F04E
:1005F0007F4F04BF41F40021704730B54FF4607461
:1006000001F0004521F000411CE700BF50EA010263
:1006100008BF704730B54FF000050AE050EA01020C
:1006200008BF704730B511F0004502D5404261EB7C
:1006300041014FF4806404F132045FEA915C3FF4BD
:10064000D8AE4FF003025FEADC0C18BF03325FEA5A
:10065000DC0C18BF033202EBDC02C2F1200300FA0B
:1006600003FC20FA02F001FA03FE40EA0E0021FA30
:1006700002F11444BDE600BF0000000000000000CD
:1006800070B54FF0FF0C4CF4E06C1CEA11541DBF28
:100690001CEA135594EA0C0F95EA0C0F00F0DEF8F3
:1006A0002C4481EA030621EA4C5123EA4C5350EAD8
:1006B000013518BF52EA033541F4801143F4801329
:1006C00038D0A0FB02CE4FF00005E1FB02E506F0BA
:1006D0000042E0FB03E54FF00006E1FB03569CF00F
:1006E000000F18BF4EF0010EA4F1FF04B6F5007F15
:1006F00064F5407404D25FEA4E0E6D4146EB060687
:1007000042EAC62141EA55514FEAC52040EA5E500F
:100710004FEACE2EB4F1FD0C88BFBCF5E06F1ED8B9
:10072000BEF1004F08BF5FEA500E50F1000041EBF0
:10073000045170BD06F0004646EA010140EA02009D
:1007400081EA0301B4EB5C04C2BFD4EB0C0541EABF
:10075000045170BD41F480114FF0000E013C00F3D4
:10076000AB8014F1360FDEBF002001F0004170BDF8
:10077000C4F10004203C35DA0C341BDC04F1140411
:10078000C4F1200500FA05F320FA04F001FA05F29D
:1007900040EA020001F0004221F0004110EBD3706A
:1007A00021FA04F642EB06015EEA430E08BF20EA96
:1007B000D37070BDC4F10C04C4F1200500FA04F339
:1007C00020FA05F001FA04F240EA020001F00041CB
:1007D00010EBD37041F100015EEA430E08BF20EA3E
:1007E000D37070BDC4F1200500FA05F24EEA020E86
:1007F00020FA04F301FA05F243EA020321FA04F0B5
:1008000001F0004121FA04F220EA020000EBD3706B
:100810005EEA430E08BF20EAD37070BD94F0000F6B
:100820000FD101F00046400041EB010111F4801F9F
:1008300008BF013CF7D041EA060195F0000F18BF50
:10084000704703F00046520043EB030313F4801F8C
:1008500008BF013DF7D043EA0603704794EA0C0F46
:100860000CEA135518BF95EA0C0F0CD050EA41065C
:1008700018BF52EA4306D1D181EA030101F00041D9
:100880004FF0000070BD50EA410606BF1046194601
:1008900052EA430619D094EA0C0F02D150EA01360D
:1008A00013D195EA0C0F05D152EA03361CBF10464E
:1008B00019460AD181EA030101F0004141F0FE41ED
:1008C00041F470014FF0000070BD41F0FE4141F471
:1008D000780170BD70B54FF0FF0C4CF4E06C1CEA71
:1008E00011541DBF1CEA135594EA0C0F95EA0C0F26
:1008F00000F0A7F8A4EB050481EA030E52EA0335E1
:100900004FEA013100F088804FEA03334FF0805501
:1009100045EA131343EA12634FEA022245EA11152E
:1009200045EA10654FEA00260EF000419D4208BFDF
:10093000964244F1FD0404F5407402D25B084FEA8C
:100940003202B61A65EB03055B084FEA32024FF438
:1009500080104FF4002CB6EB020E75EB030E22BF95
:10096000B61A754640EA0C005B084FEA3202B6EB55
:10097000020E75EB030E22BFB61A754640EA5C0004
:100980005B084FEA3202B6EB020E75EB030E22BF94
:10099000B61A754640EA9C005B084FEA3202B6EB95
:1009A000020E75EB030E22BFB61A754640EADC0054
:1009B00055EA060E18D04FEA051545EA16754FEAB6
:1009C00006164FEAC30343EA52734FEAC2025FEAD4
:1009D0001C1CC0D111F4801F0BD141EA00014FF063
:1009E00000004FF0004CB6E711F4801F04BF014334
:1009F0000020B4F1FD0C88BFBCF5E06F3FF6AFAE50
:100A0000B5EB030C04BFB6EB020C5FEA500C50F1DF
:100A1000000041EB045170BD0EF0004E4EEA113162
:100A200014EB5C04C2BFD4EB0C0541EA045170BD69
:100A300041F480114FF0000E013C90E645EA060EAD
:100A40008DE60CEA135594EA0C0F08BF95EA0C0FDB
:100A50003FF43BAF94EA0C0F0AD150EA01347FF423
:100A600034AF95EA0C0F7FF425AF104619462CE7FA
:100A700095EA0C0F06D152EA03353FF4FDAE10465D
:100A8000194622E750EA410618BF52EA43067FF4AE
:100A9000C5AE50EA41047FF40DAF52EA43057FF43E
:100AA000EBAE12E7000000000000000000000000B4
:100AB0004FF0FF3C06E000BF4FF0010C02E000BF2A
:100AC0004FF0010C4DF804CD4FEA410C7FEA6C5C0D
:100AD0004FEA430C18BF7FEA6C5C1BD001B050EAB0
:100AE000410C0CBF52EA430C91EA030F02BF90EA9B
:100AF000020F0020704710F1000F91EA030F58BF5A
:100B0000994208BF90422CBFD8176FEAE37040F0BB
:100B1000010070474FEA410C7FEA6C5C02D150EA59
:100B2000013C07D14FEA430C7FEA6C5CD6D152EA14
:100B3000033CD3D05DF8040B704700BF84461046D9
:100B400062468C461946634600E000BF01B5FFF7D8
:100B5000B7FF002848BF10F1000F01BD4DF808EDA8
:100B6000FFF7F4FF0CBF012000205DF808FB00BF79
:100B70004DF808EDFFF7EAFF34BF012000205DF8D3
:100B800008FB00BF4DF808EDFFF7E0FF94BF012020
:100B900000205DF808FB00BF4DF808EDFFF7CEFF21
:100BA00094BF012000205DF808FB00BF4DF808ED60
:100BB000FFF7C4FF34BF012000205DF808FB00BF31
:100BC0004FEA410212F5001215D211D56FF4787375
:100BD000B3EB625212D94FEAC12343F0004343EA18
:100BE000505311F0004F23FA02F018BF40427047F3
:100BF0004FF00000704750EA013005D111F000407D
:100C000008BF6FF0004070474FF00000704700BF12
:100C100053B94AB9002908BF00281CBF4FF0FF3163
:100C20004FF0FF3000F074B9ADF1080C6DE904CE5F
:100C300000F006F8DDF804E0DDE9022304B07047B7
:100C40002DE9F047089E04468846002B4BD18A4286
:100C5000154667D9B2FA82F24AB1C2F1200701FA09
:100C600002F320FA07F7954047EA030894404FEA59
:100C7000154E230CB8FBFEF71FFA85FC0EFB1788F8
:100C800043EA084307FB0CF1994209D9EB1807F135
:100C9000FF3080F01B81994240F21881023F2B44C3
:100CA0005B1AA4B2B3FBFEF00EFB103344EA03441C
:100CB00000FB0CFCA44509D92C1900F1FF3380F08E
:100CC0000781A44540F2048102382C4440EA0740E1
:100CD000A4EB0C0400271EB1D4400023C6E9004356
:100CE0003946BDE8F0878B4209D9002E00F0EB8031
:100CF0000027C6E9000138463946BDE8F087B3FA57
:100D000083F7002F47D18B4202D3824200F2FA8050
:100D1000841A61EB030301209846002EE0D0C6E957
:100D20000048DDE702B9FFDEB2FA82F2002A40F0A5
:100D30008F80491B4FEA154E1FFA85F80127B1FB3A
:100D4000FEFC230C0EFB1C1143EA014308FB0CF1D3
:100D5000994207D9EB180CF1FF3002D2994200F208
:100D6000CD808446591AA3B2B1FBFEF00EFB1014DD
:100D700043EA044408FB00F8A04507D92C1900F108
:100D8000FF3302D2A04500F2B6801846A4EB080457
:100D900040EA0C409FE7C7F1200CBB4022FA0CFE52
:100DA0004EEA030E01FA07F420FA0CF521FA0CF3CF
:100DB0004FEA1E482543B3FBF8F92C0C08FB193306
:100DC0001FFA8EFA44EA034309FB0AF49C4202FA32
:100DD00007F200FA07F10BD91EEB030309F1FF300C
:100DE00080F087809C4240F28480A9F1020973441C
:100DF0001B1BADB2B3FBF8F008FB103345EA03440C
:100E000000FB0AFAA24508D91EEB040400F1FF33E7
:100E10006BD2A24569D90238744440EA0940A0FB6C
:100E20000289A4EB0A044C45C2464B4654D351D028
:100E3000002E69D0B1EB0A0564EB030404FA0CFC44
:100E4000FD40FC404CEA0505C6E90054002747E791
:100E5000C2F1200320FA03F7954001FA02F021FACB
:100E600003F34FEA154E3843010CB3FBFEF71FFAAC
:100E700085F80EFB173341EA034107FB08F38B4269
:100E800004FA02F407D9691807F1FF3C2FD28B420C
:100E90002DD9023F2944CB1A81B2B3FBFEF00EFBE1
:100EA000103341EA034100FB08F38B4207D969186C
:100EB00000F1FF3C17D28B4215D902382944C91AD8
:100EC00040EA07473BE73746304609E70746E7E68B
:100ED0001846FBE64145ABD2B8EB020A69EB0E02BD
:100EE00001381346A4E76046E9E7184695E76746E8
:100EF000D1E781467CE702382C4447E7ACF1020C8D
:100F00002B442FE7384608E73746E9E600000000A3
:100F1000704700BF0000000000000000000000005B
:100F2000844641EA000313F003036DD1403A41D3F4
:100F300051F8043B40F8043B51F8043B40F8043BB3
:100F400051F8043B40F8043B51F8043B40F8043BA3
:100F500051F8043B40F8043B51F8043B40F8043B93
:100F600051F8043B40F8043B51F8043B40F8043B83
:100F700051F8043B40F8043B51F8043B40F8043B73
:100F800051F8043B40F8043B51F8043B40F8043B63
:100F900051F8043B40F8043B51F8043B40F8043B53
:100FA00051F8043B40F8043B51F8043B40F8043B43
:100FB000403ABDD2303211D351F8043B40F8043BE3
:100FC00051F8043B40F8043B51F8043B40F8043B23
:100FD00051F8043B40F8043B103AEDD20C3205D3F3
:100FE00051F8043B40F8043B043AF9D2043208D0EB
:100FF000D2071CBF11F8013B00F8013B01D30B885D
:1010000003806046704700BF082A13D38B078DD03A
:1010100010F003038AD0C3F10403D21ADB071CBF0C
:1010200011F8013B00F8013B80D331F8023B20F876
:10103000023B7BE7043AD9D3013A11F8013B00F8AF
:10104000013BF9D20B7803704B7843708B78837037
:101050006046704700000000000000000000000033
:1010600090F800F06DE9024520F007016FF0000CE8
:1010700010F0070491F820F040F049804FF0000490
:101080006FF00700D1E9002391F840F000F108006B
:1010900082FA4CF2A4FA8CF283FA4CF3A2FA8CF3A3
:1010A0004BBBD1E9022382FA4CF200F10800A4FA0A
:1010B0008CF283FA4CF3A2FA8CF3E3B9D1E904235E
:1010C00082FA4CF200F10800A4FA8CF283FA4CF395
:1010D000A2FA8CF37BB9D1E9062301F1200182FA4F
:1010E0004CF200F10800A4FA8CF283FA4CF3A2FA55
:1010F0008CF3002BC6D0002A04BF04301A4612BA63
:10110000B2FA82F2FDE8024500EBD2007047D1E965
:10111000002304F00305C4F100004FEAC50514F0F4
:10112000040F91F840F00CFA05F562EA05021CBFC5
:1011300063EA050362464FF00004A9E700000000DF
:1011400001F0FF01102A2BDB10F0070F08D010F878
:10115000013B013A8B422DD010F0070F42B3F6D17C
:10116000F0B441EA012141EA014122F007047FF095
:1011700000070023F0E80256083C85EA010586EAEC
:10118000010685FA47F5A3FA87F586FA47F6A5FA28
:1011900087F68EB9EED1F0BC01F0FF0102F0070234
:1011A00032B110F8013B013A83EA010313B1F8D1DF
:1011B0000020704701387047002D06BF35460338C0
:1011C000073815F0010F07D1013015F4807F02BFF9
:1011D000013015F4C03F0130F0BC0138704700BF4A
:1011E0004FEA410C7FEA6C5C02D150EA013C0AD123
:1011F0004FEA430C7FEA6C5C02D152EA033C02D115
:101200004FF0000070474FF00100704700000000F1
:1012100000B5104B83B01B68019304F061F902F034
:10122000FFF801F0A5FC0C490C4805F051FB02F059
:101230002FF800F04DFE01F023FA01F029FF00F035
:101240002FF900F0A5FA00F04BFA4FF47A7002F093
:1012500027FFFAE70008002004080020B45E002001
:1012600000B5084B83B01A680192019A1B689A4234
:1012700005D1054803B05DF804EB02F039B9FFF77A
:10128000EFFF00BF00080020100A01080000000066
:101290002DE9F04F494A4A4B92694A491B689161CE
:1012A00085B00020039301F0C3FE002001F0D8FEBA
:1012B00000F0E6FEDFF82481DFF810B1CDF80480FD
:1012C0004FF0000E00F57063C446F1469A464FF0A9
:1012D00000020023ACF80020ACF80220ACF8042097
:1012E00019461E4600EB0E070AEB0E08A7EB0E048C
:1012F0007A7814F81950540904EBC50404F03F043B
:1013000002F01F0207F5A06706EBD506214413443F
:10131000B845B6B289B29BB2E8D1ABFB0626ABFBAF
:101320000121ABFB032309F10109760849085B0899
:10133000B9F5207FACF80060ACF80210ACF80430CE
:101340000EF1020E0CF1060CC1D1DDF804801E482E
:101350001E4CB8F80210B8F80020B8F8043001FBB1
:1013600001F102FB021203FB0323A4FB03231B096D
:1013700000F8013F164B08F106084345E9D1154C2A
:10138000124D2046017810F8013F42780B44134477
:10139000A5FB03235B0803700F4B8342F2D10B4D77
:1013A000217814F8013F62780B441344A5FB032312
:1013B0005B08A0422370F3D17AE700BF9050002071
:1013C00000080020400A010807210020ABAAAAAAB1
:1013D0000821002008210020862300200812002078
:1013E00080B5274C274AA3692749996186B0032312
:1013F0002025002116680093EF224FF42073CDE9D9
:1014000001553020059600F0E3FE642001F068F9F4
:10141000002001F0B5F91D4E1D4F002001F080F9AC
:1014200000F0DEFD002000F013FEB04600F078FD75
:1014300013E002F0F5FC02F01BF903F009F9236850
:10144000A34207D0A2699B6892689A4202D23846AA
:1014500002F04EF8002383F3118800F039FE00F00B
:101460009FFD85F3118803F0DBF802F0E1F802F04C
:10147000AFF9B368002BDCDC404603F031F9D8E764
:101480009050002000080020300A010810080020B9
:10149000500A0108000000000000000000000000E9
:1014A00030B50E4C0E4B22680E4885B000250392D5
:1014B00042F278114022009502F09AFD0A4B009505
:1014C00040220A484FF41E7102F092FD039A2368ED
:1014D0009A4201D105B030BDFFF7C2FE00080020DE
:1014E0009112000800260020E11300088823002044
:1014F0002DE9F0432DED028B614C624F236883B0E0
:101500000646019330222D23002138468DF8033002
:101510000CF0AEF8002533683046DB689847C0B25F
:101520008DF803009DF803109DF80320EBB22D2ADF
:10153000F95405F10105EED1DFF848C1524D534F82
:1015400000260CF1300007EE906A02E090429446CB
:1015500035D0624612F8011B2D2930D0A1F161036C
:10156000DBB2152BF2D825FA03F3DB4313F00103AA
:10157000ECD192F800E0BEF13A0FE7D10CF1020E87
:101580000CF1070C1EF8018BA8F13009B9F1090F15
:101590006ED8303B43449BB203EB83035B00F445BE
:1015A0009BB2EFD1002ED1D16129CFD1A7FB03137C
:1015B000C3F3CF03904207EE903A9446C9D1DFEDD2
:1015C000346A9FED347AF8EEE77A67EEA67AC7EED2
:1015D000877A17EE900AFEF7F7FF41EC100B41EC0B
:1015E000180B0AF025FB57EC106B10EE100A0022C6
:1015F00000233946FFF7DAFA011C18BF0121002049
:1016000001F006FA0022002339463046FFF7B0FA0F
:10161000011C18BF0121022001F0FAF9B0EE480ABE
:10162000F0EE680A0AF064FB57EC106B002200230E
:1016300010EE100A3946FFF7B9FA011C18BF012154
:10164000012001F0E5F9019A23689A4215D1394643
:10165000304600220023FFF78BFA011C18BF01213E
:10166000032003B0BDEC028BBDE8F04301F0D0B91C
:10167000B8F1200F96D0012668E7FFF7F1FD00BF13
:1016800000080020784700208D003000CDCCCCCC65
:10169000DB0F494000003443000000000000000060
:1016A00000B5084A084B926908491B68084C9161CB
:1016B00083B001932046FFF71BFF322002F0F0FCBD
:1016C000F8E700BF9050002000080020600A0108E1
:1016D000B45E0020000000000000000000000000D8
:1016E00010B50A4C0A4B22680A4884B04FF45E7168
:1016F000039200220092402202F07AFC039A2368AF
:101700009A4201D104B010BDFFF7AAFD00080020E5
:10171000A1160008A84700200000000000000000FB
:10172000F0B5144A144B926914491B68144C91612A
:1017300083B0032701930226012508E0022AA0F1C5
:10174000060010D825704FF4FA7002F0A9FC01F0E1
:1017500017FDC0B2C31E022BA0F10B024FF0000315
:10176000ECD82370EFE704288CBF3B463346237048
:10177000E9E700BF9050002000080020700A01082F
:101780001C08002000000000000000000000000015
:1017900010B50A4C0A4B22680A4884B04FF4FC7119
:1017A0000392002200923F2202F022FC039A236857
:1017B0009A4201D104B010BDFFF752FD000800208D
:1017C00021170008204B002000000000000000004E
:1017D00030B5104D81682B680F4A83B001930B68B8
:1017E00023F001030B608168946A03E0936A1B1B7A
:1017F000C72B09D8086810F00100F7D1019A2B68AF
:101800009A4204D103B030BD4FF0FF30F6E7FFF746
:1018100027FD00BF000800209050002000000000BD
:1018200030B5184D83B02B68019311F00C0F0446AE
:101830000AD00378032B13D00622636822709A68BB
:101840001AB100212046904763685B688BB101990B
:101850002A68914213D1204603B0BDE830401847B2
:10186000FFF7B6FF0622636822709A68002AE8D163
:10187000EBE7019A2B689A4201D103B030BDFFF724
:10188000EFFC00BF00080020000000000000000086
:10189000F0B5284D83B02B68019302F089FE01F06A
:1018A00047FF254B1E69F20715D55A69234C42F0B4
:1018B00001025A612778BB1F012B2AD905226368D0
:1018C00022701B680BB120469847042F27D0022FA7
:1018D00025D003232370B30710D5174A174C53693B
:1018E00043F0020353612378032B1DD063689B6888
:1018F0000622227013B101211048984701F040FFE1
:10190000019A2B689A4213D103B0BDE8F04003F06E
:10191000A7BD019A2B689A420AD103B0F0BD0223F9
:101920002370B307EAD5D8E72046FFF751FFDDE77C
:10193000FFF796FC0008002000000550184D00201D
:1019400030B50B4D0B4C2B6883B02046019300F053
:101950002FF9019A2B680848084D094921619A42DC
:10196000C4E9025001D103B030BDFFF779FC00BFDC
:1019700000080020184D00209C15010800000550AB
:1019800016550202000000000000000000000000E8
:101990002DE9F0412F4C0578266882B0012D019683
:1019A00006D0019A23689A4252D102B0BDE8F08174
:1019B000294DA842F5D10E4690461F46274AE868B1
:1019C0002B460C2106F0ECFA002839D1D5E9023279
:1019D000126828339360EB681A68042151611B6810
:1019E000C3F80C80EB681A6817611B68B6085E6064
:1019F0002B694FB343F480232B61E968184A0968C7
:101A00000B60EB6819680B6843F001030B60536BC4
:101A100043F0010353630B214E2005F0A1FFD5E9EC
:101A20000113DA6842F00102DA60DA6842F0020279
:101A3000DA60CA6822F4804222F001021A60B0E73C
:101A4000084801F055FDC1E723F480232B61D4E75A
:101A5000FFF706FC00080020184D002021180008A0
:101A600000380240800A0108000000000000000069
:101A700030B5184C0378226883B0022B019205D050
:101A8000019A23689A4223D103B030BD124B984289
:101A90000546F5D18168114A0B6823F4804323F091
:101AA00001030B608168CB6823F00F03CB60536B9D
:101AB00023F0010353634E2005F07AFF019A236857
:101AC0009A4205D1E86803B0BDE8304006F0D0BACC
:101AD000FFF7C6FB00080020184D00200038024028
:101AE00000B50F4B0278196883B0022A01910ED11C
:101AF00081680A6842F002020A6081680A6842F45A
:101B000080420A6081680A6842F001020A60019A14
:101B10001B689A4202D103B05DF804FBFFF7A0FBFB
:101B2000000800200000000000000000000000008D
:101B300000B50F4B0278196883B0022A01910ED1CB
:101B400081680A6822F002020A6081680A6842F429
:101B500080420A6081680A6842F001020A60019AC4
:101B60001B689A4202D103B05DF804FBFFF778FBD3
:101B7000000800200000000000000000000000003D
:101B800000B5074B83B01A680192019A1B689A420C
:101B900004D103B05DF804EBFFF7D2BEFFF760FBA2
:101BA000000800200000000000000000000000000D
:101BB00000B5084B83B01A68019201220270019AA5
:101BC0001B6800219A42416002D103B05DF804FB1A
:101BD000FFF746FB000800200000000000000000A6
:101BE0002DE9F043254D83B02C680194DDF8289051
:101BF0000F4616469846044618B111B1204B9A423A
:101C00002FD9204801F074FC202383F3118802F0BF
:101C100007FD01F00DFD2378012B02D0194801F0DA
:101C200067FC4246314620464B466760FFF7B0FEF0
:101C30000223237001F01CFD02F00AFD124B1A680A
:101C40009A4204D0996993688A689A420FD3002314
:101C500083F31188019A2B689A420CD103B0BDE836
:101C6000F0839307CDD1B8F1000FCDD1C9E7074874
:101C700001F03EFCEBE7FFF7F3FA00BF000800209D
:101C8000FCFF0300B00A010890500020A00A0108E0
:101C900030B51C4D83B02B680193044658B3202304
:101CA00083F3118802F0BCFC01F0C2FC2378022B04
:101CB00002D0154801F01CFC2046FFF7D9FE012395
:101CC000237001F0D5FC02F0C3FC104B1A689A4255
:101CD00004D0996993688A689A4208D3002383F3F1
:101CE0001188019A2B689A4209D103B030BD084887
:101CF00001F0FEFBF2E7044801F0FAFBCFE7FFF743
:101D0000AFFA00BF00080020C00A01089050002070
:101D1000A00A010800000000000000000000000010
:101D200030B51C4D83B02B680193044658B3202373
:101D300083F3118802F074FC01F07AFC2378022B03
:101D400002D0154801F0D4FB2046FFF7C9FE04235A
:101D5000237001F08DFC02F07BFC104B1A689A4254
:101D600004D0996993688A689A4208D3002383F360
:101D70001188019A2B689A4209D103B030BD0848F6
:101D800001F0B6FBF2E7044801F0B2FBCFE7FFF742
:101D900067FA00BF00080020D00A01089050002018
:101DA000A00A010800000000000000000000000080
:101DB00030B51C4D83B02B680193044658B32023E3
:101DC00083F3118802F02CFC01F032FC2378022B03
:101DD00002D0154801F08CFB2046FFF7A9FE032333
:101DE000237001F045FC02F033FC104B1A689A4254
:101DF00004D0996993688A689A4208D3002383F3D0
:101E00001188019A2B689A4209D103B030BD084865
:101E100001F06EFBF2E7044801F06AFBCFE7FFF741
:101E20001FFA00BF00080020F00A010890500020AF
:101E3000A00A0108000000000000000000000000EF
:101E400000B5064B83B01A680192019A1B689A424A
:101E500002D103B05DF804FBFFF702FA000800208E
:101E600000B5064B83B01A680192019A1B689A422A
:101E700002D103B05DF804FBFFF7F2F9000800207F
:101E800010B5104C104B226882B0019201221A70DA
:101E9000202383F3118802F0F3FB01F009FC0B48C7
:101EA00002F07EFE01F024FC02F002FC002383F32A
:101EB0001188019A23689A4201D102B010BDFFF740
:101EC000CFF900BF00080020384D00202008002076
:101ED00030B50E4D0E4C2B6883B00193FFF750FECA
:101EE000206808B10BF0FCF84FF496400BF0F0F8C6
:101EF00001992A682060B0FA80F35B099142C3F12E
:101F0000000001D103B030BDFFF7AAF9000800209E
:101F1000304D002000000000000000000000000024
:101F200030B5174D174C2B78226885B0012B0392E2
:101F300020D000F055FC144B1B78ABB9B0F5964F90
:101F400015D8124A124B12681B68124900920246B9
:101F50001148FFF745FE01232B700020039A2368E8
:101F60009A420BD105B030BDB0F5165FE9D94FF0FC
:101F7000FF30F3E70848FFF78BFEDAE7FFF770F969
:101F80002D4D0020000800202E4D0020344D002053
:101F9000304D0020000B0108184D0020000000000B
:101FA00010B50B4C0B48236882B0019302F0C0FCC3
:101FB000094802F065FE019A23689A4205D1054856
:101FC00002B0BDE8104002F0EBBCFFF749F900BFDA
:101FD0000008002028080020200800200000000041
:101FE00030B5154D154C164B2268286883B0019208
:101FF00001221A7008B10BF073F84FF416500BF071
:1020000067F8286098B10F4D286808B10BF068F8A0
:102010004FF416500BF05CF8B0FA80F35B092860BF
:102020005842019A23689A4204D103B030BD4FF060
:10203000FF30F6E7FFF714F9304D002000080020CC
:102040002E4D0020344D0020000000000000000054
:1020500000B5074B07491A68087083B00192019ACE
:102060001B689A4202D103B05DF804FBFFF7F8F851
:10207000000800202C4D002000000000000000009F
:1020800000B50D4A0D4B1278196883B0019142B129
:102090000B4AD26812681268120302D4094A106807
:1020A00001E0094A1068019A1B689A4202D103B004
:1020B0005DF804FBFFF7D4F82E4D00200008002047
:1020C000184D0020344D0020304D0020000000004D
:1020D00000B50E4A0E4B1278196883B001914AB1CF
:1020E000019A1B689A420FD10A4803B05DF804EBCD
:1020F000FFF75EBE019A1B689A4205D1054803B0FE
:102100005DF804EBFFF70CBEFFF7AAF82C4D00209A
:1021100000080020184D0020000000000000000012
:1021200070B5274D82B02B6801930646012203212A
:102130006E2000F01DFC044630B1019A2B689A42D3
:1021400020463AD102B070BD32464E216E2000F0DA
:102150000FFC04460028F0D1442E07D00246B721D8
:102160006E2000F005FCB8B10446E6E70122B72175
:102170006E2000F0FDFB0028F6D1224603216E20E0
:1021800000F0F6FB0028EFD1032211216E2000F0B1
:10219000EFFB78B10446D0E7224603216E2000F021
:1021A000E7FB0028E0D10A2211216E2000F0E0FBBD
:1021B0000028D9D1034B1E71BFE7FFF751F800BFCC
:1021C000000800203C4D002000000000000000003E
:1021D0002DE9F04F8FB0DFF80084DDF860C0D8F84B
:1021E00000400D940CF1FF355C1EB3F5207F9DF887
:1021F00064909DF868B00C44154400F21282BCF55E
:10220000F07F00F20E82B1F5207F0E4600F21282BE
:10221000B2F5F07F174600F21082A14280F00482EE
:10222000B4F5207F00F20082AA4280F00082B5F56A
:10223000F07F00F2FC81B9F1400F824600F0B081DE
:10224000B9F1800F23D0B9F1200F00F09C81002359
:10225000CDE90033BBF1400F2FD0BBF1800F00F070
:10226000CB81BBF1200F00F0B9810023CDE902330F
:10227000002203216E2000F07BFBA0B30D9AD8F85A
:1022800000309A4240F0E2810FB0BDE8F08F9A072B
:1022900040F0D681CC4A8C085900661CA2FB010193
:1022A000A2FB030204EB930406EBD2030093BBF101
:1022B000400F06EBD1030193CFD11CF0010F40F08A
:1022C000C281C14B7D084FEA4C026F1CA3FB021276
:1022D000A3FB0C1307EB9303029307EB920305EBAD
:1022E0005C050393C4E702465B216E2000F040FBCF
:1022F0000028C3D15046FFF713FF0028BED1024685
:1023000003216E2000F034FB0028B7D1C6F3072369
:102310001A4608216E20049300F02AFB0028ADD154
:10232000F3B21A4609216E20059300F021FB002824
:10233000A4D1C7F307231A460A216E20069300F0A2
:1023400017FB00289AD1FBB21A460B216E20079387
:1023500000F00EFB002891D1C4F307231A460C218C
:102360006E20089300F004FB002887D1E3B21A46E0
:102370000D216E20099300F0FBFA00287FF47EAF58
:10238000C5F307231A460E216E200A9300F0F0FAD7
:1023900000287FF473AFEBB21A460F216E200B9327
:1023A00000F0E6FA00287FF469AF049A35216E2028
:1023B00000F0DEFA00287FF461AF059A36216E2026
:1023C00000F0D6FA00287FF459AF089A37216E2022
:1023D00000F0CEFA00287FF451AF099A38216E2020
:1023E00000F0C6FA00287FF449AF069A39216E2022
:1023F00000F0BEFA00287FF441AF079A3A216E2020
:1024000000F0B6FA00287FF439AF0A9A3B216E201B
:1024100000F0AEFA00287FF431AF0B9A3C216E2019
:1024200000F0A6FA00287FF429AF009B3D21C3F3FA
:1024300007226E2000F09CFA00287FF41FAF9DF861
:1024400000203E216E2000F093FA00287FF416AFA2
:10245000019B3F21C3F307226E2000F089FA002878
:102460007FF40CAF9DF8042040216E2000F080FA2C
:1024700000287FF403AF029B4121C3F307226E20A3
:1024800000F076FA00287FF4F9AE9DF8082042218A
:102490006E2000F06DFA00287FF4F0AE039B43211C
:1024A000C3F307226E2000F063FA00287FF4E6AE43
:1024B0009DF80C2044216E2000F05AFA00287FF489
:1024C000DDAE012203216E2000F052FA00287FF4D5
:1024D000D5AE4A4693216E2000F04AFA00287FF4D8
:1024E000CDAE5A4694216E2000F042FA00287FF4C7
:1024F000C5AE012203216E2000F03AFA00287FF4D5
:10250000BDAE0134A31B07EE103ADFED307AB8EE12
:10251000477ABAF1440F77EEC77A00F09980B0EEAF
:10252000006AF2EE006AE7EE066A77EEA77AB0EE8E
:10253000667A67EE877ADFED266A87EEA67AFCEE8A
:10254000C77ACDED007A009B9521C3F307226E2058
:1025500000F00EFA00287FF491AE9DF8002096213D
:102560006E2000F005FA00287FF488AE194B013583
:10257000EF1BA41B5F801C8083F804A083F80590E8
:1025800083F806B07AE610495A00A1FB030306EB74
:102590005303A1FB0212009306EB5203019359E689
:1025A000D9074DD4084A74085900661CA2FB0101E2
:1025B000A2FB030204EB530406EB9203009306EB29
:1025C0009103019346E600BFABAAAAAA00002244E9
:1025D0000000A3443C4D002000080020244A4FEA9C
:1025E0004C03A2FB0C1CA2FB032307EB530307EBDA
:1025F0005C02029203933BE61CF0030F23D11C4BB9
:10260000BD084FEA4C026F1CA3FB0212A3FB0C1384
:1026100007EBD303029307EBD20305EB9C0503936F
:1026200026E66FF0070029E66FF0030026E66FF05C
:10263000040023E66FF0010020E66FF002001DE6C3
:102640006FF005001AE66FF0060017E6FEF708FEC9
:10265000F2EE006A37EE267ADFED066A67EE277A39
:1026600087EEA67AFCEEC77ACDED007A6BE700BF65
:10267000ABAAAAAA00002444000000000000000049
:1026800010B5114C86B02368059300F001F90F498D
:102690000F4803F0FDFA012200210D4803F048FB2A
:1026A00020237822CDE901330092A023B422F02127
:1026B0000220FFF78DFD059A23689A4201D106B0EA
:1026C00010BDFEF7CDFD00BF00080020100B010873
:1026D000985E0020000000000000000000000000E4
:1026E00030B50E4C83B023680193012205460321C7
:1026F0006E2000F03DF9019A236818B19A420BD17F
:1027000003B030BD9A4207D12A469D216E2003B006
:10271000BDE8304000F02CB9FEF7A2FD0008002013
:1027200030B5164C83B0236801930546002302227E
:1027300003216E208DF8033000F01AF928B1019AB8
:1027400023689A4218D103B030BD0DF10302042171
:102750006E2000F0BDF80028F1D19DF80320012D76
:102760000CBF02F0FB0242F0040204216E208DF83F
:10277000032000F0FDF8E2E7FEF772FD00080020FC
:1027800030B5164C83B0236801930546002302221E
:1027900003216E208DF8033000F0EAF828B1019A89
:1027A00023689A4218D103B030BD0DF10302042111
:1027B0006E2000F08DF80028F1D19DF80320012D46
:1027C0000CBF02F0FC0242F0030204216E208DF8DF
:1027D000032000F0CDF8E2E7FEF742FD00080020FC
:1027E00010B50A4B0A4A1988146858881B7982B0B8
:1027F000442B019400FB01F00199136818BF4000BD
:10280000994201D102B010BDFEF72AFD3C4D0020D7
:102810000008002000000000000000000000000090
:1028200070B5164E16483368154D82B005224FF428
:102830008071019307F064F820246B6983F480733E
:102840006B61012001F02CFC631E13F0FF04F4D136
:102850004FF4807140F206222983094807F050F8AE
:10286000019A33689A4206D10649074802B0BDE88A
:10287000704003F055B8FEF7F3FC00BF00080020DD
:1028800000040240500B0108105B00200000000013
:1028900000B50C4A0C4B1278196883B0012A0191DB
:1028A000019A1B6804D09A4209D103B05DF804FB79
:1028B0009A4204D103B05DF804EBFFF7B1BFFEF715
:1028C000CFFC00BF105B00200008002000000000CB
:1028D0002DE9F041224C234E88B0002335688DF855
:1028E0001830804620468DF814101746079503F0DF
:1028F0002FF92378012B0CD00420012306AACDE95F
:1029000001300092414605AA204603F0B1F8054681
:1029100068B9134803F03CF99DF818303B7000206B
:10292000079A33689A4218D108B0BDE8F081204672
:1029300003F086F823780C4A052B106004D0084871
:1029400003F026F968B2EBE7204603F031F823786C
:10295000012BF4D1FFF764FFF1E7FEF781FC00BF24
:10296000105B002000080020444D00200000000003
:10297000F0B5214C214E89B03368079307460025F6
:1029800020468DF818108DF819208DF8145003F09A
:10299000DFF82378012B0CD0042205AB01950292BD
:1029A00000933946022306AA204603F061F8054643
:1029B00048B9114803F0ECF80020079A33689A42AE
:1029C00017D109B0F0BD204603F03AF823780C4A3D
:1029D000052B106004D0084803F0DAF868B2ECE781
:1029E000204602F0E5FF2378012BF4D1FFF718FF12
:1029F000F1E7FEF735FC00BF105B00200008002067
:102A0000444D002000000000000000000000000015
:102A100070B5294D82B02B6801930E46032841D82A
:102A2000DFE800F01A120A02012922D9234A536969
:102A300083F40063536116E0012926D91F4A5369C4
:102A400083F4806353610EE0012918D91B4A53694E
:102A500083F04003536106E001291CD9174A5369EA
:102A600083F020035361019A2B689A4218D102B077
:102A700070BD124B4FF4006229B15A83F3E70F4B3C
:102A800040220029F9D11A83EDE70C4B4FF4806204
:102A90000029F8D0F1E7094B20220029F3D0ECE718
:102AA000FEF7DEFB0024E0B231460134FFF7B0FF51
:102AB000042CF8D1D7E700BF00080020000C02402A
:102AC0002DE9F043254E83B034680194042A9DF823
:102AD0002890144605460F46984639D9B9F1000F9B
:102AE00014BF00224FF08052640002EB0863013CE7
:102AF0001C4405F00F0527F01F07202383F31188DE
:102B000001F08EFD3D4300F093FD154B1035DD6067
:102B10001C6100F0ADFD01F09BFD124B1A689A425A
:102B200004D0996993688A689A420DD3002383F38D
:102B30001188BFF36F8FBFF34F8F019A33689A42AA
:102B40000AD103B0BDE8F083074800F0D1FCEDE7FF
:102B5000064800F0CDFCC1E7FEF782FB000800202C
:102B600090ED00E090500020E00B0108C00B010840
:102B700030B5224D224C2B68224A85B003936368FE
:102B800043F004036360536A43F4803353622023A9
:102B900083F3118801F044FD00F04AFD17221A4B1F
:102BA000E260236100F064FD01F052FD174B1A68EA
:102BB0009A4204D0996993688A689A4218D300208F
:102BC00080F31188BFF36F8FBFF34F8F03231D2254
:102BD00000904FF00051FFF773FF094A536843F02C
:102BE00001035360039A2B689A4205D105B030BDAA
:102BF000074800F07DFCE2E7FEF732FB000800200A
:102C000090ED00E000ED00E0090000109050002081
:102C1000E00B0108000000000000000000000000C0
:102C200070B51A4D1A4C1B4E0FCD0FC49EB02A68BA
:102C3000336822801D93EFF30981682203A8FEF711
:102C40006FF9154B9D6AAA0714D4EB0708D5124BF0
:102C500008995B6B114A00910D4880210AF058FDDC
:102C60001D9A33689A420FD109481EB0BDE87040E2
:102C700000F03EBC099A5B6B0092A4F11000084A78
:102C800080210AF045FDE0E7FEF7EAFAA40B01080F
:102C9000484D00200008002000ED00E0800B0108F6
:102CA000600B0108000000000000000000000000B0
:102CB00000B51F4B0278196883B00191E2B11D4A3B
:102CC0004FF4005111834278EAB11A4A4FF480510F
:102CD00011838278F2B1174A4FF480411183C27890
:102CE000FAB9144A4FF400415183019A1B689A4281
:102CF0001CD103B05DF804FB0E4A4FF40051518320
:102D00004278002AE1D10B4A4FF4805151838278F6
:102D1000002AE0D1074A4FF480415183C278002A4B
:102D2000DFD0044A4FF400411183DEE7FEF798FA42
:102D30000008002000100240000000000000000019
:102D400000B51F4B0278196883B00191E2B11D4AAA
:102D50004FF4007111834278EAB11A4A4FF480713E
:102D600011838278F2B1174A4FF400611183C2785F
:102D7000FAB9144A4FF480615183019A1B689A4250
:102D80001CD103B05DF804FB0E4A4FF4007151836F
:102D90004278002AE1D10B4A4FF480715183827846
:102DA000002AE0D1074A4FF400615183C278002A1B
:102DB000DFD0044A4FF480611183DEE7FEF750FA5A
:102DC0000008002000100240000000000000000089
:102DD00030B50C4A0C4B116883B04FF4005501918B
:102DE0004FF480544FF400414FF480405D835C8386
:102DF0005883598301991368994201D103B030BDBA
:102E0000FEF72EFA0008002000100240000000002B
:102E100030B50C4A0C4B116883B04FF4007501912A
:102E20004FF480744FF480614FF400605D835C83E5
:102E30005883598301991368994201D103B030BD79
:102E4000FEF70EFA0008002000100240000000000B
:102E500010B50B4C0B48236882B0992200210193D6
:102E600002F066FF019A23689A4206D105480021C4
:102E700002B0BDE8104003F043B8FEF7F1F900BF1F
:102E800000080020605E002000000000000000003C
:102E900010B50B4C0B48236882B099220021019396
:102EA00002F046FF019A23689A4206D105480021A4
:102EB00002B0BDE8104003F023B8FEF7D1F900BF1F
:102EC000000800207C5E00200000000000000000E0
:102ED00000B5084B83B01A680192019A1B689A42A8
:102EE00006D10548002103B05DF804EB02F070BF85
:102EF000FEF7B6F900080020605E00200000000028
:102F000000B5084B83B01A680192019A1B689A4277
:102F100006D10548002103B05DF804EB02F058BF6C
:102F2000FEF79EF9000800207C5E002000000000F3
:102F300070B51A4C1A4E2378326882B0022B019277
:102F4000A26811D165781748013505F0070500EB37
:102F50008500904763686570013B6360019A336840
:102F60009A4219D102B070BD012B08D00199336883
:102F7000994211D10C4802B0BDE870401047657805
:102F80000848013D05F0070500EB850090476368A0
:102F9000657001336360E1E7FEF762F9E04D002000
:102FA00000080020800C0108700C010800000000DF
:102FB00070B51A4C1A4E2378326882B0012B0192F8
:102FC000A26811D165781748013505F0070500EBB7
:102FD000850090476368657001336360019A3368C8
:102FE0009A4219D102B070BD022B08D00199336802
:102FF000994211D10C4802B0BDE870401047657885
:103000000848013D05F0070500EB8500904763681F
:103010006570013B6360E1E7FEF722F9C84D0020CF
:1030200000080020800C0108700C0108000000005E
:1030300000B5084B08491A6883B040000192019A14
:103040001B6848609A4202D103B05DF804FBFEF7AA
:1030500007F900BF00080020C84D00200000000054
:1030600000B5084B08491A6883B040000192019AE4
:103070001B6848609A4202D103B05DF804FBFEF77A
:10308000EFF800BF00080020E04D00200000000025
:1030900070B51D4E1D4A1E4B30681E491E4C916076
:1030A00082B00021D46001901C4C1D481D4D9D60D4
:1030B000117051705160106154611B481B4A1C4DC6
:1030C000D8601C48197059705960C3E90425FFF78E
:1030D000EFFD1848FFF734FE1749204602F0D8FDEF
:1030E000204602F0C5FE2846144902F0D1FD019A9F
:1030F00033689A4205D1284602B0BDE8704002F01C
:10310000B7BEFEF7ADF800BF00080020E04D00207C
:10311000C84D0020B12C0008512E0008605E002030
:10312000D12E0008412D0008912E0008012F000823
:103130007C5E0020700C0108300C0108F00B0108C7
:103140000A490B4B09680B4A82B0202001914021AB
:1031500058834FF4806559834FF400644FF48040E6
:1031600004215D835C8358835183FEE700080020BF
:10317000000C0240000402400000000000000000BB
:1031800030B5104C104B2268104983B00192186979
:103190001A6909691B69019D2468C2F3C032C1F331
:1031A000001102EB4102C3F38033C0F3403003EB64
:1031B0004203A54200EB430001D103B030BDFEF74E
:1031C0004FF800BF0008002000080240000C024039
:1031D00000B50F4B83B01868019002290CD0032969
:1031E0000CD001290B4818BF0020019A1B689A4295
:1031F0000BD103B05DF804FB0748F6E7032A96BF3E
:103200000648002000EBC200EFE7FEF729F800BFF8
:1032100000080020800D0108200D0108300E010873
:1032200070B5154C82B02368019302291CD10D465C
:103230000646202383F3118801F022FA00F038FAC1
:1032400030460E4A012103F0E3FF29460C4A30467E
:1032500003F0DEFF0B4803F0DBFD00F049FA01F05C
:1032600027FA002383F31188019A23689A4201D137
:1032700002B070BDFDF7F4FF00080020A00C0108AB
:10328000D00C0108F84D00200000000000000000F4
:1032900030B5134D134C2B68134883B0019303F0E2
:1032A0002FFD1249104803F05BFD226D936B23F450
:1032B000002393634FF47A7000F0F2FE20460C492D
:1032C00003F056FF226D936B43F400239363019A3E
:1032D0002B689A4201D103B030BDFDF7C1FF00BF9A
:1032E00000080020505B0020F84D0020000D010870
:1032F000100D0108000000000000000000000000A8
:1033000000B5084B83B01A680192019A1B689A4273
:1033100005D1054803B05DF804EB01F009BBFDF7EA
:103320009FFF00BF000800203C08002000000000B4
:1033300000B5084B83B01A680192019A1B689A4243
:1033400005D1054803B05DF804EB01F029BBFDF79A
:1033500087FF00BF000800203C080020000000009C
:1033600070B50D4C82B0236801930D1E06460DDD2D
:10337000284601F0EDFF18B90C2333604FF0FF3001
:10338000019A23689A4205D102B070BD034800F04B
:10339000AFF8EDE7FDF764FF00080020500E0108CC
:1033A00000B5064B83B01A680192019A1B689A42D5
:1033B00002D103B05DF804FBFDF752FF00080020C6
:1033C00000B5064B83B01A680192019A1B689A42B5
:1033D00002D103B05DF804FBFDF742FF00080020B6
:1033E000024B82B01B680193FEE700BF000800207B
:1033F00000B5044B04481B6883B0019300F078F8D3
:10340000FEE700BF00080020600E01080000000079
:10341000024B82B01B680193FEE700BF000800204A
:10342000F0B5294E294B3268294885B00024039213
:103430009C60D968274A4FF6FF0529400A43DA60A5
:10344000C2682549254D42F08072C2600A6842F088
:1034500001020A6010202022D87783F8222000F091
:10346000DFFA00F045FA01F02BF801F049FF01F016
:10347000B7FF01F07DF800F0FBF9402105F5886009
:1034800000F01EFD0127164BC36180F82070A86173
:1034900000F0A6F884F3118862B6AB69114A9A610C
:1034A0004FF4C4713A46104B009405F59D6000F04E
:1034B0009FFD039A33680D4981619A4201D105B09D
:1034C000F0BDFDF7CDFE00BF0008002000ED00E0DC
:1034D000F0ED00E00003FA05001000E0905000203D
:1034E000000400200010010811340008800E0108BB
:1034F00000B5054B83B01B680193044672B6FFF715
:103500001FFE024BDC62FEE7000800209050002006
:103510002DE9F047DFF890A0224DDAF8003082B0B4
:10352000019300F055F9AB6993F8232012B1013AE9
:1035300083F823205A6ADFF8748001325A6200F05F
:1035400047F9AB6AEA6901334245AB6220D0936820
:10355000013B9360EC69A668D6B94FF02009236857
:10356000E768E660C3F804802368EB6100F0C0F808
:1035700001F09EF886F311882069B84789F3118815
:1035800001F07EF800F094F8EC69A368002BE6D017
:10359000019ADAF800309A4202D102B0BDE8F08711
:1035A000FDF75EFE9050002000080020AC50002087
:1035B00010B5094C094A236882B0019351685368D9
:1035C0005B1A9842FBD8019A23689A4201D102B053
:1035D00010BDFDF745FE00BF00080020001000E010
:1035E00000B50E4A0E4B116B186883B0019009B9F3
:1035F000526B4AB1019A1B689A420CD1094803B038
:103600005DF804EBFFF774BF019A1B689A4202D180
:1036100003B05DF804FBFDF723FE00BF90500020CF
:1036200000080020900E01080000000000000000CB
:1036300030B50B4C0B4D236B2A6883B001920BB94C
:10364000636B13B10848FFF753FF019A2B68012100
:103650009A42616301D103B030BDFDF701FE00BFA6
:103660009050002000080020C00E0108000000005B
:1036700030B50C4C0C4D236B2A6883B0019253B9C2
:10368000636B002B07DD019A2B6800219A4261636E
:1036900005D103B030BD0548FFF72AFFF3E7FDF77A
:1036A000DFFD00BF9050002000080020E00E010860
:1036B00030B50B4C0B4D236B2A6883B0002B019265
:1036C00001DD636B13B10848FFF712FF019A2B6805
:1036D00001219A42616301D103B030BDFDF7C0FD05
:1036E0009050002000080020D00E010800000000CB
:1036F00030B50C4C0C4D236B2A6883B0002B019223
:103700000ADD636B002B07DD019A2B6800219A42CA
:10371000616305D103B030BD0448FFF7E9FEF3E76C
:10372000FDF79EFD9050002000080020F00E0108DB
:1037300030B50F4D83B02B680193202383F311889C
:103740000C4C236B002B01DB626B1AB10A48FFF7AC
:10375000CFFE236B01332363002383F31188019A87
:103760002B689A4201D103B030BDFDF779FD00BF4F
:103770000008002090500020A00E0108000000006A
:1037800030B50F4D83B02B680193202383F311884C
:103790000C4C236B002B01DD626B1AB10A48FFF75A
:1037A000A7FE236B013B2363002383F31188019A57
:1037B0002B689A4201D103B030BDFDF751FD00BF27
:1037C0000008002090500020B00E0108000000000A
:1037D00000B50F4A0F4B116B186883B00029019098
:1037E00009DB526B002A06DD019A1B689A420CD154
:1037F00003B05DF804FB019A1B689A4205D10648A4
:1038000003B05DF804EBFFF773BEFDF729FD00BFC1
:103810009050002000080020000F01080000000068
:1038200000B50E4A0E4B116B186883B0019049B970
:10383000526B002A06DD019A1B689A420CD103B034
:103840005DF804FB019A1B689A4205D1054803B054
:103850005DF804EBFFF74CBEFDF702FD9050002031
:1038600000080020100F0108000000000000000008
:1038700010B5084A084B116882B0402401910199A3
:10388000126818199142C3E90E4001D102B010BD6F
:10389000FDF7E6FC0008002090500020000000002A
:1038A00010B51149114B0A6882B00192DA6B9C6A1B
:1038B0001460DA6B9C695460DA6B846A9460DA6B2A
:1038C00090F820001073DA6B03F5886010328242A2
:1038D00028BF03F14002DA63019A0B689A4201D1D2
:1038E00002B010BDFDF7BCFC000800209050002085
:1038F00010B50B4A0B4B116882B04FF0FF340191A9
:1039000000219962019811685C6203F11C028842EF
:10391000C3E9072201D102B010BDFDF7A1FC00BF31
:10392000000800209050002000000000000000006F
:103930002DE9F041184E82B00546306801900C46E2
:1039400017469846FFF744FF05B3FFB1F4B1C5E948
:1039500003781248C3699A68944204D91B68A41A70
:103960009A68A242FAD32B605A686A6015605D605B
:10397000AC609968019D3268091B95424FF0FF3495
:103980009960446206D102B0BDE8F0810448FFF7B7
:10399000AFFDDCE7FDF764FC00080020905000203C
:1039A000200F0108000000000000000000000000DF
:1039B00030B5164D83B004462B680193FFF708FF1E
:1039C000ECB1E368BBB12268A06893680199034435
:1039D0009360D4E900231A6020682B680C4A65685C
:1039E000456099424FF000054FF0FF30E5605062AE
:1039F00009D103B030BD0748FFF77AFDE3E705487A
:103A0000FFF776FDDDE7FDF72BFC00BF0008002087
:103A100090500020300F010800000000000000005E
:103A200000B50A4A0A4B11681B6083B0002001915F
:103A3000019912685B609142C3E90433986002D136
:103A400003B05DF804FBFDF70BFC00BF000800208D
:103A50009050002000000000000000000000000066
:103A600030B5164D83B004462B680193FFF7B0FEC6
:103A7000ECB194F82030B3B10F2B14D00022A16820
:103A80000F4B84F820201B689A688A42FBD223607F
:103A90005A686260146001992A685C60914220460D
:103AA00009D103B030BD0748FFF722FDE6E705481E
:103AB000FFF71EFDDDE7FDF7D3FB00BF0008002088
:103AC00090500020400F010800000000000000009E
:103AD00070B5204D82B02B6801930446202383F3F8
:103AE000118800F0CDFDFFF7E3FD94F82030072B9F
:103AF00011D8DFE803F0161010230A04100AA66A92
:103B0000FFF766FEB3680133B360D4E900231A609F
:103B1000D4E900325A604FF0FF33A3622046FFF72A
:103B20009FFFFFF7E5FD00F0C3FD002383F311883D
:103B3000019A2B689A420BD102B070BDA36A002291
:103B40001A604FF0FF33A3622046FFF789FFE8E7D2
:103B5000FDF786FB000800200000000000000000C8
:103B6000F0B5194E194C336883B007460193FFF73F
:103B700057FEA569236885F82070142285F8232054
:103B80001A68226001215460284683F82010A3613E
:103B9000FFF786FE2946A06900F022FDEFF30983B6
:103BA000EA69643B9A4202D90948FFF7A1FC019AED
:103BB00033689A4206D1A069294603B0BDE8F040B7
:103BC000FCF776BBFDF74CFB00080020905000206E
:103BD000500F01080000000000000000000000007D
:103BE000F0B5154C87B0236805930E460746FFF7DE
:103BF00017FE731C18D0114D114AAB693146684647
:103C0000FFF796FE3846FFF7ABFFFFF7E1FD039B9A
:103C100013B16846FFF7CCFE059A2368A9699A425A
:103C2000886A06D107B0F0BD3846FFF799FF034D0B
:103C3000F2E7FDF715FB00BF0008002090500020C0
:103C4000D13A000800000000000000000000000061
:103C5000F0B51E4D1E4E2B6883B0044601930F46EF
:103C6000FFF7DEFDB069A7628368A2689A421DD99A
:103C7000FFF7F6FE0123074684F82030B461FFF712
:103C80000FFE3946204600F0ABFCEFF30983FA69DA
:103C9000643B9A4214D8019A2B689A4214D139464F
:103CA000204603B0BDE8F040FCF702BB019A2B6848
:103CB0009A4209D1204603B0BDE8F040FFF7D0BEDC
:103CC0000448FFF715FCE6E7FDF7CAFA00080020F4
:103CD00090500020500F010800000000000000007C
:103CE00010B50E490E4B8A69086892F823101C68BB
:103CF0008068926882B0019449B9904234BF002034
:103D00000120019A1B689A4206D102B010BD904270
:103D100094BF00200120F4E7FDF7A2FA90500020A4
:103D2000000800200000000000000000000000006B
:103D300070B5184C184E2368A5691A682260546043
:103D4000012283F8202082B01422316885F82320D4
:103D50002846A3610191FFF783FE2846FFF7A0FDE7
:103D60002946A06900F03CFCEFF30983EA69643B53
:103D70009A4202D90948FFF7BBFB019A33689A427D
:103D800006D1A069294602B0BDE87040FCF790BAA0
:103D9000FDF766FA9050002000080020500F01083F
:103DA00070B51C4D1C4E2A68AC6913682B6001214C
:103DB00082B05D60002082F82010AA613268A1689C
:103DC00084F82000019200E01B689A688A42FBD8C0
:103DD00023605A686260204614605C60FFF760FDF3
:103DE0002146A86900F0FCFBEFF30983E269643B1C
:103DF0009A4202D90948FFF77BFB019A33689A423D
:103E000006D1A869214602B0BDE87040FCF750BA5F
:103E1000FDF726FA9050002000080020500F0108FE
:103E200010B50F4C82B023680193FFF7F9FCFFF740
:103E3000CFFC0C4B1A689B6992689B689A42019A66
:103E4000236803D89A4208D102B010BD9A4204D127
:103E500002B0BDE81040FFF7A3BFFDF701FA00BFB5
:103E6000000800209050002000000000000000002A
:103E700000B50E4A0E4B9269196892F8232083B060
:103E8000019142B1019A1B689A420DD103B05DF8CD
:103E900004EBFFF785BF019A1B689A4204D103B077
:103EA0005DF804EBFFF744BFFDF7DAF9905000200E
:103EB00000080020000000000000000000000000DA
:103EC000F0B51A4A1A4D02610446816083B014238A
:103ED00050692E68616484F8233002270023012191
:103EE000278484F82210C4E90F3304F16801A36128
:103EF000019604F12C07636204F1500604F13003CB
:103F000060610461C4E90C33E1613046E7625461E9
:103F100000F06EFA304600F08BFA019A2B689A4254
:103F200002D1204603B0F0BDFDF79AF99050002071
:103F30000008002000000000000000000000000059
:103F400010B5094B82B01C680194884203D200F876
:103F5000012B8142FBD1019A1B689A4201D102B028
:103F600010BDFDF77DF900BF000800200000000033
:103F70002DE9F043184E83B0346801940546DDF80E
:103F800028900C4617469846FFF722FC15B1B4F569
:103F9000BC7F19D21148FFF7ABFAA4F164012944A0
:103FA000E960C1F84080EB68019AC3F84490336837
:103FB000E9680B4808669A420CD13946284603B096
:103FC000BDE8F043FFF77CBF7F2FE3D8B8F1000FC7
:103FD000E3D1DFE7FDF744F900080020A00F010856
:103FE000C9020008000000000000000000000000FE
:103FF0002DE9F04FDFF8A48087B0D8F80040DDF855
:104000004090059407468A46934600F168060446A8
:10401000FF2504F8015BA642FBD107EB0A05A54288
:1040200004D9552604F8016BA542FBD10393202245
:1040300082F3118800F0F4FAFFF7FAFA039BCDF847
:1040400000905A4651463846FFF792FF0021044639
:10405000FFF7FEFDFFF70CFB00F0FAFA0D4B1A68B4
:104060009A4204D0996993688A689A420BD30023D4
:1040700083F31188059AD8F800309A42204606D179
:1040800007B0BDE8F08F0448FFF732FAEFE7FDF71D
:10409000E7F800BF90500020600F010800080020E2
:1040A00030B5184C83B0236801930546202383F371
:1040B000118800F0B5FAFFF7BBFA15B91248FFF7FF
:1040C00017FA29460820FFF78BFDFFF7D1FA00F019
:1040D000BFFA0E4B1A689A4204D0996993688A68AD
:1040E0009A4208D3002383F31188019A23689A42E5
:1040F00005D103B030BD0648FFF7FAF9F2E7FDF746
:10410000AFF800BF00080020700F01089050002099
:10411000600F010800000000000000000000000027
:1041200070B5164B164E9C693268E36AA06282B085
:1041300004F12C05AB42019207D01A68E2621846DE
:10414000FFF78EFCE36AAB42F7D194F821309B076E
:1041500005D1D4E904231A61D4E904325A610F204D
:10416000FFF7FEFC019A33689A4205D1054802B078
:10417000BDE87040FFF7BCB9FDF772F89050002021
:1041800000080020B00F010800000000000000003F
:1041900030B50C4C83B0236801930546202383F38C
:1041A000118800F03DFAFFF743FA019A23689A421A
:1041B00005D1284603B0BDE83040FFF7B1BFFDF799
:1041C0004FF800BF000800200000000000000000C1
:1041D000F0B50D4D0D4E03682A68B76983B00446EB
:1041E000019213B10A48FFF783F927600320BC62EC
:1041F000FFF7B6FC019A2B68B1699A42886A01D12F
:1042000003B0F0BDFDF72CF800080020905000200E
:10421000C00F0108000000000000000000000000C6
:10422000F0B5124D0368124A83B004462868019025
:104230000E46976913B10F48FFF75AF966B1276028
:10424000019A2B68BC629A420ED13146032003B01A
:10425000BDE8F040FFF7C4BC019A2B689A424FF0CA
:10426000FF3001D103B0F0BDFCF7FAFF00080020D9
:1042700090500020D00F0108000000000000000056
:10428000F0B5124D04682B6883B00193B4B194F873
:104290002030032B06460F460CD100233360019AD1
:1042A0002B68A7629A420FD1204603B0BDE8F040C8
:1042B000FFF7D6BB0648FFF71BF9EEE7019A2B681C
:1042C0009A4201D103B0F0BDFCF7CAFF00080020FC
:1042D000F00F0108000000000000000000000000D6
:1042E00030B5104A83B01368019381B10E4B019D24
:1042F0009B69186044685C60236012684360954263
:104300000DD1042003B0BDE83040FFF769BC01992E
:10431000136899424FF0FF3001D103B030BDFCF774
:104320009FFF00BF00080020905000200000000008
:1043300070B5124D04682B6882B0A042019315D06D
:1043400023680360586094F82030042B0E4602D096
:104350000B48FFF7CDF8019A2B68A6629A420BD161
:10436000204602B0BDE87040FFF77ABB019A2B6887
:104370009A4201D102B070BDFCF772FF0008002024
:10438000800F010800000000000000000000000095
:104390002DE9F041DFF850800468D8F8003082B091
:1043A000A042019313D00F4F05460E4623682B60A1
:1043B0005D6094F82030042B02D03846FFF798F85F
:1043C000A6622046FFF74CFB2C68A542EED1019A6D
:1043D000D8F800309A4202D102B0BDE8F081FCF773
:1043E0003FFF00BF800F0108000800200000000010
:1043F00030B50B4B83B01A6801924FF0FF32026068
:1044000001991A680024002300259142C0E904455F
:10441000C0E90133C36001D103B030BDFCF720FF18
:104420000008002000000000000000000000000064
:1044300000B5084B084A196883B001915168019A88
:104440001B6881609A4202D103B05DF804FBFCF75F
:1044500007FF00BF00080020001000E0000000007F
:10446000F0B51449144B0A68846883B00192134A6A
:104470005B68D2F8A864C2681B1BD0E9044501320E
:104480009B1BC26042688360E61845F100079342B7
:10449000C0E9046709D80268934238BF0360019AF3
:1044A0000B689A4203D103B0F0BD4360F7E7FCF715
:1044B000D7FE00BF00080020001000E09050002050
:1044C00030B5114D114C2B6889B04FF0FF31079377
:1044D000002300226846C4F8A834CDE901330393D1
:1044E0000023CDE904230091FFF7A2FF6846FFF700
:1044F000B7FF079A2B680299C4F8A8149A4201D111
:1045000009B030BDFCF7ACFE000800209050002040
:104510002DE97048134E144B326883B001925B68EA
:104520008B60D0E902411B1BD0E90445426814EBC3
:10453000030B45F1000C01319342C0E90231C0E99F
:1045400004BC0AD80268934238BF0360019A3368FA
:104550009A4204D103B0BDE870884360F6E7FCF7E7
:104560007FFE00BF00080020001000E000000000F7
:1045700030B50D4D0D4C2B6883B004F59760019359
:104580000023C4F8B034C4F8B434FFF731FF019A03
:104590002B689A4206D104F59A6003B0BDE830401A
:1045A000FFF726BFFCF75CFE0008002090500020BB
:1045B00000B50949094A0B6883B001930198D2F804
:1045C000B034096801338842C2F8B03402D103B074
:1045D0005DF804FBFCF744FE00080020905000202A
:1045E00070B50D4C0D4A236882B00193019DD2F83D
:1045F000B43424680133A542C2F8B43409D10E465C
:1046000000F1500106F1500002B0BDE87040FFF724
:104610007FBFFCF725FE00BF00080020905000205F
:1046200000B5084B83B01A680192019A1B689A4240
:1046300005D1054803B05DF804EBFFF7F9BEFCF7C0
:104640000FFE00BF000800204855002000000000B9
:1046500000B5084B83B01A680192019A1B689A4210
:1046600005D1054803B05DF804EBFFF7F9BEFCF790
:10467000F7FD00BF000800204855002000000000A2
:1046800000B5084B83B01A680192019A1B689A42E0
:1046900005D1054803B05DF804EBFFF7C9BEFCF790
:1046A000DFFD00BF00080020605500200000000072
:1046B00000B5084B83B01A680192019A1B689A42B0
:1046C00005D1054803B05DF804EBFFF7C9BEFCF760
:1046D000C7FD00BF0008002060550020000000005A
:1046E00030B51C4D83B004462B680193FFF770F87A
:1046F0004CB3A3682268002B0FDBA24203D01648FC
:10470000FEF7F6FEA3680133002BA3600BDD019AD0
:104710002B689A421BD103B030BDA242EFD00133C7
:10472000002BA360F3DC20680199036823602A68EA
:104730005C6091424FF00003836208D103B0BDE892
:104740003040FFF78DB90448FEF7D2FED1E7FCF701
:1047500087FD00BF000800202010010800000000B5
:1047600030B50B4D83B02B680193044650B12460E3
:1047700001992A68646000239142A360236105D1F6
:1047800003B030BD0348FEF7B3FEF0E7FCF768FD69
:104790000008002040100108000000000000000098
:1047A000F0B55D4E5D4B32689D6983B00446019261
:1047B000FFF736F8002C00F08480A06823690028F9
:1047C00043D0002B40F39780854276D0AA68836857
:1047D0009A4208D990F820308260062B40D0072BEF
:1047E00073D0002B5DD02746234603E09968AA6862
:1047F000914233D31B689C42F8D12F607B686B6079
:1048000006201D607D60AC62FFF7AAF9A368AB4289
:1048100002D04348FEF76CFE2B6CA34202D0404806
:10482000FEF766FE2369012B05D1019A33689A428F
:104830006FD103B0F0BD019A33689A4269D138480C
:1048400003B0BDE8F040FEF753BE002B58D1013352
:10485000A56023612B6CE3602C64E6E71F46CCE780
:10486000D0E900231A60D0E900325A60876A3B46DB
:1048700003E099688268914247D31B689F42F8D150
:1048800007607B68436018607860836AAA689868EC
:1048900083689342A7D290F820308260062B9ED185
:1048A000DEE7D0E90023012180F820101A60D0E96A
:1048B00000325A60FFF7D4F895E72369013323618A
:1048C000B3E71748FEF714FE77E7D0E900231A6034
:1048D000D0E900325A60876A3B4603E099688268F3
:1048E000914214D31B689F42F8D107607B684360F4
:1048F0001860786077E70A48FEF7FAFDA06863E77A
:104900000748FEF7F5FD2369A1E71F46B8E71F46F4
:10491000EBE7FCF7A5FC00BF00080020905000204A
:10492000501001080000000000000000000000001E
:1049300030B5154C83B0236801930546202383F3DB
:104940001188FFF76DFEFEF773FE2846FFF728FF7C
:10495000FEF78EFEFFF77CFE0C4B1A689A4204D0DD
:10496000996993688A689A4208D3002383F311886F
:10497000019A23689A4205D103B030BD0448FEF77E
:10498000B7FDF2E7FCF76CFC000800209050002017
:1049900030100108000000000000000000000000CE
:1049A0002DE9F043DFF800813C4FD8F80030BE69B4
:1049B00083B005460193002864D0202383F3118837
:1049C000FFF72EFEFEF734FE336C002B5ED09B68A3
:1049D000B34202D03248FEF78BFD2B69002B49DD34
:1049E000013B2B615BBB336CAB4202D02C48FEF722
:1049F0007FFDEB683364FEF713FF2B689D423ED0CA
:104A0000D6E910495CB1FEF70BFF23689C4203D046
:104A10009B68994538BF9946E468002CF3D1C6F8E5
:104A200008902B6801222A611A682A605560AB60E1
:104A30001A6CEA6018461D640021FFF709F9FEF7B9
:104A400017FEFFF705FE3B68BB4204D0BA699B68BE
:104A500092689A420AD3002383F31188019AD8F806
:104A600000309A4217D103B0BDE8F0830D48FEF73D
:104A70003FFDF0E70A48FEF73BFD2B69B0E7002356
:104A8000AB60DCE70648FEF733FD96E70448FEF727
:104A90002FFD336C9BE7FCF7E3FB00BF9050002039
:104AA000601001083010010800080020000000001C
:104AB0002DE9F041DFF8D880334BD8F800209E690B
:104AC00082B005460192FEF7ABFE002D4FD0336C4D
:104AD000002B52D09B68B34202D02C48FEF708FD51
:104AE0002B69002B3EDD013B2B61002B32D1336C57
:104AF000AB4202D02548FEF7FBFCEB683364FEF7BF
:104B00008FFE2B689D4223D0D6E910475CB1FEF79B
:104B100087FE23689C4203D09B689F4238BF1F4694
:104B2000E468002CF3D1B7602868019901232B6158
:104B300003682B60D8F800205D60A860036CEB6010
:104B4000914205641ED102B0BDE8F041FEF788BF76
:104B50000023AB60019AD8F800309A4212D102B01B
:104B6000BDE8F0810948FEF7C3FC2B69BBE70748A5
:104B7000FEF7BEFC336C002BACD10448FEF7B8FC4A
:104B8000336CA7E7FCF76CFB905000207010010815
:104B900000080020000000000000000000000000ED
:104BA00070B5114E82B0044633680193FEF710FED3
:104BB0009CB12068A0420AD06FF001050368236011
:104BC0005C60FEF74DFF85622068A042F6D1019A35
:104BD00033689A4205D102B070BD0448FEF788FCE4
:104BE000E7E7FCF73DFB00BF00080020901001083C
:104BF0002DE9F0411E4F1F4E3B68B46982B0054657
:104C00000193FEF70DFE65B3236C33B3B369D3F89C
:104C100040804046FFF74CFF2E46A5622B4603E03E
:104C20009968A268914216D31B689D42F8D126600C
:104C30007368636007201C607460FEF791FF404654
:104C4000A46AFFF7ADFD019A3B689A4220460CD159
:104C500002B0BDE8F0811E46E9E70748FEF748FCD0
:104C6000D4E70548FEF744FCCEE7FCF7F9FA00BFAD
:104C70000008002090500020B01001080000000043
:104C800030B5164C83B0236801930546202383F387
:104C90001188FFF7C5FCFEF7CBFC2846FFF7A8FFFD
:104CA0000546FEF7E5FCFFF7D3FC0D4B1A689A4268
:104CB00004D0996993688A689A4209D3002383F3E0
:104CC0001188019A23689A42284605D103B030BD65
:104CD0000448FEF70DFCF1E7FCF7C2FA00080020DB
:104CE000905000208010010800000000000000002B
:104CF00070B5184E82B00446336801930D46FEF736
:104D000067FD0CB3E16B94F8203029430A2BE16373
:104D100016D00B2B05D0019A33689A4218D102B0F5
:104D200070BDA36A8B43F6D1019A336800219A4281
:104D3000A1620DD1204602B0BDE87040FEF790BEE2
:104D4000A36A1942F0D1E6E70348FEF7D1FBD9E7A1
:104D5000FCF786FA00080020E010010800000000BF
:104D6000F0B5134F83B006463B6801930D46FEF73E
:104D70002FFDB6B13468A6420DD0E3682B43E36043
:104D800015B12269134203D0D4E90101FFF7B0FF46
:104D90002468A642F1D1019A3B689A4205D103B03A
:104DA000F0BD0448FEF7A4FBE4E7FCF759FA00BFA6
:104DB00000080020C01001080000000000000000F2
:104DC00070B50C4CC16082B0266801960A44006040
:104DD000019E02612268069D4060C0E9051196426D
:104DE0004FF00001C3618160056201D102B070BD66
:104DF000FCF736FA00080020000000000000000068
:104E000030B50D4D83B02B6801930446FEF7E0FCEE
:104E100001992A68E368A36100209142A060636160
:104E200007D120466FF0010103B0BDE83040FFF725
:104E3000AFBAFCF715FA00BF000800200000000020
:104E400070B5164D82B004462B6801930E46FEF7EE
:104E5000BFFCFEF7BDFCD4E905239A42A36816D037
:104E60000133511CA36061611670D4E904329A4287
:104E70000AD220460021FFF75BFA0020019A2B6836
:104E80009A4209D102B070BDE3686361F1E7002B7B
:104E9000E6D06FF00300F1E7FCF7E2F9000800202C
:104EA000F0B5234F83B03B68019304460E462023A0
:104EB00083F31188FFF7B4FBFEF7BAFBE36943B154
:104EC0002046984705E031462046FFF709FA051EBF
:104ED00010DBFEF77DFCA368002BF4D0A1692069EC
:104EE0004A1C013B8242A360A26128BFE3680D789F
:104EF00028BFA361FEF7BCFBFFF7AAFB0D4B1A68A6
:104F00009A4204D0996993688A689A4209D3002327
:104F100083F31188019A3B689A42284605D103B071
:104F2000F0BD0548FEF7E4FAF1E7FCF799F900BF98
:104F30000008002090500020F01001080000000040
:104F40002DE9F04FDFF8F490044685B0D9F8000061
:104F500003908A461D46D4F81C809346002A60D0F0
:104F6000202383F311880193FFF75AFBFEF760FBC0
:104F70002F4E0027B8F1000F07D02046C04704E0AD
:104F800029462046FFF7ACF960BBFEF721FCA36879
:104F9000002BF5D0A269013B511CA161A3601378DD
:104FA0000AF8013B2369A2699A4224BFE368A3611E
:104FB000FEF75EFBFFF74CFB3368B34204D0B269E7
:104FC0009B6892689A4228D3002383F311880137A3
:104FD000BB4519D0019B83F31188FFF721FBFEF736
:104FE00027FBC7E7FEF744FBFFF732FB3368B3420A
:104FF00007D0B2699B6892689A4202D20D48FEF7C8
:1050000077FA002383F31188039AD9F800309A4283
:1050100038460AD105B0BDE8F08F0648FEF768FAB9
:10502000D2E70548FEF764FA9AE7FCF719F900BFE2
:1050300090500020F0100108001101080008002025
:1050400070B50B4D82602E68C16082B0C0E900006F
:1050500001960A44019E02612A68069C9642C0E9B4
:105060000511C0E9073401D102B070BDFCF7F8F8B2
:105070000008002000000000000000000000000008
:1050800030B50D4D83B004462B680193FEF7A0FBAD
:10509000D4E9032301982968A2619B1A88426261BE
:1050A000A36007D120466FF0010103B0BDE8304096
:1050B000FFF76EB9FCF7D4F80008002000000000EC
:1050C0002DE9F0412E4F82B03B680193044688469B
:1050D0001646202383F31188FFF7A2FAFEF7A8FAF9
:1050E00005E031462046FFF7FBF8051E2DDBFEF7F5
:1050F0006FFBA368002BF4D06269013B511C616116
:10510000A36082F80080D4E904329A4224BFE368A5
:105110006361E3690BB120469847FEF7A9FAFFF7F0
:1051200097FA184B1A689A4204D0996993688A686A
:105130009A421ED3002585F31188019A3B689A4252
:1051400028461AD102B0BDE8F081FEF791FAFFF7C8
:105150007FFA0C4B1A689A4207D0996993688A685B
:105160009A4202D20848FEF7C3F9002383F311885C
:10517000E3E70548FEF7BCF9DCE7FCF771F800BF90
:105180000008002090500020F010010800000000EE
:1051900070B5154E82B0044633680193FEF718FBD4
:1051A000FEF716FBD4E905329342A36815D02069B7
:1051B000511C0133A360A161814215780AD22046B7
:1051C0000021FFF7B5F82846019A33689A4209D1C1
:1051D00002B070BDE368A361F1E7002BE7D06FF088
:1051E0000200F1E7FCF73CF8000800200000000096
:1051F0002DE9F04F04463B48D4F81C90006885B078
:105200000D46039001931646002A61D04FF0200A04
:105210008AF31188FFF704FAFEF70AFA4FF0000844
:10522000314FC346FEF7D4FAA368002B32D062692F
:10523000013B511C6161A3602B781370D4E90432E7
:105240009A4224BFE36863610135B9F1000F01D0D0
:105250002046C847FEF70CFAFFF7FAF93B68BB4255
:1052600007D0BA699B6892689A4202D21F48FEF73B
:105270003FF98BF31188013E08F101081FD08AF332
:105280001188FFF7CDF9FEF7D3F9FEF7A1FAA3686D
:10529000002BCCD101992046FFF722F80028C1D07D
:1052A000FEF7E6F9FFF7D4F93B68BB4204D0BA69D0
:1052B0009B6892689A420FD3002383F31188094BAD
:1052C000039A1B689A4240460AD105B0BDE8F08FA8
:1052D0000748FEF70DF999E70448FEF709F9EBE7EF
:1052E000FBF7BEFF0008002090500020F0100108DE
:1052F0001011010800000000000000000000000084
:1053000030B50B490B4A0B680B4D0C4C83B022F0A7
:105310000702019301980A4B09682A6023F00703EA
:105320008842236001D103B030BDFBF799FF00BF75
:1053300000080020675F002004570020005700206D
:10534000000002200000000000000000000000003B
:1053500070B51C4E82B0336801930446202383F35A
:105360001188FFF75DF9FEF763F9FEF731FA164A87
:10537000164B15681B68E01D20F007005B1B984268
:105380009ABF401910600025FEF772F9FFF760F927
:105390000F4B1A689A4204D0996993688A689A42B6
:1053A00009D3002383F31188019A33689A4228466F
:1053B00005D102B070BD0748FEF79AF8F1E7FBF798
:1053C0004FFF00BF000800200457002000570020B6
:1053D0009050002030110108000000000000000083
:1053E00000B50B4B0B481A6883B0019201991A68FB
:1053F000094B036091424FF00003C0E9023305D12D
:10540000103003B05DF804EBFFF7AAB9FBF728FFF3
:105410000008002008570020515300080000000039
:1054200080B50D4A0D4982B000AF13687B604B68B0
:1054300023F001034B60EFF30983683383F309889A
:10544000002383F3118879681368994202D10837E1
:10545000BD4680BDFBF704FF0008002030EF00E0F0
:10546000B0B5194C82B000AF23687B60202383F372
:105470001188164B5B6813F4006308D183F311881D
:105480007A6823689A421DD10837BD46B0BDF1EE57
:10549000103AEFF309854FF080720D4B45F84C2C14
:1054A000DB6845F8083CA5F1680383F30988FEF73B
:1054B00017FC18B1074B45F8503CE1E7064B45F89F
:1054C000503CDDE7FBF7CCFE0008002000ED00E0DB
:1054D00030EF00E0E1020008F402000800000000E4
:1054E00010B5184C82B02368019302F001FE1648F3
:1054F00004F01EF900F0D4F800F00AF900F050F9B9
:1055000000F07EF900F0ACF900F0DAF900F060FB91
:1055100000F08EFB01F094F901F09AF801F0A8FD7B
:1055200001F0EEFD01F0DCFB06F072FB019A23684E
:105530009A4204D102B0BDE8104001F0C9BDFBF7AA
:105540008FFE00BF00080020701701080000000057
:10555000F0B51A4D83B02B68019391420E46144664
:10556000074619D38B1A1F2B16D806F01F03581C99
:105570006209012376098340B24203F1FF3304F04C
:105580001F0457F822000BD31840E040019A2B6803
:105590009A4210D103B0F0BD0948FDF7A9FFE4E736
:1055A00057F82610C4F120020B4020FA04F403FA45
:1055B00002F02043EAE7FBF753FE00BF000800209B
:1055C0004011010800000000000000000000000081
:1055D000F0B51D4E83B033680193054670B37E224B
:1055E0007F212846FFF7B4FF80B1012806D00020B4
:1055F000019A33689A4225D103B0F0BD2846302283
:105600004521FFF7A5FF01308002F1E73E22492145
:105610002846FFF79DFF2F22044631212846FFF739
:1056200097FF5022074653212846FFF791FF013488
:1056300002370938BC4004FA00F0D9E70348FDF707
:1056400057FFCCE7FBF70CFE0008002060110108B3
:10565000F0B5104D83B02B680193044698B194F8CF
:10566000D63094F8D770019994F8D4602A6894F8E9
:10567000D5001B0403EB07633344914203EB002086
:1056800005D103B0F0BD0448FDF732FFE7E7FBF7B3
:10569000E7FD00BF000800208011010800000000A5
:1056A00000B5074B83B01A680192019A1B689A42B1
:1056B00004D103B05DF804EB02F0DABDFBF7D0FDD6
:1056C00000080020000000000000000000000000B2
:1056D00000B50C4B83B01A68019201220270019947
:1056E0001A6800239142C0E90133C0E903334361E2
:1056F00005D1183003B05DF804EBFFF731B8FBF7C4
:10570000AFFD00BF00080020000000000000000006
:1057100000B5074B83B01A680192019A1B689A4240
:1057200004D103B05DF804EB03F04ABBFBF798FD2E
:105730000008002000000000000000000000000041
:1057400030B5134B83B01A68019201220270019C9C
:105750001968002200F1180300F11C054260836102
:1057600000F1200200F12403C561026200F1280566
:1057700000F1080243628C4200F110038562C0E927
:105780000222C0E9043301D103B030BDFBF768FD4C
:1057900000080020000000000000000000000000E1
:1057A00000B5074B83B01A680192019A1B689A42B0
:1057B00004D103B05DF804EB03F09ABFFBF750FD92
:1057C00000080020000000000000000000000000B1
:1057D00000B50A4B83B01A68019201220270019948
:1057E0001A6800239142C0E9043305D1183003B090
:1057F0005DF804EBFEF7B4BFFBF732FD00080020B4
:1058000000B5074B83B01A680192019A1B689A424F
:1058100004D103B05DF804EB03F0F2BAFBF720FD0E
:105820000008002000000000000000000000000050
:1058300000B5084B83B01A68019201220270019AE8
:105840001B6800219A42416002D103B05DF804FB5D
:10585000FBF706FD0008002000000000000000002B
:1058600000B5074B83B01A680192019A1B689A42EF
:1058700004D103B05DF804EB05F052BDFBF7F0FC7A
:1058800000080020000000000000000000000000F0
:1058900000B5084B83B01A68019201220270019A88
:1058A0001B6800219A42416002D103B05DF804FBFD
:1058B000FBF7D6FC000800200000000000000000FC
:1058C00000B5074B83B01A680192019A1B689A428F
:1058D00004D103B05DF804EB04F022BAFBF7C0FC7E
:1058E0000008002000000000000000000000000090
:1058F00000B50A4B83B01A68019201220270019A26
:105900001B6800219A42416005D10C3003B05DF85C
:1059100004EBFEF725BFFBF7A3FC00BF0008002047
:1059200070B51F4D82B02B6801930E46044680B3BC
:1059300079B323785A1E012A04D9052B02D01948BD
:10594000FDF7D6FD202383F31188FEF769FEFDF7EE
:105950006FFE2046666004F00BFA02232370FDF709
:1059600087FEFEF775FE104B1A689A4204D09969BB
:1059700093688A689A4208D3002383F31188019AB6
:105980002B689A4209D102B070BD0848FDF7B0FDFE
:10599000F2E70448FDF7ACFDCBE7FBF761FC00BF85
:1059A00000080020B011010890500020A01101084B
:1059B00030B51D4D83B02B680193044670B3237836
:1059C0005A1E012A04D9052B02D01848FDF790FD74
:1059D000202383F31188FEF723FEFDF729FE2046DE
:1059E00004F006FB01232370FDF742FEFEF730FEB4
:1059F0000F4B1A689A4204D0996993688A689A4250
:105A000008D3002383F31188019A2B689A4209D1A5
:105A100003B030BD0748FDF76BFDF2E70348FDF723
:105A200067FDCCE7FBF71CFC00080020C011010853
:105A300090500020A01101080000000000000000AC
:105A400030B5094D83B02B680193044630B1019AFB
:105A50002B68A0689A4205D103B030BD0348FDF71A
:105A600047FDF4E7FBF7FCFB00080020D01101081C
:105A70002DE9F04F304E87B034680594DDF840B022
:105A80000D4690461F46DDE9119A044608B10029EB
:105A90003DD12A48FDF72CFD2378022B02D0274860
:105AA000FDF726FD202383F31188FEF7B9FDFDF7EE
:105AB000BFFD4FF0000C0320C4F808C04246294641
:105AC00020703B462046CDE9019ACDF800B004F0A5
:105AD000E7FA431C0CBF0523022323700546FDF79C
