:020000040800F2
:1000000000040020C1010008A14B0008A14B00081A
:1000100081420008A14B0008A14B0008A14B000839
:10002000A14B0008A14B0008A14B0008C16C0008BF
:10003000A14B0008A14B0008A14B000861D10008AA
:10004000A14B0008E1A0000871A20008C1A20008AD
:10005000A14B0008A14B0008219E0008719E0008DA
:10006000C19E0008119F0008619F0008619300086D
:10007000B19300080194000851940008A19400086D
:10008000F194000841950008919C000861A40008C3
:10009000D1A4000881A5000831A60008B19F00087E
:1000A000A14B0008A14B000811CC0008A14B00088F
:1000B00021CD000861CD0008A1CD0008F1B30008F2
:1000C00031B50008A14B0008A14B0008A14B000866
:1000D000A14B0008A14B0008A14B000821D2000849
:1000E00041A0000831A1000881A10008A14B00082F
:1000F000A14B0008A14B0008A14B000891950008F6
:10010000A14B0008C1A70008E1CD0008A14B0008E1
:10011000A14B0008A14B0008D1CB0008A14B00085F
:10012000E19500083196000881960008D1960008F4
:1001300021970008A14B0008D1A10008A14B00089D
:10014000A14B0008A14B0008A14B000811C80008F2
:1001500071970008C197000811980008A14B00088A
:10016000A14B0008A14B0008A14B0008A14B0008BF
:1001700021A20008A14B0008A12F0008A14B0008F4
:10018000A14B0008A14B0008A14B0008A14B00089F
:10019000A14B0008A14B0008A14B0008A14B00088F
:1001A000A14B0008A14B0008A14B0008A14B00087F
:1001B000A14B0008A14B0008A14B0008A14B00086F
:1001C00072B62E4880F3098840F20000CCF200009D
:1001D0004EF63471CEF20001086040F20000C0F229
:1001E000F0004EF68851CEF2000108604FF000009A
:1001F000E1EE100A4EF63C71CEF2000108600620D6
:1002000080F31488BFF36F8F0DF052F94FF0553023
:100210001B491C4A91423CBF41F8040BFAE71A49BA
:10022000164A91423CBF41F8040BFAE71749184AB5
:10023000184B9A423EBF51F8040B42F8040BF8E702
:1002400000201549154A91423CBF41F8040BFAE7DA
:1002500004F08EFC124C134DAC4203DA54F8041B2C
:100260008847F9E701F0DCFB0F4C104DAC4203DA94
:1002700054F8041B8847F9E704F08ABC0008002002
:10028000000000200004002000040020E8560108BF
:100290000008002014120020181200203053002003
:1002A000C0010008C0010008C0010008C00100082A
:1002B0002DE9F04F2DED108AC1F80CD0D0F80CD0FC
:1002C000BDEC108ABDE8F08F04F0AAFD05F098FDA2
:1002D000002383F311882846A047002005F030FB57
:1002E00005F076FD04F07CFD05F09AF904F098FD28
:1002F00005F086FD00DFFEE70000000000000000C2
:1003000081F0004102E000BF83F0004330B54FEAC6
:1003100041044FEA430594EA050F08BF90EA020F33
:100320001FBF54EA000C55EA020C7FEA645C7FEAC6
:10033000655C00F0E2804FEA5454D4EB5555B8BFE9
:100340006D420CDD2C4480EA020281EA030382EA5A
:10035000000083EA010180EA020281EA0303362DEC
:1003600088BF30BD11F0004F4FEA01314FF4801CBF
:100370004CEA113102D0404261EB410113F0004FD1
:100380004FEA03334CEA133302D0524263EB430388
:1003900094EA050F00F0A780A4F10104D5F1200E26
:1003A0000DDB02FA0EFC22FA05F2801841F1000181
:1003B00003FA0EF2801843FA05F359410EE0A5F155
:1003C00020050EF1200E012A03FA0EFC28BF4CF086
:1003D000020C43FA05F3C01851EBE37101F000453C
:1003E00007D54FF0000EDCF1000C7EEB00006EEB49
:1003F0000101B1F5801F1BD3B1F5001F0CD34908D3
:100400005FEA30004FEA3C0C04F101044FEA445229
:1004100012F5800F80F09A80BCF1004F08BF5FEAB0
:10042000500C50F1000041EB045141EA050130BD90
:100430005FEA4C0C404141EB010111F4801FA4F133
:100440000104E9D191F0000F04BF01460020B1FA88
:1004500081F308BF2033A3F10B03B3F120020CDAC0
:100460000C3208DD02F1140CC2F10C0201FA0CF09E
:1004700021FA02F10CE002F11402D8BFC2F1200C03
:1004800001FA02F120FA0CFCDCBF41EA0C019040B9
:10049000E41AA2BF01EB0451294330BD6FEA040402
:1004A0001F3C1CDA0C340EDC04F11404C4F12002ED
:1004B00020FA04F001FA02F340EA030021FA04F3FF
:1004C00045EA030130BDC4F10C04C4F1200220FA56
:1004D00002F001FA04F340EA0300294630BD21FA94
:1004E00004F0294630BD94F0000F83F4801306BF5A
:1004F00081F480110134013D4EE77FEA645C18BF4E
:100500007FEA655C29D094EA050F08BF90EA020FE4
:1005100005D054EA000C04BF1946104630BD91EADC
:10052000030F1EBF0021002030BD5FEA545C05D1DF
:100530004000494128BF41F0004130BD14F580041E
:100540003CBF01F5801130BD01F0004545F0FE4192
:1005500041F470014FF0000030BD7FEA645C1ABFC7
:10056000194610467FEA655C1CBF0B46024650EAFE
:10057000013406BF52EA033591EA030F41F400212A
:1005800030BD00BF90F0000F04BF0021704730B5B0
:100590004FF4806404F132044FF000054FF0000185
:1005A00050E700BF90F0000F04BF0021704730B546
:1005B0004FF4806404F1320410F0004548BF40421B
:1005C0004FF000013EE700BF42004FEAE2014FEA70
:1005D00031014FEA02701FBF12F07F4393F07F4F4B
:1005E00081F06051704732F07F4208BF704793F04E
:1005F0007F4F04BF41F40021704730B54FF4607461
:1006000001F0004521F000411CE700BF50EA010263
:1006100008BF704730B54FF000050AE050EA01020C
:1006200008BF704730B511F0004502D5404261EB7C
:1006300041014FF4806404F132045FEA915C3FF4BD
:10064000D8AE4FF003025FEADC0C18BF03325FEA5A
:10065000DC0C18BF033202EBDC02C2F1200300FA0B
:1006600003FC20FA02F001FA03FE40EA0E0021FA30
:1006700002F11444BDE600BF0000000000000000CD
:1006800070B54FF0FF0C4CF4E06C1CEA11541DBF28
:100690001CEA135594EA0C0F95EA0C0F00F0DEF8F3
:1006A0002C4481EA030621EA4C5123EA4C5350EAD8
:1006B000013518BF52EA033541F4801143F4801329
:1006C00038D0A0FB02CE4FF00005E1FB02E506F0BA
:1006D0000042E0FB03E54FF00006E1FB03569CF00F
:1006E000000F18BF4EF0010EA4F1FF04B6F5007F15
:1006F00064F5407404D25FEA4E0E6D4146EB060687
:1007000042EAC62141EA55514FEAC52040EA5E500F
:100710004FEACE2EB4F1FD0C88BFBCF5E06F1ED8B9
:10072000BEF1004F08BF5FEA500E50F1000041EBF0
:10073000045170BD06F0004646EA010140EA02009D
:1007400081EA0301B4EB5C04C2BFD4EB0C0541EABF
:10075000045170BD41F480114FF0000E013C00F3D4
:10076000AB8014F1360FDEBF002001F0004170BDF8
:10077000C4F10004203C35DA0C341BDC04F1140411
:10078000C4F1200500FA05F320FA04F001FA05F29D
:1007900040EA020001F0004221F0004110EBD3706A
:1007A00021FA04F642EB06015EEA430E08BF20EA96
:1007B000D37070BDC4F10C04C4F1200500FA04F339
:1007C00020FA05F001FA04F240EA020001F00041CB
:1007D00010EBD37041F100015EEA430E08BF20EA3E
:1007E000D37070BDC4F1200500FA05F24EEA020E86
:1007F00020FA04F301FA05F243EA020321FA04F0B5
:1008000001F0004121FA04F220EA020000EBD3706B
:100810005EEA430E08BF20EAD37070BD94F0000F6B
:100820000FD101F00046400041EB010111F4801F9F
:1008300008BF013CF7D041EA060195F0000F18BF50
:10084000704703F00046520043EB030313F4801F8C
:1008500008BF013DF7D043EA0603704794EA0C0F46
:100860000CEA135518BF95EA0C0F0CD050EA41065C
:1008700018BF52EA4306D1D181EA030101F00041D9
:100880004FF0000070BD50EA410606BF1046194601
:1008900052EA430619D094EA0C0F02D150EA01360D
:1008A00013D195EA0C0F05D152EA03361CBF10464E
:1008B00019460AD181EA030101F0004141F0FE41ED
:1008C00041F470014FF0000070BD41F0FE4141F471
:1008D000780170BD70B54FF0FF0C4CF4E06C1CEA71
:1008E00011541DBF1CEA135594EA0C0F95EA0C0F26
:1008F00000F0A7F8A4EB050481EA030E52EA0335E1
:100900004FEA013100F088804FEA03334FF0805501
:1009100045EA131343EA12634FEA022245EA11152E
:1009200045EA10654FEA00260EF000419D4208BFDF
:10093000964244F1FD0404F5407402D25B084FEA8C
:100940003202B61A65EB03055B084FEA32024FF438
:1009500080104FF4002CB6EB020E75EB030E22BF95
:10096000B61A754640EA0C005B084FEA3202B6EB55
:10097000020E75EB030E22BFB61A754640EA5C0004
:100980005B084FEA3202B6EB020E75EB030E22BF94
:10099000B61A754640EA9C005B084FEA3202B6EB95
:1009A000020E75EB030E22BFB61A754640EADC0054
:1009B00055EA060E18D04FEA051545EA16754FEAB6
:1009C00006164FEAC30343EA52734FEAC2025FEAD4
:1009D0001C1CC0D111F4801F0BD141EA00014FF063
:1009E00000004FF0004CB6E711F4801F04BF014334
:1009F0000020B4F1FD0C88BFBCF5E06F3FF6AFAE50
:100A0000B5EB030C04BFB6EB020C5FEA500C50F1DF
:100A1000000041EB045170BD0EF0004E4EEA113162
:100A200014EB5C04C2BFD4EB0C0541EA045170BD69
:100A300041F480114FF0000E013C90E645EA060EAD
:100A40008DE60CEA135594EA0C0F08BF95EA0C0FDB
:100A50003FF43BAF94EA0C0F0AD150EA01347FF423
:100A600034AF95EA0C0F7FF425AF104619462CE7FA
:100A700095EA0C0F06D152EA03353FF4FDAE10465D
:100A8000194622E750EA410618BF52EA43067FF4AE
:100A9000C5AE50EA41047FF40DAF52EA43057FF43E
:100AA000EBAE12E7000000000000000000000000B4
:100AB0004FF0FF3C06E000BF4FF0010C02E000BF2A
:100AC0004FF0010C4DF804CD4FEA410C7FEA6C5C0D
:100AD0004FEA430C18BF7FEA6C5C1BD001B050EAB0
:100AE000410C0CBF52EA430C91EA030F02BF90EA9B
:100AF000020F0020704710F1000F91EA030F58BF5A
:100B0000994208BF90422CBFD8176FEAE37040F0BB
:100B1000010070474FEA410C7FEA6C5C02D150EA59
:100B2000013C07D14FEA430C7FEA6C5CD6D152EA14
:100B3000033CD3D05DF8040B704700BF84461046D9
:100B400062468C461946634600E000BF01B5FFF7D8
:100B5000B7FF002848BF10F1000F01BD4DF808EDA8
:100B6000FFF7F4FF0CBF012000205DF808FB00BF79
:100B70004DF808EDFFF7EAFF34BF012000205DF8D3
:100B800008FB00BF4DF808EDFFF7E0FF94BF012020
:100B900000205DF808FB00BF4DF808EDFFF7CEFF21
:100BA00094BF012000205DF808FB00BF4DF808ED60
:100BB000FFF7C4FF34BF012000205DF808FB00BF31
:100BC0004FEA410C7FEA6C5C02D150EA013C0AD149
:100BD0004FEA430C7FEA6C5C02D152EA033C02D13B
:100BE0004FF0000070474FF0010070470000000018
:100BF0004FEA410212F5001215D211D56FF4787345
:100C0000B3EB625212D94FEAC12343F0004343EAE7
:100C1000505311F0004F23FA02F018BF40427047C2
:100C20004FF00000704750EA013005D111F000404C
:100C300008BF6FF0004070474FF00000704700BFE2
:100C40004FEA4102B2F1E04324BFB3F5001CDCF1EE
:100C5000FE5C0DD901F0004C4FEAC0024CEA507026
:100C6000B2F1004F40EB830008BF20F00100704755
:100C700011F0804F21D113F13872BCBF01F0004058
:100C8000704741F480114FEA5252C2F11802C2F18A
:100C9000200C10FA0CF320FA02F018BF40F001000B
:100CA0004FEAC1234FEAD32303FA0CFC40EA0C00BD
:100CB00023FA02F34FEA4303CCE77FEA625307D1FA
:100CC00050EA01331EBF4FF0FE4040F44000704731
:100CD00001F0004040F0FE4040F40000704700BFCB
:100CE00053B94AB9002908BF00281CBF4FF0FF3193
:100CF0004FF0FF3000F074B9ADF1080C6DE904CE8F
:100D000000F006F8DDF804E0DDE9022304B07047E6
:100D10002DE9F047089E04468846002B4BD18A42B5
:100D2000154667D9B2FA82F24AB1C2F1200701FA38
:100D300002F320FA07F7954047EA030894404FEA88
:100D4000154E230CB8FBFEF71FFA85FC0EFB178827
:100D500043EA084307FB0CF1994209D9EB1807F164
:100D6000FF3080F01B81994240F21881023F2B44F2
:100D70005B1AA4B2B3FBFEF00EFB103344EA03444B
:100D800000FB0CFCA44509D92C1900F1FF3380F0BD
:100D90000781A44540F2048102382C4440EA074010
:100DA000A4EB0C0400271EB1D4400023C6E9004385
:100DB0003946BDE8F0878B4209D9002E00F0EB8060
:100DC0000027C6E9000138463946BDE8F087B3FA86
:100DD00083F7002F47D18B4202D3824200F2FA8080
:100DE000841A61EB030301209846002EE0D0C6E987
:100DF0000048DDE702B9FFDEB2FA82F2002A40F0D5
:100E00008F80491B4FEA154E1FFA85F80127B1FB69
:100E1000FEFC230C0EFB1C1143EA014308FB0CF102
:100E2000994207D9EB180CF1FF3002D2994200F237
:100E3000CD808446591AA3B2B1FBFEF00EFB10140C
:100E400043EA044408FB00F8A04507D92C1900F137
:100E5000FF3302D2A04500F2B6801846A4EB080486
:100E600040EA0C409FE7C7F1200CBB4022FA0CFE81
:100E70004EEA030E01FA07F420FA0CF521FA0CF3FE
:100E80004FEA1E482543B3FBF8F92C0C08FB193335
:100E90001FFA8EFA44EA034309FB0AF49C4202FA61
:100EA00007F200FA07F10BD91EEB030309F1FF303B
:100EB00080F087809C4240F28480A9F1020973444B
:100EC0001B1BADB2B3FBF8F008FB103345EA03443B
:100ED00000FB0AFAA24508D91EEB040400F1FF3317
:100EE0006BD2A24569D90238744440EA0940A0FB9C
:100EF0000289A4EB0A044C45C2464B4654D351D058
:100F0000002E69D0B1EB0A0564EB030404FA0CFC73
:100F1000FD40FC404CEA0505C6E90054002747E7C0
:100F2000C2F1200320FA03F7954001FA02F021FAFA
:100F300003F34FEA154E3843010CB3FBFEF71FFADB
:100F400085F80EFB173341EA034107FB08F38B4298
:100F500004FA02F407D9691807F1FF3C2FD28B423B
:100F60002DD9023F2944CB1A81B2B3FBFEF00EFB10
:100F7000103341EA034100FB08F38B4207D969189B
:100F800000F1FF3C17D28B4215D902382944C91A07
:100F900040EA07473BE73746304609E70746E7E6BA
:100FA0001846FBE64145ABD2B8EB020A69EB0E02EC
:100FB00001381346A4E76046E9E7184695E7674617
:100FC000D1E781467CE702382C4447E7ACF1020CBC
:100FD0002B442FE7384608E73746E9E600000000D3
:100FE000704700BF0000000000000000000000008B
:100FF000844641EA000313F003036DD1403A41D324
:1010000051F8043B40F8043B51F8043B40F8043BE2
:1010100051F8043B40F8043B51F8043B40F8043BD2
:1010200051F8043B40F8043B51F8043B40F8043BC2
:1010300051F8043B40F8043B51F8043B40F8043BB2
:1010400051F8043B40F8043B51F8043B40F8043BA2
:1010500051F8043B40F8043B51F8043B40F8043B92
:1010600051F8043B40F8043B51F8043B40F8043B82
:1010700051F8043B40F8043B51F8043B40F8043B72
:10108000403ABDD2303211D351F8043B40F8043B12
:1010900051F8043B40F8043B51F8043B40F8043B52
:1010A00051F8043B40F8043B103AEDD20C3205D322
:1010B00051F8043B40F8043B043AF9D2043208D01A
:1010C000D2071CBF11F8013B00F8013B01D30B888C
:1010D00003806046704700BF082A13D38B078DD06A
:1010E00010F003038AD0C3F10403D21ADB071CBF3C
:1010F00011F8013B00F8013B80D331F8023B20F8A6
:10110000023B7BE7043AD9D3013A11F8013B00F8DE
:10111000013BF9D20B7803704B7843708B78837066
:101120006046704700000000000000000000000062
:1011300090F800F06DE9024520F007016FF0000C17
:1011400010F0070491F820F040F049804FF00004BF
:101150006FF00700D1E9002391F840F000F108009A
:1011600082FA4CF2A4FA8CF283FA4CF3A2FA8CF3D2
:101170004BBBD1E9022382FA4CF200F10800A4FA39
:101180008CF283FA4CF3A2FA8CF3E3B9D1E904238D
:1011900082FA4CF200F10800A4FA8CF283FA4CF3C4
:1011A000A2FA8CF37BB9D1E9062301F1200182FA7E
:1011B0004CF200F10800A4FA8CF283FA4CF3A2FA84
:1011C0008CF3002BC6D0002A04BF04301A4612BA92
:1011D000B2FA82F2FDE8024500EBD2007047D1E995
:1011E000002304F00305C4F100004FEAC50514F024
:1011F000040F91F840F00CFA05F562EA05021CBFF5
:1012000063EA050362464FF00004A9E7000000000E
:1012100001F0FF01102A2BDB10F0070F08D010F8A7
:10122000013B013A8B422DD010F0070F42B3F6D1AB
:10123000F0B441EA012141EA014122F007047FF0C4
:1012400000070023F0E80256083C85EA010586EA1B
:10125000010685FA47F5A3FA87F586FA47F6A5FA57
:1012600087F68EB9EED1F0BC01F0FF0102F0070263
:1012700032B110F8013B013A83EA010313B1F8D10E
:101280000020704701387047002D06BF35460338EF
:10129000073815F0010F07D1013015F4807F02BF28
:1012A000013015F4C03F0130F0BC0138704700BF79
:1012B00000B5084B83B01A680192019A1B689A42E4
:1012C00005D1054803B05DF804EB03F0E9BCFFF776
:1012D000EFFF00BF00080020303F010800000000C1
:1012E00010B5124C82B02368019301F0B9F850B9DF
:1012F00001F09EF8019A23689A4215D102B0BDE828
:10130000104001F0F5BC01F0C3FC4FF42F7004F065
:101310009FFA01F0BDF8019A23689A4204D102B005
:10132000BDE8104001F0CCBCFFF7C2FF0008002070
:101330002DE9F0412DED028BC54C82B0236801935D
:1013400050B9C44D2B78042B3CD8DFE813F04F0084
:1013500022006500F200590001F0D2F80388962BB4
:101360003AD901F0CDF80388B3F5E17F34D201F02A
:10137000C7F84388282B2FD901F0C2F84388312BB6
:101380002AD8A02001F004F9B24DB34A012313700A
:101390002B7000F0C5FE002800F0D78000F0C0FEE2
:1013A000012800F0D28001F043FC58B1AA4D2B78FF
:1013B000002B00F04781142001F0EAF82B7883F02D
:1013C00001032B70019A23689A4240F03F8102B0DA
:1013D000BDEC028BBDE8F081A04B9E4D1B6802A8BE
:1013E00040F8083D01F0F4F800232B7001F038FCC0
:1013F0000028E7D0A02001F0CBF801232B70E1E713
:1014000001F016FC0028DDD000F08AFE002840F034
:10141000D58002232B70D5E700F082FE012800F072
:10142000DA8000F07DFE002840F0CD8000F048FE1C
:1014300000F05EFEB0F90230002BC3DA00F058FE77
:10144000B0F9007000F054FEB0F9006000F050FEFA
:10145000B0F9028000F04CFE438813FB08F307FB51
:101460000636082EAEDD00F02BFEB0F9026000F06B
:101470003FFE7A4BB0F902201B680093C6F132069A
:1014800096FBF2F607EE906AF8EEE78A00F018FE97
:10149000B0F9003007EE903AB8EEE78A00F028FE87
:1014A000B0F9003007EE903AF8EEE77AA7EEA88A96
:1014B000FDEEC87A17EE903A1BB2A3F1970292B2F2
:1014C000B2F5957FADF800303FF67CAF684601F08D
:1014D0007FF800F0F5FDBDF90220B0F902309B1A4B
:1014E00007EE903AB8EEE78A00F0EAFDBDF9002079
:1014F000B0F900309B1A00EE903AB0EE480AF8EED0
:10150000E00A0CF005FEDFED567A9FED567A564A5A
:1015100020EE270AC0EE077AFDEEE77A17EE903A42
:101520001BB2002BB8BF03F5B473138003232B70D9
:1015300048E701F095FB00283FF444AF4A4B188878
:1015400001F026F804232B703CE700F0B9FDB0F958
:10155000026000F0D5FFB0F90230F61A07EE906A8B
:10156000B8EEE78A00F0ACFDB0F9006000F0C8FF0B
:10157000B0F90230F31A00EE903AB0EE480AF8EEF5
:10158000E00A0CF0C5FDDFED367A9FED367A20EEED
:10159000270AC0EE077AF5EEC07AF1EE10FA03D50D
:1015A0009FED327A77EE877AFCEEE77A17EE903A83
:1015B00098B200F0EDFF02232B7003E700F0B0FDBE
:1015C00001283FF426AF00F0ABFD02287FF4FAAE0D
:1015D00001232B70F6E600F073FDB0F9025000F025
:1015E0008FFFB0F90230ED1A07EE905AB8EEE78A95
:1015F00000F066FDB0F9005000F082FFB0F9003055
:10160000EB1A00EE903AB0EE480AF8EEE00A0CF061
:101610007FFDDFED137A9FED137A20EE270AC0EEEF
:10162000077AF5EEC07AF1EE10FA44BF9FED0F7A1B
:1016300077EE877AFCEEE77A17EE903A98B200F0F0
:10164000A7FFBFE6A02000F0A3FFB7E6FFF730FE3C
:10165000000800200408002005080020203F0108A1
:1016600000003443DB0F49401E1200200000B44349
:101670002DE9F0432DED028BD94C85B023680393FF
:10168000002840F0A980D74D2B78042B00F29A80D7
:10169000DFE813F0AC000500F400FF00E90000F003
:1016A0003FFD002840F0168100F00AFDB0F902303D
:1016B000CD4ECE4FC3F57A7307EE903AB8EEE78A77
:1016C00000F0FEFCB0F90030C3F5967300EE903ADE
:1016D000B0EE480AF8EEE00A0CF01AFDDFEDC47A2D
:1016E0009FEDC47A20EE270AC0EE077AFDEEE77A76
:1016F00017EE903A1BB2002BB8BF03F5B4733380DA
:1017000000F0DEFC8046B6F90000FEF74BFF41EC2E
:10171000100B0CF0FDF9B8F900008DED000BFEF791
:1017200041FF9DED000B80468946002251EC100BD5
:10173000B14BFEF7A5FF02460B4640464946FEF771
:10174000E5FDFFF755FA388000F0BAFC8046B6F99F
:101750000000FEF727FF41EC100B0CF039FAB8F946
:1017600002008DED000BFEF71DFF9DED000B804686
:101770008946002251EC100B9F4BFEF781FF0B4670
:10178000024649464046FEF7C1FDFFF731FAB7F978
:10179000003000B2282B788040F3E480B3F50C7F52
:1017A00004DB4FF40C7200233A803380282800F3C6
:1017B0002B8128225A237A8033808C4800F008FF3E
:1017C00002232B70039A23689A4240F0278105B0C8
:1017D000BDEC028BBDE8F0834FF45C7002F0B8FF03
:1017E000804D864802F09CFF00232B7000F098FC8F
:1017F000002869D100F064FCB0F9026000F080FEBE
:10180000B0F90230F61A07EE906AB8EEE78A00F0F7
:1018100057FCB0F9006000F073FEB0F90030F31A25
:1018200000EE903AB0EE480AF8EEE00A0CF070FCD8
:10183000DFED6F7A9FED6F7A20EE270AC0EE077A10
:10184000F5EEC07AF1EE10FA03D59FED6D7A77EEE2
:10185000877AFCEEE77A17EE903A98B200F098FE9D
:1018600001232B70AEE701F013FA4FF42F7003F051
:10187000EFFF01F025FA01232B70A3E701F0F0F947
:1018800000289FD0584B188800F082FE03232B704D
:1018900098E701F0CDF9002894D000F041FC08B998
:1018A00004232B7000F03CFC012860D000F038FCD1
:1018B000022887D14FF4487002F04AFF514802F0E5
:1018C0002FFF00232B707DE700F02AFC01287FF416
:1018D00079AF8FE700F024FC0228EBD000F020FC69
:1018E00001287FF46FAF00F0EBFBB0F9025000F07D
:1018F00007FEB0F90230ED1A07EE905AB8EEE78A0B
:1019000000F0DEFBB0F9005000F0FAFDB0F9003055
:10191000EB1A00EE903AB0EE480AF8EEE00A0CF04E
:10192000F7FBDFED337A9FED337A039A236820EEDD
:10193000270AC0EE077AF5EEC07AF1EE10FA44BF3E
:101940009FED2F7A77EE877A9A4267D1FCEEE77A9D
:1019500017EE903A98B205B0BDEC028BBDE8F043AB
:1019600000F016BE282200233A8033801EE700F0E4
:10197000A7FBB0F9026000F0C3FDB0F90230F61A1F
:1019800007EE906AB8EEE78A00F09AFBB0F90060C3
:1019900000F0B6FDB0F90030F31A00EE903AB0EE68
:1019A000480AF8EEE00A0CF0B3FBDFED117A9FED88
:1019B000117A20EE270AC0EE077AF5EEC07AF1EE32
:1019C00010FA44BF9FED0E7A77EE877AFCEEE77A45
:1019D00017EE903A98B200F0DBFD01232B7065E71B
:1019E000000800201C1200202012002018120020E5
:1019F00000003443DB0F49400000544090FCFFFFDF
:101A00000000B443E0FCFFFFB0F5707FFFF6D5AEF9
:101A10004FF470725A237A803380CEE6FFF748FC89
:101A200030B51D4B83B01B68019305F0A9F903F095
:101A3000CFF802F0CDFB1949194806F0E1FB02246A
:101A400002F0FEFF01F0CCFD02F0A2F902F0F8FE78
:101A500000F07EFB01F024FA00F032FD01F0B0F955
:101A600007E014D3032801D1FFF73AFC1E2003F04E
:101A7000EFFE01F0FDF9051B18BF012501F0F8F993
:101A800001280446EDD12846FFF7F2FDEEE728468F
:101A9000FFF74EFCEAE700BF00080020080800201E
:101AA0008452002000000000000000000000000040
:101AB00080B5274C274AA3692749996186B003233B
:101AC0002025002116680093EF224FF42073CDE902
:101AD00001554420059601F003FF2D2002F088F9FE
:101AE000002002F0D5F91D4E1D4F002002F0A0F994
:101AF00001F0FEFD002001F033FEB04601F098FD3C
:101B000013E003F065FD03F08BF904F079F9236825
:101B1000A34207D0A2699B6892689A4202D23846D3
:101B200003F0BEF8002383F3118801F059FE01F0A1
:101B3000BFFD85F3118804F04BF903F051F903F070
:101B40001FFAB368002BDCDC404604F019FAD8E732
:101B50006044002000080020503F010818080020C1
:101B6000703F0108000000000000000000000000BD
:101B70002DE9F04F2B4D04782D680C7044784C7093
:101B800087B090F87F420595002581F87F42CDE926
:101B9000015290F87E42DFF89080039381F87E42F4
:101BA00001F1010C00F5F06BAA4602270CF801AF19
:101BB0001FFA87F9C6190BEB070E002316F8024C23
:101BC00016F8012C3578B178224474782A442244DE
:101BD0000A44A8FB021203EBD20306F52076DBB21F
:101BE000B6458CF80030E9D10A2B06D8019B93B991
:101BF000029BA3F8009001230193013740F27E235A
:101C00009F42D3D1074B059A1B6801989A4206D18F
:101C100007B0BDE8F08F039BA3F80090EDE7FFF756
:101C200047FB00BF0008002089888888000000006A
:101C3000F0B51F4D0C882B6883B0092C019313D984
:101C40001C4F06192744737816F801CDA3EB0C033B
:101C500003EBD3735B1007F8013901330C8003DB0E
:101C6000013CA4B2012CEED1118840F275239942B7
:101C700015D8104C08440C4440F27F2710F8013F5F
:101C800010F8026C9B1B03EBD3735B10012B04F861
:101C9000013B118003DC013189B2B942EED1019AD6
:101CA0002B689A4201D103B0F0BDFFF701FB00BFE2
:101CB0000008002038120020000000000000000092
:101CC0002DE9F04F2DED0A8BC94E83B03368019397
:101CD0000A2807460C46A1EB000303D9B1F51D7F86
:101CE00040F26E81C34A0121117007EE903ADFED98
:101CF000C2AA9FEDC27A9FEDC2AADFEDC29A9FED04
:101D0000C2BADFF82C83C14DF8EEE77AB6EE009A3E
:101D100067EEAA7A3C4487EE870A20EE090A0CF0A7
:101D2000DFF807EE904A9FEDBA6ADFEDBA6AF8EE87
:101D3000E77AC6EE80BA87EE867A39EE479A00F0E7
:101D4000DFFBB0F9003008EE903A00F001FC07EE3E
:101D5000900AB8EEE70AF8EEE88A20EE0A0A80EE6A
:101D6000290A0CF06DF8E0EE0B8A00F0F1FB07EEAB
:101D7000900AF8EEE77A67EE8A7A87EEA90AA9EE6A
:101D80002A0A0CF05DF8B0EE40CA00F0B9FBB0F9D9
:101D9000023008EE103A00F0DBFB07EE900AB8EED6
:101DA000E70AB8EEC88A20EE0A0A80EE290A0CF08B
:101DB00097F8A0EE0B8A00F0CBFB07EE900AF8EE46
:101DC000E77A27EE8AAA8AEE290AA9EE2A0A0CF0F7
:101DD00087F8F0EE687AEBEE8C7AB8F90030B5F956
:101DE0000070DFED8D5A9FED8D6AABEE808AFDEEBF
:101DF000E77A06EE903A17EE902AB8F90230BDEE77
:101E0000C88A12B207EE103A07EE902A18EE102A8E
:101E1000F8EEE66A12B2B8EEC77AF8EEE77A66EE46
:101E2000A56A08EE102A27EE257AE7EE866A2023B7
:101E3000B8EEC88AF0EE477AE8EE067ABDEEE67AAA
:101E4000FDEEE77A17EE102A14B217EE902AA8F8E2
:101E50000040A8F8022083F31188DFF8D89103F03E
:101E6000B7FF02F0BDFFD9F828B002F0D9FF03F0A8
:101E7000C7FFD9F800204A4506D0D9F81830926833
:101E80009B689342C0F0AA80002383F31188DFF897
:101E9000A8A1634ADAF80030DFED626AABEB030B0E
:101EA0004FF47A730BFB0333013BA2FB0323E41BC8
:101EB0009B0907EE903A07EE104AF8EEE77AB8EE83
:101EC000C77AB5F90220B8F90230C7EE278A9B1A03
:101ED000202207EE903A68EEA68AB8EEE78A82F3EF
:101EE000118803F075FF02F07BFFD9F8284002F05B
:101EF00097FF03F085FFD9F800304B4505D0D9F89E
:101F000018209B6892689A4260D3002383F311885B
:101F1000DAF80030424A9FED405ADFED424ADFEDE9
:101F20003F5AB8F800102980E41A4FF47A7304FB82
:101F30000333013BA2FB03239B0907EE903AF8EE23
:101F4000E77A394BB8F80220D3ED016A93ED007AB5
:101F50006A8088EE276A202266EE856A67EE057A37
:101F600026EE246AB0EE667AA6EE257AE8EEA57A29
:101F700083ED017AC3ED007A82F3118803F028FF24
:101F800002F02EFFD9F8284002F04AFF03F038FF94
:101F9000D9F800304B4505D0D9F818209B689268D5
:101FA0009A4217D3002383F31188CAF80040019A9C
:101FB00033689A421AD103B0BDEC0A8BBDE8F08FAA
:101FC0000E2B0FDC0B4B02221A70F0E7174802F0C1
:101FD00067FE9AE7154802F063FEE3E7134802F054
:101FE0005FFE51E7034A002111707EE6FFF760F9BA
:101FF0000008002014080020F90F493F0000204489
:10200000DB0F49400000344300000C422412002042
:102010000000A04448E19541CDCC4C3FCDCC4C3E96
:10202000D34D62100000C8422C120020703F0108FE
:10203000281200206044002034120020000000001C
:1020400070B5194A194B926919499161ADF5227D14
:102050001B68A19301A84FF4207200210EF090FD9F
:10206000144E154C0023ADF80030ADF802300225B7
:10207000204603F04DFF01F08BFB0DF102036A4691
:1020800001A9FFF775FD08B93570F1E7694601A8A8
:102090000DF10202FFF7CCFDBDF80210BDF8000003
:1020A000FFF70EFEE4E700BF6044002000080020B8
:1020B000603F0108140800201808002000000000FC
:1020C00000B5074B83B01A680192019A1B689A42C7
:1020D00003D1044803B05DF804FBFFF7E9F800BF43
:1020E000000800202812002000000000000000006E
:1020F00000B5074B83B01A680192019A1B689A4297
:1021000003D1044803B05DF804FBFFF7D1F800BF2A
:10211000000800202C120020000000000000000039
:1021200000B5074B07491A68087883B00192019AF5
:102130001B689A4202D103B05DF804FBFFF7B8F8C0
:10214000000800201408002000000000000000002B
:1021500030B50E4C0E4B22680E4885B00025039218
:1021600042F278114022009503F01AFB0A4B0095C9
:1021700040220A484FF41E7103F012FB039A2368B1
:102180009A4201D105B030BDFFF792F80008002057
:102190004120000830170020B11A0008B8140020B0
:1021A0000EB410B50A4C0B4923680B4883B0019359
:1021B00006AB1A4600930BF0D3F9019A23689A42B2
:1021C00004D103B0BDE8104003B07047FFF770F8CA
:1021D00000080020903F0108845200200000000009
:1021E0002DE9F041104F114E3B6882B00546302278
:1021F000202101936C1E0EF0C3FC2F35B04601E088
:10220000AC4208D033684046DB689847C0B22D28FE
:1022100004F8010FF4D1019A3B689A4202D102B04E
:10222000BDE8F081FFF744F8000800208452002048
:1022300030B50C4C83B02368019300F061F9058838
:1022400000F05EF901992368994208D14388064954
:1022500006482A4603B0BDE83040FFF7A1BFFFF7AC
:1022600027F800BF00080020903F0108845200209A
:1022700000B56138C3B20B4A152B83B0116898BF03
:102280000948019198BFD8400199136894BF00F0A4
:1022900001000020994202D103B05DF804FBFFF772
:1022A00007F800BF000800208D003000000000008B
:1022B0002DE9F04F474EDFF83091336885B04FF08D
:1022C0000008039399F800300093434B1B78019367
:1022D000834600F1300547465C4614F801ABBAF17D
:1022E0002D0F1ED05046FFF7C3FFB8B123783A2B0D
:1022F00023D00022AAF1610ABAF1150F0ED8DFE847
:102300000AF0490D433D0D0D0D370D0D0D0D0D0D51
:102310000D0D0D0D0D0D4F0B304B5A80AC42A346E9
:10232000DAD1002F50D1B8F1000F48D1039A3368A9
:102330009A4242D105B0BDE8F08F0BF10601A446E8
:1023400000221CF801EFAEF130035FFA83FBBBF112
:10235000090F2BD81A4492B202EB82025200614557
:1023600092B2EED11E4BA3FB023242F3CF02C1E781
:10237000AC4207460090A346AED1D2E7194BAC421F
:102380001A80A346A8D1CCE7AC4280460190A34670
:10239000A2D1C6E7134BAC425A80A3469CD1C0E7FA
:1023A0000E4BAC421A80A34696D1BAE7BEF1200F7D
:1023B000D8D0AC42A3468FD1B3E7FEF779FF064BE6
:1023C0009DF804201A70B1E79DF8003089F80030BC
:1023D000A9E700BF00080020A8380020B43800207A
:1023E000CDCCCCCCAC380020B038002000000000B0
:1023F00000B50A4A0A4B92690A491B680A4C916166
:1024000083B001932046FFF7EBFE2046FFF750FF15
:10241000FFF70EFF322003F01BFAF3E760440020C1
:1024200000080020803F0108B838002000000000AC
:1024300000B5074B83B01A680192019A1B689A4253
:1024400003D1044803B05DF804FBFEF731FF00BF81
:1024500000080020AC380020000000000000000050
:1024600000B5074B07491A68087883B00192019AB2
:102470001B689A4202D103B05DF804FBFEF718FF17
:1024800000080020B038002000000000000000001C
:1024900000B5084B08491A6883B000200192019AE0
:1024A0001B6808709A4202D103B05DF804FBFEF786
:1024B000FFFE00BF00080020B03800200000000030
:1024C00010B50A4C0A4B22680A4884B04FF45E717A
:1024D000039200220092402203F062F9039A2368DB
:1024E0009A4201D104B010BDFEF7E2FE00080020C0
:1024F000F1230008E8380020000000000000000080
:1025000000B50E4A0E4B92ED007AD2ED017A1968B1
:102510000C4883B0BDEEC77A0191FDEEE77A17EE65
:10252000101A019A1B68018017EE901A9A42418096
:1025300002D103B05DF804FBFEF7BAFE28080020C4
:1025400000080020683C002000000000000000009F
:1025500000B50A4B0A491A68D1ED007A83B001929E
:10256000019A1B689A4207D1FDEEE77A17EE901A9E
:1025700008B203B05DF804FBFEF79AFE00080020E5
:10258000643C00200000000000000000000000008B
:1025900010B50B4B0B4C1A680B4982B007EE900A32
:1025A0000192019A1B68F8EE677A00209A42207027
:1025B000C1ED007A01D102B010BDFEF779FE00BF77
:1025C0000008002024080020603C002000000000DB
:1025D00030B5B0F90020214B214D93ED007AD3EDB9
:1025E000017A20492B6800EE902AB0F9022000EE13
:1025F000102A83B0F8EEE00AB8EEC00A1A4A019336
:1026000070EEC70A002330EE670A04460B701370A1
:102610000BF07EFD9FED157ADFED156AB4F9003001
:1026200001992A68134820EE070A07EE903A80EED7
:10263000267A114B9142F8EEE77A80ED007AC3EDED
:10264000007AB4F9024007EE904AF8EEE77AC3ED5B
:10265000017A01D103B030BDFEF72AFE2808002020
:102660000008002024080020300800200000344327
:10267000DB0F4940603C00206C3C00200000000063
:10268000F0B52DED068BDFED368A364D70EE287AEB
:1026900085B02B68039317EE900AB0EE609A30EE87
:1026A000608AFDF791FF9FED2C1B41EC100B41EC74
:1026B0001A0B0BF065FC79EE287A57EC106B17EECD
:1026C000900AFDF781FF9FED241B41EC100B41ECBC
:1026D000190B0BF055FCFDEEC87A53EC102B17EEDE
:1026E000904A3046002C3946B8BF6442FDF70CFED4
:1026F000FEF77EFA0028B8BF404284421DDBB0EEF0
:102700004A0AF0EE6A0A9FED141B0BF039FC51ECFB
:10271000100BB0EE490AF0EE690A9FED0F1BCDE9F0
:1027200000010BF02DFCDDE9000153EC102BFDF74F
:10273000EBFDFEF785FA08EE100A039A2B689A4221
:10274000B0EE480A03D105B0BDEC068BF0BDFEF734
:10275000AFFD00BFAFF300800000000000807640B6
:1027600000003443000800200000000000000000CA
:1027700070B52DED028B404E90ED007AD0ED017AD0
:10278000D1ED000A91ED010A336882B070EEC70AFC
:1027900030EE670A04460D4601930BF0B9FCDFEDFD
:1027A000377A9FED377A374B20EE270A93ED008A70
:1027B000C0EE078AB0EE480AF0EE680AFFF760FF45
:1027C000DFED317AB4EEE70AF1EE10FA0CD5F0EE57
:1027D000680AB0EE480AFFF753FFDFED2C7AB4EE3B
:1027E000E70AF1EE10FA27DC94ED016AD5ED017AE3
:1027F000D4ED006A95ED007A77EEC67A37EE667A08
:1028000067EEA77AE7EE077A17EE900AFDF7DCFE8F
:1028100041EC100B0BF01CFC51EC100BFEF710FA06
:1028200080F00040019A33689A4200EE100A20D1ED
:1028300002B0BDEC028B70BD94ED016AD5ED017A5A
:10284000D4ED006A95ED007A77EEC67A37EE667AB7
:1028500067EEA77AE7EE077A17EE900AFDF7B4FE67
:1028600041EC100B0BF0F4FB51EC100BFEF7E8F908
:10287000D8E7FEF71DFD00BF00080020000034432C
:10288000DB0F4940643C00200000B4420000B4C2A9
:102890002DE9F04F2DED0A8BD14AD24B9269D249E6
:1028A0001B68916185B000200393002401F098FF1C
:1028B000002001F0ADFFCD4ECD4DCE4FDFF86C8343
:1028C000DFF858A39FEDCC8ADFEDCC9A9FEDCC9A30
:1028D000DFEDCC8ADFEDCCAA9FEDCCAAA3461CE0AD
:1028E000F4EECA7AF1EE10FAC8BF77EECA7AC6EDF6
:1028F000007A01F045FF834601F05AFF97F80090F7
:102900000446B9F1000F5FD098F80090B9F1000FBC
:1029100000F08780142002F09BFF01F031FF814618
:1029200001F046FFA9EB0B0B041B4FFA8BFB64B2C3
:102930000BEB040307EE903AD6ED00BAF8EEE77A17
:102940002BEE887A67EE887AC7EE28CAA4EB0B04D0
:1029500067EEA97AB0EE6C0A87EE89BA0BF070FACE
:1029600095ED007A2BEE000AB6EE00CAA0EE0C7AC6
:10297000B0EE6C0A85ED007A0BF0B2FA07EE904AE1
:10298000F8EEE77A2BEE000A67EE887A95ED017A89
:1029900067EEA97AA0EE0C7A87EE890A85ED017AB6
:1029A00080EE2A0A0BF074F920EE280AC0EE087AAD
:1029B00077EEAB7AF5EEC07AF1EE10FA90D577EEBD
:1029C0008A7AC6ED007A94E7914B96ED000AD3ED32
:1029D000000AFFF755FEFDEEC07A9FED8E7A17EEE6
:1029E000903A002BB8BF5B4207EE903AF8EEE77AD8
:1029F000F4EEC77AF1EE10FA67D4B5EEC00AF1EE44
:102A000010FA6BDDB1EE047AB4EEC70AF1EE10FAFB
:102A100073DD4FF4C87001F083FE7F4801F098FE2B
:102A200078E77E497248FFF7A3FEFDEEC07AB0EE6C
:102A300040BA17EE902A0132022A09D801224846EC
:102A400088F8002001F06CFE484601F081FE61E745
:102A500095ED007AD5ED017ADAED000A9AED010ADA
:102A6000D6ED00BA70EEC70A30EE670A0BF050FBE5
:102A700060EE280AB0EE6B0AC0EE880AFFF700FE8F
:102A8000B5EEC0BAF1EE10FAF0EE40BA63DDB1EE89
:102A9000047AB4EEC7BAF1EE10FA7ADD9FED60BAAF
:102AA000B2EE04CAF0EE4B7AE0EE0C7AFDEEE77A75
:102AB00017EE900A01F034FEABEECCBAFDEECB7A05
:102AC00017EE900A01F044FE24E7012248463A70CE
:102AD00001F026FE484601F03BFE1BE7F9EE047AC2
:102AE000B4EEE70AF1EE10FA1DD54B4801F018FEDE
:102AF0004FF4C87001F02CFE0CE7C0EE076ADFED62
:102B0000497A66EEA77A67EEA67AFDEEE77A17EEC7
:102B1000903A0FFA83F9484601F002FEC9F100002D
:102B200001F016FEF6E6F1EE047A80EE277ADFED8C
:102B30003D7A67EE277A67EE877AFDEEE77A17EE41
:102B4000903A0FFA83F9C9F1000001F0E9FD484617
:102B500001F0FEFDDEE6F9EE047AB4EEE7BAF1EE3E
:102B600010FA2CD59FED30BAB2EE04CAF0EE4B7AD3
:102B7000E0EE4C7AFDEEE77A17EE900A01F0D0FD18
:102B8000ABEE8CBAFDEECB7A17EE900A01F0E0FDC9
:102B9000C0E6CBEE076ADFED227A66EEA77A67EE33
:102BA000A67AFDEEE77A17EE903A1BB2184601932B
:102BB00001F0B6FD019B184601F0CAFDAAE6F1EE50
:102BC000047A8BEE277ADFED167A67EE277A67EEC6
:102BD000877AFDEEE77A17EE903A1BB25B42E5E7A3
:102BE0006044002000080020A03F0108643C002051
:102BF0002808002024080020DB0F49400000244260
:102C000000007A4400003443000054420000B44302
:102C1000603C0020CDCCCC3D70FEFFFF6C3C002022
:102C200000005C440000C84300005CC43008002081
:102C300000B5074B07491A68087883B00192019ADA
:102C40001B689A4202D103B05DF804FBFEF730FB2B
:102C50000008002024080020000000000000000000
:102C600000B5074B07491A68087883B00192019AAA
:102C70001B689A4202D103B05DF804FBFEF718FB13
:102C800000080020300800200000000000000000C4
:102C900010B50A4C82B02368019340F24C4001F019
:102CA0003FFD019A23689A4206D140F24C4002B09F
:102CB000BDE8104001F04CBDFEF7FAFA0008002014
:102CC00010B5094C82B023680193002001F028FD63
:102CD000019A23689A4205D1002002B0BDE8104055
:102CE00001F036BDFEF7E4FA000800200000000005
:102CF0002DE9F0472DED028B0646DFF8B4A00078F1
:102D0000DAF8003082B0C0000193FDF74BFC738805
:102D1000DFED256A9FED257A07EE903AF8EEE77A27
:102D2000044667EEA67A0D46C7EE877A17EE900A3C
:102D3000FDF74AFC41EC100B41EC180B0AF0E8FEE1
:102D400057EC106BB0EE480AF0EE680A0AF040FF4C
:102D500059EC108B10EE102A4B4630463946FDF7E1
:102D6000D5FA22462B46FDF78BFCFDF741FF01F01B
:102D7000D7FC019ADAF800309A4212D142464B460B
:102D800030463946FDF7C0FA22462B46FDF778FC5F
:102D9000FDF72EFF02B0BDEC028BBDE8F04701F05D
:102DA000D7BCFEF785FA00BFDB0F49400000344373
:102DB00000080020000000000000000000000000EB
:102DC00010B50A4C0A4B22680A4884B04FF41E71B1
:102DD000039200220092412202F0E2FC039A23684F
:102DE0009A4201D104B010BDFEF762FA000800203B
:102DF00091280008783C002000000000000000003E
:102E0000F0B5144A144B926914491B68144C916133
:102E100083B0032701930226012508E0022AA0F1CE
:102E2000060010D825704FF4FA7002F011FD01F081
:102E30007FFDC0B2C31E022BA0F10B024FF00003B6
:102E4000ECD82370EFE704288CBF3B463346237051
:102E5000E9E700BF6044002000080020B03F0108FF
:102E60003108002000000000000000000000000009
:102E700000B5074B07491A68087883B00192019A98
:102E80001B689A4202D103B05DF804FBFEF710FA0A
:102E900000080020310800200000000000000000B1
:102EA00010B50A4C0A4B22680A4884B04FF4FC71F2
:102EB0000392002200923F2202F072FC039A2368E0
:102EC0009A4201D104B010BDFEF7F2F900080020CB
:102ED000012E0008F03E002000000000000000006D
:102EE00030B5104D81682B680F4A83B001930B6891
:102EF00023F001030B608168946A03E0936A1B1B53
:102F0000C72B09D8086810F00100F7D1019A2B6887
:102F10009A4204D103B030BD4FF0FF30F6E7FEF720
:102F2000C7F900BF00080020604400200000000036
:102F300030B5184D83B02B68019311F00C0F044687
:102F40000AD00378032B13D00622636822709A6894
:102F50001AB100212046904763685B688BB10199E4
:102F60002A68914213D1204603B0BDE8304018478B
:102F7000FFF7B6FF0622636822709A68002AE8D13C
:102F8000EBE7019A2B689A4201D103B030BDFEF7FE
:102F90008FF900BF000800200000000000000000C2
:102FA000F0B5284D83B02B68019302F0D9FE01F0F3
:102FB00097FF254B1E69F20715D55A69234C42F03D
:102FC00001025A612778BB1F012B2AD905226368A9
:102FD00022701B680BB120469847042F27D0022F80
:102FE00025D003232370B30710D5174A174C536914
:102FF00043F0020353612378032B1DD063689B6861
:103000000622227013B101211048984701F090FF69
:10301000019A2B689A4213D103B0BDE8F04003F047
:103020006FBE019A2B689A420AD103B0F0BD022309
:103030002370B307EAD5D8E72046FFF751FFDDE755
:10304000FEF736F90008002000000550E840002097
:1030500030B50B4D0B4C2B6883B02046019300F02C
:103060002FF9019A2B680848084D094921619A42B5
:10307000C4E9025001D103B030BDFEF719F900BF19
:1030800000080020E84000200C4B0108000005501B
:1030900016550202000000000000000000000000C1
:1030A0002DE9F0412F4C0578266882B0012D01965C
:1030B00006D0019A23689A4252D102B0BDE8F0814D
:1030C000294DA842F5D10E4690461F46274AE8688A
:1030D0002B460C2106F0FCFB002839D1D5E9023241
:1030E000126828339360EB681A68042151611B68E9
:1030F000C3F80C80EB681A6817611B68B6085E603D
:103100002B694FB343F480232B61E968184A09689F
:103110000B60EB6819680B6843F001030B60536B9D
:1031200043F0010353630B214E2006F0B1F8D5E9BB
:103130000113DA6842F00102DA60DA6842F0020252
:10314000DA60CA6822F4804222F001021A60B0E715
:10315000084801F0A5FDC1E723F480232B61D4E7E3
:10316000FEF7A6F800080020E8400020312F0008F4
:1031700000380240C03F01080000000000000000CD
:1031800030B5184C0378226883B0022B019205D029
:10319000019A23689A4223D103B030BD124B984262
:1031A0000546F5D18168114A0B6823F4804323F06A
:1031B00001030B608168CB6823F00F03CB60536B76
:1031C00023F0010353634E2006F08AF8019A236826
:1031D0009A4205D1E86803B0BDE8304006F0E0BB94
:1031E000FEF766F800080020E840002000380240A2
:1031F00000B50F4B0278196883B0022A01910ED1F5
:1032000081680A6842F002020A6081680A6842F432
:1032100080420A6081680A6842F001020A60019AED
:103220001B689A4202D103B05DF804FBFEF740F838
:103230000008002000000000000000000000000066
:1032400000B50F4B0278196883B0022A01910ED1A4
:1032500081680A6822F002020A6081680A6842F402
:1032600080420A6081680A6842F001020A60019A9D
:103270001B689A4202D103B05DF804FBFEF718F810
:103280000008002000000000000000000000000016
:1032900000B5074B83B01A680192019A1B689A42E5
:1032A00004D103B05DF804EBFFF7D2BEFEF700F8DF
:1032B00000080020000000000000000000000000E6
:1032C00000B5084B83B01A68019201220270019A7E
:1032D0001B6800219A42416002D103B05DF804FBF3
:1032E000FDF7E6FF000800200000000000000000DD
:1032F0002DE9F043254D83B02C680194DDF828902A
:103300000F4616469846044618B111B1204B9A4212
:103310002FD9204801F0C4FC202383F3118802F048
:1033200057FD01F05DFD2378012B02D0194801F013
:10333000B7FC4246314620464B466760FFF7B0FE79
:103340000223237001F06CFD02F05AFD124B1A6843
:103350009A4204D0996993688A689A420FD30023ED
:1033600083F31188019A2B689A420CD103B0BDE80F
:10337000F0839307CDD1B8F1000FCDD1C9E707484D
:1033800001F08EFCEBE7FDF793FF00BF0008002083
:10339000FCFF0300F03F010860440020E03F01080B
:1033A00030B51C4D83B02B680193044658B32023DD
:1033B00083F3118802F00CFD01F012FD2378022B3B
:1033C00002D0154801F06CFC2046FFF7D9FE01231E
:1033D000237001F025FD02F013FD104B1A689A428C
:1033E00004D0996993688A689A4208D3002383F3CA
:1033F0001188019A2B689A4209D103B030BD084860
:1034000001F04EFCF2E7044801F04AFCCFE7FDF77B
:103410004FFF00BF0008002000400108604400206A
:10342000E03F010800000000000000000000000074
:1034300030B51C4D83B02B680193044658B320234C
:1034400083F3118802F0C4FC01F0CAFC2378022B3C
:1034500002D0154801F024FC2046FFF7C9FE0423E2
:10346000237001F0DDFC02F0CBFC104B1A689A428D
:1034700004D0996993688A689A4208D3002383F339
:103480001188019A2B689A4209D103B030BD0848CF
:1034900001F006FCF2E7044801F002FCCFE7FDF77B
:1034A00007FF00BF00080020104001086044002012
:1034B000E03F0108000000000000000000000000E4
:1034C00030B51C4D83B02B680193044658B32023BC
:1034D00083F3118802F07CFC01F082FC2378022B3C
:1034E00002D0154801F0DCFB2046FFF7A9FE0323BC
:1034F000237001F095FC02F083FC104B1A689A428D
:1035000004D0996993688A689A4208D3002383F3A8
:103510001188019A2B689A4209D103B030BD08483E
:1035200001F0BEFBF2E7044801F0BAFBCFE7FDF77C
:10353000BFFE00BF000800203040010860440020AA
:10354000E03F010800000000000000000000000053
:1035500000B5064B83B01A680192019A1B689A4223
:1035600002D103B05DF804FBFDF7A2FE00080020C5
:1035700000B5064B83B01A680192019A1B689A4203
:1035800002D103B05DF804FBFDF792FE00080020B5
:1035900010B5104C104B226882B0019201221A70B3
:1035A000202383F3118802F043FC01F059FC0B48FF
:1035B00002F046FF01F074FC02F052FC002383F39A
:1035C0001188019A23689A4201D102B010BDFDF71B
:1035D0006FFE00BF000800200841002034080020D2
:1035E00030B50E4D0E4C2B6883B00193FFF750FEA3
:1035F000206808B10CF0FCFF4FF496400CF0F0FF8F
:1036000001992A682060B0FA80F35B099142C3F106
:10361000000001D103B030BDFDF74AFE00080020D4
:103620000041002000000000000000000000000039
:1036300030B5174D174C2B78226885B0012B0392BB
:1036400020D000F055FC144B1B78ABB9B0F5964F69
:1036500015D8124A124B12681B6812490092024692
:103660001148FFF745FE01232B700020039A2368C1
:103670009A420BD105B030BDB0F5165FE9D94FF0D5
:10368000FF30F3E70848FFF78BFEDAE7FDF710FE9F
:10369000FD40002000080020FE40002004410020E2
:1036A0000041002040400108E840002000000000E8
:1036B00010B50B4C0B48236882B0019302F088FDD3
:1036C000094802F02DFF019A23689A4205D1054866
:1036D00002B0BDE8104002F0B3BDFDF7E9FD00BF48
:1036E000000800203C0800203408002000000000F2
:1036F00030B5154D154C164B2268286883B00192E1
:1037000001221A7008B10CF073FF4FF416500CF040
:1037100067FF286098B10F4D286808B10CF068FF6A
:103720004FF416500CF05CFFB0FA80F35B09286090
:103730005842019A23689A4204D103B030BD4FF039
:10374000FF30F6E7FDF7B4FD00410020000800203F
:10375000FE400020044100200000000000000000A6
:1037600000B5074B07491A68087083B00192019AA7
:103770001B689A4202D103B05DF804FBFDF798FD87
:1037800000080020FC4000200000000000000000B5
:1037900000B50D4A0D4B1278196883B0019142B102
:1037A0000B4AD26812681268120302D4094A1068E0
:1037B00001E0094A1068019A1B689A4202D103B0DD
:1037C0005DF804FBFDF774FDFE40002000080020BA
:1037D000E8400020044100200041002000000000DB
:1037E00000B50E4A0E4B1278196883B001914AB1A8
:1037F000019A1B689A420FD10A4803B05DF804EBA6
:10380000FFF75EBE019A1B689A4205D1054803B0D6
:103810005DF804EBFFF70CBEFDF74AFDFC4000200D
:1038200000080020E8400020000000000000000028
:1038300070B5274D82B02B68019306460122032103
:103840006E2000F01DFC044630B1019A2B689A42AC
:1038500020463AD102B070BD32464E216E2000F0B3
:103860000FFC04460028F0D1442E07D00246B721B1
:103870006E2000F005FCB8B10446E6E70122B7214E
:103880006E2000F0FDFB0028F6D1224603216E20B9
:1038900000F0F6FB0028EFD1032211216E2000F08A
:1038A000EFFB78B10446D0E7224603216E2000F0FA
:1038B000E7FB0028E0D10A2211216E2000F0E0FB96
:1038C0000028D9D1034B1E71BFE7FDF7F1FC00BF03
:1038D000000800200C410020000000000000000053
:1038E0002DE9F04F8FB0DFF80084DDF860C0D8F824
:1038F00000400D940CF1FF355C1EB3F5207F9DF860
:1039000064909DF868B00C44154400F21282BCF536
:10391000F07F00F20E82B1F5207F0E4600F2128297
:10392000B2F5F07F174600F21082A14280F00482C7
:10393000B4F5207F00F20082AA4280F00082B5F543
:10394000F07F00F2FC81B9F1400F824600F0B081B7
:10395000B9F1800F23D0B9F1200F00F09C81002332
:10396000CDE90033BBF1400F2FD0BBF1800F00F049
:10397000CB81BBF1200F00F0B9810023CDE90233E8
:10398000002203216E2000F07BFBA0B30D9AD8F833
:1039900000309A4240F0E2810FB0BDE8F08F9A0704
:1039A00040F0D681CC4A8C085900661CA2FB01016C
:1039B000A2FB030204EB930406EBD2030093BBF1DA
:1039C000400F06EBD1030193CFD11CF0010F40F063
:1039D000C281C14B7D084FEA4C026F1CA3FB02124F
:1039E000A3FB0C1307EB9303029307EB920305EB86
:1039F0005C050393C4E702465B216E2000F040FBA8
:103A00000028C3D15046FFF713FF0028BED102465D
:103A100003216E2000F034FB0028B7D1C6F3072342
:103A20001A4608216E20049300F02AFB0028ADD12D
:103A3000F3B21A4609216E20059300F021FB0028FD
:103A4000A4D1C7F307231A460A216E20069300F07B
:103A500017FB00289AD1FBB21A460B216E20079360
:103A600000F00EFB002891D1C4F307231A460C2165
:103A70006E20089300F004FB002887D1E3B21A46B9
:103A80000D216E20099300F0FBFA00287FF47EAF31
:103A9000C5F307231A460E216E200A9300F0F0FAB0
:103AA00000287FF473AFEBB21A460F216E200B9300
:103AB00000F0E6FA00287FF469AF049A35216E2001
:103AC00000F0DEFA00287FF461AF059A36216E20FF
:103AD00000F0D6FA00287FF459AF089A37216E20FB
:103AE00000F0CEFA00287FF451AF099A38216E20F9
:103AF00000F0C6FA00287FF449AF069A39216E20FB
:103B000000F0BEFA00287FF441AF079A3A216E20F8
:103B100000F0B6FA00287FF439AF0A9A3B216E20F4
:103B200000F0AEFA00287FF431AF0B9A3C216E20F2
:103B300000F0A6FA00287FF429AF009B3D21C3F3D3
:103B400007226E2000F09CFA00287FF41FAF9DF83A
:103B500000203E216E2000F093FA00287FF416AF7B
:103B6000019B3F21C3F307226E2000F089FA002851
:103B70007FF40CAF9DF8042040216E2000F080FA05
:103B800000287FF403AF029B4121C3F307226E207C
:103B900000F076FA00287FF4F9AE9DF80820422163
:103BA0006E2000F06DFA00287FF4F0AE039B4321F5
:103BB000C3F307226E2000F063FA00287FF4E6AE1C
:103BC0009DF80C2044216E2000F05AFA00287FF462
:103BD000DDAE012203216E2000F052FA00287FF4AE
:103BE000D5AE4A4693216E2000F04AFA00287FF4B1
:103BF000CDAE5A4694216E2000F042FA00287FF4A0
:103C0000C5AE012203216E2000F03AFA00287FF4AD
:103C1000BDAE0134A31B07EE103ADFED307AB8EEEB
:103C2000477ABAF1440F77EEC77A00F09980B0EE88
:103C3000006AF2EE006AE7EE066A77EEA77AB0EE67
:103C4000667A67EE877ADFED266A87EEA67AFCEE63
:103C5000C77ACDED007A009B9521C3F307226E2031
:103C600000F00EFA00287FF491AE9DF80020962116
:103C70006E2000F005FA00287FF488AE194B01355C
:103C8000EF1BA41B5F801C8083F804A083F80590C1
:103C900083F806B07AE610495A00A1FB030306EB4D
:103CA0005303A1FB0212009306EB5203019359E662
:103CB000D9074DD4084A74085900661CA2FB0101BB
:103CC000A2FB030204EB530406EB9203009306EB02
:103CD0009103019346E600BFABAAAAAA00002244C2
:103CE0000000A3440C41002000080020244A4FEAB1
:103CF0004C03A2FB0C1CA2FB032307EB530307EBB3
:103D00005C02029203933BE61CF0030F23D11C4B91
:103D1000BD084FEA4C026F1CA3FB0212A3FB0C135D
:103D200007EBD303029307EBD20305EB9C05039348
:103D300026E66FF0070029E66FF0030026E66FF035
:103D4000040023E66FF0010020E66FF002001DE69C
:103D50006FF005001AE66FF0060017E6FDF7A8FA07
:103D6000F2EE006A37EE267ADFED066A67EE277A12
:103D700087EEA67AFCEEC77ACDED007A6BE700BF3E
:103D8000ABAAAAAA00002444000000000000000022
:103D900010B5114C86B02368059300F001F90F4966
:103DA0000F4803F0C5FB012200210D4803F058FC29
:103DB00020237822CDE901330092A023B422F02100
:103DC0000220FFF78DFD059A23689A4201D106B0C3
:103DD00010BDFDF76DFA00BF00080020504001083B
:103DE00068520020000000000000000000000000F9
:103DF00030B50E4C83B023680193012205460321A0
:103E00006E2000F03DF9019A236818B19A420BD157
:103E100003B030BD9A4207D12A469D216E2003B0DF
:103E2000BDE8304000F02CB9FDF742FA0008002050
:103E300030B5164C83B02368019305460023022257
:103E400003216E208DF8033000F01AF928B1019A91
:103E500023689A4218D103B030BD0DF1030204214A
:103E60006E2000F0BDF80028F1D19DF80320012D4F
:103E70000CBF02F0FB0242F0040204216E208DF818
:103E8000032000F0FDF8E2E7FDF712FA0008002039
:103E900030B5164C83B023680193054600230222F7
:103EA00003216E208DF8033000F0EAF828B1019A62
:103EB00023689A4218D103B030BD0DF103020421EA
:103EC0006E2000F08DF80028F1D19DF80320012D1F
:103ED0000CBF02F0FC0242F0030204216E208DF8B8
:103EE000032000F0CDF8E2E7FDF7E2F9000800203A
:103EF00010B50A4B0A4A1988146858881B7982B091
:103F0000442B019400FB01F00199136818BF400095
:103F1000994201D102B010BDFDF7CAF90C41002051
:103F20000008002000000000000000000000000069
:103F300070B5164E16483368154D82B005224FF401
:103F40008071019307F074F920246B6983F4807306
:103F50006B61012001F07CFC631E13F0FF04F4D1BF
:103F60004FF4807140F206222983094807F060F976
:103F7000019A33689A4206D10649074802B0BDE863
:103F8000704003F01DB9FDF793F900BF0008002051
:103F90000004024090400108E04E002000000000B4
:103FA00000B50C4A0C4B1278196883B0012A0191B4
:103FB000019A1B6804D09A4209D103B05DF804FB52
:103FC0009A4204D103B05DF804EBFFF7B1BFFDF7EF
:103FD0006FF900BFE04E0020000800200000000044
:103FE0002DE9F041224C234E88B0002335688DF82E
:103FF0001830804620468DF814101746079503F0B8
:10400000F7F92378012B0CD00420012306AACDE96F
:1040100001300092414605AA204603F079F9054691
:1040200068B9134803F004FA9DF818303B7000207B
:10403000079A33689A4218D108B0BDE8F08120464B
:1040400003F04EF923780C4A052B106004D0084881
:1040500003F0EEF968B2EBE7204603F0F9F82378B5
:10406000012BF4D1FFF764FFF1E7FDF721F900BF61
:10407000E04E002000080020144100200000000055
:10408000F0B5214C214E89B03368079307460025CF
:1040900020468DF818108DF819208DF8145003F073
:1040A000A7F92378012B0CD0042205AB01950292CD
:1040B00000933946022306AA204603F029F9054653
:1040C00048B9114803F0B4F90020079A33689A42BE
:1040D00017D109B0F0BD204603F002F923780C4A4D
:1040E000052B106004D0084803F0A2F968B2ECE791
:1040F000204603F0ADF82378012BF4D1FFF718FF29
:10410000F1E7FDF7D5F800BFE04E002000080020E1
:10411000144100200000000000000000000000002A
:104120002DE9F043254E83B034680194042A9DF8AC
:104130002890144605460F46984639D9B9F1000F24
:1041400014BF00224FF08052640002EB0863013C70
:104150001C4405F00F0527F01F07202383F3118867
:1041600001F036FE3D4300F03BFE154B1035DD609F
:104170001C6100F055FE01F043FE124B1A689A4292
:1041800004D0996993688A689A420DD3002383F317
:104190001188BFF36F8FBFF34F8F019A33689A4234
:1041A0000AD103B0BDE8F083074800F079FDEDE7E0
:1041B000064800F075FDC1E7FDF77AF80008002019
:1041C00090ED00E06044002020410108004101081A
:1041D00030B5224D224C2B68224A85B00393636888
:1041E00043F004036360536A43F480335362202333
:1041F00083F3118801F0ECFD00F0F2FD17221A4B59
:10420000E260236100F00CFE01F0FAFD174B1A6822
:104210009A4204D0996993688A689A4218D3002018
:1042200080F31188BFF36F8FBFF34F8F03231D22DD
:1042300000904FF00051FFF773FF094A536843F0B5
:1042400001035360039A2B689A4205D105B030BD33
:10425000074800F025FDE2E7FDF72AF800080020F6
:1042600090ED00E000ED00E0090000106044002047
:1042700020410108000000000000000000000000D4
:1042800070B51A4D1A4C1B4E0FCD0FC49EB02A6844
:10429000336822801D93EFF30981682203A8FCF79D
:1042A000A7FE154B9D6AAA0714D4EB0708D5124B3D
:1042B00008995B6B114A00910D4880210CF0B0FC0D
:1042C0001D9A33689A420FD109481EB0BDE870406C
:1042D00000F0E6BC099A5B6B0092A4F11000084A5A
:1042E00080210CF09DFCE0E7FCF7E2FFE4400108D0
:1042F000184100200008002000ED00E0C040010847
:10430000A0400108000000000000000000000000C4
:1043100000B51F4B0278196883B00191E2B11D4AC4
:104320004FF4005111834278EAB11A4A4FF4805198
:1043300011838278F2B1174A4FF480411183C27819
:10434000FAB9144A4FF400415183019A1B689A420A
:104350001CD103B05DF804FB0E4A4FF400515183A9
:104360004278002AE1D10B4A4FF480515183827880
:10437000002AE0D1074A4FF480415183C278002AD5
:10438000DFD0044A4FF400411183DEE7FCF790FFD1
:1043900000080020001002400000000000000000A3
:1043A00000B51F4B0278196883B00191E2B11D4A34
:1043B0004FF4007111834278EAB11A4A4FF48071C8
:1043C00011838278F2B1174A4FF400611183C278E9
:1043D000FAB9144A4FF480615183019A1B689A42DA
:1043E0001CD103B05DF804FB0E4A4FF400715183F9
:1043F0004278002AE1D10B4A4FF4807151838278D0
:10440000002AE0D1074A4FF400615183C278002AA4
:10441000DFD0044A4FF480611183DEE7FCF748FFE8
:104420000008002000100240000000000000000012
:1044300030B50C4A0C4B116883B04FF40055019114
:104440004FF480544FF400414FF480405D835C830F
:104450005883598301991368994201D103B030BD43
:10446000FCF726FF000800200010024000000000BA
:1044700030B50C4A0C4B116883B04FF400750191B4
:104480004FF480744FF480614FF400605D835C836F
:104490005883598301991368994201D103B030BD03
:1044A000FCF706FF0008002000100240000000009A
:1044B00010B50B4C0B48236882B099220021019360
:1044C00003F0CEF8019A23689A4206D105480021EC
:1044D00002B0BDE8104003F0ABB9FCF7E9FE00BF45
:1044E0000008002030520020000000000000000002
:1044F00010B50B4C0B48236882B099220021019320
:1045000003F0AEF8019A23689A4206D105480021CB
:1045100002B0BDE8104003F08BB9FCF7C9FE00BF44
:10452000000800204C5200200000000000000000A5
:1045300000B5084B83B01A680192019A1B689A4231
:1045400006D10548002103B05DF804EB03F0D8B8AC
:10455000FCF7AEFE000800203052002000000000F2
:1045600000B5084B83B01A680192019A1B689A4201
:1045700006D10548002103B05DF804EB03F0C0B894
:10458000FCF796FE000800204C52002000000000BE
:1045900070B51A4C1A4E2378326882B0022B019201
:1045A000A26811D165781748013505F0070500EBC1
:1045B0008500904763686570013B6360019A3368CA
:1045C0009A4219D102B070BD012B08D0019933680D
:1045D000994211D10C4802B0BDE87040104765788F
:1045E0000848013D05F0070500EB8500904763682A
:1045F000657001336360E1E7FCF75AFEB0410020CB
:1046000000080020C0410108B0410108000000007E
:1046100070B51A4C1A4E2378326882B0012B019281
:10462000A26811D165781748013505F0070500EB40
:10463000850090476368657001336360019A336851
:104640009A4219D102B070BD022B08D0019933688B
:10465000994211D10C4802B0BDE87040104765780E
:104660000848013D05F0070500EB850090476368A9
:104670006570013B6360E1E7FCF71AFE984100209A
:1046800000080020C0410108B041010800000000FE
:1046900030B51F4D85B02B68039340F24C439942CF
:1046A000044626DCA3F69803994211DB4B00002B4D
:1046B00029D10370036998474FF47A71039A2B68E4
:1046C0009A421ED1606905B0BDE8304002F080BF5B
:1046D000104B02225B42227040F2892293420E4923
:1046E00091FBF3F189B207DC0191E36898470199E6
:1046F000E4E7012303702D21019123699847019973
:10470000DCE7FCF7D5FDE4DD01220270E4E700BF41
:104710000008002068F7FFFFA086010000000000ED
:1047200000B5084B83B01A680192019A1B689A423F
:1047300006D10146044803B05DF804EBFFF7A8BFBB
:10474000FCF7B6FD000800209841002000000000A2
:1047500000B5084B83B01A680192019A1B689A420F
:1047600006D10146044803B05DF804EBFFF790BFA3
:10477000FCF79EFD00080020B04100200000000072
:1047800000B5094B094A1968506883B000EBD07036
:104790000191019A1B689A4203D1401003B05DF861
:1047A00004FBFCF785FD00BF0008002098410020B5
:1047B00000B5094B094A1968506883B000EBD07006
:1047C0000191019A1B689A4203D1401003B05DF831
:1047D00004FBFCF76DFD00BF00080020B041002085
:1047E00000B5084B08491A6883B040000192019A4D
:1047F0001B6848609A4202D103B05DF804FBFCF7E5
:1048000057FD00BF00080020984100200000000074
:1048100000B5084B08491A6883B040000192019A1C
:104820001B6848609A4202D103B05DF804FBFCF7B4
:104830003FFD00BF00080020B04100200000000044
:1048400070B51D4E1D4A1E4B30681E491E4C9160AE
:1048500082B00021D46001901C4C1D481D4D9D600C
:10486000117051705160106154611B481B4A1C4DFE
:10487000D8601C48197059705960C3E90425FFF7C6
:1048800047FD1848FFF78CFD1749204602F050FEFF
:10489000204602F085FF2846144902F049FE019A9D
:1048A00033689A4205D1284602B0BDE8704002F054
:1048B00077BFFCF7FDFC00BF00080020B0410020DE
:1048C0009841002011430008B144000830520020F4
:1048D00031450008A1430008F14400086145000883
:1048E0004C520020B04101087041010830410108DC
:1048F0000A490B4B09680B4A82B0202001914021E4
:1049000058834FF4806559834FF400644FF480401E
:1049100004215D835C8358835183FEE700080020F7
:10492000000C0240000402400000000000000000F3
:1049300030B5104C104B2268104983B001921869B1
:104940001A6909691B69019D2468C2F3C032C1F369
:10495000001102EB4102C3F38033C0F3403003EB9C
:104960004203A54200EB430001D103B030BDFCF788
:104970009FFC00BF0008002000080240000C02401D
:1049800000B50F4B83B01868019002290CD00329A1
:104990000CD001290B4818BF0020019A1B689A42CD
:1049A0000BD103B05DF804FB0748F6E7032A96BF76
:1049B0000648002000EBC200EFE7FCF779FC00BFDF
:1049C00000080020C042010860420108704301084D
:1049D00070B5154C82B02368019302291CD10D4695
:1049E0000646202383F3118801F022FA00F038FAFA
:1049F00030460E4A012104F0A3F829460C4A3046FD
:104A000004F09EF80B4803F09BFE00F049FA01F019
:104A100027FA002383F31188019A23689A4201D16F
:104A200002B070BDFCF744FC00080020E041010822
:104A300010420108C84100200000000000000000F2
:104A400030B5134D134C2B68134883B0019303F01A
:104A5000EFFD1249104803F01BFE226D936B23F407
:104A6000002393634FF47A7000F0F2FE20460C4965
:104A700004F016F8226D936B43F400239363019ABC
:104A80002B689A4201D103B030BDFCF711FC00BF86
:104A900000080020204F0020C841002040420108AB
:104AA000504201080000000000000000000000006B
:104AB00000B5084B83B01A680192019A1B689A42AC
:104AC00005D1054803B05DF804EB01F081BBFCF7AC
:104AD000EFFB00BF0008002050080020000000008D
:104AE00000B5084B83B01A680192019A1B689A427C
:104AF00005D1054803B05DF804EB01F0A1BBFCF75C
:104B0000D7FB00BF00080020500800200000000074
:104B100070B50D4C82B0236801930D1E06460DDD65
:104B2000284602F065F818B90C2333604FF0FF30C7
:104B3000019A23689A4205D102B070BD034800F083
:104B4000AFF8EDE7FCF7B4FB000800209043010844
:104B500000B5064B83B01A680192019A1B689A420D
:104B600002D103B05DF804FBFCF7A2FB00080020B3
:104B700000B5064B83B01A680192019A1B689A42ED
:104B800002D103B05DF804FBFCF792FB00080020A3
:104B9000024B82B01B680193FEE700BF00080020B3
:104BA00000B5044B04481B6883B0019300F078F80B
:104BB000FEE700BF00080020A0430108000000003D
:104BC000024B82B01B680193FEE700BF0008002083
:104BD000F0B5294E294B3268294885B0002403924C
:104BE0009C60D968274A4FF6FF0529400A43DA60DE
:104BF000C2682549254D42F08072C2600A6842F0C1
:104C000001020A6010202022D87783F8222000F0C9
:104C1000DFFA00F045FA01F02BF801F0C1FF02F0D5
:104C20002FF801F07DF800F0FBF9402105F58860D0
:104C300000F01EFD0127164BC36180F82070A861AB
:104C400000F0A6F884F3118862B6AB69114A9A6144
:104C50004FF4C4713A46104B009405F59D6000F086
:104C60009FFD039A33680D4981619A4201D105B0D5
:104C7000F0BDFCF71DFB00BF0008002000ED00E0C8
:104C8000F0ED00E00003FA05001000E060440020B1
:104C90000004002040450108C14B0008C043010842
:104CA00000B5054B83B01B680193044672B6FFF74D
:104CB0001FFE024BDC62FEE700080020604400207B
:104CC0002DE9F047DFF890A0224DDAF8003082B0ED
:104CD000019300F055F9AB6993F8232012B1013A22
:104CE00083F823205A6ADFF8748001325A6200F098
:104CF00047F9AB6AEA6901334245AB6220D0936859
:104D0000013B9360EC69A668D6B94FF0200923688F
:104D1000E768E660C3F804802368EB6100F0C0F840
:104D200001F09EF886F311882069B84789F311884D
:104D300001F07EF800F094F8EC69A368002BE6D04F
:104D4000019ADAF800309A4202D102B0BDE8F08749
:104D5000FCF7AEFA60440020000800207C440020EC
:104D600010B5094C094A236882B001935168536811
:104D70005B1A9842FBD8019A23689A4201D102B08B
:104D800010BDFCF795FA00BF00080020001000E0FD
:104D900000B50E4A0E4B116B186883B0019009B92B
:104DA000526B4AB1019A1B689A420CD1094803B070
:104DB0005DF804EBFFF774BF019A1B689A4202D1B9
:104DC00003B05DF804FBFCF773FA00BF60440020F9
:104DD00000080020D043010800000000000000008F
:104DE00030B50B4C0B4D236B2A6883B001920BB985
:104DF000636B13B10848FFF753FF019A2B68012139
:104E00009A42616301D103B030BDFCF751FA00BF93
:104E10006044002000080020004401080000000059
:104E200030B50C4C0C4D236B2A6883B0019253B9FA
:104E3000636B002B07DD019A2B6800219A426163A6
:104E400005D103B030BD0548FFF72AFFF3E7FCF7B3
:104E50002FFA00BF60440020000800202044010811
:104E600030B50B4C0B4D236B2A6883B0002B01929D
:104E700001DD636B13B10848FFF712FF019A2B683D
:104E800001219A42616301D103B030BDFCF710FAF1
:104E900060440020000800201044010800000000C9
:104EA00030B50C4C0C4D236B2A6883B0002B01925B
:104EB0000ADD636B002B07DD019A2B6800219A4203
:104EC000616305D103B030BD0448FFF7E9FEF3E7A5
:104ED000FCF7EEF96044002000080020304401088F
:104EE00030B50F4D83B02B680193202383F31188D5
:104EF0000C4C236B002B01DB626B1AB10A48FFF7E5
:104F0000CFFE236B01332363002383F31188019ABF
:104F10002B689A4201D103B030BDFCF7C9F900BF3C
:104F20000008002060440020E04301080000000069
:104F300030B50F4D83B02B680193202383F3118884
:104F40000C4C236B002B01DD626B1AB10A48FFF792
:104F5000A7FE236B013B2363002383F31188019A8F
:104F60002B689A4201D103B030BDFCF7A1F900BF14
:104F70000008002060440020F04301080000000009
:104F800000B50F4A0F4B116B186883B000290190D0
:104F900009DB526B002A06DD019A1B689A420CD18C
:104FA00003B05DF804FB019A1B689A4205D10648DC
:104FB00003B05DF804EBFFF773BEFCF779F900BFAF
:104FC0006044002000080020404401080000000068
:104FD00000B50E4A0E4B116B186883B0019049B9A9
:104FE000526B002A06DD019A1B689A420CD103B06D
:104FF0005DF804FB019A1B689A4205D1054803B08D
:105000005DF804EBFFF74CBEFCF752F9604400205A
:1050100000080020504401080000000000000000CB
:1050200010B5084A084B116882B0402401910199DB
:10503000126818199142C3E90E4001D102B010BDA7
:10504000FCF736F900080020604400200000000052
:1050500010B51149114B0A6882B00192DA6B9C6A53
:105060001460DA6B9C695460DA6B846A9460DA6B62
:1050700090F820001073DA6B03F5886010328242DA
:1050800028BF03F14002DA63019A0B689A4201D10A
:1050900002B010BDFCF70CF90008002060440020AD
:1050A00010B50B4A0B4B116882B04FF0FF340191E1
:1050B00000219962019811685C6203F11C02884228
:1050C000C3E9072201D102B010BDFCF7F1F800BF1F
:1050D00000080020604400200000000000000000E4
:1050E0002DE9F041184E82B00546306801900C461B
:1050F00017469846FFF744FF05B3FFB1F4B1C5E981
:1051000003781248C3699A68944204D91B68A41AA8
:105110009A68A242FAD32B605A686A6015605D6093
:10512000AC609968019D3268091B95424FF0FF34CD
:105130009960446206D102B0BDE8F0810448FFF7EF
:10514000AFFDDCE7FCF7B4F8000800206044002065
:1051500060440108000000000000000000000000A2
:1051600030B5164D83B004462B680193FFF708FF56
:10517000ECB1E368BBB12268A0689368019903446D
:105180009360D4E900231A6020682B680C4A656894
:10519000456099424FF000054FF0FF30E5605062E6
:1051A00009D103B030BD0748FFF77AFDE3E70548B2
:1051B000FFF776FDDDE7FCF77BF800BF0008002075
:1051C000604400207044010800000000000000005E
:1051D00000B50A4A0A4B11681B6083B00020019198
:1051E000019912685B609142C3E90433986002D16F
:1051F00003B05DF804FBFCF75BF800BF000800207B
:1052000060440020000000000000000000000000DA
:1052100030B5164D83B004462B680193FFF7B0FEFE
:10522000ECB194F82030B3B10F2B14D00022A16858
:105230000F4B84F820201B689A688A42FBD22360B7
:105240005A686260146001992A685C609142204645
:1052500009D103B030BD0748FFF722FDE6E7054856
:10526000FFF71EFDDDE7FCF723F800BF0008002074
:10527000604400208044010800000000000000009D
:1052800070B5204D82B02B6801930446202383F330
:10529000118800F0CDFDFFF7E3FD94F82030072BD7
:1052A00011D8DFE803F0161010230A04100AA66ACA
:1052B000FFF766FEB3680133B360D4E900231A60D8
:1052C000D4E900325A604FF0FF33A3622046FFF763
:1052D0009FFFFFF7E5FD00F0C3FD002383F3118876
:1052E000019A2B689A420BD102B070BDA36A0022CA
:1052F0001A604FF0FF33A3622046FFF789FFE8E70B
:10530000FBF7D6FF000800200000000000000000AE
:10531000F0B5194E194C336883B007460193FFF777
:1053200057FEA569236885F82070142285F823208C
:105330001A68226001215460284683F82010A36176
:10534000FFF786FE2946A06900F022FDEFF30983EE
:10535000EA69643B9A4202D90948FFF7A1FC019A25
:1053600033689A4206D1A069294603B0BDE8F040EF
:10537000FAF79EBFFBF79CFF000800206044002066
:105380009044010800000000000000000000000040
:10539000F0B5154C87B0236805930E460746FFF716
:1053A00017FE731C18D0114D114AAB69314668467F
:1053B000FFF796FE3846FFF7ABFFFFF7E1FD039BD3
:1053C00013B16846FFF7CCFE059A2368A9699A4293
:1053D000886A06D107B0F0BD3846FFF799FF034D44
:1053E000F2E7FBF765FF00BF0008002060440020E3
:1053F00081520008000000000000000000000000D2
:10540000F0B51E4D1E4E2B6883B0044601930F4627
:10541000FFF7DEFDB069A7628368A2689A421DD9D2
:10542000FFF7F6FE0123074684F82030B461FFF74A
:105430000FFE3946204600F0ABFCEFF30983FA6912
:10544000643B9A4214D8019A2B689A4214D1394687
:10545000204603B0BDE8F040FAF72ABF019A2B6856
:105460009A4209D1204603B0BDE8F040FFF7D0BE14
:105470000448FFF715FCE6E7FBF71AFF00080020D9
:10548000604400209044010800000000000000007B
:1054900010B50E490E4B8A69086892F823101C68F3
:1054A0008068926882B0019449B9904234BF00206C
:1054B0000120019A1B689A4206D102B010BD9042A9
:1054C00094BF00200120F4E7FBF7F2FE60440020C7
:1054D00000080020000000000000000000000000A4
:1054E00070B5184C184E2368A5691A68226054607C
:1054F000012283F8202082B01422316885F823200D
:105500002846A3610191FFF783FE2846FFF7A0FD1F
:105510002946A06900F03CFCEFF30983EA69643B8B
:105520009A4202D90948FFF7BBFB019A33689A42B5
:1055300006D1A069294602B0BDE87040FAF7B8BEAE
:10554000FBF7B6FE604400200008002090440108EC
:1055500070B51C4D1C4E2A68AC6913682B60012184
:1055600082B05D60002082F82010AA613268A168D4
:1055700084F82000019200E01B689A688A42FBD8F8
:1055800023605A686260204614605C60FFF760FD2B
:105590002146A86900F0FCFBEFF30983E269643B54
:1055A0009A4202D90948FFF77BFB019A33689A4275
:1055B00006D1A869214602B0BDE87040FAF778BE6E
:1055C000FBF776FE604400200008002090440108AC
:1055D00010B50F4C82B023680193FFF7F9FCFFF779
:1055E000CFFC0C4B1A689B6992689B689A42019A9F
:1055F000236803D89A4208D102B010BD9A4204D160
:1056000002B0BDE81040FFF7A3BFFBF751FE00BF9B
:10561000000800206044002000000000000000009E
:1056200000B50E4A0E4B9269196892F8232083B098
:10563000019142B1019A1B689A420DD103B05DF805
:1056400004EBFFF785BF019A1B689A4204D103B0AF
:105650005DF804EBFFF744BFFBF72AFE604400202F
:105660000008002000000000000000000000000012
:10567000F0B51A4A1A4D02610446816083B01423C2
:1056800050692E68616484F82330022700230121C9
:10569000278484F82210C4E90F3304F16801A36160
:1056A000019604F12C07636204F1500604F1300303
:1056B00060610461C4E90C33E1613046E762546122
:1056C00000F06EFA304600F08BFA019A2B689A428D
:1056D00002D1204603B0F0BDFBF7EAFD6044002094
:1056E0000008002000000000000000000000000092
:1056F00010B5094B82B01C680194884203D200F8AF
:10570000012B8142FBD1019A1B689A4201D102B060
:1057100010BDFBF7CDFD00BF000800200000000019
:105720002DE9F043184E83B0346801940546DDF846
:1057300028900C4617469846FFF722FC15B1B4F5A1
:10574000BC7F19D21148FFF7ABFAA4F164012944D8
:10575000E960C1F84080EB68019AC3F8449033686F
:10576000E9680B4808669A420CD13946284603B0CE
:10577000BDE8F043FFF77CBF7F2FE3D8B8F1000FFF
:10578000E3D1DFE7FBF794FD00080020E0440108C7
:10579000C902000800000000000000000000000036
:1057A0002DE9F04FDFF8A48087B0D8F80040DDF88D
:1057B0004090059407468A46934600F168060446E1
:1057C000FF2504F8015BA642FBD107EB0A05A542C1
:1057D00004D9552604F8016BA542FBD1039320227E
:1057E00082F3118800F0F4FAFFF7FAFA039BCDF880
:1057F00000905A4651463846FFF792FF0021044672
:10580000FFF7FEFDFFF70CFB00F0FAFA0D4B1A68EC
:105810009A4204D0996993688A689A420BD300230C
:1058200083F31188059AD8F800309A42204606D1B1
:1058300007B0BDE8F08F0448FFF732FAEFE7FBF757
:1058400037FD00BF60440020A0440108000800208C
:1058500030B5184C83B0236801930546202383F3A9
:10586000118800F0B5FAFFF7BBFA15B91248FFF737
:1058700017FA29460820FFF78BFDFFF7D1FA00F051
:10588000BFFA0E4B1A689A4204D0996993688A68E5
:105890009A4208D3002383F31188019A23689A421D
:1058A00005D103B030BD0648FFF7FAF9F2E7FBF780
:1058B000FFFC00BF00080020B04401086044002045
:1058C000A0440108000000000000000000000000EB
:1058D00070B5164B164E9C693268E36AA06282B0BE
:1058E00004F12C05AB42019207D01A68E262184617
:1058F000FFF78EFCE36AAB42F7D194F821309B07A7
:1059000005D1D4E904231A61D4E904325A610F2085
:10591000FFF7FEFC019A33689A4205D1054802B0B0
:10592000BDE87040FFF7BCB9FBF7C2FC6044002043
:1059300000080020F0440108000000000000000002
:1059400030B50C4C83B0236801930546202383F3C4
:10595000118800F03DFAFFF743FA019A23689A4252
:1059600005D1284603B0BDE83040FFF7B1BFFBF7D3
:105970009FFC00BF000800200000000000000000A5
:10598000F0B50D4D0D4E03682A68B76983B0044623
:10599000019213B10A48FFF783F927600320BC6224
:1059A000FFF7B6FC019A2B68B1699A42886A01D167
:1059B00003B0F0BDFBF77CFC000800206044002031
:1059C0000045010800000000000000000000000089
:1059D000F0B5124D0368124A83B00446286801905E
:1059E0000E46976913B10F48FFF75AF966B1276061
:1059F000019A2B68BC629A420ED13146032003B053
:105A0000BDE8F040FFF7C4BC019A2B689A424FF002
:105A1000FF3001D103B0F0BDFBF74AFC00080020C5
:105A20006044002010450108000000000000000054
:105A3000F0B5124D04682B6883B00193B4B194F8AB
:105A40002030032B06460F460CD100233360019A09
:105A50002B68A7629A420FD1204603B0BDE8F04000
:105A6000FFF7D6BB0648FFF71BF9EEE7019A2B6854
:105A70009A4201D103B0F0BDFBF71AFC00080020E8
:105A80003045010800000000000000000000000098
:105A900030B5104A83B01368019381B10E4B019D5C
:105AA0009B69186044685C6023601268436095429B
:105AB0000DD1042003B0BDE83040FFF769BC019967
:105AC000136899424FF0FF3001D103B030BDFBF7AE
:105AD000EFFB00BF00080020604400200000000031
