:020000040800F2
:1000000000040020C1010008F19A0008F19A0008DC
:1000100011530008F19A0008F19A0008F19A0008BB
:10002000F19A0008F19A0008F19A000881BC0008D2
:10003000F19A0008F19A0008F19A0008D125010808
:10004000F19A000851F50008E1F6000831F70008C0
:10005000F19A0008F19A000891F20008E1F2000814
:1000600031F3000881F30008D1F30008E1E400084F
:1000700031E5000881E50008D1E5000821E6000827
:1000800071E60008C1E60008D1EF0008D1F80008C9
:1000900041F90008F1F90008A1FA000821F400086C
:1000A000F19A0008F19A000881200108F19A0008ED
:1000B00091210108D12101081122010861080108DC
:1000C000A1090108F19A0008F19A0008F19A0008C4
:1000D000F19A0008F19A0008F19A000891260108A7
:1000E000B1F40008A1F50008F1F50008F19A000844
:1000F000F19A0008F19A0008F19A000811E7000847
:10010000F19A000831FC000851220108F19A000818
:10011000F19A0008F19A000841200108F19A0008BC
:1001200061E70008B1E7000801E8000851E80008AD
:10013000A1E80008F19A000841F60008F19A0008C9
:10014000F19A0008F19A0008F19A0008811C010850
:10015000F1E8000841E9000891E90008F19A000877
:10016000F19A0008F19A0008F19A0008F19A000843
:1001700091F60008F19A0008513F0008F19A000832
:10018000F19A0008F19A0008F19A0008F19A000823
:10019000F19A0008F19A0008F19A0008F19A000813
:1001A000F19A0008F19A0008F19A0008F19A000803
:1001B000F19A0008F19A0008F19A0008F19A0008F3
:1001C00072B62E4880F3098840F20000CCF200009D
:1001D0004EF63471CEF20001086040F20000C0F229
:1001E000F0004EF68851CEF2000108604FF000009A
:1001F000E1EE100A4EF63C71CEF2000108600620D6
:1002000080F31488BFF36F8F12F08AFB4FF05530E4
:100210001B491C4A91423CBF41F8040BFAE71A49BA
:10022000164A91423CBF41F8040BFAE71749184AB5
:10023000184B9A423EBF51F8040B42F8040BF8E702
:1002400000201549154A91423CBF41F8040BFAE7DA
:1002500009F036FC124C134DAC4203DA54F8041B7F
:100260008847F9E701F07CFE0F4C104DAC4203DAF1
:1002700054F8041B8847F9E709F032BC0008002055
:10028000000000200004002000040020E8B1010864
:1002900000080020FC1400200015002070620020DF
:1002A000C0010008C0010008C0010008C00100082A
:1002B0002DE9F04F2DED108AC1F80CD0D0F80CD0FC
:1002C000BDEC108ABDE8F08F09F052FD0AF040FD48
:1002D000002383F311882846A04700200AF0D8FAAB
:1002E0000AF01EFD09F024FD0AF042F909F040FD74
:1002F0000AF02EFD00DFFEE7000000000000000015
:1003000081F0004102E000BF83F0004330B54FEAC6
:1003100041044FEA430594EA050F08BF90EA020F33
:100320001FBF54EA000C55EA020C7FEA645C7FEAC6
:10033000655C00F0E2804FEA5454D4EB5555B8BFE9
:100340006D420CDD2C4480EA020281EA030382EA5A
:10035000000083EA010180EA020281EA0303362DEC
:1003600088BF30BD11F0004F4FEA01314FF4801CBF
:100370004CEA113102D0404261EB410113F0004FD1
:100380004FEA03334CEA133302D0524263EB430388
:1003900094EA050F00F0A780A4F10104D5F1200E26
:1003A0000DDB02FA0EFC22FA05F2801841F1000181
:1003B00003FA0EF2801843FA05F359410EE0A5F155
:1003C00020050EF1200E012A03FA0EFC28BF4CF086
:1003D000020C43FA05F3C01851EBE37101F000453C
:1003E00007D54FF0000EDCF1000C7EEB00006EEB49
:1003F0000101B1F5801F1BD3B1F5001F0CD34908D3
:100400005FEA30004FEA3C0C04F101044FEA445229
:1004100012F5800F80F09A80BCF1004F08BF5FEAB0
:10042000500C50F1000041EB045141EA050130BD90
:100430005FEA4C0C404141EB010111F4801FA4F133
:100440000104E9D191F0000F04BF01460020B1FA88
:1004500081F308BF2033A3F10B03B3F120020CDAC0
:100460000C3208DD02F1140CC2F10C0201FA0CF09E
:1004700021FA02F10CE002F11402D8BFC2F1200C03
:1004800001FA02F120FA0CFCDCBF41EA0C019040B9
:10049000E41AA2BF01EB0451294330BD6FEA040402
:1004A0001F3C1CDA0C340EDC04F11404C4F12002ED
:1004B00020FA04F001FA02F340EA030021FA04F3FF
:1004C00045EA030130BDC4F10C04C4F1200220FA56
:1004D00002F001FA04F340EA0300294630BD21FA94
:1004E00004F0294630BD94F0000F83F4801306BF5A
:1004F00081F480110134013D4EE77FEA645C18BF4E
:100500007FEA655C29D094EA050F08BF90EA020FE4
:1005100005D054EA000C04BF1946104630BD91EADC
:10052000030F1EBF0021002030BD5FEA545C05D1DF
:100530004000494128BF41F0004130BD14F580041E
:100540003CBF01F5801130BD01F0004545F0FE4192
:1005500041F470014FF0000030BD7FEA645C1ABFC7
:10056000194610467FEA655C1CBF0B46024650EAFE
:10057000013406BF52EA033591EA030F41F400212A
:1005800030BD00BF90F0000F04BF0021704730B5B0
:100590004FF4806404F132044FF000054FF0000185
:1005A00050E700BF90F0000F04BF0021704730B546
:1005B0004FF4806404F1320410F0004548BF40421B
:1005C0004FF000013EE700BF42004FEAE2014FEA70
:1005D00031014FEA02701FBF12F07F4393F07F4F4B
:1005E00081F06051704732F07F4208BF704793F04E
:1005F0007F4F04BF41F40021704730B54FF4607461
:1006000001F0004521F000411CE700BF50EA010263
:1006100008BF704730B54FF000050AE050EA01020C
:1006200008BF704730B511F0004502D5404261EB7C
:1006300041014FF4806404F132045FEA915C3FF4BD
:10064000D8AE4FF003025FEADC0C18BF03325FEA5A
:10065000DC0C18BF033202EBDC02C2F1200300FA0B
:1006600003FC20FA02F001FA03FE40EA0E0021FA30
:1006700002F11444BDE600BF0000000000000000CD
:1006800070B54FF0FF0C4CF4E06C1CEA11541DBF28
:100690001CEA135594EA0C0F95EA0C0F00F0DEF8F3
:1006A0002C4481EA030621EA4C5123EA4C5350EAD8
:1006B000013518BF52EA033541F4801143F4801329
:1006C00038D0A0FB02CE4FF00005E1FB02E506F0BA
:1006D0000042E0FB03E54FF00006E1FB03569CF00F
:1006E000000F18BF4EF0010EA4F1FF04B6F5007F15
:1006F00064F5407404D25FEA4E0E6D4146EB060687
:1007000042EAC62141EA55514FEAC52040EA5E500F
:100710004FEACE2EB4F1FD0C88BFBCF5E06F1ED8B9
:10072000BEF1004F08BF5FEA500E50F1000041EBF0
:10073000045170BD06F0004646EA010140EA02009D
:1007400081EA0301B4EB5C04C2BFD4EB0C0541EABF
:10075000045170BD41F480114FF0000E013C00F3D4
:10076000AB8014F1360FDEBF002001F0004170BDF8
:10077000C4F10004203C35DA0C341BDC04F1140411
:10078000C4F1200500FA05F320FA04F001FA05F29D
:1007900040EA020001F0004221F0004110EBD3706A
:1007A00021FA04F642EB06015EEA430E08BF20EA96
:1007B000D37070BDC4F10C04C4F1200500FA04F339
:1007C00020FA05F001FA04F240EA020001F00041CB
:1007D00010EBD37041F100015EEA430E08BF20EA3E
:1007E000D37070BDC4F1200500FA05F24EEA020E86
:1007F00020FA04F301FA05F243EA020321FA04F0B5
:1008000001F0004121FA04F220EA020000EBD3706B
:100810005EEA430E08BF20EAD37070BD94F0000F6B
:100820000FD101F00046400041EB010111F4801F9F
:1008300008BF013CF7D041EA060195F0000F18BF50
:10084000704703F00046520043EB030313F4801F8C
:1008500008BF013DF7D043EA0603704794EA0C0F46
:100860000CEA135518BF95EA0C0F0CD050EA41065C
:1008700018BF52EA4306D1D181EA030101F00041D9
:100880004FF0000070BD50EA410606BF1046194601
:1008900052EA430619D094EA0C0F02D150EA01360D
:1008A00013D195EA0C0F05D152EA03361CBF10464E
:1008B00019460AD181EA030101F0004141F0FE41ED
:1008C00041F470014FF0000070BD41F0FE4141F471
:1008D000780170BD70B54FF0FF0C4CF4E06C1CEA71
:1008E00011541DBF1CEA135594EA0C0F95EA0C0F26
:1008F00000F0A7F8A4EB050481EA030E52EA0335E1
:100900004FEA013100F088804FEA03334FF0805501
:1009100045EA131343EA12634FEA022245EA11152E
:1009200045EA10654FEA00260EF000419D4208BFDF
:10093000964244F1FD0404F5407402D25B084FEA8C
:100940003202B61A65EB03055B084FEA32024FF438
:1009500080104FF4002CB6EB020E75EB030E22BF95
:10096000B61A754640EA0C005B084FEA3202B6EB55
:10097000020E75EB030E22BFB61A754640EA5C0004
:100980005B084FEA3202B6EB020E75EB030E22BF94
:10099000B61A754640EA9C005B084FEA3202B6EB95
:1009A000020E75EB030E22BFB61A754640EADC0054
:1009B00055EA060E18D04FEA051545EA16754FEAB6
:1009C00006164FEAC30343EA52734FEAC2025FEAD4
:1009D0001C1CC0D111F4801F0BD141EA00014FF063
:1009E00000004FF0004CB6E711F4801F04BF014334
:1009F0000020B4F1FD0C88BFBCF5E06F3FF6AFAE50
:100A0000B5EB030C04BFB6EB020C5FEA500C50F1DF
:100A1000000041EB045170BD0EF0004E4EEA113162
:100A200014EB5C04C2BFD4EB0C0541EA045170BD69
:100A300041F480114FF0000E013C90E645EA060EAD
:100A40008DE60CEA135594EA0C0F08BF95EA0C0FDB
:100A50003FF43BAF94EA0C0F0AD150EA01347FF423
:100A600034AF95EA0C0F7FF425AF104619462CE7FA
:100A700095EA0C0F06D152EA03353FF4FDAE10465D
:100A8000194622E750EA410618BF52EA43067FF4AE
:100A9000C5AE50EA41047FF40DAF52EA43057FF43E
:100AA000EBAE12E7000000000000000000000000B4
:100AB0004FF0FF3C06E000BF4FF0010C02E000BF2A
:100AC0004FF0010C4DF804CD4FEA410C7FEA6C5C0D
:100AD0004FEA430C18BF7FEA6C5C1BD001B050EAB0
:100AE000410C0CBF52EA430C91EA030F02BF90EA9B
:100AF000020F0020704710F1000F91EA030F58BF5A
:100B0000994208BF90422CBFD8176FEAE37040F0BB
:100B1000010070474FEA410C7FEA6C5C02D150EA59
:100B2000013C07D14FEA430C7FEA6C5CD6D152EA14
:100B3000033CD3D05DF8040B704700BF84461046D9
:100B400062468C461946634600E000BF01B5FFF7D8
:100B5000B7FF002848BF10F1000F01BD4DF808EDA8
:100B6000FFF7F4FF0CBF012000205DF808FB00BF79
:100B70004DF808EDFFF7EAFF34BF012000205DF8D3
:100B800008FB00BF4DF808EDFFF7E0FF94BF012020
:100B900000205DF808FB00BF4DF808EDFFF7CEFF21
:100BA00094BF012000205DF808FB00BF4DF808ED60
:100BB000FFF7C4FF34BF012000205DF808FB00BF31
:100BC0004FEA410C7FEA6C5C02D150EA013C0AD149
:100BD0004FEA430C7FEA6C5C02D152EA033C02D13B
:100BE0004FF0000070474FF0010070470000000018
:100BF0004FEA410212F5001215D211D56FF4787345
:100C0000B3EB625212D94FEAC12343F0004343EAE7
:100C1000505311F0004F23FA02F018BF40427047C2
:100C20004FF00000704750EA013005D111F000404C
:100C300008BF6FF0004070474FF00000704700BFE2
:100C40004FEA4102B2F1E04324BFB3F5001CDCF1EE
:100C5000FE5C0DD901F0004C4FEAC0024CEA507026
:100C6000B2F1004F40EB830008BF20F00100704755
:100C700011F0804F21D113F13872BCBF01F0004058
:100C8000704741F480114FEA5252C2F11802C2F18A
:100C9000200C10FA0CF320FA02F018BF40F001000B
:100CA0004FEAC1234FEAD32303FA0CFC40EA0C00BD
:100CB00023FA02F34FEA4303CCE77FEA625307D1FA
:100CC00050EA01331EBF4FF0FE4040F44000704731
:100CD00001F0004040F0FE4040F40000704700BFCB
:100CE00053B94AB9002908BF00281CBF4FF0FF3193
:100CF0004FF0FF3000F074B9ADF1080C6DE904CE8F
:100D000000F006F8DDF804E0DDE9022304B07047E6
:100D10002DE9F047089E04468846002B4BD18A42B5
:100D2000154667D9B2FA82F24AB1C2F1200701FA38
:100D300002F320FA07F7954047EA030894404FEA88
:100D4000154E230CB8FBFEF71FFA85FC0EFB178827
:100D500043EA084307FB0CF1994209D9EB1807F164
:100D6000FF3080F01B81994240F21881023F2B44F2
:100D70005B1AA4B2B3FBFEF00EFB103344EA03444B
:100D800000FB0CFCA44509D92C1900F1FF3380F0BD
:100D90000781A44540F2048102382C4440EA074010
:100DA000A4EB0C0400271EB1D4400023C6E9004385
:100DB0003946BDE8F0878B4209D9002E00F0EB8060
:100DC0000027C6E9000138463946BDE8F087B3FA86
:100DD00083F7002F47D18B4202D3824200F2FA8080
:100DE000841A61EB030301209846002EE0D0C6E987
:100DF0000048DDE702B9FFDEB2FA82F2002A40F0D5
:100E00008F80491B4FEA154E1FFA85F80127B1FB69
:100E1000FEFC230C0EFB1C1143EA014308FB0CF102
:100E2000994207D9EB180CF1FF3002D2994200F237
:100E3000CD808446591AA3B2B1FBFEF00EFB10140C
:100E400043EA044408FB00F8A04507D92C1900F137
:100E5000FF3302D2A04500F2B6801846A4EB080486
:100E600040EA0C409FE7C7F1200CBB4022FA0CFE81
:100E70004EEA030E01FA07F420FA0CF521FA0CF3FE
:100E80004FEA1E482543B3FBF8F92C0C08FB193335
:100E90001FFA8EFA44EA034309FB0AF49C4202FA61
:100EA00007F200FA07F10BD91EEB030309F1FF303B
:100EB00080F087809C4240F28480A9F1020973444B
:100EC0001B1BADB2B3FBF8F008FB103345EA03443B
:100ED00000FB0AFAA24508D91EEB040400F1FF3317
:100EE0006BD2A24569D90238744440EA0940A0FB9C
:100EF0000289A4EB0A044C45C2464B4654D351D058
:100F0000002E69D0B1EB0A0564EB030404FA0CFC73
:100F1000FD40FC404CEA0505C6E90054002747E7C0
:100F2000C2F1200320FA03F7954001FA02F021FAFA
:100F300003F34FEA154E3843010CB3FBFEF71FFADB
:100F400085F80EFB173341EA034107FB08F38B4298
:100F500004FA02F407D9691807F1FF3C2FD28B423B
:100F60002DD9023F2944CB1A81B2B3FBFEF00EFB10
:100F7000103341EA034100FB08F38B4207D969189B
:100F800000F1FF3C17D28B4215D902382944C91A07
:100F900040EA07473BE73746304609E70746E7E6BA
:100FA0001846FBE64145ABD2B8EB020A69EB0E02EC
:100FB00001381346A4E76046E9E7184695E7674617
:100FC000D1E781467CE702382C4447E7ACF1020CBC
:100FD0002B442FE7384608E73746E9E600000000D3
:100FE000704700BF0000000000000000000000008B
:100FF000844641EA000313F003036DD1403A41D324
:1010000051F8043B40F8043B51F8043B40F8043BE2
:1010100051F8043B40F8043B51F8043B40F8043BD2
:1010200051F8043B40F8043B51F8043B40F8043BC2
:1010300051F8043B40F8043B51F8043B40F8043BB2
:1010400051F8043B40F8043B51F8043B40F8043BA2
:1010500051F8043B40F8043B51F8043B40F8043B92
:1010600051F8043B40F8043B51F8043B40F8043B82
:1010700051F8043B40F8043B51F8043B40F8043B72
:10108000403ABDD2303211D351F8043B40F8043B12
:1010900051F8043B40F8043B51F8043B40F8043B52
:1010A00051F8043B40F8043B103AEDD20C3205D322
:1010B00051F8043B40F8043B043AF9D2043208D01A
:1010C000D2071CBF11F8013B00F8013B01D30B888C
:1010D00003806046704700BF082A13D38B078DD06A
:1010E00010F003038AD0C3F10403D21ADB071CBF3C
:1010F00011F8013B00F8013B80D331F8023B20F8A6
:10110000023B7BE7043AD9D3013A11F8013B00F8DE
:10111000013BF9D20B7803704B7843708B78837066
:101120006046704700000000000000000000000062
:10113000A2EB0300704700BF02780B78012A28BF9A
:101140009A42F5D16DE9044540EA0104CDE9026710
:101150006FF0000C4FEA447212B380EA010414F0FD
:10116000070F6AD100F0070420F0070004F0030520
:1011700021F007014FEAC505F0E8042314F0040F3D
:10118000F1E804670CFA05F462EA040266EA040670
:101190000AD063EA0403624667EA0407664603E08E
:1011A000F0E80423F1E8046782FA4CF582EA0604C9
:1011B000A4FA8CF46CBB83FA4CF583EA0705A5FA14
:1011C0008CF595B950E9022351E9026782FA4CF592
:1011D00082EA0604A4FA8CF483FA4CF583EA070544
:1011E000A5FA8CF52543DBD09CB92DBAB5FA85F468
:1011F00024F0070427FA04F1DDE9026723FA04F377
:1012000003F0FF0001F0FF01FDE80445A0EB010041
:10121000704724BAB4FA84F424F0070426FA04F1DF
:10122000DDE9026722FA04F202F0FF0001F0FF019B
:10123000FDE80445A0EB0100704714F0030F3CD11A
:1012400010F0030428D150F8082B51F8083B82FA1B
:101250004CF582EA0305A5FA8CF55DB950F8042C2B
:1012600051F8043C82FA4CF582EA0305A5FA8CF5A4
:10127000002DE8D02DBAB5FA85F424F0070423FA3E
:1012800004F122FA04F202F0FF0001F0FF01FDE890
:101290000445A0EB010070474FEAC40420F00300AE
:1012A00050F8082B21F0030151F8083B0CFA04F424
:1012B00062EA040263EA0403C9E710F003041AD0E7
:1012C000A1EB040120F00300E40750F8042B06D042
:1012D0000FD28B785FFAA2F4E41A06D12BB1CB7847
:1012E0005FFAB2F4E41A00D11BB920465DF8104B46
:1012F000704701F1040150F8042BCC0721F00301E1
:1013000051F8043B48D824D222F07F4482FA4CF5AD
:1013100094EA1325A5FA8CF50AD165B951F8043B76
:1013200084EA0204B4EB036F0ED150F8042BEBE710
:101330004FEA132355E035F07F454DD10878FDE89D
:101340000445C0F1000070474FEA126203F0FF034A
:1013500047E002EA1C4482FA4CF594EA1345A5FAE8
:101360008CF50AD165B951F8043B84EA0204B4EB68
:10137000034F0CD150F8042BEBE74FEA134330E056
:1013800015EA1C4528D10B884FEA124229E04FEAA2
:10139000124203EA1C4324E002F0FF0482FA4CF5F7
:1013A00094EA1365A5FA8CF50AD165B951F8043BA6
:1013B00084EA0204B4EB032F09D150F8042BEBE7C5
:1013C0004FEA13630DE015F0FF0F05D10B684FEAEC
:1013D000122223F07F4304E04FF00000FDE80445B3
:1013E000704712BA1BBA82FA4CF482EA0304A4FAD8
:1013F0008CF5B5FA85F402FA04F203FA04F34FEA25
:101400001260FDE80445A0EB136070470000000087
:1014100090F800F06DE9024520F007016FF0000C34
:1014200010F0070491F820F040F049804FF00004DC
:101430006FF00700D1E9002391F840F000F10800B7
:1014400082FA4CF2A4FA8CF283FA4CF3A2FA8CF3EF
:101450004BBBD1E9022382FA4CF200F10800A4FA56
:101460008CF283FA4CF3A2FA8CF3E3B9D1E90423AA
:1014700082FA4CF200F10800A4FA8CF283FA4CF3E1
:10148000A2FA8CF37BB9D1E9062301F1200182FA9B
:101490004CF200F10800A4FA8CF283FA4CF3A2FAA1
:1014A0008CF3002BC6D0002A04BF04301A4612BAAF
:1014B000B2FA82F2FDE8024500EBD2007047D1E9B2
:1014C000002304F00305C4F100004FEAC50514F041
:1014D000040F91F840F00CFA05F562EA05021CBF12
:1014E00063EA050362464FF00004A9E7000000002C
:1014F00001F0FF01102A2BDB10F0070F08D010F8C5
:10150000013B013A8B422DD010F0070F42B3F6D1C8
:10151000F0B441EA012141EA014122F007047FF0E1
:1015200000070023F0E80256083C85EA010586EA38
:10153000010685FA47F5A3FA87F586FA47F6A5FA74
:1015400087F68EB9EED1F0BC01F0FF0102F0070280
:1015500032B110F8013B013A83EA010313B1F8D12B
:101560000020704701387047002D06BF354603380C
:10157000073815F0010F07D1013015F4807F02BF45
:10158000013015F4C03F0130F0BC0138704700BF96
:1015900000B5084B83B01A680192019A1B689A4201
:1015A00005D1054803B05DF804EB08F021BBFFF757
:1015B000EFFF00BF00080020A09801080000000015
:1015C00010B5124C82B02368019301F061FA50B952
:1015D00001F046FA019A23689A4215D102B0BDE89B
:1015E000104002F0E5B802F0B3F84FF42F7009F0A4
:1015F000D7F801F065FA019A23689A4204D102B043
:10160000BDE8104002F0BCB8FFF7C2FF00080020A0
:101610002DE9F0412DED028BCD4C82B02368019372
:10162000002840F0AF80CB4D2B78042B00F2A08037
:10163000DFE813F0C200EF000500D700CC0001F096
:101640006FF8012800F0318101F06AF8002840F0BD
:10165000248101F03DF8B0F90230002B80F288803F
:1016600001F036F8B0F9007001F032F8B0F900601E
:1016700001F02EF8B0F9028001F02AF8438813FB3C
:1016800008F307FB0636082E72DD01F009F8B0F901
:10169000026001F01DF8B04BB0F902201B68009306
:1016A000C6F1320696FBF2F607EE906AF8EEE78A8C
:1016B00000F0F6FFB0F9003007EE903AB8EEE78A96
:1016C00001F006F8B0F9003007EE903AF8EEE77A4C
:1016D000A7EEA88AFDEEC87A17EE903A1EB2A6F1E0
:1016E00097039BB2B3F5957FADF8006040D801F049
:1016F0002FFBB0F900300A339E4208DCBDF90060D0
:1017000001F026FBB0F900300A3B9E4230DA684611
:1017100001F086FB00F0C4FFBDF90220B0F90230F1
:101720009B1A07EE903AB8EEE78A00F0B9FFBDF9D0
:101730000020B0F900309B1A00EE903AB0EE480A53
:10174000F8EEE00A11F07CFFDFED847A9FED847AF9
:1017500020EE270AC0EE077AFDEEE77A17EE903A00
:101760001BB2002BC0F2EC807E4A138003232B7047
:10177000019A23689A4240F0E88002B0BDEC028BE7
:10178000BDE8F08101F0E4FA0388962B0AD901F054
:10179000DFFA0388B3F5E17F04D201F0D9FA438878
:1017A000282B29D86C4B6B4D1B6802A840F8083DCC
:1017B00001F036FB00232B7001F052FF0028D7D038
:1017C000A02001F00DFB01232B70D1E701F030FFC9
:1017D0000028CDD000F0A4FF00285AD102232B709E
:1017E000C6E701F03DFF0028C2D05E4B188801F02B
:1017F000F7FA04232B70BBE701F0AAFA4388312BD8
:10180000D0D8A02001F0ECFA524D574A01231370B2
:101810002B7000F085FF18B100F082FF01287BD10A
:1018200000F03EFFB0F9026001F092FAB0F9023028
:10183000F61A07EE906AB8EEE78A00F031FFB0F9C9
:10184000006001F085FAB0F90230F31A00EE903A28
:10185000B0EE480AF8EEE00A11F0F2FEDFED3F7A52
:101860009FED3F7A20EE270AC0EE077AF5EEC07AA8
:10187000F1EE10FA03D59FED3D7A77EE877AFCEE14
:10188000E77A17EE903A98B201F0AAFA02232B7089
:101890006EE700F045FF0128A0D000F041FF0228CC
:1018A0007FF466AF01232B7062E700F0F9FEB0F918
:1018B000025001F04DFAB0F90230ED1A07EE905ADD
:1018C000B8EEE78A00F0ECFEB0F9005001F040FA03
:1018D000B0F90030EB1A00EE903AB0EE480AF8EE9C
:1018E000E00A11F0ADFEDFED1D7A9FED1D7A20EECE
:1018F000270AC0EE077AF5EEC07AF1EE10FA44BF7F
:101900009FED1A7A77EE877AFCEEE77A17EE903A37
:1019100098B201F065FA2BE701F08AFE00283FF447
:1019200027AF114D2B783BB1142001F059FA2B78D9
:1019300083F001032B701BE7A02001F051FAF6E7BA
:10194000084A03F5B473138010E7FFF721FE00BFC8
:10195000000800202008002090980108000034436F
:10196000DB0F494006150020210800200000B44389
:101970002DE9F0412DED048BC54D82B02B6801930C
:10198000002840F0BE80C34C2178B1FA81F14909AA
:10199000002003F0B5FB21780120091AB1FA81F18A
:1019A000490903F0ADFB21780220091AB1FA81F14F
:1019B000490903F0A5FB21780320091AB1FA81F146
:1019C000490903F09DFB2378042B00F29080DFE8A7
:1019D00013F0AD000500ED00F800A20000F0A0FE3D
:1019E000002840F0078100F05BFEB0F90230AA4EFB
:1019F0009FEDAD9ADFEDAB8AA84FC3F57A7307EE82
:101A0000903AB8EEE78A00F04BFEB0F90030C3F52B
:101A1000967300EE903AB0EE480AF8EEE00A11F044
:101A20000FFEDFEDA07A9FEDA07A9FED9D8A20EE5C
:101A3000270AC0EE077AFDEEE77A17EE903A1BB25E
:101A4000002BB8BF03F5B473338000F029FEB6F95C
:101A5000003000EE103AB8EEC00A804620EE090AC7
:101A600080EE280A11F024FCB8F9003007EE903A15
:101A7000F8EEE77AE0EE487AFDEEE77A17EE903A74
:101A80003B8000F00DFEB6F9003000EE103AB8EEE3
:101A9000C00A804620EE090A80EE280A11F058FCA0
:101AA000B8F90230B7F90020282A07EE903AF8EE8C
:101AB000E77AE0EE487AFDEEE77A17EE903A1BB24D
:101AC0007B8040F3DF80B2F50C7F04DB4FF40C71B8
:101AD0005A2239803280282B00F3238128220023C8
:101AE0007A8033806D4801F09BF902232370019ABC
:101AF0002B689A4240F01F8102B0BDEC048BBDE818
:101B0000F08100214FF45C70624C01F0E1F9002398
:101B1000237001213CE701F01BFE4FF4617008F0D7
:101B20003FFE01F02DFE01232370E0E700F0F8FDF9
:101B300018B100F0F5FD0128D9D100F0B1FDB0F9E0
:101B4000026001F005F9B0F90230F61A07EE906A6A
:101B5000B8EEE78A00F0A4FDB0F9006001F0F8F8F3
:101B6000B0F90030F31A00EE903AB0EE480AF8EE01
:101B7000E00A11F065FDDFED4B7A9FED4B7A20EE28
:101B8000270AC0EE077AF5EEC07AF1EE10FA03D517
:101B90009FED467A77EE877AFCEEE77A17EE903A79
:101BA00098B201F01DF901232370A0E701F058FD60
:101BB00000289CD0384B188801F012F903232370B9
:101BC00095E701F035FD002891D000F0A9FD08B996
:101BD0000423237000F0A4FD012869D000F0A0FDCB
:101BE000022884D100214FF45C7001F071F90023C8
:101BF00023707CE700F094FD0228F3D000F090FD04
:101C000001287FF474AF00F04BFDB0F9024001F001
:101C10009FF8B0F90230E41A07EE904AB8EEE78A6E
:101C200000F03EFDB0F9004001F092F8B0F900304C
:101C3000E31A00EE903AB0EE480AF8EEE00A11F02E
:101C4000FFFCDFED187A9FED187A019A2B6820EEE1
:101C5000270AC0EE077AF5EEC07AF1EE10FA44BF1B
:101C60009FED127A77EE877A9A4264D1FCEEE77A9A
:101C700017EE903A98B202B0BDEC048BBDE8F0418B
:101C800001F0AEB828215A223980328023E700BF04
:101C90000008002004150020081500200015002071
:101CA0000000F04200003443DB0F49400000B44321
:101CB00000F0F6FCB0F9026001F04AF8B0F9023029
:101CC000F61A07EE906AB8EEE78A00F0E9FCB0F980
:101CD000006001F03DF8B0F90030F31A00EE903AE0
:101CE000B0EE480AF8EEE00A11F0AAFC5FED137AB4
:101CF0001FED137A20EE270AC0EE077AF5EEC07AC0
:101D0000F1EE10FA44BF1FED177A77EE877AFCEEFA
:101D1000E77A17EE903A98B201F062F80123237047
:101D20005CE7B3F5707FFFF6DDAE4FF47072002311
:101D30007A803380D6E6FFF72BFC00BF000000005E
:101D40002DE9F0412DED048BB0F90260B1F90240AC
:101D5000B0F90050B1F90030A41B5B1B04FB04F484
:101D600003FB034307EE903AB8EEE70A734D86B0E3
:101D7000B5EE400A2B680593F1EE10FAB1EEC08A79
:101D800000F18F80B5EE408AF1EE10FAF1EEC88ACC
:101D900000F1C680B1F902E0B0F902C0B1F900303B
:101DA000B0F90070AEEB0C0404FB04F6DC1B04FB82
:101DB000046407EE904A9FED627AB8EEE70AC7EE38
:101DC000287AF1EEC08AFCEEE77AB5EE400A17EE0B
:101DD000906AF1EE10FAB0EE688AB6B200F1828035
:101DE0009FED587AB2F90280B2F90000C7EE087A86
:101DF000AEEB080E1B1A0EFB0EFEACEB080C3F1AE6
:101E00000CFB0CFC03FB03E31C4407FB07C7E41BB0
:101E100007EE104AFCEEE77AB5EE400A17EE900A9C
:101E2000F1EE10FAB8EE478A84B246D407EE903A43
:101E3000B8EEE70A78EEA88AB5EE400AF1EE10FA9D
:101E4000B1EEC09A36D4344468EE898A88EE280A06
:101E500011F096FB059A2B689A4207EE906ADFED27
:101E60003A5ADFED3A6A9FED3A6AB8EEE77AC7EE82
:101E7000257AB0EE007AE0EE076A77EE867A67EEB2
:101E8000A67A67EEA67A67EEA67AFDEEE77A17EEF7
:101E9000900A204400B24ED106B0BDEC048BBDE8E0
:101EA000F081CDE90212019011F0D2FBDDE90212BE
:101EB000019867E711F0CCFBC5E7CDE9011211F0FD
:101EC000C7FB0199029AB1F90200B2F90270B1F9A7
:101ED0000030B2F90010C21B02FB02F25B1A03FBD6
:101EE0000323A3E7CDE90212019011F0B1FB0198A1
:101EF0000299B0F902C0B1F902E0B0F90070B1F98D
:101F00000030039AAEEB0C0404FB04F4D81B00FB76
:101F1000004407EE904AB8EEE70AF1EEC08A5FE7A8
:101F2000B0EE480ACDE90212019011F091FBDDE913
:101F3000021201982EE7FFF72BFB00BF00080020DC
:101F40000000FA4400007A440000C842DB0F49C098
:101F5000AAAAAA3E00000000000000000000000045
:101F60002DE9F041404BDFF818811B6884B0012651
:101F7000039309F0E5FE07F0D3FD03F071F93B4A46
:101F80003B493C4807F09CFC3B493C480BF0F8F9C6
:101F900003F0AEFF02F0FCFA02F0D2FE03F098FC70
:101FA00003F0AEFE00F0D4FB01F01AFD00F0A0FD3E
:101FB00001F0A6FC00F0A4FE01F04AFF022401F0AB
:101FC000F7FC051B18BF012501F0F2FC04460328AD
:101FD00005D8DFE800F011150802FFF7F1FA1E201E
:101FE00008F0DEFBEBE700F09BFB054678B1002034
:101FF00056B1FFF7BDFCF2E72846FFF709FBEEE715
:102000002846FFF7B5FCEAE7FFF702FBE7E7CDF864
:10201000048000F09DFE074600F042FB01AA014645
:102020003846FFF78DFE0295074600F039FB03881E
:10203000C3F51673ADF8083000F032FB4388C3F5E2
:102040007A73ADF80A3000F0F3FC01AA02A9FFF799
:1020500077FE8742D4BF00270127B81BB0FA80F073
:1020600040093E46C4E700BF0008002004080020E5
:102070000C0800202049002024080020C461002012
:102080002C01E80300000000000000000000000038
:1020900080B5274C274AA3692749996186B0032355
:1020A0002025002116680093EF224FF42073CDE91C
:1020B00001554420059602F0EBFB2D2002F070FE46
:1020C000002002F0BDFE1D4E1D4F002002F088FED4
:1020D00002F0E6FA002002F01BFBB04602F080FAA4
:1020E00013E008F01DFA07F043FE08F031FE236804
:1020F000A34207D0A2699B6892689A4202D23846EE
:1021000007F076FD002383F3118802F041FB02F013
:10211000A7FA85F3118808F003FE07F009FE07F01F
:10212000D7FEB368002BDCDC404608F0D1FED8E7D0
:10213000A053002000080020C098010834080020A7
:10214000E09801080000000000000000000000000E
:102150002DE9F04F2B4D04782D680C7044784C70AD
:1021600087B090F87F420595002581F87F42CDE940
:10217000015290F87E42DFF89080039381F87E420E
:1021800001F1010C00F5F06BAA4602270CF801AF33
:102190001FFA87F9C6190BEB070E002316F8024C3D
:1021A00016F8012C3578B178224474782A442244F8
:1021B0000A44A8FB021203EBD20306F52076DBB239
:1021C000B6458CF80030E9D10A2B06D8019B93B9AB
:1021D000029BA3F8009001230193013740F27E2374
:1021E0009F42D3D1074B059A1B6801989A4206D1AA
:1021F00007B0BDE8F08F039BA3F80090EDE7FFF771
:10220000C7F900BF00080020898888880000000006
:10221000F0B51F4D0C882B6883B0092C019313D99E
:102220001C4F06192744737816F801CDA3EB0C0355
:1022300003EBD3735B1007F8013901330C8003DB28
:10224000013CA4B2012CEED1118840F275239942D1
:1022500015D8104C08440C4440F27F2710F8013F79
:1022600010F8026C9B1B03EBD3735B10012B04F87B
:10227000013B118003DC013189B2B942EED1019AF0
:102280002B689A4201D103B0F0BDFFF781F900BF7E
:1022900000080020241500200000000000000000BD
:1022A0002DE9F04F2DED0A8BC94E83B033680193B1
:1022B0000A2807460C46A1EB000303D9B1F51D7FA0
:1022C00040F26E81C34A0121117007EE903ADFEDB2
:1022D000C2AA9FEDC27A9FEDC2AADFEDC29A9FED1E
:1022E000C2BADFF82C83C14DF8EEE77AB6EE009A59
:1022F00067EEAA7A3C4487EE870A20EE090A11F0BD
:1023000027F807EE904A9FEDBA6ADFEDBA6AF8EE59
:10231000E77AC6EE80BA87EE867A39EE479A00F001
:1023200017FDB0F9003008EE903A00F039FD07EEE5
:10233000900AB8EEE70AF8EEE88A20EE0A0A80EE84
:10234000290A10F0B5FFE0EE0B8A00F029FD07EE38
:10235000900AF8EEE77A67EE8A7A87EEA90AA9EE84
:102360002A0A10F0A5FFB0EE40CA00F0F1FCB0F967
:10237000023008EE103A00F013FD07EE900AB8EEB6
:10238000E70AB8EEC88A20EE0A0A80EE290A10F0A1
:10239000DFFFA0EE0B8A00F003FD07EE900AF8EED7
:1023A000E77A27EE8AAA8AEE290AA9EE2A0A10F00D
:1023B000CFFFF0EE687AEBEE8C7AB8F90030B5F921
:1023C0000070DFED8D5A9FED8D6AABEE808AFDEED9
:1023D000E77A06EE903A17EE902AB8F90230BDEE91
:1023E000C88A12B207EE103A07EE902A18EE102AA9
:1023F000F8EEE66A12B2B8EEC77AF8EEE77A66EE61
:10240000A56A08EE102A27EE257AE7EE866A2023D1
:10241000B8EEC88AF0EE477AE8EE067ABDEEE67AC4
:10242000FDEEE77A17EE102A14B217EE902AA8F8FC
:102430000040A8F8022083F31188DFF8D89108F053
:102440006FFC07F075FCD9F828B007F091FC08F094
:102450007FFCD9F800204A4506D0D9F81830926898
:102460009B689342C0F0AA80002383F31188DFF8B1
:10247000A8A1634ADAF80030DFED626AABEB030B28
:102480004FF47A730BFB0333013BA2FB0323E41BE2
:102490009B0907EE903A07EE104AF8EEE77AB8EE9D
:1024A000C77AB5F90220B8F90230C7EE278A9B1A1D
:1024B000202207EE903A68EEA68AB8EEE78A82F309
:1024C000118808F02DFC07F033FCD9F8284007F0FC
:1024D0004FFC08F03DFCD9F800304B4505D0D9F849
:1024E00018209B6892689A4260D3002383F3118876
:1024F000DAF80030424A9FED405ADFED424ADFED04
:102500003F5AB8F800102980E41A4FF47A7304FB9C
:102510000333013BA2FB03239B0907EE903AF8EE3D
:10252000E77A394BB8F80220D3ED016A93ED007ACF
:102530006A8088EE276A202266EE856A67EE057A51
:1025400026EE246AB0EE667AA6EE257AE8EEA57A43
:1025500083ED017AC3ED007A82F3118808F0E0FB85
:1025600007F0E6FBD9F8284007F002FC08F0F0FB82
:10257000D9F800304B4505D0D9F818209B689268EF
:102580009A4217D3002383F31188CAF80040019AB6
:1025900033689A421AD103B0BDEC0A8BBDE8F08FC4
:1025A0000E2B0FDC0B4B02221A70F0E7174807F0D6
:1025B0001FFB9AE7154807F01BFBE3E7134807F0FA
:1025C00017FB51E7034A002111707EE6FEF7E0FF9A
:1025D0000008002030080020F90F493F0000204487
:1025E000DB0F49400000344300000C420C15002072
:1025F0000000A04448E19541CDCC4C3FCDCC4C3EB1
:10260000D34D62100000C84218150020E098010860
:1026100014150020A0530020201500200000000009
:1026200070B5194A194B926919499161ADF5227D2E
:102630001B68A19301A84FF42072002113F0C0FE83
:10264000144E154C0023ADF80030ADF802300225D1
:10265000204608F005FC02F073F80DF102036A460B
:1026600001A9FFF775FD08B93570F1E7694601A8C2
:102670000DF10202FFF7CCFDBDF80210BDF800001D
:10268000FFF70EFEE4E700BFA05300200008002083
:10269000D098010830080020340800200000000015
:1026A00000B5074B83B01A680192019A1B689A42E1
:1026B00003D1044803B05DF804FBFEF769FF00BFD7
:1026C0000008002014150020000000000000000099
:1026D00000B50E4A0E4B92ED007AD2ED017A1968E0
:1026E0000C4883B0BDEEC77A0191FDEEE77A17EE94
:1026F000101A019A1B68018017EE901A9A424180C5
:1027000002D103B05DF804FBFEF742FF181500206C
:10271000000800201015002000000000000000004C
:1027200000B5074B07491A68087883B00192019AEF
:102730001B689A4202D103B05DF804FBFEF728FF44
:102740000008002030080020000000000000000009
:1027500030B50E4C0E4B22680E4885B00025039212
:1027600042F278114022009507F0C2FF0A4B009513
:1027700040220A484FF41E7107F0BAFF039A2368FB
:102780009A4201D105B030BDFEF702FF00080020DB
:1027900021260008201A002091200008A8170020F8
:1027A0000EB410B50A4C0B4923680B4883B0019353
:1027B00006AB1A46009310F00BF9019A23689A426F
:1027C00004D103B0BDE8104003B07047FEF7E0FE4F
:1027D0000008002000990108C461002000000000EA
:1027E0002DE9F041104F114E3B6882B00546302272
:1027F000202101936C1E13F0E3FD2F35B04601E05C
:10280000AC4208D033684046DB689847C0B22D28F8
:1028100004F8010FF4D1019A3B689A4202D102B048
:10282000BDE8F081FEF7B4FE00080020C46100207E
:1028300030B50C4C83B02368019300F089FA058809
:1028400000F086FA01992368994208D14388064925
:1028500006482A4603B0BDE83040FFF7A1BFFEF7A7
:1028600097FE00BF0008002000990108C461002005
:1028700000B56138C3B20B4A152B83B0116898BFFD
:102880000948019198BFD8400199136894BF00F09E
:1028900001000020994202D103B05DF804FBFEF76D
:1028A00077FE00BF000800208D003000000000000F
:1028B0002DE9F04F474EDFF83091336885B04FF087
:1028C0000008039399F800300093434B1B78019361
:1028D000834600F1300547465C4614F801ABBAF177
:1028E0002D0F1ED05046FFF7C3FFB8B123783A2B07
:1028F00023D00022AAF1610ABAF1150F0ED8DFE841
:102900000AF0490D433D0D0D0D370D0D0D0D0D0D4B
:102910000D0D0D0D0D0D4F0B304B5A80AC42A346E3
:10292000DAD1002F50D1B8F1000F48D1039A3368A3
:102930009A4242D105B0BDE8F08F0BF10601A446E2
:1029400000221CF801EFAEF130035FFA83FBBBF10C
:10295000090F2BD81A4492B202EB82025200614551
:1029600092B2EED11E4BA3FB023242F3CF02C1E77B
:10297000AC4207460090A346AED1D2E7194BAC4219
:102980001A80A346A8D1CCE7AC4280460190A3466A
:10299000A2D1C6E7134BAC425A80A3469CD1C0E7F4
:1029A0000E4BAC421A80A34696D1BAE7BEF1200F77
:1029B000D8D0AC42A3468FD1B3E7FEF7E9FD064B72
:1029C0009DF804201A70B1E79DF8003089F80030B6
:1029D000A9E700BF00080020983B0020A43B00208E
:1029E000CDCCCCCC9C3B0020A03B002000000000C4
:1029F00000B50A4A0A4B92690A491B680A4C916160
:102A000083B001932046FFF7EBFE2046FFF750FF0F
:102A1000FFF70EFF322007F0C3FEF3E7A0530020BC
:102A200000080020F0980108A83B002000000000EA
:102A300000B5074B83B01A680192019A1B689A424D
:102A400003D1044803B05DF804FBFEF7A1FD00BF0D
:102A500000080020A43B002000000000000000004F
:102A600000B5074B83B01A680192019A1B689A421D
:102A700003D1044803B05DF804FBFEF789FD00BFF5
:102A8000000800209C3B0020000000000000000027
:102A900000B5074B07491A68087883B00192019A7C
:102AA0001B689A4202D103B05DF804FBFEF770FD8B
:102AB00000080020A03B00200000000000000000F3
:102AC00000B5084B08491A6883B000200192019AAA
:102AD0001B6808709A4202D103B05DF804FBFEF750
:102AE00057FD00BF00080020A03B002000000000B0
:102AF00010B50A4C0A4B22680A4884B04FF45E7144
:102B0000039200220092402207F0F2FD039A23680C
:102B10009A4201D104B010BDFEF73AFD0008002032
:102B2000F1290008D83B0020000000000000000050
:102B30002DE9F043664D674FAB69674E674A2DED4F
:102B4000068B85B09A613B6803933046522386F822
:102B5000BF3106F09DFD50B90121304606F0C8FD99
:102B60000121304606F074FE5D4B01221A70DFED44
:102B70005D9A9FED5D8A9FED5D9ADFED5D8AB0EE17
:102B800069AA4FF00008AB6993F821305B072ED497
:102B9000534B1B78002B40F08180564B1B88564CC2
:102BA00007EE903AF8EEE77A237867EE897AE8EE56
:102BB000287AB0EE678A002B6BD0DFF8409199F845
:102BC0000030042B0BD8DFE803F03C284A1B03003D
:102BD000F4EEE79AF1EE10FA68DDF0EE489A05207F
:102BE00007F0DEFDAB6993F821305B07D0D5039A7F
:102BF0003B689A426AD105B0BDEC068BBDE8F08314
:102C000000F016FD0028EAD00423052089F80030E2
:102C1000F0EE4A9A07F0C4FDE4E700F009FD002851
:102C2000DDD0142002F0DCFD6FF0130002F0C0FDD7
:102C30000223052089F80030F0EE4A9A07F0B0FD33
:102C4000D0E700F00DFD0028C9D0A02000F0C8F8A2
:102C50000123052089F8003007F0A2FDC2E7F4EE59
:102C6000E79AF1EE10FAB8DCB9D5FDEEE97AB420B6
:102C7000CDED017ABDF9048000F002FE4FF48770BB
:102C800000F0AEF80323052089F8003007F088FD36
:102C9000A8E74FF4FA7007F083FD74E70E4806F0DA
:102CA000F7FD144AB6F85830138078E797D5FDEE53
:102CB000E97A4046CDED017ABDF9041000F000FE3E
:102CC00000230520237007F06BFD8BE7FEF760FC07
:102CD000A053002000080020543F00201099010854
:102CE000503F00200050C347000000000AD7233C9B
:102CF000A4707D3F14410020513F0020523F00202E
:102D000030B50C4B0C4C1D78236885B003934DB93E
:102D100002F01EF90095094B09484A224FF45E71F2
:102D200007F0E6FC039A23689A4201D105B030BD52
:102D3000FEF72EFC503F002000080020312B000839
:102D4000184100200000000000000000000000000A
:102D500000B50E4A0E4B92ED007AD2ED017A196859
:102D60000C4883B0BDEEC77A0191FDEEE77A17EE0D
:102D7000101A019A1B68018017EE901A9A4241803E
:102D800002D103B05DF804FBFEF702FC440800200A
:102D900000080020A0440020000000000000000007
:102DA00000B50A4B0A491A68D1ED007A83B0019246
:102DB000019A1B689A4207D1FDEEE77A17EE901A46
:102DC00008B203B05DF804FBFEF7E2FB0008002048
:102DD0009C440020000000000000000000000000F3
:102DE00010B50B4B0B4C1A680B4982B007EE900ADA
:102DF0000192019A1B68F8EE677A00209A422070CF
:102E0000C1ED007A01D102B010BDFEF7C1FB00BFD9
:102E1000000800204008002090440020000000002E
:102E200030B5B0F90020214B214D93ED007AD3ED60
:102E3000017A20492B6800EE902AB0F9022000EEBA
:102E4000102A83B0F8EEE00AB8EEC00A1A4A0193DD
:102E500070EEC70A002330EE670A04460B70137049
:102E600010F0EEFB9FED157ADFED156AB4F9003036
:102E700001992A68134820EE070A07EE903A80EE7F
:102E8000267A114B9142F8EEE77A80ED007AC3ED95
:102E9000007AB4F9024007EE904AF8EEE77AC3ED03
:102EA000017A01D103B030BDFEF772FB4408002067
:102EB00000080020400800204C0800200000344397
:102EC000DB0F494090440020A44400200000000093
:102ED00070B5124C124D2368124A82B046420193DB
:102EE00001232B70137071B90546304602F060FC67
:102EF000019A23689A4208BF28460CD102B0BDE867
:102F0000704002F06DBC02F053FC019A23689A42B3
:102F100008BF3046F2D0FEF73BFB00BF00080020A0
:102F2000400800204C0800200000000000000000C5
:102F300030B5B0F90020214B214D93ED007AD3ED4F
:102F4000017A20492B6800EE902AB0F9022000EEA9
:102F5000102A83B0F8EEE00AB8EEC00A1A4A0193CC
:102F600070EEC70A002330EE670A04460B70137038
:102F700010F066FB9FED157ADFED156AB4F90030AD
:102F800001992A68134820EE070A07EE903A80EE6E
:102F9000267A114B9142F8EEE77A80ED007AC3ED84
:102FA000007AB4F9024007EE904AF8EEE77AC3EDF2
:102FB000017A01D103B030BDFEF7EAFA44080020DF
:102FC0000008002041080020400800200000344391
:102FD000DB0F494090440020944400200000000092
:102FE00010B5104B104C93ED007AD3ED017A2368A5
:102FF00082B0BDEEC77A0193FDEEE77A17EE103A84
:10300000ADF8003017EE903A6846ADF80230FFF7A1
:1030100007FF019A23689A4201D102B010BDFEF762
:10302000B7FA00BFA4440020000800200000000000
:10303000F0B52DED068BDFED368A364D70EE287A31
:1030400085B02B68039317EE900AB0EE609A30EECD
:10305000608AFDF7B9FA9FED2C1B41EC100B41EC97
:103060001A0B10F0C5F979EE287A57EC106B17EEB1
:10307000900AFDF7A9FA9FED241B41EC100B41ECDF
:10308000190B10F0B5F9FDEEC87A53EC102B17EEC2
:10309000904A3046002C3946B8BF6442FDF734F9F7
:1030A000FDF7A6FD0028B8BF404284421DDBB0EE0C
:1030B0004A0AF0EE6A0A9FED141B10F099F951ECE0
:1030C000100BB0EE490AF0EE690A9FED0F1BCDE937
:1030D000000110F08DF9DDE9000153EC102BFDF734
:1030E00013F9FDF7ADFD08EE100A039A2B689A421A
:1030F000B0EE480A03D105B0BDEC068BF0BDFEF77B
:1031000047FA00BFAFF30080000000000080764067
:103110000000344300080020000000000000000010
:1031200070B52DED028B404E90ED007AD0ED017A16
:10313000D1ED000A91ED010A336882B070EEC70A42
:1031400030EE670A04460D46019310F079FADFED80
:10315000377A9FED377A374B20EE270A93ED008AB6
:10316000C0EE078AB0EE480AF0EE680AFFF760FF8B
:10317000DFED317AB4EEE70AF1EE10FA0CD5F0EE9D
:10318000680AB0EE480AFFF753FFDFED2C7AB4EE81
:10319000E70AF1EE10FA27DC94ED016AD5ED017A29
:1031A000D4ED006A95ED007A77EEC67A37EE667A4E
:1031B00067EEA77AE7EE077A17EE900AFDF704FAB2
:1031C00041EC100B10F07CF951EC100BFDF738FDC1
:1031D00080F00040019A33689A4200EE100A20D134
:1031E00002B0BDEC028B70BD94ED016AD5ED017AA1
:1031F000D4ED006A95ED007A77EEC67A37EE667AFE
:1032000067EEA77AE7EE077A17EE900AFDF7DCF98A
:1032100041EC100B10F054F951EC100BFDF710FDC0
:10322000D8E7FEF7B5F900BF0008002000003443DE
:10323000DB0F49409C4400200000B4420000B4C2AF
:103240002DE9F04F2DED0A8BE14AE24B9269E249FC
:103250001B68916183B000200193002702F008FBF6
:10326000002002F01DFBDD4EDD4DDFF8B083DFF8FE
:10327000B093DFF8B0A3DFEDDB8A9FEDDBAADFEDD3
:10328000DB9A9FEDDB9A9FEDDBBADFEDDBAA3C46D4
:10329000BB461FE0F4EEEA7AF1EE10FAC8BF77EE13
:1032A000EA7AC6ED007A02F0B3FA834602F0C8FA71
:1032B00098F800700446002F60D099F80070002F35
:1032C00000F08C809AF80070002F00F09E8014208F
:1032D00007F066FA02F09CFA074602F0B1FAA7EB93
:1032E0000B07041B7FB264B23B1907EE903A96EDD0
:1032F000008AF8EEE77A28EE287A67EEA87AC7EE19
:1033000009CA67EE8A7AB0EE6C0AC7EEA9BA0FF066
:10331000CFFFD5ED007A2BEE800AB6EE00CAE0EEC4
:103320000C7AB0EE6C0AC5ED007A10F011F8E31BD0
:1033300007EE903AF8EEE77A2BEE800A67EEA87A6D
:1033400095ED017A67EE8A7AA0EE0C7A87EEA90AEB
:1033500085ED017A80EE0B0A0FF0D2FE20EE090A0D
:10336000C0EE287A77EE887AF5EEC07AF1EE10FAA0
:1033700090D577EEAA7AC6ED007A94E79F4B96ED4A
:10338000000AD3ED000AFFF753FEFDEEC07A9FED71
:103390009C7A17EE903A002BB8BF5B4207EE903A4A
:1033A000F8EEE77AF4EEC77AF1EE10FA00F18280D7
:1033B000B5EEC00AF1EE10FA40F38680B1EE047A61
:1033C000B4EEC70AF1EE10FA40F38F804FF4C870E4
:1033D00002F0EEF98B4802F003FA78E78A49804858
:1033E000FFF79EFEFDEEC07AB0EE408A17EE903AEF
:1033F0000133022B20D80123384689F8003002F02F
:10340000D7F9384602F0ECF961E780497448FFF7D4
:1034100087FEFDEEC07AB0EE408A17EE903A013397
:10342000022B60D8012338468AF8003002F0C0F938
:10343000384602F0D5F94AE7734BD3ED000A95ED13
:10344000007A93ED010AD5ED017AD6ED00BA70EE5F
:10345000C70A30EE670A10F0F3F860EE090AB0EE22
:103460006B0AC0EEA80AFFF7E3FDB5EEC08AF1EEE5
:1034700010FAF0EE40BA4CDDB1EE047AB4EEC78A31
:10348000F1EE10FA63DD9FED628AB2EE04CAF0EE4F
:10349000487AE0EE0C7AFDEEE77A17EE900A02F039
:1034A00087F9ABEECC8AFDEEC87A17EE900A02F0EF
:1034B00097F90CE70123384688F8003002F078F9D4
:1034C000384602F08DF902E7F9EE047AB4EEE70A25
:1034D000F1EE10FA4FD54B4802F06AF94FF4C8707C
:1034E00002F07EF9F3E6494BA7E7C0EE077A9FEDBD
:1034F000497A27EE877A67EE277AFDEEE77A17EEAC
:10350000903A1FB2384602F053F9784202F068F957
:10351000DDE6F9EE047AB4EEE78AF1EE10FA40D572
:103520009FED3D8AB2EE04CAF0EE487AE0EE4C7AA6
:10353000FDEEE77A17EE900A02F03AF9ABEE8C8ACC
:10354000FDEEC87A17EE900A02F04AF9BFE6C8EE1F
:10355000077A9FED2F7A27EE877A67EE277AFDEEBE
:10356000E77A17EE903A1FB2384602F021F9384652
:1035700002F036F9ABE6B1EE047AC0EE077A9FEDC1
:10358000257A27EE877A67EE277AFDEEE77A17EE3F
:10359000903A1FB2784202F00BF9384602F020F957
:1035A00095E6B1EE047AC8EE077A9FED197A27EE18
:1035B000877A67EE277AFDEEE77A17EE903A1FB228
:1035C0007F42384602F0F4F8384602F009F97EE608
:1035D000A053002000080020209901089C440020EE
:1035E00044080020DB0F49400000244200007A44D8
:1035F00000003443000054420000B44390440020D3
:10360000CDCCCC3D70FEFFFF94440020A4440020AC
:1036100000005C440000C84300005CC44008002077
:10362000410800204C0800200000000000000000BD
:1036300000B5074B07491A68087883B00192019AD0
:103640001B689A4202D103B05DF804FBFDF7A0FFAE
:1036500000080020400800200000000000000000DA
:1036600000B5074B07491A68087883B00192019AA0
:103670001B689A4202D103B05DF804FBFDF788FF96
:10368000000800204C08002000000000000000009E
:1036900000B5074B07491A68087883B00192019A70
:1036A0001B689A4202D103B05DF804FBFDF770FF7E
:1036B0000008002041080020000000000000000079
:1036C00000B5B1F90220B0F9023007EE102AB0F9C6
:1036D000002007EE903A06EE102A1A4BB1F90020AE
:1036E000D3ED016AD3ED005A174B05EE102AF8EE20
:1036F000E77AB8EEC77A76EEE77AB8EEC66A36EEC3
:10370000C77AB8EEC55A75EEC66A67EEA77A27EE95
:10371000077A35EEC56AE6EEA67A83B01A6801929A
:10372000A6EE067A019A1B68F4EEC77AF1EE10FA5B
:1037300094BF012002209A4202D103B05DF804FB3D
:10374000FDF726FFA4440020000800200000000030
:1037500010B50A4C82B02368019340F24C4002F04D
:1037600027F8019A23689A4206D140F24C4002B0F1
:10377000BDE8104002F034B8FDF70AFF0008002051
:1037800010B5094C82B023680193002002F010F8B4
:10379000019A23689A4205D1002002B0BDE810408A
:1037A00002F01EB8FDF7F4FE000800200000000043
:1037B0002DE9F0472DED028B0646DFF8B4A0007826
:1037C000DAF8003082B0C0000193FCF7EBFE73889A
:1037D000DFED256A9FED257A07EE903AF8EEE77A5D
:1037E000044667EEA67A0D46C7EE877A17EE900A72
:1037F000FCF7EAFE41EC100B41EC180B0FF0C0FB9C
:1038000057EC106BB0EE480AF0EE680A0FF018FCA7
:1038100059EC108B10EE102A4B4630463946FCF717
:1038200075FD22462B46FCF72BFFFDF7E1F901F071
:10383000BFFF019ADAF800309A4212D142464B4655
:1038400030463946FCF760FD22462B46FCF718FF50
:10385000FDF7CEF902B0BDEC028BBDE8F04701F0F8
:10386000BFBFFDF795FE00BFDB0F494000003443AA
:103870000008002000000000000000000000000020
:1038800000B50A4B0A491A6883B007EE900A019204
:10389000019A1B68F8EE677A9A42C1ED007A02D16C
:1038A00003B05DF804FBFDF773FE00BF00080020C5
:1038B0009C44002000000000000000000000000008
:1038C00010B50C4A0C4B146882B007EE900A0194B4
:1038D000B8EEE77A07EE901A019C126883ED007A41
:1038E000F8EEE77A9442C3ED017A01D102B010BD3F
:1038F000FDF74EFE000800204408002000000000F4
:1039000010B50A4C0A4B22680A4884B04FF41E7165
:10391000039200220092412206F0EAFE039A2368F5
:103920009A4201D104B010BDFDF732FE000800201C
:1039300041320008B04400200000000000000000F8
:10394000F0B5144A144B926914491B68144C9161E8
:1039500083B0032701930226012508E0022AA0F183
:10396000060010D825704FF4FA7006F019FF02F027
:1039700027F8C0B2C31E022BA0F10B024FF00003C8
:10398000ECD82370EFE704288CBF3B463346237006
:10399000E9E700BFA053002000080020309901088B
:1039A0004D080020000000000000000000000000A2
:1039B00000B5074B07491A68087883B00192019A4D
:1039C0001B689A4202D103B05DF804FBFDF7E0FDED
:1039D000000800204D08002000000000000000004A
:1039E00010B50A4C0A4B22680A4884B04FF4FC71A7
:1039F0000392002200923F2206F07AFE039A236887
:103A00009A4201D104B010BDFDF7C2FD00080020AC
:103A10004139000828470020000000000000000095
:103A2000F0B5284F83B004463B68019302200E4650
:103A300002F0D6F91428D4BF002001202070012004
:103A400002F0CEF91428D4BF0020012060700020BD
:103A500002F0C6F91428D4BF00200120A07007206E
:103A600002F0BEF91428D4BF00200120E070062027
:103A700002F0B6F91428D4BF0020012020710520DF
:103A800002F0AEF914284FF00003D4BF002001204B
:103A90006071621E1D46184612F8014F2CB10130AC
:103AA000C0B205B93370737025460133DBB2062B03
:103AB000F2D1019A3B689A4201D103B0F0BDFDF703
:103AC00067FD00BF000800200000000000000000AB
:103AD0002DE9F0412DED048BD34AD44B9269D449A2
:103AE0001B689161A6B0D349D348259305F058FFD0
:103AF000054602F055F90023D04ED14F9FEDD19AE3
:103B0000DFEDD18A9FEDD18AADF80C300293ADF88C
:103B10009030CDE9003302E0142006F041FE80220F
:103B200004A9284605F0A4FFFFF79AFD04460028E3
:103B3000F2D1FFF77DFD0028EED03378002BEBD0DB
:103B400024A902A8FFF76CFF3B784BB1012BE3D10E
:103B5000FFF79EFD0028DFD0FFF742FA3C70DBE75D
:103B6000012800F0B980D7D9022806D19DF89030FD
:103B70001BB99DF89130052BCED0FFF711F99DF8B8
:103B8000903003EBC30300EB8303B43B1CB2FFF79D
:103B9000DFF807EE904AF8EEE77A804667EE897A1A
:103BA000C7EEA89AB0EE690A0FF082FBB8F90030B0
:103BB00007EE903AF8EEE77AE0EE087AFDEEE77A63
:103BC00017EE903AADF80030FFF7C2F80446B0EEB9
:103BD000690A0FF0BDFBB4F9023007EE903AF8EE37
:103BE000E77AE0EE087AFDEEE77A17EE903AADF864
:103BF0000230FFF7D5F89DF8913003EBC30300EBDB
:103C000083031CB2FFF7A4F807EE904AF8EEE77AB8
:103C1000804667EE897AC7EEA89AB0EE690A0FF07F
:103C200047FBB8F9003007EE903AF8EEE77AE0EE9D
:103C3000087AFDEEE77A17EE903AADF80430FFF718
:103C400087F80446B0EE690A0FF082FBB4F902303F
:103C5000BDF8002007EE903AF8EEE77A013AE0EE80
:103C6000087A92B240F256208242FDEEE77A17EED1
:103C7000903A1BB2ADF8063018D8BDF80210BDF866
:103C80000420013989B240F2E634013AA14292B2ED
:103C900010D8824204D8013B9BB2A34240F2BC80C0
:103CA0006846FFF745F901233B7035E7BDF804206E
:103CB000013A92B240F256218A423FF62DAF013BC3
:103CC0009BB240F2E63293423FF626AF01A8FFF7DF
:103CD0002FF901233B701FE79DF89030002B3FF434
:103CE0001BAF052B3FF418AFFFF75AF89DF8903043
:103CF00003EBC30300EB83031CB2FFF729F807EEC5
:103D0000904AF8EEE77A804667EE897AC7EEA89A7D
:103D1000B0EE690A0FF0CCFAB8F9003007EE903A2D
:103D2000F8EEE77AE0EE087AFDEEE77A17EE903AE1
:103D3000ADF80030FFF70CF80446B0EE690A0FF05A
:103D400007FBB4F9023007EE903AF8EEE77AE0EEBE
:103D5000087AFDEEE77A17EE903AADF80230FFF7F9
:103D60001FF89DF8903003EBC30300EB8303B43BD3
:103D70001CB2FEF7EDFF07EE904AF8EEE77A8046B8
:103D800067EE897AC7EEA89AB0EE690A0FF090FA4A
:103D9000B8F9003007EE903AF8EEE77AE0EE087AEC
:103DA000FDEEE77A17EE903AADF80430FEF7D0FF5B
:103DB0000446B0EE690A0FF0CBFAB4F90230BDF850
:103DC000002007EE903AF8EEE77A013AE0EE087A42
:103DD00092B240F256208242FDEEE77A17EE903A18
:103DE0001BB2ADF806303FF661AFBDF80210BDF86A
:103DF0000420013989B240F2E634013AA14292B27C
:103E00003FF658AF82423FF64BAF013B9BB240F2C8
:103E1000E63293423FF644AF01A96846FFF750FCF3
:103E200001287FF453AF3BE7A05300200008002097
:103E30005099010840990108204900204E080020AF
:103E40002C490020DB0F4940000034430000484269
:103E500010B50A4C0A4B22680A4884B04FF45E71D0
:103E6000039200220092412206F042FC039A23684A
:103E70009A4201D104B010BDFDF78AFB0008002072
:103E8000D13A000830490020000000000000000086
:103E900030B5104D81682B680F4A83B001930B68D1
:103EA00023F001030B608168946A03E0936A1B1B93
:103EB000C72B09D8086810F00100F7D1019A2B68C8
:103EC0009A4204D103B030BD4FF0FF30F6E7FDF762
:103ED0005FFB00BF00080020A0530020000000008E
:103EE00030B5184D83B02B68019311F00C0F0446C8
:103EF0000AD00378032B13D00622636822709A68D5
:103F00001AB100212046904763685B688BB1019924
:103F10002A68914213D1204603B0BDE830401847CB
:103F2000FFF7B6FF0622636822709A68002AE8D17C
:103F3000EBE7019A2B689A4201D103B030BDFDF73F
:103F400027FB00BF00080020000000000000000068
:103F5000F0B5284D83B02B68019306F0A9FE05F05B
:103F600067FF254B1E69F20715D55A69234C42F0AD
:103F700001025A612778BB1F012B2AD905226368E9
:103F800022701B680BB120469847042F27D0022FC0
:103F900025D003232370B30710D5174A174C536954
:103FA00043F0020353612378032B1DD063689B68A1
:103FB0000622227013B101211048984705F060FFD6
:103FC000019A2B689A4213D103B0BDE8F04007F084
:103FD00077BE019A2B689A420AD103B0F0BD022342
:103FE0002370B307EAD5D8E72046FFF751FFDDE796
:103FF000FDF7CEFA0008002000000550A84C002074
:1040000030B50B4D0B4C2B6883B02046019300F06C
:104010002FF9019A2B680848084D094921619A42F5
:10402000C4E9025001D103B030BDFDF7B1FA00BFC1
:1040300000080020A84C0020DCA501080000055065
:104040001655020200000000000000000000000001
:104050002DE9F0412F4C0578266882B0012D01969C
:1040600006D0019A23689A4252D102B0BDE8F0818D
:10407000294DA842F5D10E4690461F46274AE868CA
:104080002B460C210AF0E4FC002839D1D5E9023294
:10409000126828339360EB681A68042151611B6829
:1040A000C3F80C80EB681A6817611B68B6085E607D
:1040B0002B694FB343F480232B61E968184A0968E0
:1040C0000B60EB6819680B6843F001030B60536BDE
:1040D00043F0010353630B214E200AF099F9D5E90F
:1040E0000113DA6842F00102DA60DA6842F0020293
:1040F000DA60CA6822F4804222F001021A60B0E756
:10410000084805F075FDC1E723F480232B61D4E74F
:10411000FDF73EFA00080020A84C0020E13E000810
:104120000038024070990108000000000000000003
:1041300030B5184C0378226883B0022B019205D069
:10414000019A23689A4223D103B030BD124B9842A2
:104150000546F5D18168114A0B6823F4804323F0AA
:1041600001030B608168CB6823F00F03CB60536BB6
:1041700023F0010353634E200AF072F9019A236879
:104180009A4205D1E86803B0BDE830400AF0C8BCE7
:10419000FDF7FEF900080020A84C0020003802407E
:1041A00000B50F4B0278196883B0022A01910ED135
:1041B00081680A6842F002020A6081680A6842F473
:1041C00080420A6081680A6842F001020A60019A2E
:1041D0001B689A4202D103B05DF804FBFDF7D8F9E1
:1041E00000080020000000000000000000000000A7
:1041F00000B50F4B0278196883B0022A01910ED1E5
:1042000081680A6822F002020A6081680A6842F442
:1042100080420A6081680A6842F001020A60019ADD
:104220001B689A4202D103B05DF804FBFDF7B0F9B8
:104230000008002000000000000000000000000056
:1042400000B5074B83B01A680192019A1B689A4225
:1042500004D103B05DF804EBFFF7D2BEFDF798F987
:104260000008002000000000000000000000000026
:1042700000B5084B83B01A68019201220270019ABE
:104280001B6800219A42416002D103B05DF804FB33
:10429000FDF77EF90008002000000000000000008B
:1042A0002DE9F043254D83B02C680194DDF828906A
:1042B0000F4616469846044618B111B1204B9A4253
:1042C0002FD9204805F094FC202383F3118806F0B1
:1042D00027FD05F02DFD2378012B02D0194805F0AC
:1042E00087FC4246314620464B466760FFF7B0FEEA
:1042F0000223237005F03CFD06F02AFD124B1A68DC
:104300009A4204D0996993688A689A420FD300232D
:1043100083F31188019A2B689A420CD103B0BDE84F
:10432000F0839307CDD1B8F1000FCDD1C9E707488D
:1043300005F05EFCEBE7FDF72BF900BF000800205D
:10434000FCFF0300A0990108A053002090990108E8
:1043500030B51C4D83B02B680193044658B320231D
:1043600083F3118806F0DCFC05F0E2FC2378022BD5
:1043700002D0154805F03CFC2046FFF7D9FE01238A
:10438000237005F0F5FC06F0E3FC104B1A689A4226
:1043900004D0996993688A689A4208D3002383F30A
:1043A0001188019A2B689A4209D103B030BD0848A0
:1043B00005F01EFCF2E7044805F01AFCCFE7FDF714
:1043C000E7F800BF00080020B0990108A0530020C2
:1043D00090990108000000000000000000000000AB
:1043E00030B51C4D83B02B680193044658B320238D
:1043F00083F3118806F094FC05F09AFC2378022BD5
:1044000002D0154805F0F4FB2046FFF7C9FE04234F
:10441000237005F0ADFC06F09BFC104B1A689A4225
:1044200004D0996993688A689A4208D3002383F379
:104430001188019A2B689A4209D103B030BD08480F
:1044400005F0D6FBF2E7044805F0D2FBCFE7FDF715
:104450009FF800BF00080020C0990108A053002069
:10446000909901080000000000000000000000001A
:1044700030B51C4D83B02B680193044658B32023FC
:1044800083F3118806F04CFC05F052FC2378022BD4
:1044900002D0154805F0ACFB2046FFF7A9FE032328
:1044A000237005F065FC06F053FC104B1A689A4225
:1044B00004D0996993688A689A4208D3002383F3E9
:1044C0001188019A2B689A4209D103B030BD08487F
:1044D00005F08EFBF2E7044805F08AFBCFE7FDF715
:1044E00057F800BF00080020E0990108A053002001
:1044F000909901080000000000000000000000008A
:1045000000B5064B83B01A680192019A1B689A4263
:1045100002D103B05DF804FBFDF73AF80008002073
:1045200000B5064B83B01A680192019A1B689A4243
:1045300002D103B05DF804FBFDF72AF80008002063
:1045400010B5104C104B226882B0019201221A70F3
:10455000202383F3118806F013FC05F029FC0B4897
:1045600006F016FF05F044FC06F022FC002383F35E
:104570001188019A23689A4201D102B010BDFDF75B
:1045800007F800BF00080020C84C00205008002099
:1045900030B50E4D0E4C2B6883B00193FFF750FEE3
:1045A000206808B111F044FC4FF4964011F038FC3B
:1045B00001992A682060B0FA80F35B099142C3F147
:1045C000000001D103B030BDFCF7E2FF000800207D
:1045D000C04C0020000000000000000000000000AF
:1045E00030B5174D174C2B78226885B0012B0392FC
:1045F00020D000F055FC144B1B78ABB9B0F5964FAA
:1046000015D8124A124B12681B68124900920246D2
:104610001148FFF745FE01232B700020039A236801
:104620009A420BD105B030BDB0F5165FE9D94FF015
:10463000FF30F3E70848FFF78BFEDAE7FCF7A8FF47
:10464000BD4C002000080020BE4C0020C44C0020BF
:10465000C04C0020F0990108A84C00200000000088
:1046600010B50B4C0B48236882B0019306F058FD3F
:10467000094806F035FF019A23689A4205D105489A
:1046800002B0BDE8104006F083BDFCF781FF00BF1B
:1046900000080020580800205008002000000000FA
:1046A00030B5154D154C164B2268286883B0019221
:1046B00001221A7008B111F0BBFB4FF4165011F033
:1046C000AFFB286098B10F4D286808B111F0B0FB1E
:1046D0004FF4165011F0A4FBB0FA80F35B09286088
:1046E0005842019A23689A4204D103B030BD4FF07A
:1046F000FF30F6E7FCF74CFFC04C0020000800201C
:10470000BE4C0020C44C002000000000000000004F
:1047100000B5074B07491A68087083B00192019AE7
:104720001B689A4202D103B05DF804FBFCF730FF2E
:1047300000080020BC4C0020000000000000000029
:1047400000B50D4A0D4B1278196883B0019142B142
:104750000B4AD26812681268120302D4094A106820
:1047600001E0094A1068019A1B689A4202D103B01D
:104770005DF804FBFCF70CFFBE4C00200008002095
:10478000A84C0020C44C0020C04C002000000000B9
:1047900000B50E4A0E4B1278196883B001914AB1E8
:1047A000019A1B689A420FD10A4803B05DF804EBE6
:1047B000FFF75EBE019A1B689A4205D1054803B017
:1047C0005DF804EBFFF70CBEFCF7E2FEBC4C0020EA
:1047D00000080020A84C002000000000000000009D
:1047E00070B5274D82B02B68019306460122032144
:1047F0006E2000F035FC044630B1019A2B689A42D5
:1048000020463AD102B070BD32464E216E2000F0F3
:1048100027FC04460028F0D1442E07D00246B721D9
:104820006E2000F01DFCB8B10446E6E70122B72176
:104830006E2000F015FC0028F6D1224603216E20E0
:1048400000F00EFC0028EFD1032211216E2000F0B1
:1048500007FC78B10446D0E7224603216E2000F021
:10486000FFFB0028E0D10A2211216E2000F0F8FBA6
:104870000028D9D1034B1E71BFE7FCF789FE00BFAA
:1048800000080020CC4C00200000000000000000C8
:104890002DE9F04F8FB0DFF80084DDF860C0D8F864
:1048A00000400D940CF1FF355C1EB3F5207F9DF8A0
:1048B00064909DF868B00C44154400F21282BCF577
:1048C000F07F00F20E82B1F5207F0E4600F21282D8
:1048D000B2F5F07F174600F21082A14280F0048208
:1048E000B4F5207F00F20082AA4280F00082B5F584
:1048F000F07F00F2FC81B9F1400F824600F0B081F8
:10490000B9F1800F23D0B9F1200F00F09C81002372
:10491000CDE90033BBF1400F2FD0BBF1800F00F089
:10492000CB81BBF1200F00F0B9810023CDE9023328
:10493000002203216E2000F093FBA0B30D9AD8F85B
:1049400000309A4240F0E2810FB0BDE8F08F9A0744
:1049500040F0D681CC4A8C085900661CA2FB0101AC
:10496000A2FB030204EB930406EBD2030093BBF11A
:10497000400F06EBD1030193CFD11CF0010F40F0A3
:10498000C281C14B7D084FEA4C026F1CA3FB02128F
:10499000A3FB0C1307EB9303029307EB920305EBC6
:1049A0005C050393C4E702465B216E2000F058FBD0
:1049B0000028C3D15046FFF713FF0028BED102469E
:1049C00003216E2000F04CFB0028B7D1C6F307236B
:1049D0001A4608216E20049300F042FB0028ADD156
:1049E000F3B21A4609216E20059300F039FB002826
:1049F000A4D1C7F307231A460A216E20069300F0BC
:104A00002FFB00289AD1FBB21A460B216E20079388
:104A100000F026FB002891D1C4F307231A460C218D
:104A20006E20089300F01CFB002887D1E3B21A46E1
:104A30000D216E20099300F013FB00287FF47EAF58
:104A4000C5F307231A460E216E200A9300F008FBD7
:104A500000287FF473AFEBB21A460F216E200B9340
:104A600000F0FEFA00287FF469AF049A35216E2029
:104A700000F0F6FA00287FF461AF059A36216E2027
:104A800000F0EEFA00287FF459AF089A37216E2023
:104A900000F0E6FA00287FF451AF099A38216E2021
:104AA00000F0DEFA00287FF449AF069A39216E2023
:104AB00000F0D6FA00287FF441AF079A3A216E2021
:104AC00000F0CEFA00287FF439AF0A9A3B216E201D
:104AD00000F0C6FA00287FF431AF0B9A3C216E201B
:104AE00000F0BEFA00287FF429AF009B3D21C3F3FC
:104AF00007226E2000F0B4FA00287FF41FAF9DF863
:104B000000203E216E2000F0ABFA00287FF416AFA3
:104B1000019B3F21C3F307226E2000F0A1FA002879
:104B20007FF40CAF9DF8042040216E2000F098FA2D
:104B300000287FF403AF029B4121C3F307226E20BC
:104B400000F08EFA00287FF4F9AE9DF8082042218B
:104B50006E2000F085FA00287FF4F0AE039B43211D
:104B6000C3F307226E2000F07BFA00287FF4E6AE44
:104B70009DF80C2044216E2000F072FA00287FF48A
:104B8000DDAE012203216E2000F06AFA00287FF4D6
:104B9000D5AE4A4693216E2000F062FA00287FF4D9
:104BA000CDAE5A4694216E2000F05AFA00287FF4C8
:104BB000C5AE012203216E2000F052FA00287FF4D6
:104BC000BDAE0134A31B07EE103ADFED307AB8EE2C
:104BD000477ABAF1440F77EEC77A00F09980B0EEC9
:104BE000006AF2EE006AE7EE066A77EEA77AB0EEA8
:104BF000667A67EE877ADFED266A87EEA67AFCEEA4
:104C0000C77ACDED007A009B9521C3F307226E2071
:104C100000F026FA00287FF491AE9DF8002096213E
:104C20006E2000F01DFA00287FF488AE194B013584
:104C3000EF1BA41B5F801C8083F804A083F8059001
:104C400083F806B07AE610495A00A1FB030306EB8D
:104C50005303A1FB0212009306EB5203019359E6A2
:104C6000D9074DD4084A74085900661CA2FB0101FB
:104C7000A2FB030204EB530406EB9203009306EB42
:104C80009103019346E600BFABAAAAAA0000224402
:104C90000000A344CC4C002000080020244A4FEA26
:104CA0004C03A2FB0C1CA2FB032307EB530307EBF3
:104CB0005C02029203933BE61CF0030F23D11C4BD2
:104CC000BD084FEA4C026F1CA3FB0212A3FB0C139E
:104CD00007EBD303029307EBD20305EB9C05039389
:104CE00026E66FF0070029E66FF0030026E66FF076
:104CF000040023E66FF0010020E66FF002001DE6DD
:104D00006FF005001AE66FF0060017E6FCF740FCAE
:104D1000F2EE006A37EE267ADFED066A67EE277A52
:104D200087EEA67AFCEEC77ACDED007A6BE700BF7E
:104D3000ABAAAAAA00002444000000000000000062
:104D400010B5114C86B02368059300F001F90F49A6
:104D50000F4807F0ADFC012200210D4807F040FD8F
:104D600020237822CDE901330092A023B422F02140
:104D70000220FFF78DFD059A23689A4201D106B003
:104D800010BDFCF705FC00BF00080020009A0108D8
:104D9000A8610020000000000000000000000000EA
:104DA00030B50E4C83B023680193012205460321E0
:104DB0006E2000F055F9019A236818B19A420BD180
:104DC00003B030BD9A4207D12A469D216E2003B020
:104DD000BDE8304000F044B9FCF7DAFB00080020E1
:104DE00030B5164C83B02368019305460023022298
:104DF00003216E208DF8033000F032F928B1019ABA
:104E000023689A4218D103B030BD0DF1030204218A
:104E10006E2000F0D5F80028F1D19DF80320012D77
:104E20000CBF02F0FB0242F0040204216E208DF858
:104E3000032000F015F9E2E7FCF7AAFB00080020C8
:104E400030B5164C83B02368019305460023022237
:104E500003216E208DF8033000F002F928B1019A89
:104E600023689A4218D103B030BD0DF1030204212A
:104E70006E2000F0A5F80028F1D19DF80320012D47
:104E80000CBF02F0FC0242F0030204216E208DF8F8
:104E9000032000F0E5F8E2E7FCF77AFB00080020C9
:104EA00010B50A4B0A4A1988146858881B7982B0D1
:104EB000442B019400FB01F00199136818BF4000D6
:104EC000994201D102B010BDFCF762FBCC4C00202E
:104ED00000080020000000000000000000000000AA
:104EE00070B5164E16483368154D82B005224FF442
:104EF000807101930BF0D4FB20246B6983F48073E1
:104F00006B61012005F04CFC631E13F0FF04F4D12B
:104F10004FF4807140F20622298309480BF0C0FB50
:104F2000019A33689A4206D10649074802B0BDE8A3
:104F3000704007F005BAFCF72BFB00BF000800200B
:104F400000040240409A0108205E0020000000009A
:104F500000B50C4A0C4B1278196883B0012A0191F4
:104F6000019A1B6804D09A4209D103B05DF804FB92
:104F70009A4204D103B05DF804EBFFF7B1BFFCF730
:104F800007FB00BF205E002000080020000000009A
:104F900000B5084B83B01A680192019A1B689A42C7
:104FA00005D1054803B05DF804EB07F011BAFCF732
:104FB000EFFA00BF00080020205E00200000000083
:104FC0002DE9F041224C234E88B0002335688DF83E
:104FD0001830804620468DF814101746079507F0C4
:104FE000C7FA2378012B0CD00420012306AACDE9AF
:104FF00001300092414605AA204607F049FA0546CD
:1050000068B9134807F0D4FA9DF818303B700020B7
:10501000079A33689A4218D108B0BDE8F08120465B
:1050200007F01EFA23780C4A052B106004D00848BC
:1050300007F0BEFA68B2EBE7204607F0C9F923781B
:10504000012BF4D1FFF74CFFF1E7FCF7A1FA00BF09
:10505000205E002000080020D44C0020000000004A
:10506000F0B5214C214E89B03368079307460025DF
:1050700020468DF818108DF819208DF8145007F07F
:1050800077FA2378012B0CD0042205AB019502920C
:1050900000933946022306AA204607F0F9F905468F
:1050A00048B9114807F084FA0020079A33689A42F9
:1050B00017D109B0F0BD204607F0D2F923780C4A89
:1050C000052B106004D0084807F072FA68B2ECE7CC
:1050D000204607F07DF92378012BF4D1FFF700FF7C
:1050E000F1E7FCF755FA00BF205E00200008002021
:1050F000D44C002000000000000000000000000070
:1051000070B5294D82B02B6801930E46032841D813
:10511000DFE800F01A120A02012922D9234A536952
:1051200083F40063536116E0012926D91F4A5369AD
:1051300083F4806353610EE0012918D91B4A536937
:1051400083F04003536106E001291CD9174A5369D3
:1051500083F020035361019A2B689A4218D102B060
:1051600070BD124B4FF4006229B15A83F3E70F4B25
:1051700040220029F9D11A83EDE70C4B4FF48062ED
:105180000029F8D0F1E7094B20220029F3D0ECE701
:10519000FCF7FEF90024E0B231460134FFF7B0FF1E
:1051A000042CF8D1D7E700BF00080020000C024013
:1051B0002DE9F043254E83B034680194042A9DF80C
:1051C0002890144605460F46984639D9B9F1000F84
:1051D00014BF00224FF08052640002EB0863013CD0
:1051E0001C4405F00F0527F01F07202383F31188C7
:1051F00005F096FD3D4304F09BFD154B1035DD6039
:105200001C6104F0B5FD05F0A3FD124B1A689A422B
:1052100004D0996993688A689A420DD3002383F376
:105220001188BFF36F8FBFF34F8F019A33689A4293
:105230000AD103B0BDE8F083074804F0D9FCEDE7DC
:10524000064804F0D5FCC1E7FCF7A2F900080020ED
:1052500090ED00E0A0530020D09A0108B09A010818
:1052600030B5224D224C2B68224A85B003936368E7
:1052700043F004036360536A43F480335362202392
:1052800083F3118805F04CFD04F052FD17221A4BF0
:10529000E260236104F06CFD05F05AFD174B1A68BB
:1052A0009A4204D0996993688A689A4218D3002078
:1052B00080F31188BFF36F8FBFF34F8F03231D223D
:1052C00000904FF00051FFF773FF094A536843F015
:1052D00001035360039A2B689A4205D105B030BD93
:1052E000074804F085FCE2E7FCF752F900080020CB
:1052F00090ED00E000ED00E009000010A053002058
:10530000D09A01080000000000000000000000002A
:1053100070B51A4D1A4C1B4E0FCD0FC49EB02A68A3
:10532000336822801D93EFF30981682203A8FBF7FD
:105330005FFE154B9D6AAA0714D4EB0708D5124BE4
:1053400008995B6B114A00910D48802111F088F893
:105350001D9A33689A420FD109481EB0BDE87040CB
:1053600004F046BC099A5B6B0092A4F11000084A55
:10537000802111F075F8E0E7FCF70AF9949A01082A
:10538000D84C00200008002000ED00E0709A0108D1
:10539000509A01080000000000000000000000001A
:1053A00000B51F4B0278196883B00191E2B11D4A24
:1053B0004FF4005111834278EAB11A4A4FF48051F8
:1053C00011838278F2B1174A4FF480411183C27879
:1053D000FAB9144A4FF400415183019A1B689A426A
:1053E0001CD103B05DF804FB0E4A4FF40051518309
:1053F0004278002AE1D10B4A4FF4805151838278E0
:10540000002AE0D1074A4FF480415183C278002A34
:10541000DFD0044A4FF400411183DEE7FCF7B8F80F
:105420000008002000100240000000000000000002
:1054300000B51F4B0278196883B00191E2B11D4A93
:105440004FF4007111834278EAB11A4A4FF4807127
:1054500011838278F2B1174A4FF400611183C27848
:10546000FAB9144A4FF480615183019A1B689A4239
:105470001CD103B05DF804FB0E4A4FF40071518358
:105480004278002AE1D10B4A4FF48071518382782F
:10549000002AE0D1074A4FF400615183C278002A04
:1054A000DFD0044A4FF480611183DEE7FCF770F827
:1054B0000008002000100240000000000000000072
:1054C00030B50C4A0C4B116883B04FF40055019174
:1054D0004FF480544FF400414FF480405D835C836F
:1054E0005883598301991368994201D103B030BDA3
:1054F000FCF74EF8000800200010024000000000F9
:1055000030B50C4A0C4B116883B04FF40075019113
:105510004FF480744FF480614FF400605D835C83CE
:105520005883598301991368994201D103B030BD62
:10553000FCF72EF8000800200010024000000000D8
:1055400010B50B4C0B48236882B0992200210193BF
:1055500007F046F9019A23689A4206D105480021CE
:1055600002B0BDE8104007F023BAFCF711F800BF05
:105570000008002070610020000000000000000012
:1055800010B50B4C0B48236882B09922002101937F
:1055900007F026F9019A23689A4206D105480021AE
:1055A00002B0BDE8104007F003BAFBF7F1FF00BFFF
:1055B000000800208C6100200000000000000000B6
:1055C00000B5084B83B01A680192019A1B689A4291
:1055D00006D10548002103B05DF804EB07F050B98F
:1055E000FBF7D6FF000800207061002000000000DB
:1055F00000B5084B83B01A680192019A1B689A4261
:1056000006D10548002103B05DF804EB07F038B976
:10561000FBF7BEFF000800208C61002000000000A6
:1056200070B51A4C1A4E2378326882B0022B019260
:10563000A26811D165781748013505F0070500EB20
:105640008500904763686570013B6360019A336829
:105650009A4219D102B070BD012B08D0019933686C
:10566000994211D10C4802B0BDE8704010476578EE
:105670000848013D05F0070500EB85009047636889
:10568000657001336360E1E7FBF782FF704D002036
:1056900000080020709B0108609B010800000000CA
:1056A00070B51A4C1A4E2378326882B0012B0192E1
:1056B000A26811D165781748013505F0070500EBA0
:1056C000850090476368657001336360019A3368B1
:1056D0009A4219D102B070BD022B08D001993368EB
:1056E000994211D10C4802B0BDE87040104765786E
:1056F0000848013D05F0070500EB85009047636809
:105700006570013B6360E1E7FBF742FF584D002005
:1057100000080020709B0108609B01080000000049
:1057200030B51F4D85B02B68039340F24C4399422E
:10573000044626DCA3F69803994211DB4B00002BAC
:1057400029D10370036998474FF47A71039A2B6843
:105750009A421ED1606905B0BDE8304006F0F8BF3E
:10576000104B02225B42227040F2892293420E4982
:1057700091FBF3F189B207DC0191E3689847019945
:10578000E4E7012303702D210191236998470199D2
:10579000DCE7FBF7FDFEE4DD01220270E4E700BF79
:1057A0000008002068F7FFFFA0860100000000004D
:1057B00000B5084B83B01A680192019A1B689A429F
:1057C00006D10146044803B05DF804EBFFF7A8BF1B
:1057D000FBF7DEFE00080020584D0020000000000E
:1057E00000B5084B83B01A680192019A1B689A426F
:1057F00006D10146044803B05DF804EBFFF790BF03
:10580000FBF7C6FE00080020704D002000000000DD
:1058100000B5094B094A1968506883B000EBD07095
:105820000191019A1B689A4203D1401003B05DF8C0
:1058300004FBFBF7ADFE00BF00080020584D002020
:1058400000B5094B094A1968506883B000EBD07065
:105850000191019A1B689A4203D1401003B05DF890
:1058600004FBFBF795FE00BF00080020704D0020F0
:1058700000B5084B08491A6883B040000192019AAC
:105880001B6848609A4202D103B05DF804FBFBF745
:105890007FFE00BF00080020584D002000000000DF
:1058A00000B5084B08491A6883B040000192019A7C
:1058B0001B6848609A4202D103B05DF804FBFBF715
:1058C00067FE00BF00080020704D002000000000AF
:1058D00070B51D4E1D4A1E4B30681E491E4C91600E
:1058E00082B00021D46001901C4C1D481D4D9D606C
:1058F000117051705160106154611B481B4A1C4D5E
:10590000D8601C48197059705960C3E90425FFF725
:1059100047FD1848FFF78CFD1749204606F0C8FEE2
:10592000204606F0FDFF2846144906F0C1FE019A04
:1059300033689A4205D1284602B0BDE8704006F0AF
:10594000EFBFFBF725FE00BF00080020704D0020D0
:10595000584D0020A15300084155000870610020F7
:10596000C15500083154000881550008F155000860
:105970008C610020609B0108209B0108E09A0108CF
:105980000A490B4B09680B4A82B020200191402143
:1059900058834FF4806559834FF400644FF480407E
:1059A00004215D835C8358835183FEE70008002057
:1059B000000C024000040240000000000000000053
:1059C00030B5104C104B2268104983B00192186911
:1059D0001A6909691B69019D2468C2F3C032C1F3C9
:1059E000001102EB4102C3F38033C0F3403003EBFC
:1059F0004203A54200EB430001D103B030BDFBF7E9
:105A0000C7FD00BF0008002000080240000C024053
:105A100010B51E491E4A0B78106882B0013B0190F8
:105A2000072B0AD8DFE803F012151C1F26290F04E4
:105A300018480824012304830B70019913689942C4
:105A400021D102B010BD08230B70F6E702230B70C2
:105A5000F3E711484FF48054032304830B70ECE701
:105A600004230B70E9E70C484FF4804405230483BA
:105A70000B70E2E706230B70DFE7064804240723D8
:105A800004830B70D9E7FBF783FD00BF08510020AA
:105A90000008002000100240000402400000000046
:105AA00030B50C4B0C4918680C4A83B04FF4804554
:105AB00001904FF480504883042408204D83548380
:105AC0005083019A1B689A4201D103B030BDFBF7A5
:105AD0005FFD00BF000800200004024000100240EB
