:020000040800F2
:1000000000040020C1010008D19C0008D19C000818
:10001000F1540008D19C0008D19C0008D19C000834
:10002000D19C0008D19C0008D19C000861BE00084A
:10003000D19C0008D19C0008D19C0008B127010880
:10004000D19C000831F70008C1F8000811F9000838
:10005000D19C0008D19C000871F40008C1F400088C
:1000600011F5000861F50008B1F50008C1E60008C7
:1000700011E7000861E70008B1E7000801E800089F
:1000800051E80008A1E80008B1F10008B1FA000841
:1000900021FB0008D1FB000881FC000801F60008E4
:1000A000D19C0008D19C000861220108D19C000865
:1000B00071230108B1230108F1230108410A010855
:1000C000810B0108D19C0008D19C0008D19C00083C
:1000D000D19C0008D19C0008D19C0008712801081F
:1000E00091F6000881F70008D1F70008D19C0008BC
:1000F000D19C0008D19C0008D19C0008F1E80008C0
:10010000D19C000811FE000831240108D19C000890
:10011000D19C0008D19C000821220108D19C000834
:1001200041E9000891E90008E1E9000831EA000826
:1001300081EA0008D19C000821F80008D19C000841
:10014000D19C0008D19C0008D19C0008611E0108C8
:10015000D1EA000821EB000871EB0008D19C0008EF
:10016000D19C0008D19C0008D19C0008D19C0008BB
:1001700071F80008D19C0008E1410008D19C0008FA
:10018000D19C0008D19C0008D19C0008D19C00089B
:10019000D19C0008D19C0008D19C0008D19C00088B
:1001A000D19C0008D19C0008D19C0008D19C00087B
:1001B000D19C0008D19C0008D19C0008D19C00086B
:1001C00072B62E4880F3098840F20000CCF200009D
:1001D0004EF63471CEF20001086040F20000C0F229
:1001E000F0004EF68851CEF2000108604FF000009A
:1001F000E1EE100A4EF63C71CEF2000108600620D6
:1002000080F31488BFF36F8F12F07AFC4FF05530F3
:100210001B491C4A91423CBF41F8040BFAE71A49BA
:10022000164A91423CBF41F8040BFAE71749184AB5
:10023000184B9A423EBF51F8040B42F8040BF8E702
:1002400000201549154A91423CBF41F8040BFAE7DA
:1002500009F026FD124C134DAC4203DA54F8041B8E
:100260008847F9E701F05CFE0F4C104DAC4203DA11
:1002700054F8041B8847F9E709F022BD0008002064
:10028000000000200004002000040020D8B3010872
:1002900000080020FC1400200015002070520020EF
:1002A000C0010008C0010008C0010008C00100082A
:1002B0002DE9F04F2DED108AC1F80CD0D0F80CD0FC
:1002C000BDEC108ABDE8F08F09F042FE0AF030FE66
:1002D000002383F311882846A04700200AF0C8FBBA
:1002E0000AF00EFE09F014FE0AF032FA09F030FEB0
:1002F0000AF01EFE00DFFEE7000000000000000024
:1003000081F0004102E000BF83F0004330B54FEAC6
:1003100041044FEA430594EA050F08BF90EA020F33
:100320001FBF54EA000C55EA020C7FEA645C7FEAC6
:10033000655C00F0E2804FEA5454D4EB5555B8BFE9
:100340006D420CDD2C4480EA020281EA030382EA5A
:10035000000083EA010180EA020281EA0303362DEC
:1003600088BF30BD11F0004F4FEA01314FF4801CBF
:100370004CEA113102D0404261EB410113F0004FD1
:100380004FEA03334CEA133302D0524263EB430388
:1003900094EA050F00F0A780A4F10104D5F1200E26
:1003A0000DDB02FA0EFC22FA05F2801841F1000181
:1003B00003FA0EF2801843FA05F359410EE0A5F155
:1003C00020050EF1200E012A03FA0EFC28BF4CF086
:1003D000020C43FA05F3C01851EBE37101F000453C
:1003E00007D54FF0000EDCF1000C7EEB00006EEB49
:1003F0000101B1F5801F1BD3B1F5001F0CD34908D3
:100400005FEA30004FEA3C0C04F101044FEA445229
:1004100012F5800F80F09A80BCF1004F08BF5FEAB0
:10042000500C50F1000041EB045141EA050130BD90
:100430005FEA4C0C404141EB010111F4801FA4F133
:100440000104E9D191F0000F04BF01460020B1FA88
:1004500081F308BF2033A3F10B03B3F120020CDAC0
:100460000C3208DD02F1140CC2F10C0201FA0CF09E
:1004700021FA02F10CE002F11402D8BFC2F1200C03
:1004800001FA02F120FA0CFCDCBF41EA0C019040B9
:10049000E41AA2BF01EB0451294330BD6FEA040402
:1004A0001F3C1CDA0C340EDC04F11404C4F12002ED
:1004B00020FA04F001FA02F340EA030021FA04F3FF
:1004C00045EA030130BDC4F10C04C4F1200220FA56
:1004D00002F001FA04F340EA0300294630BD21FA94
:1004E00004F0294630BD94F0000F83F4801306BF5A
:1004F00081F480110134013D4EE77FEA645C18BF4E
:100500007FEA655C29D094EA050F08BF90EA020FE4
:1005100005D054EA000C04BF1946104630BD91EADC
:10052000030F1EBF0021002030BD5FEA545C05D1DF
:100530004000494128BF41F0004130BD14F580041E
:100540003CBF01F5801130BD01F0004545F0FE4192
:1005500041F470014FF0000030BD7FEA645C1ABFC7
:10056000194610467FEA655C1CBF0B46024650EAFE
:10057000013406BF52EA033591EA030F41F400212A
:1005800030BD00BF90F0000F04BF0021704730B5B0
:100590004FF4806404F132044FF000054FF0000185
:1005A00050E700BF90F0000F04BF0021704730B546
:1005B0004FF4806404F1320410F0004548BF40421B
:1005C0004FF000013EE700BF42004FEAE2014FEA70
:1005D00031014FEA02701FBF12F07F4393F07F4F4B
:1005E00081F06051704732F07F4208BF704793F04E
:1005F0007F4F04BF41F40021704730B54FF4607461
:1006000001F0004521F000411CE700BF50EA010263
:1006100008BF704730B54FF000050AE050EA01020C
:1006200008BF704730B511F0004502D5404261EB7C
:1006300041014FF4806404F132045FEA915C3FF4BD
:10064000D8AE4FF003025FEADC0C18BF03325FEA5A
:10065000DC0C18BF033202EBDC02C2F1200300FA0B
:1006600003FC20FA02F001FA03FE40EA0E0021FA30
:1006700002F11444BDE600BF0000000000000000CD
:1006800070B54FF0FF0C4CF4E06C1CEA11541DBF28
:100690001CEA135594EA0C0F95EA0C0F00F0DEF8F3
:1006A0002C4481EA030621EA4C5123EA4C5350EAD8
:1006B000013518BF52EA033541F4801143F4801329
:1006C00038D0A0FB02CE4FF00005E1FB02E506F0BA
:1006D0000042E0FB03E54FF00006E1FB03569CF00F
:1006E000000F18BF4EF0010EA4F1FF04B6F5007F15
:1006F00064F5407404D25FEA4E0E6D4146EB060687
:1007000042EAC62141EA55514FEAC52040EA5E500F
:100710004FEACE2EB4F1FD0C88BFBCF5E06F1ED8B9
:10072000BEF1004F08BF5FEA500E50F1000041EBF0
:10073000045170BD06F0004646EA010140EA02009D
:1007400081EA0301B4EB5C04C2BFD4EB0C0541EABF
:10075000045170BD41F480114FF0000E013C00F3D4
:10076000AB8014F1360FDEBF002001F0004170BDF8
:10077000C4F10004203C35DA0C341BDC04F1140411
:10078000C4F1200500FA05F320FA04F001FA05F29D
:1007900040EA020001F0004221F0004110EBD3706A
:1007A00021FA04F642EB06015EEA430E08BF20EA96
:1007B000D37070BDC4F10C04C4F1200500FA04F339
:1007C00020FA05F001FA04F240EA020001F00041CB
:1007D00010EBD37041F100015EEA430E08BF20EA3E
:1007E000D37070BDC4F1200500FA05F24EEA020E86
:1007F00020FA04F301FA05F243EA020321FA04F0B5
:1008000001F0004121FA04F220EA020000EBD3706B
:100810005EEA430E08BF20EAD37070BD94F0000F6B
:100820000FD101F00046400041EB010111F4801F9F
:1008300008BF013CF7D041EA060195F0000F18BF50
:10084000704703F00046520043EB030313F4801F8C
:1008500008BF013DF7D043EA0603704794EA0C0F46
:100860000CEA135518BF95EA0C0F0CD050EA41065C
:1008700018BF52EA4306D1D181EA030101F00041D9
:100880004FF0000070BD50EA410606BF1046194601
:1008900052EA430619D094EA0C0F02D150EA01360D
:1008A00013D195EA0C0F05D152EA03361CBF10464E
:1008B00019460AD181EA030101F0004141F0FE41ED
:1008C00041F470014FF0000070BD41F0FE4141F471
:1008D000780170BD70B54FF0FF0C4CF4E06C1CEA71
:1008E00011541DBF1CEA135594EA0C0F95EA0C0F26
:1008F00000F0A7F8A4EB050481EA030E52EA0335E1
:100900004FEA013100F088804FEA03334FF0805501
:1009100045EA131343EA12634FEA022245EA11152E
:1009200045EA10654FEA00260EF000419D4208BFDF
:10093000964244F1FD0404F5407402D25B084FEA8C
:100940003202B61A65EB03055B084FEA32024FF438
:1009500080104FF4002CB6EB020E75EB030E22BF95
:10096000B61A754640EA0C005B084FEA3202B6EB55
:10097000020E75EB030E22BFB61A754640EA5C0004
:100980005B084FEA3202B6EB020E75EB030E22BF94
:10099000B61A754640EA9C005B084FEA3202B6EB95
:1009A000020E75EB030E22BFB61A754640EADC0054
:1009B00055EA060E18D04FEA051545EA16754FEAB6
:1009C00006164FEAC30343EA52734FEAC2025FEAD4
:1009D0001C1CC0D111F4801F0BD141EA00014FF063
:1009E00000004FF0004CB6E711F4801F04BF014334
:1009F0000020B4F1FD0C88BFBCF5E06F3FF6AFAE50
:100A0000B5EB030C04BFB6EB020C5FEA500C50F1DF
:100A1000000041EB045170BD0EF0004E4EEA113162
:100A200014EB5C04C2BFD4EB0C0541EA045170BD69
:100A300041F480114FF0000E013C90E645EA060EAD
:100A40008DE60CEA135594EA0C0F08BF95EA0C0FDB
:100A50003FF43BAF94EA0C0F0AD150EA01347FF423
:100A600034AF95EA0C0F7FF425AF104619462CE7FA
:100A700095EA0C0F06D152EA03353FF4FDAE10465D
:100A8000194622E750EA410618BF52EA43067FF4AE
:100A9000C5AE50EA41047FF40DAF52EA43057FF43E
:100AA000EBAE12E7000000000000000000000000B4
:100AB0004FF0FF3C06E000BF4FF0010C02E000BF2A
:100AC0004FF0010C4DF804CD4FEA410C7FEA6C5C0D
:100AD0004FEA430C18BF7FEA6C5C1BD001B050EAB0
:100AE000410C0CBF52EA430C91EA030F02BF90EA9B
:100AF000020F0020704710F1000F91EA030F58BF5A
:100B0000994208BF90422CBFD8176FEAE37040F0BB
:100B1000010070474FEA410C7FEA6C5C02D150EA59
:100B2000013C07D14FEA430C7FEA6C5CD6D152EA14
:100B3000033CD3D05DF8040B704700BF84461046D9
:100B400062468C461946634600E000BF01B5FFF7D8
:100B5000B7FF002848BF10F1000F01BD4DF808EDA8
:100B6000FFF7F4FF0CBF012000205DF808FB00BF79
:100B70004DF808EDFFF7EAFF34BF012000205DF8D3
:100B800008FB00BF4DF808EDFFF7E0FF94BF012020
:100B900000205DF808FB00BF4DF808EDFFF7CEFF21
:100BA00094BF012000205DF808FB00BF4DF808ED60
:100BB000FFF7C4FF34BF012000205DF808FB00BF31
:100BC0004FEA410C7FEA6C5C02D150EA013C0AD149
:100BD0004FEA430C7FEA6C5C02D152EA033C02D13B
:100BE0004FF0000070474FF0010070470000000018
:100BF0004FEA410212F5001215D211D56FF4787345
:100C0000B3EB625212D94FEAC12343F0004343EAE7
:100C1000505311F0004F23FA02F018BF40427047C2
:100C20004FF00000704750EA013005D111F000404C
:100C300008BF6FF0004070474FF00000704700BFE2
:100C40004A0011D212F5001211D20DD56FF478734B
:100C5000B3EB62520ED44FEAC12343F0004343EAA0
:100C6000505323FA02F070474FF00000704750EAEB
:100C7000013002D14FF0FF3070474FF00000704755
:100C80004FEA4102B2F1E04324BFB3F5001CDCF1AE
:100C9000FE5C0DD901F0004C4FEAC0024CEA5070E6
:100CA000B2F1004F40EB830008BF20F00100704715
:100CB00011F0804F21D113F13872BCBF01F0004018
:100CC000704741F480114FEA5252C2F11802C2F14A
:100CD000200C10FA0CF320FA02F018BF40F00100CB
:100CE0004FEAC1234FEAD32303FA0CFC40EA0C007D
:100CF00023FA02F34FEA4303CCE77FEA625307D1BA
:100D000050EA01331EBF4FF0FE4040F440007047F0
:100D100001F0004040F0FE4040F40000704700BF8A
:100D200053B94AB9002908BF00281CBF4FF0FF3152
:100D30004FF0FF3000F074B9ADF1080C6DE904CE4E
:100D400000F006F8DDF804E0DDE9022304B07047A6
:100D50002DE9F047089E04468846002B4BD18A4275
:100D6000154667D9B2FA82F24AB1C2F1200701FAF8
:100D700002F320FA07F7954047EA030894404FEA48
:100D8000154E230CB8FBFEF71FFA85FC0EFB1788E7
:100D900043EA084307FB0CF1994209D9EB1807F124
:100DA000FF3080F01B81994240F21881023F2B44B2
:100DB0005B1AA4B2B3FBFEF00EFB103344EA03440B
:100DC00000FB0CFCA44509D92C1900F1FF3380F07D
:100DD0000781A44540F2048102382C4440EA0740D0
:100DE000A4EB0C0400271EB1D4400023C6E9004345
:100DF0003946BDE8F0878B4209D9002E00F0EB8020
:100E00000027C6E9000138463946BDE8F087B3FA45
:100E100083F7002F47D18B4202D3824200F2FA803F
:100E2000841A61EB030301209846002EE0D0C6E946
:100E30000048DDE702B9FFDEB2FA82F2002A40F094
:100E40008F80491B4FEA154E1FFA85F80127B1FB29
:100E5000FEFC230C0EFB1C1143EA014308FB0CF1C2
:100E6000994207D9EB180CF1FF3002D2994200F2F7
:100E7000CD808446591AA3B2B1FBFEF00EFB1014CC
:100E800043EA044408FB00F8A04507D92C1900F1F7
:100E9000FF3302D2A04500F2B6801846A4EB080446
:100EA00040EA0C409FE7C7F1200CBB4022FA0CFE41
:100EB0004EEA030E01FA07F420FA0CF521FA0CF3BE
:100EC0004FEA1E482543B3FBF8F92C0C08FB1933F5
:100ED0001FFA8EFA44EA034309FB0AF49C4202FA21
:100EE00007F200FA07F10BD91EEB030309F1FF30FB
:100EF00080F087809C4240F28480A9F1020973440B
:100F00001B1BADB2B3FBF8F008FB103345EA0344FA
:100F100000FB0AFAA24508D91EEB040400F1FF33D6
:100F20006BD2A24569D90238744440EA0940A0FB5B
:100F30000289A4EB0A044C45C2464B4654D351D017
:100F4000002E69D0B1EB0A0564EB030404FA0CFC33
:100F5000FD40FC404CEA0505C6E90054002747E780
:100F6000C2F1200320FA03F7954001FA02F021FABA
:100F700003F34FEA154E3843010CB3FBFEF71FFA9B
:100F800085F80EFB173341EA034107FB08F38B4258
:100F900004FA02F407D9691807F1FF3C2FD28B42FB
:100FA0002DD9023F2944CB1A81B2B3FBFEF00EFBD0
:100FB000103341EA034100FB08F38B4207D969185B
:100FC00000F1FF3C17D28B4215D902382944C91AC7
:100FD00040EA07473BE73746304609E70746E7E67A
:100FE0001846FBE64145ABD2B8EB020A69EB0E02AC
:100FF00001381346A4E76046E9E7184695E76746D7
:10100000D1E781467CE702382C4447E7ACF1020C7B
:101010002B442FE7384608E73746E9E60000000092
:10102000704700BF0000000000000000000000004A
:10103000844641EA000313F003036DD1403A41D3E3
:1010400051F8043B40F8043B51F8043B40F8043BA2
:1010500051F8043B40F8043B51F8043B40F8043B92
:1010600051F8043B40F8043B51F8043B40F8043B82
:1010700051F8043B40F8043B51F8043B40F8043B72
:1010800051F8043B40F8043B51F8043B40F8043B62
:1010900051F8043B40F8043B51F8043B40F8043B52
:1010A00051F8043B40F8043B51F8043B40F8043B42
:1010B00051F8043B40F8043B51F8043B40F8043B32
:1010C000403ABDD2303211D351F8043B40F8043BD2
:1010D00051F8043B40F8043B51F8043B40F8043B12
:1010E00051F8043B40F8043B103AEDD20C3205D3E2
:1010F00051F8043B40F8043B043AF9D2043208D0DA
:10110000D2071CBF11F8013B00F8013B01D30B884B
:1011100003806046704700BF082A13D38B078DD029
:1011200010F003038AD0C3F10403D21ADB071CBFFB
:1011300011F8013B00F8013B80D331F8023B20F865
:10114000023B7BE7043AD9D3013A11F8013B00F89E
:10115000013BF9D20B7803704B7843708B78837026
:101160006046704700000000000000000000000022
:10117000A2EB0300704700BF02780B78012A28BF5A
:101180009A42F5D16DE9044540EA0104CDE90267D0
:101190006FF0000C4FEA447212B380EA010414F0BD
:1011A000070F6AD100F0070420F0070004F00305E0
:1011B00021F007014FEAC505F0E8042314F0040FFD
:1011C000F1E804670CFA05F462EA040266EA040630
:1011D0000AD063EA0403624667EA0407664603E04E
:1011E000F0E80423F1E8046782FA4CF582EA060489
:1011F000A4FA8CF46CBB83FA4CF583EA0705A5FAD4
:101200008CF595B950E9022351E9026782FA4CF551
:1012100082EA0604A4FA8CF483FA4CF583EA070503
:10122000A5FA8CF52543DBD09CB92DBAB5FA85F427
:1012300024F0070427FA04F1DDE9026723FA04F336
:1012400003F0FF0001F0FF01FDE80445A0EB010001
:10125000704724BAB4FA84F424F0070426FA04F19F
:10126000DDE9026722FA04F202F0FF0001F0FF015B
:10127000FDE80445A0EB0100704714F0030F3CD1DA
:1012800010F0030428D150F8082B51F8083B82FADB
:101290004CF582EA0305A5FA8CF55DB950F8042CEB
:1012A00051F8043C82FA4CF582EA0305A5FA8CF564
:1012B000002DE8D02DBAB5FA85F424F0070423FAFE
:1012C00004F122FA04F202F0FF0001F0FF01FDE850
:1012D0000445A0EB010070474FEAC40420F003006E
:1012E00050F8082B21F0030151F8083B0CFA04F4E4
:1012F00062EA040263EA0403C9E710F003041AD0A7
:10130000A1EB040120F00300E40750F8042B06D001
:101310000FD28B785FFAA2F4E41A06D12BB1CB7806
:101320005FFAB2F4E41A00D11BB920465DF8104B05
:10133000704701F1040150F8042BCC0721F00301A0
:1013400051F8043B48D824D222F07F4482FA4CF56D
:1013500094EA1325A5FA8CF50AD165B951F8043B36
:1013600084EA0204B4EB036F0ED150F8042BEBE7D0
:101370004FEA132355E035F07F454DD10878FDE85D
:101380000445C0F1000070474FEA126203F0FF030A
:1013900047E002EA1C4482FA4CF594EA1345A5FAA8
:1013A0008CF50AD165B951F8043B84EA0204B4EB28
:1013B000034F0CD150F8042BEBE74FEA134330E016
:1013C00015EA1C4528D10B884FEA124229E04FEA62
:1013D000124203EA1C4324E002F0FF0482FA4CF5B7
:1013E00094EA1365A5FA8CF50AD165B951F8043B66
:1013F00084EA0204B4EB032F09D150F8042BEBE785
:101400004FEA13630DE015F0FF0F05D10B684FEAAB
:10141000122223F07F4304E04FF00000FDE8044572
:10142000704712BA1BBA82FA4CF482EA0304A4FA97
:101430008CF5B5FA85F402FA04F203FA04F34FEAE4
:101440001260FDE80445A0EB136070470000000047
:1014500090F800F06DE9024520F007016FF0000CF4
:1014600010F0070491F820F040F049804FF000049C
:101470006FF00700D1E9002391F840F000F1080077
:1014800082FA4CF2A4FA8CF283FA4CF3A2FA8CF3AF
:101490004BBBD1E9022382FA4CF200F10800A4FA16
:1014A0008CF283FA4CF3A2FA8CF3E3B9D1E904236A
:1014B00082FA4CF200F10800A4FA8CF283FA4CF3A1
:1014C000A2FA8CF37BB9D1E9062301F1200182FA5B
:1014D0004CF200F10800A4FA8CF283FA4CF3A2FA61
:1014E0008CF3002BC6D0002A04BF04301A4612BA6F
:1014F000B2FA82F2FDE8024500EBD2007047D1E972
:10150000002304F00305C4F100004FEAC50514F000
:10151000040F91F840F00CFA05F562EA05021CBFD1
:1015200063EA050362464FF00004A9E700000000EB
:1015300001F0FF01102A2BDB10F0070F08D010F884
:10154000013B013A8B422DD010F0070F42B3F6D188
:10155000F0B441EA012141EA014122F007047FF0A1
:1015600000070023F0E80256083C85EA010586EAF8
:10157000010685FA47F5A3FA87F586FA47F6A5FA34
:1015800087F68EB9EED1F0BC01F0FF0102F0070240
:1015900032B110F8013B013A83EA010313B1F8D1EB
:1015A0000020704701387047002D06BF35460338CC
:1015B000073815F0010F07D1013015F4807F02BF05
:1015C000013015F4C03F0130F0BC0138704700BF56
:1015D00000B5084B83B01A680192019A1B689A42C1
:1015E00005D1054803B05DF804EB08F0F1BBFFF747
:1015F000EFFF00BF00080020909A010800000000E3
:1016000010B5114C82B02368019301F051FA50B922
:1016100001F036FA019A23689A4213D102B0BDE86C
:10162000104002F07DB902F04BF94FF42F7009F031
:10163000A7F9019A23689A4204D102B0BDE810408C
:1016400002F056B9FFF7C4FF0008002000000000B8
:101650002DE9F0412DED028BD14C82B0236801932E
:10166000002840F0AF80CF4D2B78042B00F2A080F3
:10167000DFE813F0C200EF000500D700CC0001F056
:101680005FF8012800F0358101F05AF8002840F099
:10169000288101F02DF8B0F90230002B80F288800B
:1016A00001F026F8B0F9007001F022F8B0F90060FE
:1016B00001F01EF8B0F9028001F01AF8438813FB1C
:1016C00008F307FB0636082E72DD00F0F9FFB0F9CB
:1016D000026001F00DF8B44BB0F902201B680093D2
:1016E000C6F13C0696FBF2F607EE906AF8EEE78A42
:1016F00000F0E6FFB0F9003007EE903AB8EEE78A66
:1017000000F0F6FFB0F9003007EE903AF8EEE77A15
:10171000A7EEA88AFDEEC87A17EE903A1EB2A6F19F
:1017200097039BB2B3F5957FADF8006040D801F008
:101730005FFBB0F900300A339E4208DCBDF900605F
:1017400001F056FBB0F900300A3B9E4230DA6846A1
:1017500001F00EFC00F0B4FFBDF90220B0F9023038
:101760009B1A07EE903AB8EEE78A00F0A9FFBDF9A0
:101770000020B0F900309B1A00EE903AB0EE480A13
:10178000F8EEE00A12F04CF8DFED887A9FED887AE7
:1017900020EE270AC0EE077AFDEEE77A17EE903AC0
:1017A0001BB2002BC0F2F580824A138003232B70FA
:1017B000019A23689A4240F0F18002B0BDEC028B9E
:1017C000BDE8F08101F014FB0388962B0AD901F0E3
:1017D0000FFB0388B3F5E17F04D201F009FB4388D6
:1017E000282B29D8704B6F4D1B6802A840F8083D84
:1017F00001F0BEFB00232B7001F05AFB0028D7D06C
:10180000A02001F095FB01232B70D1E701F038FBFC
:101810000028CDD000F094FF00285AD102232B706D
:10182000C6E701F045FB0028C2D0624B188801F0E2
:101830007FFB04232B70BBE701F0DAFA43883B2BD4
:10184000D0D8A02001F074FB564D5B4A01231370E1
:101850002B7000F075FF18B100F072FF01287FD1E6
:1018600000F02EFFB0F9026001F0C2FAB0F90230C8
:10187000F61A07EE906AB8EEE78A00F021FFB0F999
:10188000006001F0B5FAB0F90230F31A00EE903AB8
:10189000B0EE480AF8EEE00A11F0C2FFDFED437A3D
:1018A0009FED437A20EE270AC0EE077AF5EEC07A64
:1018B000F1EE10FA03D59FED417A77EE877AFCEED0
:1018C000E77A17EE903A98B201F032FB02232B70C0
:1018D0006EE700F035FF0128A0D000F031FF0228AC
:1018E0009CD000F02DFF03287FF462AF01232B7002
:1018F0005EE700F0E5FEB0F9025001F079FAB0F9C8
:101900000230ED1A07EE905AB8EEE78A00F0D8FEE2
:10191000B0F9005001F06CFAB0F90030EB1A00EEAB
:10192000903AB0EE480AF8EEE00A11F079FFDFEDE8
:101930001F7A9FED1F7A20EE270AC0EE077AF5EE98
:10194000C07AF1EE10FA44BF9FED1C7A77EE877AE9
:10195000FCEEE77A17EE903A98B201F0E9FA27E741
:1019600000F0EEFE02283FF47BAF01F089FA002878
:101970003FF41EAF104D2B783BB1142001F0D8FA84
:101980002B7883F001032B7012E7A02001F0D0FA2E
:10199000F6E7084A03F5B473138007E7FFF718FE6C
:1019A0000008002020080020709A0108000034433D
:1019B000DB0F494006150020210800200000B44339
:1019C0002DE9F0412DED048BC34C82B023680193C7
:1019D000002840F09A80C14D2B78042B00F28B80B8
:1019E000DFE813F09B000500E900F400D80000F0E8
:1019F000A7FE002840F0FE8000F062FEB0F9023041
:101A0000B74E9FEDB89ADFEDB88AB84FC3F57A7339
:101A100007EE903AB8EEE78A00F052FEB0F90030D7
:101A2000C3F5967300EE903AB0EE480AF8EEE00A7D
:101A300011F0F6FEDFEDAC7A9FEDAA7A9FEDAC8A4D
:101A400020EE270AC0EE077AFDEEE77A17EE903A0D
:101A50001BB2002BB8BF03F5B473338000F030FE27
:101A6000B6F9003000EE103AB8EEC00A804620EE1B
:101A7000090A80EE280A11F00BFDB8F8002020EECC
:101A8000080ABDEEC00A10EE103AD31A3B8000F0EF
:101A900017FEB6F9003000EE103AB8EEC00A8046E4
:101AA00020EE090A80EE280A11F042FDB8F8022063
:101AB000B7F90010282920EE080AFDEEC07A17EECB
:101AC000903AA2EB03031BB27B8040F3E480B1F5B4
:101AD0000C7F04DB4FF40C715A2239803280282BA2
:101AE00000F3EE80282200237A8033807F4801F0C3
:101AF0003FFA02232B70019A23689A4240F0EA8051
:101B000002B0BDEC048BBDE8F08100214FF44870B9
:101B1000724D01F085FA00232B7000F011FE0028B1
:101B20005FD100F0CDFDB0F9026001F061F9B0F9CC
:101B30000230F61A07EE906AB8EEE78A00F0C0FDB0
:101B4000B0F9006001F054F9B0F90030F31A00EE7A
:101B5000903AB0EE480AF8EEE00A11F061FEDFEDCF
:101B6000627A9FED607A20EE270AC0EE077AF5EEE2
:101B7000C07AF1EE10FA03D59FED5E7A77EE877AA0
:101B8000FCEEE77A17EE903A98B201F0D1F9012312
:101B90002B70B0E7002002F053F801F091FE4FF4F3
:101BA000617008F0EDFE01F0A3FE012002F048F89C
:101BB00001232B709FE701F07BF900289BD0484B55
:101BC000188801F0B5F903232B7094E701F058F958
:101BD000002890D000F0B4FD002861D104232B70C0
:101BE00089E700F0ADFD01289BD000F0A9FD022897
:101BF00081D196E700F0A4FD032859D000F0A0FDA4
:101C0000012804D000F09CFD02287FF474AF02F09C
:101C10002FF808B104232B7000F052FDB0F90250E8
:101C200001F0E6F8B0F90230ED1A07EE905AB8EE7E
:101C3000E78A00F045FDB0F9005001F0D9F8B0F99D
:101C40000030EB1A00EE903AB0EE480AF8EEE00AE7
:101C500011F0E6FDDFED247A9FED227A019A2368E8
:101C600020EE270AC0EE077AF5EEC07AF1EE10FA00
:101C700044BF9FED207A77EE877A9A422AD1FCEE14
:101C8000E77A17EE903A98B202B0BDEC048BBDE84B
:101C9000F04101F04DB928215A22398032801EE7E7
:101CA00000F04EFD022899D000F04AFD012895D0A1
:101CB00000214FF4487001F0B3F900232B701AE7AC
:101CC000B3F5707FFFF612AF4FF4707200237A8085
:101CD00033800BE7FFF77CFC000800200415002090
:101CE00008150020DB0F4940000034430015002098
:101CF0000000C8420000B4430000000000000000E3
:101D00002DE9F0412DED048BB0F90260B1F90240EC
:101D1000B0F90050B1F90030A41B5B1B04FB04F4C4
:101D200003FB034307EE903AB8EEE70A734D86B023
:101D3000B5EE400A2B680593F1EE10FAB1EEC08AB9
:101D400000F18F80B5EE408AF1EE10FAF1EEC88A0C
:101D500000F1C680B1F902E0B0F902C0B1F900307B
:101D6000B0F90070AEEB0C0404FB04F6DC1B04FBC2
:101D7000046407EE904A9FED627AB8EEE70AC7EE78
:101D8000287AF1EEC08AFCEEE77AB5EE400A17EE4B
:101D9000906AF1EE10FAB0EE688AB6B200F1828075
:101DA0009FED587AB2F90280B2F90000C7EE087AC6
:101DB000AEEB080E1B1A0EFB0EFEACEB080C3F1A26
:101DC0000CFB0CFC03FB03E31C4407FB07C7E41BF1
:101DD00007EE104AFCEEE77AB5EE400A17EE900ADD
:101DE000F1EE10FAB8EE478A84B246D407EE903A84
:101DF000B8EEE70A78EEA88AB5EE400AF1EE10FADE
:101E0000B1EEC09A36D4344468EE898A88EE280A46
:101E100011F0A6FC059A2B689A4207EE906ADFED56
:101E20003A5ADFED3A6A9FED3A6AB8EEE77AC7EEC2
:101E3000257AB0EE007AE0EE076A77EE867A67EEF2
:101E4000A67A67EEA67A67EEA67AFDEEE77A17EE37
:101E5000900A204400B24ED106B0BDEC048BBDE820
:101E6000F081CDE90212019011F0E2FCDDE90212ED
:101E7000019867E711F0DCFCC5E7CDE9011211F02C
:101E8000D7FC0199029AB1F90200B2F90270B1F9D6
:101E90000030B2F90010C21B02FB02F25B1A03FB16
:101EA0000323A3E7CDE90212019011F0C1FC0198D0
:101EB0000299B0F902C0B1F902E0B0F90070B1F9CD
:101EC0000030039AAEEB0C0404FB04F4D81B00FBB7
:101ED000004407EE904AB8EEE70AF1EEC08A5FE7E9
:101EE000B0EE480ACDE90212019011F0A1FCDDE943
:101EF000021201982EE7FFF76BFB00BF00080020DD
:101F00000000FA4400007A440000C842DB0F49C0D8
:101F1000AAAAAA3E00000000000000000000000085
:101F20002DE9F043544BDFF868911B6885B001241C
:101F3000039309F0F5FF07F0E3FE03F081FA4F4A3F
:101F40004F49504807F0ACFD00254F494F480BF072
:101F500007FBA04604F0BCF82F4602F061FC022605
:101F600003F036F803F0A4FD03F0BAFF00F000FC24
:101F700001F0EEFD00F0CCFD01F07AFD00F0D0FEA6
:101F800002F0AEF844B1ADB900F0F2FE25461E20D5
:101F900008F0F6FC002CF6D101F0C2FD841B18BF3E
:101FA000012401F0BDFD064603280FD8DFE800F04C
:101FB0001912200900F004FF00285AD104460546F2
:101FC000E5E7002001F03CFEFFF71AFB00F088FD7A
:101FD0000446DCE7012001F033FE2046FFF7F0FC69
:101FE000F4E7002001F02CFE2046FFF731FBEDE77F
:101FF00000F0A6FB044648B19FB3012001F020FE8B
:102000004046FFF7DDFC4FF00008DFE7CDF8049015
:1020100000F0EEFE804600F053FB01AA0146404668
:10202000FFF76EFE0294804600F04AFB0388C3F57A
:102030001673ADF8083000F043FB4388C3F57A739C
:10204000ADF80A3000F004FD01AA02A9FFF758FE1E
:102050008045D4BF0020012080EA07080746002FF2
:10206000CBD1384601F0ECFD4046FFF7F1FAB84617
:10207000ACE72C468BE700BF0008002004080020D6
:102080000C0800202039002024080020C451002022
:102090002C01E80300000000000000000000000028
:1020A00080B5274C274AA3692749996186B0032345
:1020B0002025002116680093EF224FF42073CDE90C
:1020C00001554420059602F02BFD2D2002F0B0FFB3
:1020D000002002F0FDFF1D4E1D4F002002F0C8FF42
:1020E00002F026FC002002F05BFCB04602F0C0FBD0
:1020F00013E008F005FB07F02BFF08F019FF236839
:10210000A34207D0A2699B6892689A4202D23846DD
:1021100007F05EFE002383F3118802F081FC02F0D9
:10212000E7FB85F3118808F0EBFE07F0F1FE07F0FE
:10213000BFFFB368002BDCDC404608F0B9FFD8E7EE
:10214000A043002000080020B09A010834080020B5
:10215000D09A01080000000000000000000000000C
:102160002DE9F04F2B4D04782D680C7044784C709D
:1021700087B090F87F420595002581F87F42CDE930
:10218000015290F87E42DFF89080039381F87E42FE
:1021900001F1010C00F5F06BAA4602270CF801AF23
:1021A0001FFA87F9C6190BEB070E002316F8024C2D
:1021B00016F8012C3578B178224474782A442244E8
:1021C0000A44A8FB021203EBD20306F52076DBB229
:1021D000B6458CF80030E9D10A2B06D8019B93B99B
:1021E000029BA3F8009001230193013740F27E2364
:1021F0009F42D3D1074B059A1B6801989A4206D19A
:1022000007B0BDE8F08F039BA3F80090EDE7FFF760
:10221000DFF900BF000800208988888800000000DE
:10222000F0B51F4D0C882B6883B0092C019313D98E
:102230001C4F06192744737816F801CDA3EB0C0345
:1022400003EBD3735B1007F8013901330C8003DB18
:10225000013CA4B2012CEED1118840F275239942C1
:1022600015D8104C08440C4440F27F2710F8013F69
:1022700010F8026C9B1B03EBD3735B10012B04F86B
:10228000013B118003DC013189B2B942EED1019AE0
:102290002B689A4201D103B0F0BDFFF799F900BF56
:1022A00000080020241500200000000000000000AD
:1022B0002DE9F04F2DED0A8BCE4E83B0336801939C
:1022C0000A2807460C46A1EB000340F27281B1F5E3
:1022D0001D7F40F27681C84A0121117007EE903AC5
:1022E000DFEDC6AA9FEDC67A9FEDC6AADFEDC69ABE
:1022F0009FEDC6BADFF83C83C54DF8EEE77AB6EE3F
:10230000009A67EEAA7A3C4487EE870A20EE090A13
:1023100011F00EF907EE904A9FEDBE6ADFEDBE6A3E
:10232000F8EEE77AC6EE80BA87EE867A39EE479AFB
:1023300000F05EFDB0F9003008EE903A00F080FD4C
:1023400007EE900AB8EEE70AF8EEE88A20EE0A0AED
:1023500080EE290A11F09CF8E0EE0B8A00F070FD87
:1023600007EE900AF8EEE77A67EE8A7A87EEA90A16
:10237000A9EE2A0A11F08CF8B0EE40CA00F038FD40
:10238000B0F9023008EE103A00F05AFD07EE900A5C
:10239000B8EEE70AB8EEC88A20EE0A0A80EE290AEB
:1023A00011F0C6F8A0EE0B8A00F04AFD07EE900A85
:1023B000F8EEE77A27EE8AAA8AEE290AA9EE2A0A17
:1023C00011F0B6F8F0EE687AEBEE8C7AB8F90030DE
:1023D000B5F90070DFED915A9FED916AABEE808AFE
:1023E000FDEEE77A06EE903A17EE902AB8F9023041
:1023F000BDEEC88A12B207EE103A07EE902A18EE28
:10240000102AF8EEE66A12B2B8EEC77AF8EEE77A6A
:1024100066EEA56A08EE102A27EE257AE7EE866AB0
:102420002023B8EEC88AF0EE477AE8EE067ABDEED1
:10243000E67AFDEEE77A17EE102A14B217EE902A2C
:10244000A8F80040A8F8022083F31188DFF8E8918B
:1024500008F056FD07F05CFDD9F828B007F078FDCC
:1024600008F066FDD9F800204A4506D0D9F81830A2
:1024700092689B689342C0F0AE80002383F311887A
:10248000DFF8B8A1674ADAF80030DFED676AABEB36
:10249000030B4FF47A730BFB0333013BA2FB0323C3
:1024A000E41B9B0907EE903A07EE104AF8EEE77A34
:1024B000B8EEC77AB5F90220B8F90230C7EE278A1C
:1024C0009B1A202207EE903A68EEA68AB8EEE78AB9
:1024D00082F3118808F014FD07F01AFDD9F828409E
:1024E00007F036FD08F024FDD9F800304B4505D043
:1024F000D9F818209B6892689A4268D3002383F326
:102500001188DAF80030474A9FED445ADFED464A19
:10251000DFED435AB8F800102980E41A4FF47A73BB
:1025200004FB0333013BA2FB03239B0907EE903A14
:10253000F8EEE77A3D4BB8F80220D3ED016A93ED4F
:10254000007A6A8088EE276A202266EE856A67EE46
:10255000057A26EE246AB0EE667AA6EE257AE8EED3
:10256000A57A83ED017AC3ED007A82F3118808F031
:10257000C7FC07F0CDFCD9F8284007F0E9FC08F0CB
:10258000D7FCD9F800304B4505D0D9F818209B6806
:1025900092689A4223D3002383F31188CAF800403B
:1025A000019A33689A4222D103B0BDEC0A8BBDE890
:1025B000F08FB1F51D7F7FF68EAE0F4A02211170AC
:1025C0008CE60E2B0FDC0C4B03221A70E8E7184840
:1025D00007F0FEFB92E7164807F0FAFB4DE71448B8
:1025E00007F0F6FBD7E7044A0021117076E6FEF704
:1025F000EFFF00BF0008002030080020F90F493F1E
:1026000000002044DB0F49400000344300000C422E
:102610000C1500200000A04448E19541CDCC4C3F72
:10262000CDCC4C3ED34D62100000C842181500209E
:10263000D09A010814150020A04300202015002086
:1026400070B5194A194B926919499161ADF5227D0E
:102650001B68A19301A84FF42072002113F0A0FF82
:10266000144E154C0023ADF80030ADF802300325B0
:10267000204608F0E5FC02F0ABF90DF102036A46D2
:1026800001A9FFF76DFD08B93570F1E7694601A8AA
:102690000DF10202FFF7C4FDBDF80210BDF8000005
:1026A000FFF706FEE4E700BFA0430020000800207B
:1026B000C09A010830080020340800200000000003
:1026C00000B5074B83B01A680192019A1B689A42C1
:1026D00003D1044803B05DF804FBFEF779FF00BFA7
:1026E0000008002014150020000000000000000079
:1026F00000B50E4A0E4B92ED007AD2ED017A1968C0
:102700000C4883B0BDEEC77A0191FDEEE77A17EE73
:10271000101A019A1B68018017EE901A9A424180A4
:1027200002D103B05DF804FBFEF752FF181500203C
:10273000000800201015002000000000000000002C
:1027400000B5074B07491A68087883B00192019ACF
:102750001B689A4202D103B05DF804FBFEF738FF14
:1027600000080020300800200000000000000000E9
:1027700030B50E4C0E4B22680E4885B000250392F2
:1027800041F278114022009508F0A2F80A4B00951A
:1027900040220A484FF41E7108F09AF8039A236801
:1027A0009A4201D105B030BDFEF712FF00080020AB
:1027B00041260008201A0020A1200008A8170020A8
:1027C0000EB410B50A4C0B4923680B4883B0019333
:1027D00006AB1A46009310F0EBF9019A23689A426F
:1027E00004D103B0BDE8104003B07047FEF7F0FE1F
:1027F00000080020F09A0108C451002000000000E9
:102800002DE9F041104F114E3B6882B00546302251
:10281000202101936C1E13F0C3FE2F35B04601E05A
:10282000AC4208D033684046DB689847C0B22D28D8
:1028300004F8010FF4D1019A3B689A4202D102B028
:10284000BDE8F081FEF7C4FE00080020C45100205E
:1028500030B50C4C83B02368019300F0C9FA0588A9
:1028600000F0C6FA01992368994208D143880649C5
:1028700006482A4603B0BDE83040FFF7A1BFFEF787
:10288000A7FE00BF00080020F09A0108C4510020F4
:1028900000B56138C3B20B4A152B83B0116898BFDD
:1028A0000948019198BFD8400199136894BF00F07E
:1028B00001000020994202D103B05DF804FBFEF74D
:1028C00087FE00BF000800208D00300000000000DF
:1028D0002DE9F04F474EDFF83091336885B04FF067
:1028E0000008039399F800300093434B1B78019341
:1028F000834600F1300547465C4614F801ABBAF157
:102900002D0F1ED05046FFF7C3FFB8B123783A2BE6
:1029100023D00022AAF1610ABAF1150F0ED8DFE820
:102920000AF0490D433D0D0D0D370D0D0D0D0D0D2B
:102930000D0D0D0D0D0D4F0B304B5A80AC42A346C3
:10294000DAD1002F50D1B8F1000F48D1039A336883
:102950009A4242D105B0BDE8F08F0BF10601A446C2
:1029600000221CF801EFAEF130035FFA83FBBBF1EC
:10297000090F2BD81A4492B202EB82025200614531
:1029800092B2EED11E4BA3FB023242F3CF02C1E75B
:10299000AC4207460090A346AED1D2E7194BAC42F9
:1029A0001A80A346A8D1CCE7AC4280460190A3464A
:1029B000A2D1C6E7134BAC425A80A3469CD1C0E7D4
:1029C0000E4BAC421A80A34696D1BAE7BEF1200F57
:1029D000D8D0AC42A3468FD1B3E7FEF7F9FD064B42
:1029E0009DF804201A70B1E79DF8003089F8003096
:1029F000A9E700BF00080020982B0020A42B00208E
:102A0000CDCCCCCC9C2B0020A02B002000000000C3
:102A100000B50A4A0A4B92690A491B680A4C91613F
:102A200083B001932046FFF7EBFE2046FFF750FFEF
:102A3000FFF70EFF322007F0A3FFF3E7A0430020CB
:102A400000080020E09A0108A82B002000000000E8
:102A500000B5074B83B01A680192019A1B689A422D
:102A600003D1044803B05DF804FBFEF7B1FD00BFDD
:102A700000080020A42B002000000000000000003F
:102A800000B5074B83B01A680192019A1B689A42FD
:102A900003D1044803B05DF804FBFEF799FD00BFC5
:102AA000000800209C2B0020000000000000000017
:102AB00000B5094A094B1078196883B0019108B133
:102AC00000211170019A1B689A4202D103B05DF88F
:102AD00004FBFEF77DFD00BFA02B002000080020B6
:102AE00000B5094A094B1078196883B0019108B103
:102AF00000211170019A1B689A4202D103B05DF85F
:102B000004FBFEF765FD00BF982B002000080020A5
:102B100010B50A4C0A4B22680A4884B04FF45E7123
:102B2000039200220092402207F0D2FE039A23680B
:102B30009A4201D104B010BDFEF74AFD0008002002
:102B4000112A0008D82B002000000000000000001F
:102B50002DE9F043644D654FAB69654E654A2DED37
:102B6000068B85B09A613B6803933046522386F802
:102B7000BF3106F07DFE50B90121304606F0A8FEB7
:102B80000121304606F054FF5B4B01221A70DFED45
:102B90005B9A9FED5B8A9FED5B9ADFED5B8AB0EEFF
:102BA00069AA4FF00008AB6993F821305B072DD478
:102BB000514B1B78002B7DD1544B1B88544C07EE96
:102BC000903AF8EEE77A237867EE897AE8EE287A89
:102BD000B0EE678A002B68D0DFF8389199F80030A2
:102BE000042B0BD8DFE803F03928471B0300F4EE71
:102BF000E79AF1EE10FA65DDF0EE489A052007F04D
:102C0000BFFEAB6993F821305B07D1D5039A3B68CF
:102C10009A4267D105B0BDEC068BBDE8F08300F0A9
:102C20002FF90028EAD00423052089F80030F0EEBF
:102C30004A9A07F0A5FEE4E700F022F90028DDD06B
:102C40000021142000F0ECF90223052089F800305F
:102C5000F0EE4A9A07F094FED3E700F029F9002835
:102C6000CCD0A02000F064F90123052089F80030C1
:102C700007F086FEC5E7F4EEE79AF1EE10FABBDC4A
:102C8000BCD5FDEEE97AB420CDED017ABDF9048022
:102C900000F0AEFE4FF4877000F04AF903230520E0
:102CA00089F8003007F06CFEABE74FF4FA7007F0DC
:102CB00067FE78E70E4806F0DBFE144AB6F8583097
:102CC00013807BE79AD5FDEEE97A4046CDED017A97
:102CD000BDF9041000F0ACFE00230520237007F0BE
:102CE0004FFE8EE7FEF774FCA04300200008002092
:102CF000542F0020009B0108502F00200050C34794
:102D0000000000000AD7233CA4707D3F143100204E
:102D1000512F0020522F0020000000000000000072
:102D200030B50C4B0C4C1D78236885B003934DB91E
:102D300002F056FA0095094B094842224FF45E71A1
:102D400007F0C6FD039A23689A4201D105B030BD51
:102D5000FEF73EFC502F002000080020512B0008F9
:102D600018310020000000000000000000000000FA
:102D700030B50C4B0C4C1B6822680C4D83B002A87C
:102D8000019240F8083D00F0F3F8019A23680849E1
:102D9000012400209A422C70087001D103B030BD8C
:102DA000FEF716FC809A010800080020512F002031
:102DB000522F002000000000000000000000000072
:102DC00000B5074B07491A68087883B00192019A49
:102DD0001B689A4202D103B05DF804FBFEF7F8FBD2
:102DE00000080020512F002000000000000000001B
:102DF00000B50E4A0E4B92ED007AD2ED017A1968B9
:102E00000C4883B0BDEEC77A0191FDEEE77A17EE6C
:102E1000101A019A1B68018017EE901A9A4241809D
:102E200002D103B05DF804FBFEF7D2FB440800209A
:102E300000080020A0340020000000000000000076
:102E400000B50A4B0A491A68D1ED007A83B00192A5
:102E5000019A1B689A4207D1FDEEE77A17EE901AA5
:102E600008B203B05DF804FBFEF7B2FB00080020D7
:102E70009C34002000000000000000000000000062
:102E800000B5074B07491A68087883B00192019A88
:102E90001B689A4202D103B05DF804FBFEF798FB71
:102EA0000008002040080020000000000000000092
:102EB00000B5074B07491A68087883B00192019A58
:102EC0001B689A4202D103B05DF804FBFEF780FB59
:102ED000000800204C080020000000000000000056
:102EE00000B50E4A0E4B92ED007AD2ED017A1968C8
:102EF0000C4883B0BDEEC77A0191FDEEE77A17EE7C
:102F0000101A019A1B68018017EE901A9A424180AC
:102F100002D103B05DF804FBFEF75AFBA834002091
:102F200000080020A4340020000000000000000081
:102F300010B50B4B0B4C1A680B4982B007EE900A88
:102F40000192019A1B68F8EE677A00209A4220707D
:102F5000C1ED007A01D102B010BDFEF739FB00BF10
:102F600000080020400800209034002000000000ED
:102F700030B5B0F90020214B214D93ED007AD3ED0F
:102F8000017A20492B6800EE902AB0F9022000EE69
:102F9000102A83B0F8EEE00AB8EEC00A1A4A01938C
:102FA00070EEC70A002330EE670A04460B701370F8
:102FB00010F036FC9FED157ADFED156AB4F900309C
:102FC00001992A68134820EE070A07EE903A80EE2E
:102FD000267A114B9142F8EEE77A80ED007AC3ED44
:102FE000007AB4F9024007EE904AF8EEE77AC3EDB2
:102FF000017A01D103B030BDFEF7EAFA440800209F
:1030000000080020400800204C0800200000344345
:10301000DB0F494090340020A8340020000000005D
:1030200070B5124C124D2368124A82B04642019389
:1030300001232B70137071B90546304602F0A8FCCD
:10304000019A23689A4208BF28460CD102B0BDE815
:10305000704002F0B5BC02F09BFC019A23689A42D2
:1030600008BF3046F2D0FEF7B3FA00BF00080020D8
:10307000400800204C080020000000000000000074
:1030800000B5B1F90220B0F9023007EE102AB0F90C
:10309000002007EE903A06EE102A1A4BB1F90020F4
:1030A000D3ED016AD3ED005A174B05EE102AF8EE66
:1030B000E77AB8EEC77A76EEE77AB8EEC66A36EE09
:1030C000C77AB8EEC55A75EEC66A67EEA77A27EEDC
:1030D000077A35EEC56AE6EEA67A83B01A680192E1
:1030E000A6EE067A019A1B68F4EEC77AF1EE10FAA2
:1030F00094BF012002209A4202D103B05DF804FB84
:10310000FEF766FAA8340020000800200000000046
:1031100030B5B0F90020214B214D93ED007AD3ED6D
:10312000017A20492B6800EE902AB0F9022000EEC7
:10313000102A83B0F8EEE00AB8EEC00A1A4A0193EA
:1031400070EEC70A002330EE670A04460B70137056
:1031500010F066FB9FED157ADFED156AB4F90030CB
:1031600001992A68134820EE070A07EE903A80EE8C
:10317000267A114B9142F8EEE77A80ED007AC3EDA2
:10318000007AB4F9024007EE904AF8EEE77AC3ED10
:10319000017A01D103B030BDFEF71AFA44080020CD
:1031A00000080020410800204008002000003443AF
:1031B000DB0F4940903400209434002000000000D0
:1031C00010B5104B104C93ED007AD3ED017A2368C3
:1031D00082B0BDEEC77A0193FDEEE77A17EE103AA2
:1031E000ADF8003017EE903A6846ADF80230FFF7C0
:1031F000BFFE019A23689A4201D102B010BDFEF7CA
:10320000E7F900BFA83400200008002000000000FB
:1032100000B5074B07491A68087883B00192019AF4
:103220001B689A4202D103B05DF804FBFEF7D0F9A7
:1032300000080020410800200000000000000000FD
:10324000F0B5F5EEC00AF1EE10FA48BFDFED3E7AB8
:103250003E4DB5EEC00A2DED068BF0EE608A48BFFC
:1032600070EEA78AF1EE10FA48BFDFED377A9FEDD6
:10327000389A2B6848BF30EE270A85B070EE097A7D
:10328000039317EE900A30EE688AFDF79DF99FEDE3
:103290002C1B41EC100B41EC1A0B10F099F978EE55
:1032A000897A57EC106B17EE900AFDF78DF99FEDB8
:1032B000241B41EC100B41EC190B10F089F9FDEEC9
:1032C000C87A53EC102B17EE904A3046002C394642
:1032D000B8BF6442FDF718F8FDF78AFC0028B8BFB4
:1032E000404284421DDBB0EE4A0AF0EE6A0A9FEDCE
:1032F000141B10F06DF951EC100BB0EE490AF0EE12
:10330000690A9FED0F1BCDE9000110F061F9DDE9BD
:10331000000153EC102BFCF7F7FFFDF7B1FC08EEB2
:10332000100A039A2B689A42B0EE480A03D105B0FE
:10333000BDEC068BF0BDFEF74BF900BFAFF300808C
:1033400000000000008076400000B4430008002028
:1033500000003443000000000000000000000000F6
:1033600030B53E4B3E4C83B022680192F0EE400AED
:1033700093ED000AFFF764FFFDEEC07A9FED397A06
:1033800017EE903A002BB8BF5B4207EE903AF8EE8A
:10339000E77AF4EEC77AF1EE10FA37D4B5EEC00A48
:1033A000F1EE10FA14DDB1EE047AB4EEC70AF1EED4
:1033B00010FA33DD4FF4C87002F0EAFA2A4802F03E
:1033C000FFFA0020019A23689A4245D103B030BD2C
:1033D000F9EE047AB4EEE70AF1EE10FA33D4F1EE26
:1033E000047A80EE277ADFED217A67EE277A67EE9E
:1033F000877AFDEEE77A17EE903A1DB2684202F046
:10340000C7FA284602F0DCFA0020DBE7002002F0D1
:10341000BFFA002002F0D4FA0120D3E7C0EE076A19
:10342000DFED127A66EEA77A67EEA67AFDEEE77A0E
:1034300017EE903A1DB2284602F0AAFA684202F04E
:10344000BFFA0020BEE7084802F0A2FA4FF4C870A5
:1034500002F0B6FA0020B5E7FEF7BAF89C34002077
:1034600000080020CDCCCC3D70FEFFFF0000C8431B
:1034700070B52DED028B404E90ED007AD0ED017AC3
:10348000D1ED000A91ED010A336882B070EEC70AEF
:1034900030EE670A04460D46019310F0C1F9DFEDE6
:1034A000377A9FED377A374B20EE270A93ED008A63
:1034B000C0EE078AB0EE480AF0EE680AFFF7C0FED9
:1034C000DFED317AB4EEE70AF1EE10FA0CD5F0EE4A
:1034D000680AB0EE480AFFF7B3FEDFED2C7AB4EECF
:1034E000E70AF1EE10FA27DC94ED016AD5ED017AD6
:1034F000D4ED006A95ED007A77EEC67A37EE667AFB
:1035000067EEA77AE7EE077A17EE900AFDF75CF808
:1035100041EC100B10F0C4F851EC100BFDF7B0FBB0
:1035200080F00040019A33689A4200EE100A20D1E0
:1035300002B0BDEC028B70BD94ED016AD5ED017A4D
:10354000D4ED006A95ED007A77EEC67A37EE667AAA
:1035500067EEA77AE7EE077A17EE900AFDF734F8E0
:1035600041EC100B10F09CF851EC100BFDF788FBB0
:10357000D8E7FEF72DF800BF000800200000344314
:10358000DB0F49409C3400200000B4420000B4C26C
:1035900070B52DED048B564E564C336882B0014603
:1035A000054620460193FFF763FFFDEEC07A17EE54
:1035B000903A0133022B44D994ED007AD4ED017A8C
:1035C000D5ED000A4C4BB0EE408A95ED010AD3EDE3
:1035D000008A70EEC70A30EE670A10F021F9DFEDBD
:1035E000477ADFED470A60EE277AB0EE680AC7EE49
:1035F000A00AFFF725FEB5EEC08AF1EE10FAF0EE54
:10360000408A2DDDB1EE047AB4EEC78AF1EE10FAED
:1036100045DD9FED3C8AB2EE049AF0EE487AE0EE8A
:10362000097AFDEEE77A17EE900A02F0B1F9A8EEFA
:10363000C98AFDEEC87A17EE900A02F0C1F900209F
:1036400006E0002002F0A4F9002002F0B9F9012000
:10365000019A33689A4248D102B0BDEC048B70BD28
:10366000F9EE047AB4EEE78AF1EE10FA25D4F1EE21
:10367000047A88EE277ADFED237A67EE277A67EE01
:10368000877AFDEEE77A17EE903A1CB26442204644
:1036900002F07EF9204602F093F90020D8E7C8EE48
:1036A000076ADFED187A66EEA77A67EEA67AFDEE76
:1036B000E77A17EE903A1CB2E9E79FED138AB2EE73
:1036C000049AF0EE487AE0EE497AFDEEE77A17EEDA
:1036D000900A02F05DF9A8EE898AFDEEC87A17EE2D
:1036E000900A02F06DF90020B2E7FDF771FF00BF0C
:1036F00000080020440800209C34002000003443CF
:10370000DB0F494000005C4400005CC40000000086
:103710002DE9F04F2DED0A8B554A564B92695649CB
:103720001B68916183B000200193002402F090F99E
:10373000002002F0A5F9514E514D524FDFF86C8137
:10374000DFF86C919FED508ADFED509A9FED509A13
:10375000DFED508ADFED50AA9FED50AAA3461CE092
:10376000F4EECA7AF1EE10FAC8BF77EECA7AC6ED67
:10377000007A02F03DF9834602F052F93B780446A4
:10378000002B61D098F80030002B64D099F80030FD
:10379000002B66D0142007F0F3F802F029F98246D6
:1037A00002F03EF9AAEB0B0B041B4FFA8BFB64B241
:1037B0000BEB040307EE903AD6ED00BAF8EEE77A89
:1037C0002BEE887A67EE887AC7EE28CAA4EB0B0442
:1037D00067EEA97AB0EE6C0A87EE89BA0FF058FE50
:1037E00095ED007A2BEE000AB6EE00CAA0EE0C7A38
:1037F000B0EE6C0A85ED007A0FF09AFE07EE904A63
:10380000F8EEE77A2BEE000A67EE887A95ED017AFA
:1038100067EEA97AA0EE0C7A87EE890A85ED017A27
:1038200080EE2A0A0FF05CFD20EE280AC0EE087A2E
:1038300077EEAB7AF5EEC07AF1EE10FA90D577EE2E
:103840008A7AC6ED007A94E7154B93ED000AFFF7EC
:1038500087FD38709EE71348FFF79AFE88F800004E
:1038600098E71148FFF794FE89F8000092E700BF3F
:10387000A043002000080020109B01089C34002079
:103880004408002040080020DB0F4940000024428B
:1038900000007A4400003443000050420000B4436A
:1038A0009034002094340020A834002041080020E7
:1038B0004C08002000000000000000000000000094
:1038C00010B50A4C82B02368019340F24C4002F0DC
:1038D0005FF8019A23689A4206D140F24C4002B048
:1038E000BDE8104002F06CB8FDF772FE0008002041
:1038F00010B5094C82B023680193002002F048F80B
:10390000019A23689A4205D1002002B0BDE8104018
:1039100002F056B8FDF75CFE000800200000000031
:103920002DE9F0472DED028B0646DFF8B4A00078B4
:10393000DAF8003082B0C0000193FCF733FE7388E0
:10394000DFED256A9FED257A07EE903AF8EEE77AEB
:10395000044667EEA67A0D46C7EE877A17EE900A00
:10396000FCF732FE41EC100B41EC180B0FF0F8FBAA
:1039700057EC106BB0EE480AF0EE680A0FF050FCFE
:1039800059EC108B10EE102A4B4630463946FCF7A6
:10399000BDFC22462B46FCF773FEFDF729F901F02A
:1039A000F7FF019ADAF800309A4212D142464B46AC
:1039B00030463946FCF7A8FC22462B46FCF760FE51
:1039C000FDF716F902B0BDEC028BBDE8F04701F03F
:1039D000F7BFFDF7FDFD00BFDB0F4940000034439A
:1039E00000080020000000000000000000000000AF
:1039F00000B50A4B0A491A6883B007EE900A019293
:103A0000019A1B68F8EE677A9A42C1ED007A02D1FA
:103A100003B05DF804FBFDF7DBFD00BF00080020EC
:103A20009C340020000000000000000000000000A6
:103A300010B50C4A0C4B146882B007EE900A019442
:103A4000B8EEE77A07EE901A019C126883ED007ACF
:103A5000F8EEE77A9442C3ED017A01D102B010BDCD
:103A6000FDF7B6FD0008002044080020000000001B
:103A700010B50A4C0A4B22680A4884B04FF41E71F4
:103A8000039200220092412206F022FF039A23684B
:103A90009A4201D104B010BDFDF79AFD0008002044
:103AA00011370008B03400200000000000000000C2
:103AB000F0B5144A144B926914491B68144C916177
:103AC00083B0032701930226012508E0022AA0F112
:103AD000060010D825704FF4FA7006F051FF02F07E
:103AE0005FF8C0B2C31E022BA0F10B024FF000031F
:103AF000ECD82370EFE704288CBF3B463346237095
:103B0000E9E700BFA043002000080020209B010837
:103B10004D08002000000000000000000000000030
:103B200000B5074B07491A68087883B00192019ADB
:103B30001B689A4202D103B05DF804FBFDF748FD13
:103B4000000800204D0800200000000000000000D8
:103B500010B50A4C0A4B22680A4884B04FF4FC7135
:103B6000039200220092412206F0B2FE039A2368DB
:103B70009A4201D104B010BDFDF72AFD00080020D3
:103B8000B13A0008283700200000000000000000C3
:103B9000F0B5284F83B004463B68019302200E46DF
:103BA00002F00EFA6428D4BF00200120207001200A
:103BB00002F006FA6428D4BF0020012060700020C3
:103BC00002F0FEF96428D4BF00200120A070072075
:103BD00002F0F6F96428D4BF00200120E07006202E
:103BE00002F0EEF96428D4BF0020012020710520E6
:103BF00002F0E6F964284FF00003D4BF0020012052
:103C00006071621E1D46184612F8014F2CB101303A
:103C1000C0B205B93370737025460133DBB2062B91
:103C2000F2D1019A3B689A4201D103B0F0BDFDF791
:103C3000CFFC00BF000800200000000000000000D2
:103C400000B5074B07491A68087083B00192019AC2
:103C50001B689A4202D103B05DF804FBFDF7B8FC83
:103C6000000800204E0800200000000000000000B6
:103C700010B50D4C82B023680193002002F0A0F92A
:103C80000A2806DC0020019A23689A4209D102B072
:103C900010BD072002F094F90A28D4BF00200120AB
:103CA000F1E7FDF795FC00BF0008002000000000D0
:103CB000F0B51C4F83B03B6801930546FFF798F8B9
:103CC000B5F90030B0F90040E41AFFF791F8B5F902
:103CD0000020B0F900309B1A04FB03F4FFF788F8CA
:103CE000B5F90230B0F90260F61AFFF781F8B5F9BC
:103CF0000230B0F90200C01A06FB0040FCF752FC8B
:103D000041EC100B0FF0CCFC51EC100BFCF798FFC2
:103D1000019A3B689A4202D180B203B0F0BDFDF730
:103D200057FC00BF00080020000000000000000059
:103D30002DE9F0412DED048BDC4ADD4B9269DD4924
:103D40001B689161A6B0DC49DC48259305F018FF9B
:103D5000054602F015F90023D94EDA4F9FEDDA9AA5
:103D6000DFEDDA8A9FEDDA8AADF80C300293ADF818
:103D70009030CDE9003302E0142006F001FE8022ED
:103D800004A9284605F064FFFFF792F804460028CE
:103D9000F2D1FFF775F80028EED03378002BEBD086
:103DA00024A902A8FFF7F4FE3B784BB1012BE3D125
:103DB000FFF72EFA0028DFD0FFF702FA3C70DBE7AE
:103DC000012800F0BE80D7D9022806D19DF8903096
:103DD0001BB99DF89130052BCED0FFF781F8FFF786
:103DE00067FF3C2840F2A880FFF72AF89DF8903042
:103DF00003EBC30300EB8303B43B1CB2FEF7F8FFF5
:103E000007EE904AF8EEE77A804667EE897AC7EEC9
:103E1000A89AB0EE690A0FF03BFBB8F9003007EE44
:103E2000903AF8EEE77AE0EE087AFDEEE77A17EEE0
:103E3000903AADF80030FEF7DBFF0446B0EE690AB9
:103E40000FF076FBB4F9023007EE903AF8EEE77A1D
:103E5000E0EE087AFDEEE77A17EE903AADF8023020
:103E6000FEF7EEFF9DF8913003EBC30300EB8303F5
:103E70001CB2FEF7BDFF07EE904AF8EEE77A8046E7
:103E800067EE897AC7EEA89AB0EE690A0FF000FBD8
:103E9000B8F9003007EE903AF8EEE77AE0EE087AEB
:103EA000FDEEE77A17EE903AADF80430FEF7A0FF8A
:103EB0000446B0EE690A0FF03BFBB4F90230BDF8DE
:103EC000002007EE903AF8EEE77A293AE0EE087A19
:103ED00092B240F206218A42FDEEE77A17EE903A5E
:103EE0001BB2ADF8063018D8BDF80200BDF80420AA
:103EF000293880B240F29634293AA04292B210D8C2
:103F00008A4204D8293B9BB2A34240F2C280684651
:103F1000FFF7FEF801233B702EE7BDF80420293A95
:103F200092B240F206218A4206D8293B9BB240F267
:103F30009632934240F2B480FEF75AFFFFF718F82A
:103F40001AE79DF89030002B3FF416AF052B3FF495
:103F500013AFFEF7C5FFFFF7ABFE3C28ECD9FEF729
:103F60006FFF9DF8903003EBC30300EB83031CB29B
:103F7000FEF73EFF07EE904AF8EEE77A804667EEDE
:103F8000897AC7EEA89AB0EE690A0FF081FAB8F9FB
:103F9000003007EE903AF8EEE77AE0EE087AFDEEB0
:103FA000E77A17EE903AADF80030FEF721FF0446AD
:103FB000B0EE690A0FF0BCFAB4F9023007EE903A9D
:103FC000F8EEE77AE0EE087AFDEEE77A17EE903A3F
:103FD000ADF80230FEF734FF9DF8903003EBC303D9
:103FE00000EB8303B43B1CB2FEF702FF07EE904ADE
:103FF000F8EEE77A804667EE897AC7EEA89AB0EEC7
:10400000690A0FF045FAB8F9003007EE903AF8EE79
:10401000E77AE0EE087AFDEEE77A17EE903AADF82F
:104020000430FEF7E5FE0446B0EE690A0FF080FAB0
:10403000B4F90230BDF8002007EE903AF8EEE77AC6
:10404000293AE0EE087A92B240F206218A42FDEE69
:10405000E77A17EE903A1BB2ADF806303FF65DAF47
:10406000BDF80210BDF80420293989B240F296301B
:10407000293A814292B23FF654AF40F206218A4279
:104080003FF645AF293B9BB240F2963293423FF652
:104090003EAF01A96846FEF7F3FF01283FF437AFB2
:1040A00001A8FFF735F801233B7065E6A043002027
:1040B00000080020409B0108309B010820390020A7
:1040C0004E0800202C390020DB0F4940000034430B
:1040D000000020420000000000000000000000007E
:1040E00010B50A4C0A4B22680A4884B04FF45E713E
:1040F000039200220092412206F0EAFB039A236811
:104100009A4201D104B010BDFDF762FA0008002008
:10411000313D0008303900200000000000000000A0
:1041200030B5104D81682B680F4A83B001930B683E
:1041300023F001030B608168946A03E0936A1B1B00
:10414000C72B09D8086810F00100F7D1019A2B6835
:104150009A4204D103B030BD4FF0FF30F6E7FDF7CF
:1041600037FA00BF00080020A04300200000000034
:1041700030B5184D83B02B68019311F00C0F044635
:104180000AD00378032B13D00622636822709A6842
:104190001AB100212046904763685B688BB1019992
:1041A0002A68914213D1204603B0BDE83040184739
:1041B000FFF7B6FF0622636822709A68002AE8D1EA
:1041C000EBE7019A2B689A4201D103B030BDFDF7AD
:1041D000FFF900BF00080020000000000000000000
:1041E000F0B5284D83B02B68019306F051FE05F021
:1041F0000FFF254B1E69F20715D55A69234C42F073
:1042000001025A612778BB1F012B2AD90522636856
:1042100022701B680BB120469847042F27D0022F2D
:1042200025D003232370B30710D5174A174C5369C1
:1042300043F0020353612378032B1DD063689B680E
:104240000622227013B101211048984705F008FF9B
:10425000019A2B689A4213D103B0BDE8F04007F0F1
:104260001FBE019A2B689A420AD103B0F0BD022307
:104270002370B307EAD5D8E72046FFF751FFDDE703
:10428000FDF7A6F90008002000000550A83C00201A
:1042900030B50B4D0B4C2B6883B02046019300F0DA
:1042A0002FF9019A2B680848084D094921619A4263
:1042B000C4E9025001D103B030BDFDF789F900BF58
:1042C00000080020A83C0020CCA7010800000550F1
:1042D000165502020000000000000000000000006F
:1042E0002DE9F0412F4C0578266882B0012D01960A
:1042F00006D0019A23689A4252D102B0BDE8F081FB
:10430000294DA842F5D10E4690461F46274AE86837
:104310002B460C210AF08CFC002839D1D5E9023259
:10432000126828339360EB681A68042151611B6896
:10433000C3F80C80EB681A6817611B68B6085E60EA
:104340002B694FB343F480232B61E968184A09684D
:104350000B60EB6819680B6843F001030B60536B4B
:1043600043F0010353630B214E200AF041F9D5E9D4
:104370000113DA6842F00102DA60DA6842F0020200
:10438000DA60CA6822F4804222F001021A60B0E7C3
:10439000084805F01DFDC1E723F480232B61D4E715
:1043A000FDF716F900080020A83C00207141000824
:1043B00000380240609B010800000000000000007F
:1043C00030B5184C0378226883B0022B019205D0D7
:1043D000019A23689A4223D103B030BD124B984210
:1043E0000546F5D18168114A0B6823F4804323F018
:1043F00001030B608168CB6823F00F03CB60536B24
:1044000023F0010353634E200AF01AF9019A23683E
:104410009A4205D1E86803B0BDE830400AF070BCAC
:10442000FDF7D6F800080020A83C00200038024024
:1044300000B50F4B0278196883B0022A01910ED1A2
:1044400081680A6842F002020A6081680A6842F4E0
:1044500080420A6081680A6842F001020A60019A9B
:104460001B689A4202D103B05DF804FBFDF7B0F877
:104470000008002000000000000000000000000014
:1044800000B50F4B0278196883B0022A01910ED152
:1044900081680A6822F002020A6081680A6842F4B0
:1044A00080420A6081680A6842F001020A60019A4B
:1044B0001B689A4202D103B05DF804FBFDF788F84F
:1044C00000080020000000000000000000000000C4
:1044D00000B5074B83B01A680192019A1B689A4293
:1044E00004D103B05DF804EBFFF7D2BEFDF770F81E
:1044F0000008002000000000000000000000000094
:1045000000B5084B83B01A68019201220270019A2B
:104510001B6800219A42416002D103B05DF804FBA0
:10452000FDF756F800080020000000000000000021
:104530002DE9F043254D83B02C680194DDF82890D7
:104540000F4616469846044618B111B1204B9A42C0
:104550002FD9204805F03CFC202383F3118806F076
:10456000CFFC05F0D5FC2378012B02D0194805F0CB
:104570002FFC4246314620464B466760FFF7B0FEAF
:104580000223237005F0E4FC06F0D2FC124B1A68FB
:104590009A4204D0996993688A689A420FD300239B
:1045A00083F31188019A2B689A420CD103B0BDE8BD
:1045B000F0839307CDD1B8F1000FCDD1C9E70748FB
:1045C00005F006FCEBE7FDF703F800BF000800204C
:1045D000FCFF0300909B0108A0430020809B010882
:1045E00030B51C4D83B02B680193044658B320238B
:1045F00083F3118806F084FC05F08AFC2378022BF3
:1046000002D0154805F0E4FB2046FFF7D9FE012350
:10461000237005F09DFC06F08BFC104B1A689A4243
:1046200004D0996993688A689A4208D3002383F377
:104630001188019A2B689A4209D103B030BD08480D
:1046400005F0C6FBF2E7044805F0C2FBCFE7FCF734
:10465000BFFF00BF00080020A09B0108A04300206E
:10466000809B010800000000000000000000000026
:1046700030B51C4D83B02B680193044658B32023FA
:1046800083F3118806F03CFC05F042FC2378022BF2
:1046900002D0154805F09CFB2046FFF7C9FE042315
:1046A000237005F055FC06F043FC104B1A689A4243
:1046B00004D0996993688A689A4208D3002383F3E7
:1046C0001188019A2B689A4209D103B030BD08487D
:1046D00005F07EFBF2E7044805F07AFBCFE7FCF734
:1046E00077FF00BF00080020B09B0108A043002016
:1046F000809B010800000000000000000000000096
:1047000030B51C4D83B02B680193044658B3202369
:1047100083F3118806F0F4FB05F0FAFB2378022BF3
:1047200002D0154805F054FB2046FFF7A9FE0323ED
:10473000237005F00DFC06F0FBFB104B1A689A4243
:1047400004D0996993688A689A4208D3002383F356
:104750001188019A2B689A4209D103B030BD0848EC
:1047600005F036FBF2E7044805F032FBCFE7FCF733
:104770002FFF00BF00080020D09B0108A0430020AD
:10478000809B010800000000000000000000000005
:1047900000B5064B83B01A680192019A1B689A42D1
:1047A00002D103B05DF804FBFCF712FF0008002003
:1047B00000B5064B83B01A680192019A1B689A42B1
:1047C00002D103B05DF804FBFCF702FF00080020F3
:1047D00010B5104C104B226882B0019201221A7061
:1047E000202383F3118806F0BBFB05F0D1FB0B48B7
:1047F00006F0BEFE05F0ECFB06F0CAFB002383F3D7
:104800001188019A23689A4201D102B010BDFCF7C9
:10481000DFFE00BF00080020C83C00205008002038
:1048200030B50E4D0E4C2B6883B00193FFF750FE50
:10483000206808B111F0ECFB4FF4964011F0E0FB5A
:1048400001992A682060B0FA80F35B099142C3F1B4
:10485000000001D103B030BDFCF7BAFE0008002013
:10486000C03C00200000000000000000000000002C
:1048700030B5174D174C2B78226885B0012B039269
:1048800020D000F055FC144B1B78ABB9B0F5964F17
:1048900015D8124A124B12681B6812490092024640
:1048A0001148FFF745FE01232B700020039A23686F
:1048B0009A420BD105B030BDB0F5165FE9D94FF083
:1048C000FF30F3E70848FFF78BFEDAE7FCF780FEDE
:1048D000BD3C002000080020BE3C0020C43C00205D
:1048E000C03C0020E09B0108A83C00200000000024
:1048F00010B50B4C0B48236882B0019306F000FD05
:10490000094806F0DDFE019A23689A4205D1054860
:1049100002B0BDE8104006F02BBDFCF759FE00BF09
:104920000008002058080020500800200000000067
:1049300030B5154D154C164B2268286883B001928E
:1049400001221A7008B111F063FB4FF4165011F0F8
:1049500057FB286098B10F4D286808B111F058FB3B
:104960004FF4165011F04CFBB0FA80F35B0928604D
:104970005842019A23689A4204D103B030BD4FF0E7
:10498000FF30F6E7FCF724FEC03C002000080020C2
:10499000BE3C0020C43C00200000000000000000DD
:1049A00000B5074B07491A68087083B00192019A55
:1049B0001B689A4202D103B05DF804FBFCF708FEC5
:1049C00000080020BC3C00200000000000000000A7
:1049D00000B50D4A0D4B1278196883B0019142B1B0
:1049E0000B4AD26812681268120302D4094A10688E
:1049F00001E0094A1068019A1B689A4202D103B08B
:104A00005DF804FBFCF7E4FDBE3C0020000800203C
:104A1000A83C0020C43C0020C03C00200000000056
:104A200000B50E4A0E4B1278196883B001914AB155
:104A3000019A1B689A420FD10A4803B05DF804EB53
:104A4000FFF75EBE019A1B689A4205D1054803B084
:104A50005DF804EBFFF70CBEFCF7BAFDBC3C002090
:104A600000080020A83C002000000000000000001A
:104A700070B5274D82B02B680193064601220321B1
:104A80006E2000F035FC044630B1019A2B689A4242
:104A900020463AD102B070BD32464E216E2000F061
:104AA00027FC04460028F0D1442E07D00246B72147
:104AB0006E2000F01DFCB8B10446E6E70122B721E4
:104AC0006E2000F015FC0028F6D1224603216E204E
:104AD00000F00EFC0028EFD1032211216E2000F01F
:104AE00007FC78B10446D0E7224603216E2000F08F
:104AF000FFFB0028E0D10A2211216E2000F0F8FB14
:104B00000028D9D1034B1E71BFE7FCF761FD00BF40
:104B100000080020CC3C0020000000000000000045
:104B20002DE9F04F8FB0DFF80084DDF860C0D8F8D1
:104B300000400D940CF1FF355C1EB3F5207F9DF80D
:104B400064909DF868B00C44154400F21282BCF5E4
:104B5000F07F00F20E82B1F5207F0E4600F2128245
:104B6000B2F5F07F174600F21082A14280F0048275
:104B7000B4F5207F00F20082AA4280F00082B5F5F1
:104B8000F07F00F2FC81B9F1400F824600F0B08165
:104B9000B9F1800F23D0B9F1200F00F09C810023E0
:104BA000CDE90033BBF1400F2FD0BBF1800F00F0F7
:104BB000CB81BBF1200F00F0B9810023CDE9023396
:104BC000002203216E2000F093FBA0B30D9AD8F8C9
:104BD00000309A4240F0E2810FB0BDE8F08F9A07B2
:104BE00040F0D681CC4A8C085900661CA2FB01011A
:104BF000A2FB030204EB930406EBD2030093BBF188
:104C0000400F06EBD1030193CFD11CF0010F40F010
:104C1000C281C14B7D084FEA4C026F1CA3FB0212FC
:104C2000A3FB0C1307EB9303029307EB920305EB33
:104C30005C050393C4E702465B216E2000F058FB3D
:104C40000028C3D15046FFF713FF0028BED102460B
:104C500003216E2000F04CFB0028B7D1C6F30723D8
:104C60001A4608216E20049300F042FB0028ADD1C3
:104C7000F3B21A4609216E20059300F039FB002893
:104C8000A4D1C7F307231A460A216E20069300F029
:104C90002FFB00289AD1FBB21A460B216E200793F6
:104CA00000F026FB002891D1C4F307231A460C21FB
:104CB0006E20089300F01CFB002887D1E3B21A464F
:104CC0000D216E20099300F013FB00287FF47EAFC6
:104CD000C5F307231A460E216E200A9300F008FB45
:104CE00000287FF473AFEBB21A460F216E200B93AE
:104CF00000F0FEFA00287FF469AF049A35216E2097
:104D000000F0F6FA00287FF461AF059A36216E2094
:104D100000F0EEFA00287FF459AF089A37216E2090
:104D200000F0E6FA00287FF451AF099A38216E208E
:104D300000F0DEFA00287FF449AF069A39216E2090
:104D400000F0D6FA00287FF441AF079A3A216E208E
:104D500000F0CEFA00287FF439AF0A9A3B216E208A
:104D600000F0C6FA00287FF431AF0B9A3C216E2088
:104D700000F0BEFA00287FF429AF009B3D21C3F369
:104D800007226E2000F0B4FA00287FF41FAF9DF8D0
:104D900000203E216E2000F0ABFA00287FF416AF11
:104DA000019B3F21C3F307226E2000F0A1FA0028E7
:104DB0007FF40CAF9DF8042040216E2000F098FA9B
:104DC00000287FF403AF029B4121C3F307226E202A
:104DD00000F08EFA00287FF4F9AE9DF808204221F9
:104DE0006E2000F085FA00287FF4F0AE039B43218B
:104DF000C3F307226E2000F07BFA00287FF4E6AEB2
:104E00009DF80C2044216E2000F072FA00287FF4F7
:104E1000DDAE012203216E2000F06AFA00287FF443
:104E2000D5AE4A4693216E2000F062FA00287FF446
:104E3000CDAE5A4694216E2000F05AFA00287FF435
:104E4000C5AE012203216E2000F052FA00287FF443
:104E5000BDAE0134A31B07EE103ADFED307AB8EE99
:104E6000477ABAF1440F77EEC77A00F09980B0EE36
:104E7000006AF2EE006AE7EE066A77EEA77AB0EE15
:104E8000667A67EE877ADFED266A87EEA67AFCEE11
:104E9000C77ACDED007A009B9521C3F307226E20DF
:104EA00000F026FA00287FF491AE9DF800209621AC
:104EB0006E2000F01DFA00287FF488AE194B0135F2
:104EC000EF1BA41B5F801C8083F804A083F805906F
:104ED00083F806B07AE610495A00A1FB030306EBFB
:104EE0005303A1FB0212009306EB5203019359E610
:104EF000D9074DD4084A74085900661CA2FB010169
:104F0000A2FB030204EB530406EB9203009306EBAF
:104F10009103019346E600BFABAAAAAA000022446F
:104F20000000A344CC3C002000080020244A4FEAA3
:104F30004C03A2FB0C1CA2FB032307EB530307EB60
:104F40005C02029203933BE61CF0030F23D11C4B3F
:104F5000BD084FEA4C026F1CA3FB0212A3FB0C130B
:104F600007EBD303029307EBD20305EB9C050393F6
:104F700026E66FF0070029E66FF0030026E66FF0E3
:104F8000040023E66FF0010020E66FF002001DE64A
:104F90006FF005001AE66FF0060017E6FCF718FB45
:104FA000F2EE006A37EE267ADFED066A67EE277AC0
:104FB00087EEA67AFCEEC77ACDED007A6BE700BFEC
:104FC000ABAAAAAA000024440000000000000000D0
:104FD00010B5114C86B02368059300F001F90F4914
:104FE0000F4807F055FC012200210D4807F0E8FCAE
:104FF00020237822CDE901330092A023B422F021AE
:105000000220FFF78DFD059A23689A4201D106B070
:1050100010BDFCF7DDFA00BF00080020F09B01087E
:10502000A851002000000000000000000000000067
:1050300030B50E4C83B0236801930122054603214D
:105040006E2000F055F9019A236818B19A420BD1ED
:1050500003B030BD9A4207D12A469D216E2003B08D
:10506000BDE8304000F044B9FCF7B2FA0008002077
:1050700030B5164C83B02368019305460023022205
:1050800003216E208DF8033000F032F928B1019A27
:1050900023689A4218D103B030BD0DF103020421F8
:1050A0006E2000F0D5F80028F1D19DF80320012DE5
:1050B0000CBF02F0FB0242F0040204216E208DF8C6
:1050C000032000F015F9E2E7FCF782FA000800205F
:1050D00030B5164C83B023680193054600230222A5
:1050E00003216E208DF8033000F002F928B1019AF7
:1050F00023689A4218D103B030BD0DF10302042198
:105100006E2000F0A5F80028F1D19DF80320012DB4
:105110000CBF02F0FC0242F0030204216E208DF865
:10512000032000F0E5F8E2E7FCF752FA000800205F
:1051300010B50A4B0A4A1988146858881B7982B03E
:10514000442B019400FB01F00199136818BF400043
:10515000994201D102B010BDFCF73AFACC3C0020D4
:105160000008002000000000000000000000000017
:1051700070B5164E16483368154D82B005224FF4AF
:10518000807101930BF07CFB20246B6983F48073A6
:105190006B61012005F0F4FB631E13F0FF04F4D1F2
:1051A0004FF4807140F20622298309480BF068FB16
:1051B000019A33689A4206D10649074802B0BDE811
:1051C000704007F0ADB9FCF703FA00BF00080020FB
:1051D00000040240309C0108204E00200000000026
:1051E00000B50C4A0C4B1278196883B0012A019162
:1051F000019A1B6804D09A4209D103B05DF804FB00
:105200009A4204D103B05DF804EBFFF7B1BFFCF79D
:10521000DFF900BF204E0020000800200000000041
:1052200000B5084B83B01A680192019A1B689A4234
:1052300005D1054803B05DF804EB07F0B9B9FCF7F8
:10524000C7F900BF00080020204E00200000000029
:105250002DE9F041224C234E88B0002335688DF8AB
:105260001830804620468DF814101746079507F031
:105270006FFA2378012B0CD00420012306AACDE974
:1052800001300092414605AA204607F0F1F9054693
:1052900068B9134807F07CFA9DF818303B7000207D
:1052A000079A33689A4218D108B0BDE8F0812046C9
:1052B00007F0C6F923780C4A052B106004D0084883
:1052C00007F066FA68B2EBE7204607F071F9237839
:1052D000012BF4D1FFF74CFFF1E7FCF779F900BFA0
:1052E000204E002000080020D43C002000000000D8
:1052F000F0B5214C214E89B033680793074600254D
:1053000020468DF818108DF819208DF8145007F0EC
:105310001FFA2378012B0CD0042205AB01950292D1
:1053200000933946022306AA204607F0A1F9054654
:1053300048B9114807F02CFA0020079A33689A42BE
:1053400017D109B0F0BD204607F07AF923780C4A4E
:10535000052B106004D0084807F01AFA68B2ECE791
:10536000204607F025F92378012BF4D1FFF700FF41
:10537000F1E7FCF72DF900BF204E002000080020C7
:10538000D43C0020000000000000000000000000ED
:105390002DE9F043254E83B034680194042A9DF82A
:1053A0002890144605460F46984639D9B9F1000FA2
:1053B00014BF00224FF08052640002EB0863013CEE
:1053C0001C4405F00F0527F01F07202383F31188E5
:1053D00005F096FD3D4304F09BFD154B1035DD6057
:1053E0001C6104F0B5FD05F0A3FD124B1A689A424A
:1053F00004D0996993688A689A420DD3002383F395
:105400001188BFF36F8FBFF34F8F019A33689A42B1
:105410000AD103B0BDE8F083074804F0D9FCEDE7FA
:10542000064804F0D5FCC1E7FCF7D2F800080020DC
:1054300090ED00E0A0430020C09C0108A09C010862
:1054400030B5224D224C2B68224A85B00393636805
:1054500043F004036360536A43F4803353622023B0
:1054600083F3118805F04CFD04F052FD17221A4B0E
:10547000E260236104F06CFD05F05AFD174B1A68D9
:105480009A4204D0996993688A689A4218D3002096
:1054900080F31188BFF36F8FBFF34F8F03231D225B
:1054A00000904FF00051FFF773FF094A536843F033
:1054B00001035360039A2B689A4205D105B030BDB1
:1054C000074804F085FCE2E7FCF782F800080020BA
:1054D00090ED00E000ED00E009000010A043002086
:1054E000C09C010800000000000000000000000057
:1054F00070B51A4D1A4C1B4E0FCD0FC49EB02A68C2
:10550000336822801D93EFF30981682203A8FBF71B
:105510008FFD154B9D6AAA0714D4EB0708D5124BD3
:1055200008995B6B114A00910D48802111F088F8B1
:105530001D9A33689A420FD109481EB0BDE87040E9
:1055400004F046BC099A5B6B0092A4F11000084A73
:10555000802111F075F8E0E7FCF73AF8849C010827
:10556000D83C00200008002000ED00E0609C01080D
:10557000409C010800000000000000000000000046
:1055800000B51F4B0278196883B00191E2B11D4A42
:105590004FF4005111834278EAB11A4A4FF4805116
:1055A00011838278F2B1174A4FF480411183C27897
:1055B000FAB9144A4FF400415183019A1B689A4288
:1055C0001CD103B05DF804FB0E4A4FF40051518327
:1055D0004278002AE1D10B4A4FF4805151838278FE
:1055E000002AE0D1074A4FF480415183C278002A53
:1055F000DFD0044A4FF400411183DEE7FBF7E8FFF8
:105600000008002000100240000000000000000020
:1056100000B51F4B0278196883B00191E2B11D4AB1
:105620004FF4007111834278EAB11A4A4FF4807145
:1056300011838278F2B1174A4FF400611183C27866
:10564000FAB9144A4FF480615183019A1B689A4257
:105650001CD103B05DF804FB0E4A4FF40071518376
:105660004278002AE1D10B4A4FF48071518382784D
:10567000002AE0D1074A4FF400615183C278002A22
:10568000DFD0044A4FF480611183DEE7FBF7A0FF0F
:105690000008002000100240000000000000000090
:1056A00030B50C4A0C4B116883B04FF40055019192
:1056B0004FF480544FF400414FF480405D835C838D
:1056C0005883598301991368994201D103B030BDC1
:1056D000FBF77EFF000800200010024000000000E1
:1056E00030B50C4A0C4B116883B04FF40075019132
:1056F0004FF480744FF480614FF400605D835C83ED
:105700005883598301991368994201D103B030BD80
:10571000FBF75EFF000800200010024000000000C0
:1057200010B50B4C0B48236882B0992200210193DD
:1057300007F046F9019A23689A4206D105480021EC
:1057400002B0BDE8104007F023BAFBF741FF00BFED
:105750000008002070510020000000000000000040
:1057600010B50B4C0B48236882B09922002101939D
:1057700007F026F9019A23689A4206D105480021CC
:1057800002B0BDE8104007F003BAFBF721FF00BFED
:10579000000800208C5100200000000000000000E4
:1057A00000B5084B83B01A680192019A1B689A42AF
:1057B00006D10548002103B05DF804EB07F050B9AD
:1057C000FBF706FF000800207051002000000000D9
:1057D00000B5084B83B01A680192019A1B689A427F
:1057E00006D10548002103B05DF804EB07F038B995
:1057F000FBF7EEFE000800208C51002000000000A6
:1058000070B51A4C1A4E2378326882B0022B01927E
:10581000A26811D165781748013505F0070500EB3E
:105820008500904763686570013B6360019A336847
:105830009A4219D102B070BD012B08D0019933688A
:10584000994211D10C4802B0BDE87040104765780C
:105850000848013D05F0070500EB850090476368A7
:10586000657001336360E1E7FBF7B2FE703D002035
:1058700000080020609D0108509D01080000000004
:1058800070B51A4C1A4E2378326882B0012B0192FF
:10589000A26811D165781748013505F0070500EBBE
:1058A000850090476368657001336360019A3368CF
:1058B0009A4219D102B070BD022B08D00199336809
:1058C000994211D10C4802B0BDE87040104765788C
:1058D0000848013D05F0070500EB85009047636827
:1058E0006570013B6360E1E7FBF772FE583D002005
:1058F00000080020609D0108509D01080000000084
:1059000030B51F4D85B02B68039340F24C4399424C
:10591000044626DCA3F69803994211DB4B00002BCA
:1059200029D10370036998474FF47A71039A2B6861
:105930009A421ED1606905B0BDE8304006F0F8BF5C
:10594000104B02225B42227040F2892293420E49A0
:1059500091FBF3F189B207DC0191E3689847019963
:10596000E4E7012303702D210191236998470199F0
:10597000DCE7FBF72DFEE4DD01220270E4E700BF67
:105980000008002068F7FFFFA0860100000000006B
:1059900000B5084B83B01A680192019A1B689A42BD
:1059A00006D10146044803B05DF804EBFFF7A8BF39
:1059B000FBF70EFE00080020583D0020000000000C
:1059C00000B5084B83B01A680192019A1B689A428D
:1059D00006D10146044803B05DF804EBFFF790BF21
:1059E000FBF7F6FD00080020703D002000000000DD
:1059F00000B5094B094A1968506883B000EBD070B4
:105A00000191019A1B689A4203D1401003B05DF8DE
:105A100004FBFBF7DDFD00BF00080020583D00201F
:105A200000B5094B094A1968506883B000EBD07083
:105A30000191019A1B689A4203D1401003B05DF8AE
:105A400004FBFBF7C5FD00BF00080020703D0020EF
:105A500000B5084B08491A6883B040000192019ACA
:105A60001B6848609A4202D103B05DF804FBFBF763
:105A7000AFFD00BF00080020583D002000000000DE
:105A800000B5084B08491A6883B040000192019A9A
:105A90001B6848609A4202D103B05DF804FBFBF733
:105AA00097FD00BF00080020703D002000000000AE
:105AB00070B51D4E1D4A1E4B30681E491E4C91602C
:105AC00082B00021D46001901C4C1D481D4D9D608A
:105AD000117051705160106154611B481B4A1C4D7C
