:020000040800F2
:1000000000040020C1010008D18C0008D18C000838
:10001000F1440008D18C0008D18C0008D18C000874
:10002000D18C0008D18C0008D18C000861AE00088A
:10003000D18C0008D18C0008D18C0008B1170108C0
:10004000D18C000831E70008C1E8000811E9000878
:10005000D18C0008D18C000871E40008C1E40008CC
:1000600011E5000861E50008B1E50008C1D6000807
:1000700011D7000861D70008B1D7000801D80008DF
:1000800051D80008A1D80008B1E10008B1EA000881
:1000900021EB0008D1EB000881EC000801E6000824
:1000A000D18C0008D18C000861120108D18C0008A5
:1000B00071130108B1130108F113010841FA000896
:1000C00081FB0008D18C0008D18C0008D18C00087D
:1000D000D18C0008D18C0008D18C0008711801085F
:1000E00091E6000881E70008D1E70008D18C0008FC
:1000F000D18C0008D18C0008D18C0008F1D8000800
:10010000D18C000811EE000831140108D18C0008D0
:10011000D18C0008D18C000821120108D18C000874
:1001200041D9000891D90008E1D9000831DA000866
:1001300081DA0008D18C000821E80008D18C000881
:10014000D18C0008D18C0008D18C0008610E010808
:10015000D1DA000821DB000871DB0008D18C00082F
:10016000D18C0008D18C0008D18C0008D18C0008FB
:1001700071E80008D18C0008E1310008D18C00083A
:10018000D18C0008D18C0008D18C0008D18C0008DB
:10019000D18C0008D18C0008D18C0008D18C0008CB
:1001A000D18C0008D18C0008D18C0008D18C0008BB
:1001B000D18C0008D18C0008D18C0008D18C0008AB
:1001C00072B62E4880F3098840F20000CCF200009D
:1001D0004EF63471CEF20001086040F20000C0F229
:1001E000F0004EF68851CEF2000108604FF000009A
:1001F000E1EE100A4EF63C71CEF2000108600620D6
:1002000080F31488BFF36F8F11F07AFC4FF05530F4
:100210001B491C4A91423CBF41F8040BFAE71A49BA
:10022000164A91423CBF41F8040BFAE71749184AB5
:10023000184B9A423EBF51F8040B42F8040BF8E702
:1002400000201549154A91423CBF41F8040BFAE7DA
:1002500008F026FD124C134DAC4203DA54F8041B8F
:100260008847F9E701F094F90F4C104DAC4203DADE
:1002700054F8041B8847F9E708F022BD0008002065
:10028000000000200004002000040020488901082C
:1002900000080020F4140020F81400205862002008
:1002A000C0010008C0010008C0010008C00100082A
:1002B0002DE9F04F2DED108AC1F80CD0D0F80CD0FC
:1002C000BDEC108ABDE8F08F08F042FE09F030FE68
:1002D000002383F311882846A047002009F0C8FBBB
:1002E00009F00EFE08F014FE09F032FA08F030FEB4
:1002F00009F01EFE00DFFEE7000000000000000025
:1003000081F0004102E000BF83F0004330B54FEAC6
:1003100041044FEA430594EA050F08BF90EA020F33
:100320001FBF54EA000C55EA020C7FEA645C7FEAC6
:10033000655C00F0E2804FEA5454D4EB5555B8BFE9
:100340006D420CDD2C4480EA020281EA030382EA5A
:10035000000083EA010180EA020281EA0303362DEC
:1003600088BF30BD11F0004F4FEA01314FF4801CBF
:100370004CEA113102D0404261EB410113F0004FD1
:100380004FEA03334CEA133302D0524263EB430388
:1003900094EA050F00F0A780A4F10104D5F1200E26
:1003A0000DDB02FA0EFC22FA05F2801841F1000181
:1003B00003FA0EF2801843FA05F359410EE0A5F155
:1003C00020050EF1200E012A03FA0EFC28BF4CF086
:1003D000020C43FA05F3C01851EBE37101F000453C
:1003E00007D54FF0000EDCF1000C7EEB00006EEB49
:1003F0000101B1F5801F1BD3B1F5001F0CD34908D3
:100400005FEA30004FEA3C0C04F101044FEA445229
:1004100012F5800F80F09A80BCF1004F08BF5FEAB0
:10042000500C50F1000041EB045141EA050130BD90
:100430005FEA4C0C404141EB010111F4801FA4F133
:100440000104E9D191F0000F04BF01460020B1FA88
:1004500081F308BF2033A3F10B03B3F120020CDAC0
:100460000C3208DD02F1140CC2F10C0201FA0CF09E
:1004700021FA02F10CE002F11402D8BFC2F1200C03
:1004800001FA02F120FA0CFCDCBF41EA0C019040B9
:10049000E41AA2BF01EB0451294330BD6FEA040402
:1004A0001F3C1CDA0C340EDC04F11404C4F12002ED
:1004B00020FA04F001FA02F340EA030021FA04F3FF
:1004C00045EA030130BDC4F10C04C4F1200220FA56
:1004D00002F001FA04F340EA0300294630BD21FA94
:1004E00004F0294630BD94F0000F83F4801306BF5A
:1004F00081F480110134013D4EE77FEA645C18BF4E
:100500007FEA655C29D094EA050F08BF90EA020FE4
:1005100005D054EA000C04BF1946104630BD91EADC
:10052000030F1EBF0021002030BD5FEA545C05D1DF
:100530004000494128BF41F0004130BD14F580041E
:100540003CBF01F5801130BD01F0004545F0FE4192
:1005500041F470014FF0000030BD7FEA645C1ABFC7
:10056000194610467FEA655C1CBF0B46024650EAFE
:10057000013406BF52EA033591EA030F41F400212A
:1005800030BD00BF90F0000F04BF0021704730B5B0
:100590004FF4806404F132044FF000054FF0000185
:1005A00050E700BF90F0000F04BF0021704730B546
:1005B0004FF4806404F1320410F0004548BF40421B
:1005C0004FF000013EE700BF42004FEAE2014FEA70
:1005D00031014FEA02701FBF12F07F4393F07F4F4B
:1005E00081F06051704732F07F4208BF704793F04E
:1005F0007F4F04BF41F40021704730B54FF4607461
:1006000001F0004521F000411CE700BF50EA010263
:1006100008BF704730B54FF000050AE050EA01020C
:1006200008BF704730B511F0004502D5404261EB7C
:1006300041014FF4806404F132045FEA915C3FF4BD
:10064000D8AE4FF003025FEADC0C18BF03325FEA5A
:10065000DC0C18BF033202EBDC02C2F1200300FA0B
:1006600003FC20FA02F001FA03FE40EA0E0021FA30
:1006700002F11444BDE600BF0000000000000000CD
:1006800070B54FF0FF0C4CF4E06C1CEA11541DBF28
:100690001CEA135594EA0C0F95EA0C0F00F0DEF8F3
:1006A0002C4481EA030621EA4C5123EA4C5350EAD8
:1006B000013518BF52EA033541F4801143F4801329
:1006C00038D0A0FB02CE4FF00005E1FB02E506F0BA
:1006D0000042E0FB03E54FF00006E1FB03569CF00F
:1006E000000F18BF4EF0010EA4F1FF04B6F5007F15
:1006F00064F5407404D25FEA4E0E6D4146EB060687
:1007000042EAC62141EA55514FEAC52040EA5E500F
:100710004FEACE2EB4F1FD0C88BFBCF5E06F1ED8B9
:10072000BEF1004F08BF5FEA500E50F1000041EBF0
:10073000045170BD06F0004646EA010140EA02009D
:1007400081EA0301B4EB5C04C2BFD4EB0C0541EABF
:10075000045170BD41F480114FF0000E013C00F3D4
:10076000AB8014F1360FDEBF002001F0004170BDF8
:10077000C4F10004203C35DA0C341BDC04F1140411
:10078000C4F1200500FA05F320FA04F001FA05F29D
:1007900040EA020001F0004221F0004110EBD3706A
:1007A00021FA04F642EB06015EEA430E08BF20EA96
:1007B000D37070BDC4F10C04C4F1200500FA04F339
:1007C00020FA05F001FA04F240EA020001F00041CB
:1007D00010EBD37041F100015EEA430E08BF20EA3E
:1007E000D37070BDC4F1200500FA05F24EEA020E86
:1007F00020FA04F301FA05F243EA020321FA04F0B5
:1008000001F0004121FA04F220EA020000EBD3706B
:100810005EEA430E08BF20EAD37070BD94F0000F6B
:100820000FD101F00046400041EB010111F4801F9F
:1008300008BF013CF7D041EA060195F0000F18BF50
:10084000704703F00046520043EB030313F4801F8C
:1008500008BF013DF7D043EA0603704794EA0C0F46
:100860000CEA135518BF95EA0C0F0CD050EA41065C
:1008700018BF52EA4306D1D181EA030101F00041D9
:100880004FF0000070BD50EA410606BF1046194601
:1008900052EA430619D094EA0C0F02D150EA01360D
:1008A00013D195EA0C0F05D152EA03361CBF10464E
:1008B00019460AD181EA030101F0004141F0FE41ED
:1008C00041F470014FF0000070BD41F0FE4141F471
:1008D000780170BD70B54FF0FF0C4CF4E06C1CEA71
:1008E00011541DBF1CEA135594EA0C0F95EA0C0F26
:1008F00000F0A7F8A4EB050481EA030E52EA0335E1
:100900004FEA013100F088804FEA03334FF0805501
:1009100045EA131343EA12634FEA022245EA11152E
:1009200045EA10654FEA00260EF000419D4208BFDF
:10093000964244F1FD0404F5407402D25B084FEA8C
:100940003202B61A65EB03055B084FEA32024FF438
:1009500080104FF4002CB6EB020E75EB030E22BF95
:10096000B61A754640EA0C005B084FEA3202B6EB55
:10097000020E75EB030E22BFB61A754640EA5C0004
:100980005B084FEA3202B6EB020E75EB030E22BF94
:10099000B61A754640EA9C005B084FEA3202B6EB95
:1009A000020E75EB030E22BFB61A754640EADC0054
:1009B00055EA060E18D04FEA051545EA16754FEAB6
:1009C00006164FEAC30343EA52734FEAC2025FEAD4
:1009D0001C1CC0D111F4801F0BD141EA00014FF063
:1009E00000004FF0004CB6E711F4801F04BF014334
:1009F0000020B4F1FD0C88BFBCF5E06F3FF6AFAE50
:100A0000B5EB030C04BFB6EB020C5FEA500C50F1DF
:100A1000000041EB045170BD0EF0004E4EEA113162
:100A200014EB5C04C2BFD4EB0C0541EA045170BD69
:100A300041F480114FF0000E013C90E645EA060EAD
:100A40008DE60CEA135594EA0C0F08BF95EA0C0FDB
:100A50003FF43BAF94EA0C0F0AD150EA01347FF423
:100A600034AF95EA0C0F7FF425AF104619462CE7FA
:100A700095EA0C0F06D152EA03353FF4FDAE10465D
:100A8000194622E750EA410618BF52EA43067FF4AE
:100A9000C5AE50EA41047FF40DAF52EA43057FF43E
:100AA000EBAE12E7000000000000000000000000B4
:100AB0004FF0FF3C06E000BF4FF0010C02E000BF2A
:100AC0004FF0010C4DF804CD4FEA410C7FEA6C5C0D
:100AD0004FEA430C18BF7FEA6C5C1BD001B050EAB0
:100AE000410C0CBF52EA430C91EA030F02BF90EA9B
:100AF000020F0020704710F1000F91EA030F58BF5A
:100B0000994208BF90422CBFD8176FEAE37040F0BB
:100B1000010070474FEA410C7FEA6C5C02D150EA59
:100B2000013C07D14FEA430C7FEA6C5CD6D152EA14
:100B3000033CD3D05DF8040B704700BF84461046D9
:100B400062468C461946634600E000BF01B5FFF7D8
:100B5000B7FF002848BF10F1000F01BD4DF808EDA8
:100B6000FFF7F4FF0CBF012000205DF808FB00BF79
:100B70004DF808EDFFF7EAFF34BF012000205DF8D3
:100B800008FB00BF4DF808EDFFF7E0FF94BF012020
:100B900000205DF808FB00BF4DF808EDFFF7CEFF21
:100BA00094BF012000205DF808FB00BF4DF808ED60
:100BB000FFF7C4FF34BF012000205DF808FB00BF31
:100BC0004FEA410C7FEA6C5C02D150EA013C0AD149
:100BD0004FEA430C7FEA6C5C02D152EA033C02D13B
:100BE0004FF0000070474FF0010070470000000018
:100BF0004FEA410212F5001215D211D56FF4787345
:100C0000B3EB625212D94FEAC12343F0004343EAE7
:100C1000505311F0004F23FA02F018BF40427047C2
:100C20004FF00000704750EA013005D111F000404C
:100C300008BF6FF0004070474FF00000704700BFE2
:100C40004FEA4102B2F1E04324BFB3F5001CDCF1EE
:100C5000FE5C0DD901F0004C4FEAC0024CEA507026
:100C6000B2F1004F40EB830008BF20F00100704755
:100C700011F0804F21D113F13872BCBF01F0004058
:100C8000704741F480114FEA5252C2F11802C2F18A
:100C9000200C10FA0CF320FA02F018BF40F001000B
:100CA0004FEAC1234FEAD32303FA0CFC40EA0C00BD
:100CB00023FA02F34FEA4303CCE77FEA625307D1FA
:100CC00050EA01331EBF4FF0FE4040F44000704731
:100CD00001F0004040F0FE4040F40000704700BFCB
:100CE00053B94AB9002908BF00281CBF4FF0FF3193
:100CF0004FF0FF3000F074B9ADF1080C6DE904CE8F
:100D000000F006F8DDF804E0DDE9022304B07047E6
:100D10002DE9F047089E04468846002B4BD18A42B5
:100D2000154667D9B2FA82F24AB1C2F1200701FA38
:100D300002F320FA07F7954047EA030894404FEA88
:100D4000154E230CB8FBFEF71FFA85FC0EFB178827
:100D500043EA084307FB0CF1994209D9EB1807F164
:100D6000FF3080F01B81994240F21881023F2B44F2
:100D70005B1AA4B2B3FBFEF00EFB103344EA03444B
:100D800000FB0CFCA44509D92C1900F1FF3380F0BD
:100D90000781A44540F2048102382C4440EA074010
:100DA000A4EB0C0400271EB1D4400023C6E9004385
:100DB0003946BDE8F0878B4209D9002E00F0EB8060
:100DC0000027C6E9000138463946BDE8F087B3FA86
:100DD00083F7002F47D18B4202D3824200F2FA8080
:100DE000841A61EB030301209846002EE0D0C6E987
:100DF0000048DDE702B9FFDEB2FA82F2002A40F0D5
:100E00008F80491B4FEA154E1FFA85F80127B1FB69
:100E1000FEFC230C0EFB1C1143EA014308FB0CF102
:100E2000994207D9EB180CF1FF3002D2994200F237
:100E3000CD808446591AA3B2B1FBFEF00EFB10140C
:100E400043EA044408FB00F8A04507D92C1900F137
:100E5000FF3302D2A04500F2B6801846A4EB080486
:100E600040EA0C409FE7C7F1200CBB4022FA0CFE81
:100E70004EEA030E01FA07F420FA0CF521FA0CF3FE
:100E80004FEA1E482543B3FBF8F92C0C08FB193335
:100E90001FFA8EFA44EA034309FB0AF49C4202FA61
:100EA00007F200FA07F10BD91EEB030309F1FF303B
:100EB00080F087809C4240F28480A9F1020973444B
:100EC0001B1BADB2B3FBF8F008FB103345EA03443B
:100ED00000FB0AFAA24508D91EEB040400F1FF3317
:100EE0006BD2A24569D90238744440EA0940A0FB9C
:100EF0000289A4EB0A044C45C2464B4654D351D058
:100F0000002E69D0B1EB0A0564EB030404FA0CFC73
:100F1000FD40FC404CEA0505C6E90054002747E7C0
:100F2000C2F1200320FA03F7954001FA02F021FAFA
:100F300003F34FEA154E3843010CB3FBFEF71FFADB
:100F400085F80EFB173341EA034107FB08F38B4298
:100F500004FA02F407D9691807F1FF3C2FD28B423B
:100F60002DD9023F2944CB1A81B2B3FBFEF00EFB10
:100F7000103341EA034100FB08F38B4207D969189B
:100F800000F1FF3C17D28B4215D902382944C91A07
:100F900040EA07473BE73746304609E70746E7E6BA
:100FA0001846FBE64145ABD2B8EB020A69EB0E02EC
:100FB00001381346A4E76046E9E7184695E7674617
:100FC000D1E781467CE702382C4447E7ACF1020CBC
:100FD0002B442FE7384608E73746E9E600000000D3
:100FE000704700BF0000000000000000000000008B
:100FF000844641EA000313F003036DD1403A41D324
:1010000051F8043B40F8043B51F8043B40F8043BE2
:1010100051F8043B40F8043B51F8043B40F8043BD2
:1010200051F8043B40F8043B51F8043B40F8043BC2
:1010300051F8043B40F8043B51F8043B40F8043BB2
:1010400051F8043B40F8043B51F8043B40F8043BA2
:1010500051F8043B40F8043B51F8043B40F8043B92
:1010600051F8043B40F8043B51F8043B40F8043B82
:1010700051F8043B40F8043B51F8043B40F8043B72
:10108000403ABDD2303211D351F8043B40F8043B12
:1010900051F8043B40F8043B51F8043B40F8043B52
:1010A00051F8043B40F8043B103AEDD20C3205D322
:1010B00051F8043B40F8043B043AF9D2043208D01A
:1010C000D2071CBF11F8013B00F8013B01D30B888C
:1010D00003806046704700BF082A13D38B078DD06A
:1010E00010F003038AD0C3F10403D21ADB071CBF3C
:1010F00011F8013B00F8013B80D331F8023B20F8A6
:10110000023B7BE7043AD9D3013A11F8013B00F8DE
:10111000013BF9D20B7803704B7843708B78837066
:101120006046704700000000000000000000000062
:10113000A2EB0300704700BF02780B78012A28BF9A
:101140009A42F5D16DE9044540EA0104CDE9026710
:101150006FF0000C4FEA447212B380EA010414F0FD
:10116000070F6AD100F0070420F0070004F0030520
:1011700021F007014FEAC505F0E8042314F0040F3D
:10118000F1E804670CFA05F462EA040266EA040670
:101190000AD063EA0403624667EA0407664603E08E
:1011A000F0E80423F1E8046782FA4CF582EA0604C9
:1011B000A4FA8CF46CBB83FA4CF583EA0705A5FA14
:1011C0008CF595B950E9022351E9026782FA4CF592
:1011D00082EA0604A4FA8CF483FA4CF583EA070544
:1011E000A5FA8CF52543DBD09CB92DBAB5FA85F468
:1011F00024F0070427FA04F1DDE9026723FA04F377
:1012000003F0FF0001F0FF01FDE80445A0EB010041
:10121000704724BAB4FA84F424F0070426FA04F1DF
:10122000DDE9026722FA04F202F0FF0001F0FF019B
:10123000FDE80445A0EB0100704714F0030F3CD11A
:1012400010F0030428D150F8082B51F8083B82FA1B
:101250004CF582EA0305A5FA8CF55DB950F8042C2B
:1012600051F8043C82FA4CF582EA0305A5FA8CF5A4
:10127000002DE8D02DBAB5FA85F424F0070423FA3E
:1012800004F122FA04F202F0FF0001F0FF01FDE890
:101290000445A0EB010070474FEAC40420F00300AE
:1012A00050F8082B21F0030151F8083B0CFA04F424
:1012B00062EA040263EA0403C9E710F003041AD0E7
:1012C000A1EB040120F00300E40750F8042B06D042
:1012D0000FD28B785FFAA2F4E41A06D12BB1CB7847
:1012E0005FFAB2F4E41A00D11BB920465DF8104B46
:1012F000704701F1040150F8042BCC0721F00301E1
:1013000051F8043B48D824D222F07F4482FA4CF5AD
:1013100094EA1325A5FA8CF50AD165B951F8043B76
:1013200084EA0204B4EB036F0ED150F8042BEBE710
:101330004FEA132355E035F07F454DD10878FDE89D
:101340000445C0F1000070474FEA126203F0FF034A
:1013500047E002EA1C4482FA4CF594EA1345A5FAE8
:101360008CF50AD165B951F8043B84EA0204B4EB68
:10137000034F0CD150F8042BEBE74FEA134330E056
:1013800015EA1C4528D10B884FEA124229E04FEAA2
:10139000124203EA1C4324E002F0FF0482FA4CF5F7
:1013A00094EA1365A5FA8CF50AD165B951F8043BA6
:1013B00084EA0204B4EB032F09D150F8042BEBE7C5
:1013C0004FEA13630DE015F0FF0F05D10B684FEAEC
:1013D000122223F07F4304E04FF00000FDE80445B3
:1013E000704712BA1BBA82FA4CF482EA0304A4FAD8
:1013F0008CF5B5FA85F402FA04F203FA04F34FEA25
:101400001260FDE80445A0EB136070470000000087
:1014100090F800F06DE9024520F007016FF0000C34
:1014200010F0070491F820F040F049804FF00004DC
:101430006FF00700D1E9002391F840F000F10800B7
:1014400082FA4CF2A4FA8CF283FA4CF3A2FA8CF3EF
:101450004BBBD1E9022382FA4CF200F10800A4FA56
:101460008CF283FA4CF3A2FA8CF3E3B9D1E90423AA
:1014700082FA4CF200F10800A4FA8CF283FA4CF3E1
:10148000A2FA8CF37BB9D1E9062301F1200182FA9B
:101490004CF200F10800A4FA8CF283FA4CF3A2FAA1
:1014A0008CF3002BC6D0002A04BF04301A4612BAAF
:1014B000B2FA82F2FDE8024500EBD2007047D1E9B2
:1014C000002304F00305C4F100004FEAC50514F041
:1014D000040F91F840F00CFA05F562EA05021CBF12
:1014E00063EA050362464FF00004A9E7000000002C
:1014F00001F0FF01102A2BDB10F0070F08D010F8C5
:10150000013B013A8B422DD010F0070F42B3F6D1C8
:10151000F0B441EA012141EA014122F007047FF0E1
:1015200000070023F0E80256083C85EA010586EA38
:10153000010685FA47F5A3FA87F586FA47F6A5FA74
:1015400087F68EB9EED1F0BC01F0FF0102F0070280
:1015500032B110F8013B013A83EA010313B1F8D12B
:101560000020704701387047002D06BF354603380C
:10157000073815F0010F07D1013015F4807F02BF45
:10158000013015F4C03F0130F0BC0138704700BF96
:1015900000B5194B83B01B68019309F0C1FC07F03B
:1015A000AFFB02F04DFF154A1549164807F078FACF
:1015B000154916480AF0D4FF03F08AFD02F030F90D
:1015C00002F006FD03F074FA03F08AFC00F048FB19
:1015D00001F04EFB00F0B4FC01F0F2FA00F0B8FDAF
:1015E00001F07EFD02A80A4B40F8083D00F040FEE5
:1015F0001E2008F0C5F9FBE70008002004080020C1
:101600000C0800200849002020080020AC610020C0
:101610009001C80000000000000000000000000071
:1016200000B5084B83B01A680192019A1B689A4270
:1016300005D1054803B05DF804EB07F0C9BBFFF71F
:10164000EFFF00BF0008002000720108000000004A
:1016500080B5274C274AA3692749996186B003239F
:101660002025002116680093EF224FF42073CDE966
:1016700001554420059602F053FA2D2002F0D8FCC3
:10168000002002F025FD1D4E1D4F002002F0F0FC51
:1016900002F04EF9002002F083F9B04602F0E8F8BB
:1016A00013E008F02DF807F053FC08F041FC236824
:1016B000A34207D0A2699B6892689A4202D2384638
:1016C00007F086FB002383F3118802F0A9F902F0EA
:1016D0000FF985F3118808F013FC07F019FC07F0E7
:1016E000E7FCB368002BDCDC404608F0E1FCD8E7FF
:1016F00088530020000800202072010830080020D4
:10170000407201080000000000000000000000001E
:101710002DE9F04F2B4D04782D680C7044784C70F7
:1017200087B090F87F420595002581F87F42CDE98A
:10173000015290F87E42DFF89080039381F87E4258
:1017400001F1010C00F5F06BAA4602270CF801AF7D
:101750001FFA87F9C6190BEB070E002316F8024C87
:1017600016F8012C3578B178224474782A44224442
:101770000A44A8FB021203EBD20306F52076DBB283
:10178000B6458CF80030E9D10A2B06D8019B93B9F5
:10179000029BA3F8009001230193013740F27E23BE
:1017A0009F42D3D1074B059A1B6801989A4206D1F4
:1017B00007B0BDE8F08F039BA3F80090EDE7FFF7BB
:1017C0002FFF00BF000800208988888800000000E3
:1017D000F0B51F4D0C882B6883B0092C019313D9E9
:1017E0001C4F06192744737816F801CDA3EB0C03A0
:1017F00003EBD3735B1007F8013901330C8003DB73
:10180000013CA4B2012CEED1118840F2752399421B
:1018100015D8104C08440C4440F27F2710F8013FC3
:1018200010F8026C9B1B03EBD3735B10012B04F8C5
:10183000013B118003DC013189B2B942EED1019A3A
:101840002B689A4201D103B0F0BDFFF7E9FE00BF5B
:10185000000800200C15002000000000000000001F
:101860002DE9F04F2DED0A8BC94E83B033680193FB
:101870000A2807460C46A1EB000303D9B1F51D7FEA
:1018800040F26E81C34A0121117007EE903ADFEDFC
:10189000C2AA9FEDC27A9FEDC2AADFEDC29A9FED68
:1018A000C2BADFF82C83C14DF8EEE77AB6EE009AA3
:1018B00067EEAA7A3C4487EE870A20EE090A10F008
:1018C00077FD07EE904A9FEDBA6ADFEDBA6AF8EE4F
:1018D000E77AC6EE80BA87EE867A39EE479A00F04C
:1018E0005FFCB0F9003008EE903A00F081FC07EEA2
:1018F000900AB8EEE70AF8EEE88A20EE0A0A80EECF
:10190000290A10F005FDE0EE0B8A00F071FC07EEED
:10191000900AF8EEE77A67EE8A7A87EEA90AA9EECE
:101920002A0A10F0F5FCB0EE40CA00F039FCB0F91C
:10193000023008EE103A00F05BFC07EE900AB8EEB9
:10194000E70AB8EEC88A20EE0A0A80EE290A10F0EB
:101950002FFDA0EE0B8A00F04BFC07EE900AF8EE8C
:10196000E77A27EE8AAA8AEE290AA9EE2A0A10F057
:101970001FFDF0EE687AEBEE8C7AB8F90030B5F91D
:101980000070DFED8D5A9FED8D6AABEE808AFDEE23
:10199000E77A06EE903A17EE902AB8F90230BDEEDB
:1019A000C88A12B207EE103A07EE902A18EE102AF3
:1019B000F8EEE66A12B2B8EEC77AF8EEE77A66EEAB
:1019C000A56A08EE102A27EE257AE7EE866A20231C
:1019D000B8EEC88AF0EE477AE8EE067ABDEEE67A0F
:1019E000FDEEE77A17EE102A14B217EE902AA8F847
:1019F0000040A8F8022083F31188DFF8D89108F09E
:101A00007FFA07F085FAD9F828B007F0A1FA08F0B4
:101A10008FFAD9F800204A4506D0D9F818309268D4
:101A20009B689342C0F0AA80002383F31188DFF8FB
:101A3000A8A1634ADAF80030DFED626AABEB030B72
:101A40004FF47A730BFB0333013BA2FB0323E41B2C
:101A50009B0907EE903A07EE104AF8EEE77AB8EEE7
:101A6000C77AB5F90220B8F90230C7EE278A9B1A67
:101A7000202207EE903A68EEA68AB8EEE78A82F353
:101A8000118808F03DFA07F043FAD9F8284007F02A
:101A90005FFA08F04DFAD9F800304B4505D0D9F877
:101AA00018209B6892689A4260D3002383F31188C0
:101AB000DAF80030424A9FED405ADFED424ADFED4E
:101AC0003F5AB8F800102980E41A4FF47A7304FBE7
:101AD0000333013BA2FB03239B0907EE903AF8EE88
:101AE000E77A394BB8F80220D3ED016A93ED007A1A
:101AF0006A8088EE276A202266EE856A67EE057A9C
:101B000026EE246AB0EE667AA6EE257AE8EEA57A8D
:101B100083ED017AC3ED007A82F3118808F0F0F9C1
:101B200007F0F6F9D9F8284007F012FA08F000FAA1
:101B3000D9F800304B4505D0D9F818209B68926839
:101B40009A4217D3002383F31188CAF80040019A00
:101B500033689A421AD103B0BDEC0A8BBDE8F08F0E
:101B60000E2B0FDC0B4B02221A70F0E7174807F020
:101B70002FF99AE7154807F02BF9E3E7134807F028
:101B800027F951E7034A002111707EE6FFF748FD6F
:101B9000000800202C080020F90F493F00002044D5
:101BA000DB0F49400000344300000C42F8140020D1
:101BB0000000A04448E19541CDCC4C3FCDCC4C3EFB
:101BC000D34D62100000C842001500204072010889
:101BD000FC1400208853002008150020000000009D
:101BE00070B5194A194B926919499161ADF5227D79
:101BF0001B68A19301A84FF42072002112F098F8FD
:101C0000144E154C0023ADF80030ADF8023002251B
:101C1000204608F015FA01F0DBFE0DF102036A46DA
:101C200001A9FFF775FD08B93570F1E7694601A80C
:101C30000DF10202FFF7CCFDBDF80210BDF8000067
:101C4000FFF70EFEE4E700BF8853002000080020E5
:101C5000307201082C08002030080020000000002D
:101C600030B50E4C0E4B22680E4885B0002503920D
:101C700042F278114022009507F02AFE0A4B0095A7
:101C800040220A484FF41E7107F022FE039A23688F
:101C90009A4201D105B030BDFFF7C2FC0008002018
:101CA000E11B0008081A00205116000890170020B8
:101CB0000EB410B50A4C0B4923680B4883B001934E
:101CC00006AB1A4600930FF073FF019A23689A42FD
:101CD00004D103B0BDE8104003B07047FFF7A0FC8B
:101CE0000008002060720108AC61002000000000C4
:101CF0002DE9F041104F114E3B6882B0054630226D
:101D0000202101936C1E12F013F82F35B04601E02C
:101D1000AC4208D033684046DB689847C0B22D28F3
:101D200004F8010FF4D1019A3B689A4202D102B043
:101D3000BDE8F081FFF774FC00080020AC610020D2
:101D400030B50C4C83B02368019300F029FA058864
:101D500000F026FA01992368994208D14388064980
:101D600006482A4603B0BDE83040FFF7A1BFFFF7A1
:101D700057FC00BF0008002060720108AC61002021
:101D800000B56138C3B20B4A152B83B0116898BFF8
:101D90000948019198BFD8400199136894BF00F099
:101DA00001000020994202D103B05DF804FBFFF767
:101DB00037FC00BF000800208D003000000000004C
:101DC0002DE9F04F474EDFF83091336885B04FF082
:101DD0000008039399F800300093434B1B7801935C
:101DE000834600F1300547465C4614F801ABBAF172
:101DF0002D0F1ED05046FFF7C3FFB8B123783A2B02
:101E000023D00022AAF1610ABAF1150F0ED8DFE83B
:101E10000AF0490D433D0D0D0D370D0D0D0D0D0D46
:101E20000D0D0D0D0D0D4F0B304B5A80AC42A346DE
:101E3000DAD1002F50D1B8F1000F48D1039A33689E
:101E40009A4242D105B0BDE8F08F0BF10601A446DD
:101E500000221CF801EFAEF130035FFA83FBBBF107
:101E6000090F2BD81A4492B202EB8202520061454C
:101E700092B2EED11E4BA3FB023242F3CF02C1E776
:101E8000AC4207460090A346AED1D2E7194BAC4214
:101E90001A80A346A8D1CCE7AC4280460190A34665
:101EA000A2D1C6E7134BAC425A80A3469CD1C0E7EF
:101EB0000E4BAC421A80A34696D1BAE7BEF1200F72
:101EC000D8D0AC42A3468FD1B3E7FFF7A9FB064BAE
:101ED0009DF804201A70B1E79DF8003089F80030B1
:101EE000A9E700BF00080020803B00208C3B0020B9
:101EF000CDCCCCCC843B0020883B002000000000EF
:101F000000B50A4A0A4B92690A491B680A4C91615A
:101F100083B001932046FFF7EBFE2046FFF750FF0A
:101F2000FFF70EFF322007F02BFDF3E78853002068
:101F30000008002050720108903B002000000000C3
:101F400010B50A4C0A4B22680A4884B04FF45E71FF
:101F5000039200220092402207F0BAFC039A236801
:101F60009A4201D104B010BDFFF75AFB00080020CF
:101F7000011F0008C03B002000000000000000001E
:101F80002DE9F043664D674FAB69674E674A2DED0B
:101F9000068B85B09A613B6803933046522386F8DE
:101FA000BF3106F065FC50B90121304606F090FCC7
:101FB0000121304606F03CFD5D4B01221A70DFED39
:101FC0005D9A9FED5D8A9FED5D9ADFED5D8AB0EED3
:101FD00069AA4FF00008AB6993F821305B072ED453
:101FE000534B1B78002B40F08180564B1B88564C7E
:101FF00007EE903AF8EEE77A237867EE897AE8EE12
:10200000287AB0EE678A002B6BD0DFF8409199F800
:102010000030042B0BD8DFE803F03C284A1B0300F8
:10202000F4EEE79AF1EE10FA68DDF0EE489A05203A
:1020300007F0A6FCAB6993F821305B07D0D5039A73
:102040003B689A426AD105B0BDEC068BBDE8F083CF
:1020500000F0E6FC0028EAD00423052089F80030CF
:10206000F0EE4A9A07F08CFCE4E700F0D9FC002877
:10207000DDD0142002F0A4FC6FF0130002F088FC05
:102080000223052089F80030F0EE4A9A07F078FC28
:10209000D0E700F0DDFC0028C9D0A02000F0C8F88F
:1020A0000123052089F8003007F06AFCC2E7F4EE4E
:1020B000E79AF1EE10FAB8DCB9D5FDEEE97AB42072
:1020C000CDED017ABDF9048000F03AFD4FF4877040
:1020D00000F0AEF80323052089F8003007F050FC2B
:1020E000A8E74FF4FA7007F04BFC74E70E4806F0CF
:1020F000BFFC144AB6F85830138078E797D5FDEE48
:10210000E97A4046CDED017ABDF9041000F038FDC2
:1021100000230520237007F033FC8BE7FFF780FADC
:1021200088530020000800203C3F00207072010806
:10213000383F00200050C347000000000AD7233C6E
:10214000A4707D3FFC400020393F00203A3F002032
:1021500030B50C4B0C4C1D78236885B003934DB9FA
:1021600002F03EF80095094B09484A224FF45E718F
:1021700007F0AEFB039A23689A4201D105B030BD47
:10218000FFF74EFA383F002000080020811F0008AA
:1021900000410020000000000000000000000000DE
:1021A00000B50E4A0E4B92ED007AD2ED017A196815
:1021B0000C4883B0BDEEC77A0191FDEEE77A17EEC9
:1021C000101A019A1B68018017EE901A9A424180FA
:1021D00002D103B05DF804FBFFF722FA40080020AB
:1021E00000080020884400200000000000000000DB
:1021F00000B50A4B0A491A68D1ED007A83B0019202
:10220000019A1B689A4207D1FDEEE77A17EE901A01
:1022100008B203B05DF804FBFFF702FA00080020E3
:1022200084440020000000000000000000000000C6
:1022300010B50B4B0B4C1A680B4982B007EE900A95
:102240000192019A1B68F8EE677A00209A4220708A
:10225000C1ED007A01D102B010BDFFF7E1F900BF76
:10226000000800203C080020784400200000000006
:1022700030B5B0F90020214B214D93ED007AD3ED1C
:10228000017A20492B6800EE902AB0F9022000EE76
:10229000102A83B0F8EEE00AB8EEC00A1A4A019399
:1022A00070EEC70A002330EE670A04460B70137005
:1022B00010F096F99FED157ADFED156AB4F900304C
:1022C00001992A68134820EE070A07EE903A80EE3B
:1022D000267A114B9142F8EEE77A80ED007AC3ED51
:1022E000007AB4F9024007EE904AF8EEE77AC3EDBF
:1022F000017A01D103B030BDFFF792F94008002008
:10230000000800203C08002048080020000034435A
:10231000DB0F4940784400208C440020000000007E
:1023200030B5B0F90020214B214D93ED007AD3ED6B
:10233000017A20492B6800EE902AB0F9022000EEC5
:10234000102A83B0F8EEE00AB8EEC00A1A4A0193E8
:1023500070EEC70A002330EE670A04460B70137054
:1023600010F03EF99FED157ADFED156AB4F90030F3
:1023700001992A68134820EE070A07EE903A80EE8A
:10238000267A114B9142F8EEE77A80ED007AC3EDA0
:10239000007AB4F9024007EE904AF8EEE77AC3ED0E
:1023A000017A01D103B030BDFFF73AF940080020AF
:1023B000000800203D0800203C08002000003443B5
:1023C000DB0F4940784400207C44002000000000DE
:1023D00010B5104B104C93ED007AD3ED017A2368C1
:1023E00082B0BDEEC77A0193FDEEE77A17EE103AA0
:1023F000ADF8003017EE903A6846ADF80230FFF7BE
:1024000037FF019A23689A4201D102B010BDFFF74D
:1024100007F900BF8C4400200008002000000000E5
:10242000F0B52DED068BDFED368A364D70EE287A4D
:1024300085B02B68039317EE900AB0EE609A30EEE9
:10244000608AFEF7C1F89FED2C1B41EC100B41ECAC
:102450001A0B0FF0FDFF79EE287A57EC106B17EE90
:10246000900AFEF7B1F89FED241B41EC100B41ECF4
:10247000190B0FF0EDFFFDEEC87A53EC102B17EEA1
:10248000904A3046002C3946B8BF6442FDF73CFF05
:10249000FEF7AEFB0028B8BF404284421DDBB0EE21
:1024A0004A0AF0EE6A0A9FED141B0FF0D1FF51ECBF
:1024B000100BB0EE490AF0EE690A9FED0F1BCDE953
:1024C00000010FF0C5FFDDE9000153EC102BFDF713
:1024D0001BFFFEF7B5FB08EE100A039A2B689A4221
:1024E000B0EE480A03D105B0BDEC068BF0BDFFF796
:1024F00097F800BFAFF30080000000000080764036
:10250000000034430008002000000000000000002C
:1025100070B52DED028B404E90ED007AD0ED017A32
:10252000D1ED000A91ED010A336882B070EEC70A5E
:1025300030EE670A04460D46019310F051F8DFEDC6
:10254000377A9FED377A374B20EE270A93ED008AD2
:10255000C0EE078AB0EE480AF0EE680AFFF760FFA7
:10256000DFED317AB4EEE70AF1EE10FA0CD5F0EEB9
:10257000680AB0EE480AFFF753FFDFED2C7AB4EE9D
:10258000E70AF1EE10FA27DC94ED016AD5ED017A45
:10259000D4ED006A95ED007A77EEC67A37EE667A6A
:1025A00067EEA77AE7EE077A17EE900AFEF70CF8C7
:1025B00041EC100B0FF0B4FF51EC100BFEF740FB99
:1025C00080F00040019A33689A4200EE100A20D150
:1025D00002B0BDEC028B70BD94ED016AD5ED017ABD
:1025E000D4ED006A95ED007A77EEC67A37EE667A1A
:1025F00067EEA77AE7EE077A17EE900AFDF7E4FF99
:1026000041EC100B0FF08CFF51EC100BFEF718FB98
:10261000D8E7FFF705F800BF0008002000003443AA
:10262000DB0F4940844400200000B4420000B4C2E3
:102630002DE9F04F2DED0A8BE14AE24B9269E24918
:102640001B68916183B000200193002702F000FA1B
:10265000002002F015FADD4EDD4DDFF8B083DFF823
:10266000B093DFF8B0A3DFEDDB8A9FEDDBAADFEDEF
:10267000DB9A9FEDDB9A9FEDDBBADFEDDBAA3C46F0
:10268000BB461FE0F4EEEA7AF1EE10FAC8BF77EE2F
:10269000EA7AC6ED007A02F0ABF9834602F0C0F99F
:1026A00098F800700446002F60D099F80070002F51
:1026B00000F08C809AF80070002F00F09E801420AB
:1026C00007F05EF902F094F9074602F0A9F9A7EBCA
:1026D0000B07041B7FB264B23B1907EE903A96EDEC
:1026E000008AF8EEE77A28EE287A67EEA87AC7EE35
:1026F00009CA67EE8A7AB0EE6C0AC7EEA9BA0FF083
:1027000007FED5ED007A2BEE800AB6EE00CAE0EEA9
:102710000C7AB0EE6C0AC5ED007A0FF049FEE31BAF
:1027200007EE903AF8EEE77A2BEE800A67EEA87A89
:1027300095ED017A67EE8A7AA0EE0C7A87EEA90A07
:1027400085ED017A80EE0B0A0FF00AFD20EE090AF2
:10275000C0EE287A77EE887AF5EEC07AF1EE10FABC
:1027600090D577EEAA7AC6ED007A94E79F4B96ED66
:10277000000AD3ED000AFFF753FEFDEEC07A9FED8D
:102780009C7A17EE903A002BB8BF5B4207EE903A66
:10279000F8EEE77AF4EEC77AF1EE10FA00F18280F3
:1027A000B5EEC00AF1EE10FA40F38680B1EE047A7D
:1027B000B4EEC70AF1EE10FA40F38F804FF4C87000
:1027C00002F0E6F88B4802F0FBF878E78A49804887
:1027D000FFF79EFEFDEEC07AB0EE408A17EE903A0B
:1027E0000133022B20D80123384689F8003002F04B
:1027F000CFF8384602F0E4F861E780497448FFF703
:1028000087FEFDEEC07AB0EE408A17EE903A0133B3
:10281000022B60D8012338468AF8003002F0B8F85D
:10282000384602F0CDF84AE7734BD3ED000A95ED38
:10283000007A93ED010AD5ED017AD6ED00BA70EE7B
:10284000C70A30EE670A0FF0CBFE60EE090AB0EE61
:102850006B0AC0EEA80AFFF7E3FDB5EEC08AF1EE01
:1028600010FAF0EE40BA4CDDB1EE047AB4EEC78A4D
:10287000F1EE10FA63DD9FED628AB2EE04CAF0EE6B
:10288000487AE0EE0C7AFDEEE77A17EE900A02F055
:102890007FF8ABEECC8AFDEEC87A17EE900A02F014
:1028A0008FF80CE70123384688F8003002F070F802
:1028B000384602F085F802E7F9EE047AB4EEE70A4A
:1028C000F1EE10FA4FD54B4802F062F84FF4C870A1
:1028D00002F076F8F3E6494BA7E7C0EE077A9FEDE2
:1028E000497A27EE877A67EE277AFDEEE77A17EEC8
:1028F000903A1FB2384602F04BF8784202F060F886
:10290000DDE6F9EE047AB4EEE78AF1EE10FA40D58E
:102910009FED3D8AB2EE04CAF0EE487AE0EE4C7AC2
:10292000FDEEE77A17EE900A02F032F8ABEE8C8AF1
:10293000FDEEC87A17EE900A02F042F8BFE6C8EE44
:10294000077A9FED2F7A27EE877A67EE277AFDEEDA
:10295000E77A17EE903A1FB2384602F019F8384677
:1029600002F02EF8ABE6B1EE047AC0EE077A9FEDE6
:10297000257A27EE877A67EE277AFDEEE77A17EE5B
:10298000903A1FB2784202F003F8384602F018F885
:1029900095E6B1EE047AC8EE077A9FED197A27EE34
:1029A000877A67EE277AFDEEE77A17EE903A1FB244
:1029B0007F42384601F0ECFF384602F001F87EE62F
:1029C0008853002000080020807201088444002001
:1029D00040080020DB0F49400000244200007A44F8
:1029E00000003443000054420000B4437844002007
:1029F000CDCCCC3D70FEFFFF7C4400208C440020F9
:102A000000005C440000C84300005CC43C08002097
:102A10003D080020480800200000000000000000E1
:102A200000B5074B07491A68087883B00192019AEC
:102A30001B689A4202D103B05DF804FBFEF7F0FD7B
:102A4000000800203C0800200000000000000000FA
:102A500000B5074B07491A68087883B00192019ABC
:102A60001B689A4202D103B05DF804FBFEF7D8FD63
:102A700000080020480800200000000000000000BE
:102A800000B5074B07491A68087883B00192019A8C
:102A90001B689A4202D103B05DF804FBFEF7C0FD4B
:102AA000000800203D080020000000000000000099
:102AB00000B5B1F90220B0F9023007EE102AB0F9E2
:102AC000002007EE903A06EE102A1A4BB1F90020CA
:102AD000D3ED016AD3ED005A174B05EE102AF8EE3C
:102AE000E77AB8EEC77A76EEE77AB8EEC66A36EEDF
:102AF000C77AB8EEC55A75EEC66A67EEA77A27EEB2
:102B0000077A35EEC56AE6EEA67A83B01A680192B6
:102B1000A6EE067A019A1B68F4EEC77AF1EE10FA77
:102B200094BF012002209A4202D103B05DF804FB59
:102B3000FEF776FD8C440020000800200000000015
:102B400000B50A4B0A491A6883B007EE900A019251
:102B5000019A1B68F8EE677A9A42C1ED007A02D1B9
:102B600003B05DF804FBFEF75BFD00BF000800202A
:102B7000844400200000000000000000000000006D
:102B800010B50C4A0C4B146882B007EE900A019401
:102B9000B8EEE77A07EE901A019C126883ED007A8E
:102BA000F8EEE77A9442C3ED017A01D102B010BD8C
:102BB000FEF736FD0008002040080020000000005D
:102BC00010B50A4C0A4B22680A4884B04FF41E71B3
:102BD000039200220092412206F07AFE039A2368B3
:102BE0009A4201D104B010BDFEF71AFD0008002082
:102BF000312600089844002000000000000000007A
:102C0000F0B5144A144B926914491B68144C916135
:102C100083B0032701930226012508E0022AA0F1D0
:102C2000060010D825704FF4FA7006F0A9FE01F0E6
:102C3000B7FFC0B2C31E022BA0F10B024FF000037E
:102C4000ECD82370EFE704288CBF3B463346237053
:102C5000E9E700BF885300200008002090720108B7
:102C600049080020000000000000000000000000F3
:102C700010B50A4C0A4B22680A4884B04FF4FC7124
:102C80000392002200923F2206F022FE039A23685C
:102C90009A4201D104B010BDFEF7C2FC000800202A
:102CA000012C000810470020000000000000000078
:102CB000F0B5284F83B004463B68019302200E46CE
:102CC00002F07EF93228D4BF0020012020700120BC
:102CD00002F076F93228D4BF002001206070002075
:102CE00002F06EF93228D4BF00200120A070072026
:102CF00002F066F93228D4BF00200120E0700620DF
:102D000002F05EF93228D4BF002001202071052096
:102D100002F056F932284FF00003D4BF0020012002
:102D20006071621E1D46184612F8014F2CB1013029
:102D3000C0B205B93370737025460133DBB2062B80
:102D4000F2D1019A3B689A4201D103B0F0BDFEF77F
:102D500067FC00BF00080020000000000000000029
:102D60002DE9F0412DED048BD34AD44B9269D4491F
:102D70001B689161A6B0D349D348259305F000FFA5
:102D8000054602F0FDF80023D04ED14F9FEDD19AB9
:102D9000DFEDD18A9FEDD18AADF80C300293ADF80A
:102DA0009030CDE9003302E0142006F0E9FD8022E6
:102DB00004A9284605F04CFFFFF74AFE0446002808
:102DC000F2D1FFF72DFE0028EED03378002BEBD0A8
:102DD00024A902A8FFF76CFF3B784BB1012BE3D18C
:102DE000FFF74EFE0028DFD0FFF7F2FA3C70DBE77A
:102DF000012800F0B980D7D9022806D19DF890307B
:102E00001BB99DF89130052BCED0FFF7F1F99DF855
:102E1000903003EBC30300EB8303B43B1CB2FFF71A
:102E2000BFF907EE904AF8EEE77A804667EE897AB6
:102E3000C7EEA89AB0EE690A0FF06AFAB8F9003046
:102E400007EE903AF8EEE77AE0EE087AFDEEE77AE0
:102E500017EE903AADF80030FFF7A2F90446B0EE55
:102E6000690A0FF0A5FAB4F9023007EE903AF8EECD
:102E7000E77AE0EE087AFDEEE77A17EE903AADF8E1
:102E80000230FFF7B5F99DF8913003EBC30300EB77
:102E900083031CB2FFF784F907EE904AF8EEE77A55
:102EA000804667EE897AC7EEA89AB0EE690A0FF0FD
:102EB0002FFAB8F9003007EE903AF8EEE77AE0EE34
:102EC000087AFDEEE77A17EE903AADF80430FFF796
:102ED00067F90446B0EE690A0FF06AFAB4F90230F5
:102EE000BDF8002007EE903AF8EEE77A013AE0EEFE
:102EF000087A92B240F256208242FDEEE77A17EE4F
:102F0000903A1BB2ADF8063018D8BDF80210BDF8E3
:102F10000420013989B240F2E634013AA14292B26A
:102F200010D8824204D8013B9BB2A34240F2BC803D
:102F30006846FFF7F5F901233B7035E7BDF804203B
:102F4000013A92B240F256218A423FF62DAF013B40
:102F50009BB240F2E63293423FF626AF01A8FFF75C
:102F6000DFF901233B701FE79DF89030002B3FF401
:102F70001BAF052B3FF418AFFFF73AF99DF89030DF
:102F800003EBC30300EB83031CB2FFF709F907EE61
:102F9000904AF8EEE77A804667EE897AC7EEA89AFB
:102FA000B0EE690A0FF0B4F9B8F9003007EE903AC4
:102FB000F8EEE77AE0EE087AFDEEE77A17EE903A5F
:102FC000ADF80030FFF7ECF80446B0EE690A0FF0F8
:102FD000EFF9B4F9023007EE903AF8EEE77AE0EE56
:102FE000087AFDEEE77A17EE903AADF80230FFF777
:102FF000FFF89DF8903003EBC30300EB8303B43B71
:103000001CB2FFF7CDF807EE904AF8EEE77A80465B
:1030100067EE897AC7EEA89AB0EE690A0FF078F9E0
:10302000B8F9003007EE903AF8EEE77AE0EE087A69
:10303000FDEEE77A17EE903AADF80430FFF7B0F8FE
:103040000446B0EE690A0FF0B3F9B4F90230BDF8E6
:10305000002007EE903AF8EEE77A013AE0EE087ABF
:1030600092B240F256208242FDEEE77A17EE903A95
:103070001BB2ADF806303FF661AFBDF80210BDF8E7
:103080000420013989B240F2E634013AA14292B2F9
:103090003FF658AF82423FF64BAF013B9BB240F246
:1030A000E63293423FF644AF01A96846FFF700FDC0
:1030B00001287FF453AF3BE788530020000800202D
:1030C000B0720108A0720108084900204A080020D7
:1030D00014490020DB0F49400000344300004842FF
:1030E00010B50A4C0A4B22680A4884B04FF45E714E
:1030F000039200220092412206F0EAFB039A236821
:103100009A4201D104B010BDFEF78AFA00080020EF
:10311000612D000818490020000000000000000098
:1031200030B5104D81682B680F4A83B001930B684E
:1031300023F001030B608168946A03E0936A1B1B10
:10314000C72B09D8086810F00100F7D1019A2B6845
:103150009A4204D103B030BD4FF0FF30F6E7FEF7DE
:103160005FFA00BF00080020885300200000000024
:1031700030B5184D83B02B68019311F00C0F044645
:103180000AD00378032B13D00622636822709A6852
:103190001AB100212046904763685B688BB10199A2
:1031A0002A68914213D1204603B0BDE83040184749
:1031B000FFF7B6FF0622636822709A68002AE8D1FA
:1031C000EBE7019A2B689A4201D103B030BDFEF7BC
:1031D00027FA00BF000800200000000000000000E7
:1031E000F0B5284D83B02B68019306F051FE05F031
:1031F0000FFF254B1E69F20715D55A69234C42F083
:1032000001025A612778BB1F012B2AD90522636866
:1032100022701B680BB120469847042F27D0022F3D
:1032200025D003232370B30710D5174A174C5369D1
:1032300043F0020353612378032B1DD063689B681E
:103240000622227013B101211048984705F008FFAB
:10325000019A2B689A4213D103B0BDE8F04007F001
:103260001FBE019A2B689A420AD103B0F0BD022317
:103270002370B307EAD5D8E72046FFF751FFDDE713
:10328000FEF7CEF90008002000000550904C002009
:1032900030B50B4D0B4C2B6883B02046019300F0EA
:1032A0002FF9019A2B680848084D094921619A4273
:1032B000C4E9025001D103B030BDFEF7B1F900BF3F
:1032C00000080020904C00203C7F010800000550C1
:1032D000165502020000000000000000000000007F
:1032E0002DE9F0412F4C0578266882B0012D01961A
:1032F00006D0019A23689A4252D102B0BDE8F0810B
:10330000294DA842F5D10E4690461F46274AE86847
:103310002B460C210AF08CFC002839D1D5E9023269
:10332000126828339360EB681A68042151611B68A6
:10333000C3F80C80EB681A6817611B68B6085E60FA
:103340002B694FB343F480232B61E968184A09685D
:103350000B60EB6819680B6843F001030B60536B5B
:1033600043F0010353630B214E200AF041F9D5E9E4
:103370000113DA6842F00102DA60DA6842F0020210
:10338000DA60CA6822F4804222F001021A60B0E7D3
:10339000084805F01DFDC1E723F480232B61D4E725
:1033A000FEF73EF900080020904C00207131000823
:1033B00000380240D0720108000000000000000048
:1033C00030B5184C0378226883B0022B019205D0E7
:1033D000019A23689A4223D103B030BD124B984220
:1033E0000546F5D18168114A0B6823F4804323F028
:1033F00001030B608168CB6823F00F03CB60536B34
:1034000023F0010353634E200AF01AF9019A23684E
:103410009A4205D1E86803B0BDE830400AF070BCBC
:10342000FEF7FEF800080020904C00200038024013
:1034300000B50F4B0278196883B0022A01910ED1B2
:1034400081680A6842F002020A6081680A6842F4F0
:1034500080420A6081680A6842F001020A60019AAB
:103460001B689A4202D103B05DF804FBFEF7D8F85E
:103470000008002000000000000000000000000024
:1034800000B50F4B0278196883B0022A01910ED162
:1034900081680A6822F002020A6081680A6842F4C0
:1034A00080420A6081680A6842F001020A60019A5B
:1034B0001B689A4202D103B05DF804FBFEF7B0F836
:1034C00000080020000000000000000000000000D4
:1034D00000B5074B83B01A680192019A1B689A42A3
:1034E00004D103B05DF804EBFFF7D2BEFEF798F805
:1034F00000080020000000000000000000000000A4
:1035000000B5084B83B01A68019201220270019A3B
:103510001B6800219A42416002D103B05DF804FBB0
:10352000FEF77EF800080020000000000000000008
:103530002DE9F043254D83B02C680194DDF82890E7
:103540000F4616469846044618B111B1204B9A42D0
:103550002FD9204805F03CFC202383F3118806F086
:10356000CFFC05F0D5FC2378012B02D0194805F0DB
:103570002FFC4246314620464B466760FFF7B0FEBF
:103580000223237005F0E4FC06F0D2FC124B1A680B
:103590009A4204D0996993688A689A420FD30023AB
:1035A00083F31188019A2B689A420CD103B0BDE8CD
:1035B000F0839307CDD1B8F1000FCDD1C9E707480B
:1035C00005F006FCEBE7FEF72BF800BF0008002033
:1035D000FCFF03000073010888530020F07201080B
:1035E00030B51C4D83B02B680193044658B320239B
:1035F00083F3118806F084FC05F08AFC2378022B03
:1036000002D0154805F0E4FB2046FFF7D9FE012360
:10361000237005F09DFC06F08BFC104B1A689A4253
:1036200004D0996993688A689A4208D3002383F387
:103630001188019A2B689A4209D103B030BD08481D
:1036400005F0C6FBF2E7044805F0C2FBCFE7FDF743
:10365000E7FF00BF00080020107301088853002016
:10366000F0720108000000000000000000000000EF
:1036700030B51C4D83B02B680193044658B320230A
:1036800083F3118806F03CFC05F042FC2378022B02
:1036900002D0154805F09CFB2046FFF7C9FE042325
:1036A000237005F055FC06F043FC104B1A689A4253
:1036B00004D0996993688A689A4208D3002383F3F7
:1036C0001188019A2B689A4209D103B030BD08488D
:1036D00005F07EFBF2E7044805F07AFBCFE7FDF743
:1036E0009FFF00BF000800202073010888530020BE
:1036F000F07201080000000000000000000000005F
:1037000030B51C4D83B02B680193044658B3202379
:1037100083F3118806F0F4FB05F0FAFB2378022B03
:1037200002D0154805F054FB2046FFF7A9FE0323FD
:10373000237005F00DFC06F0FBFB104B1A689A4253
:1037400004D0996993688A689A4208D3002383F366
:103750001188019A2B689A4209D103B030BD0848FC
:1037600005F036FBF2E7044805F032FBCFE7FDF742
:1037700057FF00BF00080020407301088853002055
:10378000F0720108000000000000000000000000CE
:1037900000B5064B83B01A680192019A1B689A42E1
:1037A00002D103B05DF804FBFDF73AFF00080020EA
:1037B00000B5064B83B01A680192019A1B689A42C1
:1037C00002D103B05DF804FBFDF72AFF00080020DA
:1037D00010B5104C104B226882B0019201221A7071
:1037E000202383F3118806F0BBFB05F0D1FB0B48C7
:1037F00006F0BEFE05F0ECFB06F0CAFB002383F3E7
:103800001188019A23689A4201D102B010BDFDF7D8
:1038100007FF00BF00080020B04C00204C0800202B
:1038200030B50E4D0E4C2B6883B00193FFF750FE60
:10383000206808B10FF0B4FF4FF496400FF0A8FFD6
:1038400001992A682060B0FA80F35B099142C3F1C4
:10385000000001D103B030BDFDF7E2FE00080020FA
:10386000A84C002000000000000000000000000044
:1038700030B5174D174C2B78226885B0012B039279
:1038800020D000F055FC144B1B78ABB9B0F5964F27
:1038900015D8124A124B12681B6812490092024650
:1038A0001148FFF745FE01232B700020039A23687F
:1038B0009A420BD105B030BDB0F5165FE9D94FF093
:1038C000FF30F3E70848FFF78BFEDAE7FDF7A8FEC5
:1038D000A54C002000080020A64C0020AC4C002085
:1038E000A84C002050730108904C002000000000FC
:1038F00010B50B4C0B48236882B0019306F000FD15
:10390000094806F0DDFE019A23689A4205D1054870
:1039100002B0BDE8104006F02BBDFDF781FE00BFF0
:1039200000080020540800204C080020000000007F
:1039300030B5154D154C164B2268286883B001929E
:1039400001221A7008B10FF02BFF4FF416500FF040
:103950001FFF286098B10F4D286808B10FF020FFB5
:103960004FF416500FF014FFB0FA80F35B09286093
:103970005842019A23689A4204D103B030BD4FF0F7
:10398000FF30F6E7FDF74CFEA84C002000080020B1
:10399000A64C0020AC4C00200000000000000000FD
:1039A00000B5074B07491A68087083B00192019A65
:1039B0001B689A4202D103B05DF804FBFDF730FEAC
:1039C00000080020A44C00200000000000000000BF
:1039D00000B50D4A0D4B1278196883B0019142B1C0
:1039E0000B4AD26812681268120302D4094A10689E
:1039F00001E0094A1068019A1B689A4202D103B09B
:103A00005DF804FBFDF70CFEA64C0020000800202A
:103A1000904C0020AC4C0020A84C0020000000007E
:103A200000B50E4A0E4B1278196883B001914AB165
:103A3000019A1B689A420FD10A4803B05DF804EB63
:103A4000FFF75EBE019A1B689A4205D1054803B094
:103A50005DF804EBFFF70CBEFDF7E2FDA44C00207F
:103A600000080020904C0020000000000000000032
:103A700070B5274D82B02B680193064601220321C1
:103A80006E2000F035FC044630B1019A2B689A4252
:103A900020463AD102B070BD32464E216E2000F071
:103AA00027FC04460028F0D1442E07D00246B72157
:103AB0006E2000F01DFCB8B10446E6E70122B721F4
:103AC0006E2000F015FC0028F6D1224603216E205E
:103AD00000F00EFC0028EFD1032211216E2000F02F
:103AE00007FC78B10446D0E7224603216E2000F09F
:103AF000FFFB0028E0D10A2211216E2000F0F8FB24
:103B00000028D9D1034B1E71BFE7FDF789FD00BF27
:103B100000080020B44C002000000000000000005D
:103B20002DE9F04F8FB0DFF80084DDF860C0D8F8E1
:103B300000400D940CF1FF355C1EB3F5207F9DF81D
:103B400064909DF868B00C44154400F21282BCF5F4
:103B5000F07F00F20E82B1F5207F0E4600F2128255
:103B6000B2F5F07F174600F21082A14280F0048285
:103B7000B4F5207F00F20082AA4280F00082B5F501
:103B8000F07F00F2FC81B9F1400F824600F0B08175
:103B9000B9F1800F23D0B9F1200F00F09C810023F0
:103BA000CDE90033BBF1400F2FD0BBF1800F00F007
:103BB000CB81BBF1200F00F0B9810023CDE90233A6
:103BC000002203216E2000F093FBA0B30D9AD8F8D9
:103BD00000309A4240F0E2810FB0BDE8F08F9A07C2
:103BE00040F0D681CC4A8C085900661CA2FB01012A
:103BF000A2FB030204EB930406EBD2030093BBF198
:103C0000400F06EBD1030193CFD11CF0010F40F020
:103C1000C281C14B7D084FEA4C026F1CA3FB02120C
:103C2000A3FB0C1307EB9303029307EB920305EB43
:103C30005C050393C4E702465B216E2000F058FB4D
:103C40000028C3D15046FFF713FF0028BED102461B
:103C500003216E2000F04CFB0028B7D1C6F30723E8
:103C60001A4608216E20049300F042FB0028ADD1D3
:103C7000F3B21A4609216E20059300F039FB0028A3
:103C8000A4D1C7F307231A460A216E20069300F039
:103C90002FFB00289AD1FBB21A460B216E20079306
:103CA00000F026FB002891D1C4F307231A460C210B
:103CB0006E20089300F01CFB002887D1E3B21A465F
:103CC0000D216E20099300F013FB00287FF47EAFD6
:103CD000C5F307231A460E216E200A9300F008FB55
:103CE00000287FF473AFEBB21A460F216E200B93BE
:103CF00000F0FEFA00287FF469AF049A35216E20A7
:103D000000F0F6FA00287FF461AF059A36216E20A4
:103D100000F0EEFA00287FF459AF089A37216E20A0
:103D200000F0E6FA00287FF451AF099A38216E209E
:103D300000F0DEFA00287FF449AF069A39216E20A0
:103D400000F0D6FA00287FF441AF079A3A216E209E
:103D500000F0CEFA00287FF439AF0A9A3B216E209A
:103D600000F0C6FA00287FF431AF0B9A3C216E2098
:103D700000F0BEFA00287FF429AF009B3D21C3F379
:103D800007226E2000F0B4FA00287FF41FAF9DF8E0
:103D900000203E216E2000F0ABFA00287FF416AF21
:103DA000019B3F21C3F307226E2000F0A1FA0028F7
:103DB0007FF40CAF9DF8042040216E2000F098FAAB
:103DC00000287FF403AF029B4121C3F307226E203A
:103DD00000F08EFA00287FF4F9AE9DF80820422109
:103DE0006E2000F085FA00287FF4F0AE039B43219B
:103DF000C3F307226E2000F07BFA00287FF4E6AEC2
:103E00009DF80C2044216E2000F072FA00287FF407
:103E1000DDAE012203216E2000F06AFA00287FF453
:103E2000D5AE4A4693216E2000F062FA00287FF456
:103E3000CDAE5A4694216E2000F05AFA00287FF445
:103E4000C5AE012203216E2000F052FA00287FF453
:103E5000BDAE0134A31B07EE103ADFED307AB8EEA9
:103E6000477ABAF1440F77EEC77A00F09980B0EE46
:103E7000006AF2EE006AE7EE066A77EEA77AB0EE25
:103E8000667A67EE877ADFED266A87EEA67AFCEE21
:103E9000C77ACDED007A009B9521C3F307226E20EF
:103EA00000F026FA00287FF491AE9DF800209621BC
:103EB0006E2000F01DFA00287FF488AE194B013502
:103EC000EF1BA41B5F801C8083F804A083F805907F
:103ED00083F806B07AE610495A00A1FB030306EB0B
:103EE0005303A1FB0212009306EB5203019359E620
:103EF000D9074DD4084A74085900661CA2FB010179
:103F0000A2FB030204EB530406EB9203009306EBBF
:103F10009103019346E600BFABAAAAAA000022447F
:103F20000000A344B44C002000080020244A4FEABB
:103F30004C03A2FB0C1CA2FB032307EB530307EB70
:103F40005C02029203933BE61CF0030F23D11C4B4F
:103F5000BD084FEA4C026F1CA3FB0212A3FB0C131B
:103F600007EBD303029307EBD20305EB9C05039306
:103F700026E66FF0070029E66FF0030026E66FF0F3
:103F8000040023E66FF0010020E66FF002001DE65A
:103F90006FF005001AE66FF0060017E6FDF740FB2C
:103FA000F2EE006A37EE267ADFED066A67EE277AD0
:103FB00087EEA67AFCEEC77ACDED007A6BE700BFFC
:103FC000ABAAAAAA000024440000000000000000E0
:103FD00010B5114C86B02368059300F001F90F4924
:103FE0000F4807F055FC012200210D4807F0E8FCBE
:103FF00020237822CDE901330092A023B422F021BE
:104000000220FFF78DFD059A23689A4201D106B080
:1040100010BDFDF705FB00BF00080020607301081C
:10402000906100200000000000000000000000007F
:1040300030B50E4C83B0236801930122054603215D
:104040006E2000F055F9019A236818B19A420BD1FD
:1040500003B030BD9A4207D12A469D216E2003B09D
:10406000BDE8304000F044B9FDF7DAFA000800205E
:1040700030B5164C83B02368019305460023022215
:1040800003216E208DF8033000F032F928B1019A37
:1040900023689A4218D103B030BD0DF10302042108
:1040A0006E2000F0D5F80028F1D19DF80320012DF5
:1040B0000CBF02F0FB0242F0040204216E208DF8D6
:1040C000032000F015F9E2E7FDF7AAFA0008002046
:1040D00030B5164C83B023680193054600230222B5
:1040E00003216E208DF8033000F002F928B1019A07
:1040F00023689A4218D103B030BD0DF103020421A8
:104100006E2000F0A5F80028F1D19DF80320012DC4
:104110000CBF02F0FC0242F0030204216E208DF875
:10412000032000F0E5F8E2E7FDF77AFA0008002046
:1041300010B50A4B0A4A1988146858881B7982B04E
:10414000442B019400FB01F00199136818BF400053
:10415000994201D102B010BDFDF762FAB44C0020C3
:104160000008002000000000000000000000000027
:1041700070B5164E16483368154D82B005224FF4BF
:10418000807101930BF07CFB20246B6983F48073B6
:104190006B61012005F0F4FB631E13F0FF04F4D102
:1041A0004FF4807140F20622298309480BF068FB26
:1041B000019A33689A4206D10649074802B0BDE821
:1041C000704007F0ADB9FDF72BFA00BF00080020E2
:1041D00000040240A0730108085E002000000000F7
:1041E00000B50C4A0C4B1278196883B0012A019172
:1041F000019A1B6804D09A4209D103B05DF804FB10
:104200009A4204D103B05DF804EBFFF7B1BFFDF7AC
:1042100007FA00BF085E0020000800200000000030
:1042200000B5084B83B01A680192019A1B689A4244
:1042300005D1054803B05DF804EB07F0B9B9FDF707
:10424000EFF900BF00080020085E00200000000019
:104250002DE9F041224C234E88B0002335688DF8BB
:104260001830804620468DF814101746079507F041
:104270006FFA2378012B0CD00420012306AACDE984
:1042800001300092414605AA204607F0F1F90546A3
:1042900068B9134807F07CFA9DF818303B7000208D
:1042A000079A33689A4218D108B0BDE8F0812046D9
:1042B00007F0C6F923780C4A052B106004D0084893
:1042C00007F066FA68B2EBE7204607F071F9237849
:1042D000012BF4D1FFF74CFFF1E7FDF7A1F900BF87
:1042E000085E002000080020BC4C002000000000F8
:1042F000F0B5214C214E89B033680793074600255D
:1043000020468DF818108DF819208DF8145007F0FC
:104310001FFA2378012B0CD0042205AB01950292E1
:1043200000933946022306AA204607F0A1F9054664
:1043300048B9114807F02CFA0020079A33689A42CE
:1043400017D109B0F0BD204607F07AF923780C4A5E
:10435000052B106004D0084807F01AFA68B2ECE7A1
:10436000204607F025F92378012BF4D1FFF700FF51
:10437000F1E7FDF755F900BF085E002000080020B6
:10438000BC4C002000000000000000000000000005
:104390002DE9F043254E83B034680194042A9DF83A
:1043A0002890144605460F46984639D9B9F1000FB2
:1043B00014BF00224FF08052640002EB0863013CFE
:1043C0001C4405F00F0527F01F07202383F31188F5
:1043D00005F096FD3D4304F09BFD154B1035DD6067
:1043E0001C6104F0B5FD05F0A3FD124B1A689A425A
:1043F00004D0996993688A689A420DD3002383F3A5
:104400001188BFF36F8FBFF34F8F019A33689A42C1
:104410000AD103B0BDE8F083074804F0D9FCEDE70A
:10442000064804F0D5FCC1E7FDF7FAF800080020C3
:1044300090ED00E0885300203074010810740108EA
:1044400030B5224D224C2B68224A85B00393636815
:1044500043F004036360536A43F4803353622023C0
:1044600083F3118805F04CFD04F052FD17221A4B1E
:10447000E260236104F06CFD05F05AFD174B1A68E9
:104480009A4204D0996993688A689A4218D30020A6
:1044900080F31188BFF36F8FBFF34F8F03231D226B
:1044A00000904FF00051FFF773FF094A536843F043
:1044B00001035360039A2B689A4205D105B030BDC1
:1044C000074804F085FCE2E7FDF7AAF800080020A1
:1044D00090ED00E000ED00E009000010885300209E
:1044E000307401080000000000000000000000001F
:1044F00070B51A4D1A4C1B4E0FCD0FC49EB02A68D2
:10450000336822801D93EFF30981682203A8FCF72A
:104510006FFD154B9D6AAA0714D4EB0708D5124B03
:1045200008995B6B114A00910D4880210FF050FCF7
:104530001D9A33689A420FD109481EB0BDE87040F9
:1045400004F046BC099A5B6B0092A4F11000084A83
:1045500080210FF03DFCE0E7FDF762F8F4730108FD
:10456000C04C00200008002000ED00E0D0730108DE
:10457000B07301080000000000000000000000000F
:1045800000B51F4B0278196883B00191E2B11D4A52
:104590004FF4005111834278EAB11A4A4FF4805126
:1045A00011838278F2B1174A4FF480411183C278A7
:1045B000FAB9144A4FF400415183019A1B689A4298
:1045C0001CD103B05DF804FB0E4A4FF40051518337
:1045D0004278002AE1D10B4A4FF48051518382780E
:1045E000002AE0D1074A4FF480415183C278002A63
:1045F000DFD0044A4FF400411183DEE7FDF710F8E5
:104600000008002000100240000000000000000030
:1046100000B51F4B0278196883B00191E2B11D4AC1
:104620004FF4007111834278EAB11A4A4FF4807155
:1046300011838278F2B1174A4FF400611183C27876
:10464000FAB9144A4FF480615183019A1B689A4267
:104650001CD103B05DF804FB0E4A4FF40071518386
:104660004278002AE1D10B4A4FF48071518382785D
:10467000002AE0D1074A4FF400615183C278002A32
:10468000DFD0044A4FF480611183DEE7FCF7C8FFF6
:1046900000080020001002400000000000000000A0
:1046A00030B50C4A0C4B116883B04FF400550191A2
:1046B0004FF480544FF400414FF480405D835C839D
:1046C0005883598301991368994201D103B030BDD1
:1046D000FCF7A6FF000800200010024000000000C8
:1046E00030B50C4A0C4B116883B04FF40075019142
:1046F0004FF480744FF480614FF400605D835C83FD
:104700005883598301991368994201D103B030BD90
:10471000FCF786FF000800200010024000000000A7
:1047200010B50B4C0B48236882B0992200210193ED
:1047300007F046F9019A23689A4206D105480021FC
:1047400002B0BDE8104007F023BAFCF769FF00BFD4
:104750000008002058610020000000000000000058
:1047600010B50B4C0B48236882B0992200210193AD
:1047700007F026F9019A23689A4206D105480021DC
:1047800002B0BDE8104007F003BAFCF749FF00BFD4
:1047900000080020746100200000000000000000FC
:1047A00000B5084B83B01A680192019A1B689A42BF
:1047B00006D10548002103B05DF804EB07F050B9BD
:1047C000FCF72EFF000800205861002000000000C8
:1047D00000B5084B83B01A680192019A1B689A428F
:1047E00006D10548002103B05DF804EB07F038B9A5
:1047F000FCF716FF00080020746100200000000094
:1048000070B51A4C1A4E2378326882B0022B01928E
:10481000A26811D165781748013505F0070500EB4E
:104820008500904763686570013B6360019A336857
:104830009A4219D102B070BD012B08D0019933689A
:10484000994211D10C4802B0BDE87040104765781C
:104850000848013D05F0070500EB850090476368B7
:10486000657001336360E1E7FCF7DAFE584D002024
:1048700000080020D0740108C07401080000000086
:1048800070B51A4C1A4E2378326882B0012B01920F
:10489000A26811D165781748013505F0070500EBCE
:1048A000850090476368657001336360019A3368DF
:1048B0009A4219D102B070BD022B08D00199336819
:1048C000994211D10C4802B0BDE87040104765789C
:1048D0000848013D05F0070500EB85009047636837
:1048E0006570013B6360E1E7FCF79AFE404D0020F4
:1048F00000080020D0740108C07401080000000006
:1049000030B51F4D85B02B68039340F24C4399425C
:10491000044626DCA3F69803994211DB4B00002BDA
:1049200029D10370036998474FF47A71039A2B6871
:104930009A421ED1606905B0BDE8304006F0F8BF6C
:10494000104B02225B42227040F2892293420E49B0
:1049500091FBF3F189B207DC0191E3689847019973
:10496000E4E7012303702D21019123699847019900
:10497000DCE7FCF755FEE4DD01220270E4E700BF4E
:104980000008002068F7FFFFA0860100000000007B
:1049900000B5084B83B01A680192019A1B689A42CD
:1049A00006D10146044803B05DF804EBFFF7A8BF49
:1049B000FCF736FE00080020404D002000000000FB
:1049C00000B5084B83B01A680192019A1B689A429D
:1049D00006D10146044803B05DF804EBFFF790BF31
:1049E000FCF71EFE00080020584D002000000000CB
:1049F00000B5094B094A1968506883B000EBD070C4
:104A00000191019A1B689A4203D1401003B05DF8EE
:104A100004FBFCF705FE00BF00080020404D00200D
:104A200000B5094B094A1968506883B000EBD07093
:104A30000191019A1B689A4203D1401003B05DF8BE
:104A400004FBFCF7EDFD00BF00080020584D0020DE
:104A500000B5084B08491A6883B040000192019ADA
:104A60001B6848609A4202D103B05DF804FBFCF772
:104A7000D7FD00BF00080020404D002000000000CE
:104A800000B5084B08491A6883B040000192019AAA
:104A90001B6848609A4202D103B05DF804FBFCF742
:104AA000BFFD00BF00080020584D0020000000009E
:104AB00070B51D4E1D4A1E4B30681E491E4C91603C
:104AC00082B00021D46001901C4C1D481D4D9D609A
:104AD000117051705160106154611B481B4A1C4D8C
:104AE000D8601C48197059705960C3E90425FFF754
:104AF00047FD1848FFF78CFD1749204606F0C8FE11
:104B0000204606F0FDFF2846144906F0C1FE019A32
:104B100033689A4205D1284602B0BDE8704006F0DD
:104B2000EFBFFCF77DFD00BF00080020584D0020BE
:104B3000404D0020814500082147000858610020B1
:104B4000A14700081146000861470008D147000846
:104B500074610020C0740108807401084074010869
:104B60000A490B4B09680B4A82B020200191402171
:104B700058834FF4806559834FF400644FF48040AC
:104B800004215D835C8358835183FEE70008002085
:104B9000000C024000040240000000000000000081
:104BA00030B5104C104B2268104983B0019218693F
:104BB0001A6909691B69019D2468C2F3C032C1F3F7
:104BC000001102EB4102C3F38033C0F3403003EB2A
:104BD0004203A54200EB430001D103B030BDFCF716
:104BE0001FFD00BF0008002000080240000C02402A
:104BF00010B51E491E4A0B78106882B0013B019027
:104C0000072B0AD8DFE803F012151C1F26290F0412
:104C100018480824012304830B70019913689942F2
:104C200021D102B010BD08230B70F6E702230B70F0
:104C3000F3E711484FF48054032304830B70ECE72F
:104C400004230B70E9E70C484FF4804405230483E8
:104C50000B70E2E706230B70DFE706480424072306
:104C600004830B70D9E7FCF7DBFC00BFF050002099
:104C70000008002000100240000402400000000074
:104C800030B50C4B0C4918680C4A83B04FF4804582
:104C900001904FF480504883042408204D835483AE
:104CA0005083019A1B689A4201D103B030BDFCF7D2
:104CB000B7FC00BF000800200004024000100240C2
:104CC0002DE9F04F4E4B4F4A9B694F499961A5B072
:104CD00007AE05AD80231768009331462A460024AD
:104CE0000CA84A4B2397CDE90766CDE90555CDE9D8
:104CF00009440B9403F0ECFE0CA9454A4548434C8B
:104D0000454DDFF83481DFF834B1DFF834A103F02A
:104D100007FF04F11C0604F16007A146504605F0A8
:104D20008FF92A682B69226063602A6A2B6BA26064
:104D3000E3606A686B69226163616A6A6B6BA26196
:104D4000E361AA68AB6922626362AA6AAB6BA26282
:104D5000E362EA68EB6922636363EA6AEB6B2F49FB
:104D6000A263E36351F8043F0A6AB142A3EB020372
:104D70000B64F7D1802249460CA803F029FF98F86C
:104D80000030002BCAD09BF8003033B3012BC5D1C3
:104D9000DFF8B0C02248614650F8042B51F8043FB8
:104DA000B84213440B60F7D11E4A13780133DBB2CB
:104DB000642B1370B2D11C495CF8043F1B4A82FB80
:104DC0000302DB17C3EB621341F8043B184B9C450D
:104DD000F2D1002388F80030A0E7194620221248BB
:104DE00003930EF0A5FF039B1248194620220EF0F4
:104DF0009FFF0C49039B0B7001228BF800208DE76D
:104E00008853002000080020F0740108F44D0020B1
:104E1000A072010808490020904D0020F04D0020AC
:104E2000344E0020D14D0020544E00201F85EB5100
:104E3000F04D0020D44D0020D04D0020D24D002058
:104E400068080020D04D0020000000000000000095
:104E500070B502691E4D52882B6882B006460C461A
:104E60001C480193920000210EF062FF33695B88B9
:104E70005BB1184AA11E002331F8020F42F8040B5F
:104E80003069408801339842F6D8202383F3118893
:104E900005F066F804F07CF804F00AF90E4883681F
:104EA000002B0FDD04F094F805F072F8002383F373
:104EB0001188019A2B68094901209A42087004D18F
:104EC00002B070BD05F0F4F8ECE7FCF7A9FB00BFF9
:104ED00000080020904D002068080020F0500020BD
:104EE00070B51F4D1F4C2E78236884B0012E03939C
:104EF00005D0039A23689A422FD104B070BD0021D7
:104F0000284606F025F9284606F0E2F933462846F9
:104F1000154A164906F09CF91549164806F0B8FCE2
:104F20004FF496720021134806F04AFD0021114803
:104F300006F02EFE0F4806F0E3FD31464FF4827274
:104F40000C4806F03DFD0023009340220A4B0B481D
:104F50004FF41E7104F0BCFCCBE7FCF761FB00BF13
:104F6000E45A002000080020704D00200075010860
:104F7000307501083C610020C14C0008784E0020CB
:104F800030B50C4D0C4A2B680C4C83B000210193BA
:104F9000012311702370142004F0F2FC2378002BFD
:104FA000F9D1019A2B689A4201D103B030BDFCF7C8
:104FB00037FB00BF00080020D24D0020D04D00205C
:104FC00010B50E4A82B013680193072811D80C4916
:104FD00000F1180300F1100451F8233051F82400B7
:104FE000C01A20EAE07001991368994203D102B017
:104FF00010BD0020F7E7FCF713FB00BF00080020FE
:10500000F44D00200000000000000000000000003F
:1050100000B50F4B83B01868019002290CD003290A
:105020000CD001290B4818BF0020019A1B689A4236
:105030000BD103B05DF804FB0748F6E7032A96BFDF
:105040000648002000EBC200EFE7FCF7E9FA00BFDA
:105050000008002050760108F0750108007701086B
:1050600070B5154C82B02368019302291CD10D46FE
:105070000646202383F3118804F072FF03F088FFB3
:1050800030460E4A012107F00BFF29460C4A3046F4
:1050900007F006FF0B4807F003FD03F099FF04F04B
:1050A00077FF002383F31188019A23689A4201D184
:1050B00002B070BDFCF7B4FA00080020707501085A
:1050C000A0750108F450002000000000000000005E
:1050D00030B5134D134C2B68134883B0019307F080
:1050E00057FC1249104807F083FC226D936B23F4A0
:1050F000002393634FF47A7004F042FC20460C497D
:1051000007F07EFE226D936B43F400239363019AB4
:105110002B689A4201D103B030BDFCF781FA00BF81
:1051200000080020485E0020F4500020D0750108DF
:10513000E075010800000000000000000000000011
:1051400000B5084B83B01A680192019A1B689A4215
:1051500005D1054803B05DF804EB05F0D1B8FCF7C4
:105160005FFA00BF00080020740800200000000063
:1051700000B5084B83B01A680192019A1B689A42E5
:1051800005D1054803B05DF804EB05F0F1B8FCF774
:1051900047FA00BF0008002074080020000000004B
:1051A00070B50D4C82B0236801930D1E06460DDDCF
:1051B000284605F0EDFD18B90C2333604FF0FF30A1
:1051C000019A23689A4205D102B070BD034803F0EA
:1051D000FFFDEDE7FCF724FA000800202077010826
:1051E00000B5064B83B01A680192019A1B689A4277
:1051F00002D103B05DF804FBFCF712FA00080020AE
:1052000000B5074B83B01A680192019A1B689A4255
:1052100004D103B05DF804EB05F072B8FCF700FAB6
:105220000008002000000000000000000000000056
:1052300000B5074B83B01A680192019A1B689A4225
:1052400004D103B05DF804EB05F092B8FCF7E8F97F
:105250000008002000000000000000000000000026
:1052600000B5074B83B01A680192019A1B689A42F5
:1052700004D103B05DF804EB05F0A2B9FCF7D0F956
:1052800000080020000000000000000000000000F6
:1052900000B5074B83B01A680192019A1B689A42C5
:1052A00004D103B05DF804EB05F00ABAFCF7B8F9D5
:1052B00000080020000000000000000000000000C6
:1052C00000B5074B83B01A680192019A1B689A4295
:1052D00004D103B05DF804EB03F03AB8FCF7A0F991
:1052E0000008002000000000000000000000000096
:1052F00010B50C4C82B02368019315290CD80122FB
:10530000094B8A4013403BB101740020019A236885
:105310009A4204D102B010BD6FF00700F6E7FCF727
:105320007FF900BF000800200B00300000000000E3
:1053300000B5074B83B01A680192019A1B689A4224
:1053400004D103B05DF804EB02F0CABAFCF768F9C7
:105350000008002000000000000000000000000025
:1053600010B5074B82B01C680194019C1B689C42DD
:1053700004D102B0BDE8104002F072B9FCF750F958
:1053800000080020000000000000000000000000F5
:1053900010B5074B82B01C680194019C1B689C42AD
:1053A00004D102B0BDE8104002F072BAFCF738F93F
:1053B00000080020000000000000000000000000C5
:1053C0002DE9F04182B002AB0024364D03F8054DC3
:1053D00090462A6801920F461A460121064603F0BC
:1053E000DFF90446E0B9B8F1010F9DF803301FD092
:1053F000042F53D8DFE807F0322D0328230003F0F1
:10540000FB07BB420CD03A460121304603F068F955
:10541000044628B986F830717169304602F060FAA6
:10542000019A2B689A42204636D102B0BDE8F0813D
:10543000042F33D8DFE807F02B26211C170003F0D8
:105440007F07BB42DFD1EBE703F0BF07BB42DAD1F6
:10545000E6E703F0D707BB42D5D1E1E703F0EF075A
:10546000BB42D0D1DCE743F08007BB42CBD1D7E7CA
:1054700043F04007BB42C6D1D2E743F00407BB422A
:10548000C1D1CDE743F02807BB42BCD1C8E743F008
:105490001007BB42B7D1C3E7FCF7C2F86FF00304B3
:1054A000BEE700BF00080020000000000000000070
:1054B00030B583B002AA114D002302F8053D0C4619
:1054C0002B680193012103F06BF978B99DF8033043
:1054D000C3F30011C3F3C0022170A270C3F38001B3
:1054E000C3F38012DB096170E2702371019A2B68AB
:1054F0009A4201D103B030BDFCF792F800080020B9
:1055000070B5134C84B00E46236803930DF1060268
:10551000F821054603F05CF928B1039A23689A4202
:1055200013D104B070BD02AA0421284603F068F923
:105530000028F2D1BDF8062012B93368AB61ECE760
:10554000029BB3FBF2F33360F8E7FCF769F800BFA6
:105550000008002000000000000000000000000023
:1055600000B5084B027F18680A7083B00190019A59
:105570001B689A4203D1002003B05DF804FBFCF7DE
:105580004FF800BF000800200000000000000000ED
:1055900070B5104C82B00E46236801930DF10202E3
:1055A0002021054603F014F938B9BDF8023053B193
:1055B000DB00012233602B622A77019A23689A422A
:1055C00005D102B070BD2B6A33602877F5E7FCF790
:1055D00027F800BF000800200000000000000000C5
:1055E000F0B5294F83B03B680193052947D80E4693
:1055F0000446154662B100EB81020023526B012084
:10560000711E04292FD8DFE801F02522130631008E
:1056100010460123F4E75B00FE226021204603F0E0
:105620008FF870B9344445B9284684F8285008E00A
:1056300084F82B003444002DF6D0012384F8283060
:105640000020019A3B689A421CD103B0F0BD84F857
:105650002A00EFE7C2F34F224421204603F058F816
:105660000028DFD0EDE784F82800E3E71B01EF22F4
:105670006021204603F064F80028D3D0E1E76FF002
:105680000300DEE7FBF7CCFF00080020000000006D
:1056900010B50C4B82B01C68019405290AD801444E
:1056A000002091F828101170019A1B689A4206D1C7
:1056B00002B010BD002111706FF00300F4E7FBF79A
:1056C000AFFF00BF00080020000000000000000045
:1056D000F0B543181C4E83B0044693F82800336895
:1056E00001930D46174630B105292AD8DFE801F0AD
:1056F000141E1A1C0C0C04EB81046263019A3368BB
:105700009A421CD103B0F0BDC2F34F22642120465F
:1057100002F0FEFF08B1F1E7626304EB85040020AC
:105720006763EBE7E263F8E72264F6E7C2F34F2230
:105730004421204602F0ECFF0028EED0DEE7FBF724
:105740006FFF6FF00300D9E70008002000000000A1
:1057500070B5204C82B02368019305461646052992
:1057600034D8DFE801F0030E0C1E2020436B3360B9
:105770000020019A23689A4226D102B070BDC36B03
:10578000F5E70DF10202442103F022F80028F0D1E0
:10579000BDF802305A028BB9AB6B336085F8290033
:1057A000E7E7036CE3E70DF10202642103F010F870
:1057B0000028DED1BDF802305B02D8E70123326059
:1057C000AA6385F82930D4E7FBF72AFF6FF00300BE
:1057D000CFE700BF0008002000000000000000002C
:1057E00070B5104C82B00E46236801930DF1030290
:1057F0000121054602F0D4FF58B99DF8033085F821
:1058000030311B064BBF012303463370307085F8DF
:105810004C30019A23689A4201D102B070BDFBF767
:10582000FFFE00BF00080020000000000000000094
:105830002DE9F047DFF898A0027CDAF8003082B05A
:105840000F4601F8082B06460193FFF759FEA0BB4F
:10585000387307F110013046FFF79AFE68BB07F175
:105860001401304600F064FD38BB044607F12405FE
:1058700006F1280907F118082A46A1B23046FFF7B9
:1058800067FFD0B9013419F8013B08F8013B062C39
:1058900005F10405F0D107F13C013046FFF7A0FF08
:1058A00058B9019ADAF800309A420ED1391D3046C3
:1058B00002B0BDE8F04702F08BB8019ADAF8003088
:1058C0009A4202D102B0BDE8F087FBF7A9FE00BF03
:1058D00000080020000000000000000000000000A0
:1058E0002DE9F041614F92B005463B6811930022CB
:1058F000882102F0F5FE4FF47A724FF4C8735C49C8
:10590000A5F85221A5F854315A4AC5F85811002378
:10591000C5F8D42085F8F0302B62284601A9FFF79E
:1059200087FF044688B9ADF8040001AE0FCE05F13B
:10593000100CACE80F000FCEACE80F000FCEACE8B7
:105940000F0096E80F008CE80F004B4BC5F8343180
:1059500001264FF420634FF4FA72A5F83C31A5F804
:1059600038218021324685F85061284602F0B8FE81
:1059700032468046FF21284602F0B2FE002248EA65
:10598000000011460443284602F0AAFE64B20DF15D
:10599000030204439121284602F002FF64B29DF8FD
:1059A000033085F83A31044332460021284602F09C
:1059B00097FE64B200220443FF21284602F090FEC5
:1059C00064B2044300228021284602F089FE64B2BA
:1059D000204340B278B90146324628463446FFF7A4
:1059E000FFFD40B90122A1B228461444FFF7F8FD9B
:1059F000062CF6D130B1119A3B689A4233D112B0DD
:105A0000BDE8F0816885024604212846FFF7E8FDDD
:105A10000028F0D1024605212846FFF7E1FD0028C5
:105A2000E9D14FF490136B634FF480420121284673
:105A3000FFF74EFE0028DED14FF40C13EB6395F810
:105A40002B3003B10023FF222B6485F83021012184
:105A5000284602F045FE012385F832310028CAD1DC
:105A600085F81501C7E7FBF7DBFD00BF0008002044
:105A7000856B0100A470090064008403000000002D
:105A800010B5084B82B01C680194019C1B689C42B5
:105A900005D1012302B0BDE8104000F039BFFBF78B
:105AA000BFFD00BF00080020000000000000000053
:105AB00030B5184C90F8DA30226883B0042B01928C
:105AC0000D460DF1030211D0142102F069FE20B938
:105AD0009DF80330DB0706D42870019A23689A42A8
