:020000040800F2
:1000000000040020C1010008A14C0008A14C000818
:1000100081430008A14C0008A14C0008A14C000835
:10002000A14C0008A14C0008A14C0008C16D0008BB
:10003000A14C0008A14C0008A14C000861D20008A6
:10004000A14C0008E1A1000871A30008C1A30008A9
:10005000A14C0008A14C0008219F0008719F0008D6
:10006000C19F000811A0000861A000086194000869
:10007000B19400080195000851950008A195000869
:10008000F195000841960008919D000861A50008BF
:10009000D1A5000881A6000831A70008B1A000087A
:1000A000A14C0008A14C000811CD0008A14C00088B
:1000B00021CE000861CE0008A1CE0008F1B40008EE
:1000C00031B60008A14C0008A14C0008A14C000862
:1000D000A14C0008A14C0008A14C000821D3000845
:1000E00041A1000831A2000881A20008A14C00082B
:1000F000A14C0008A14C0008A14C000891960008F2
:10010000A14C0008C1A80008E1CE0008A14C0008DD
:10011000A14C0008A14C0008D1CC0008A14C00085B
:10012000E19600083197000881970008D1970008F0
:1001300021980008A14C0008D1A20008A14C000899
:10014000A14C0008A14C0008A14C000811C90008EE
:1001500071980008C198000811990008A14C000886
:10016000A14C0008A14C0008A14C0008A14C0008BB
:1001700021A30008A14C0008F12F0008A14C0008A1
:10018000A14C0008A14C0008A14C0008A14C00089B
:10019000A14C0008A14C0008A14C0008A14C00088B
:1001A000A14C0008A14C0008A14C0008A14C00087B
:1001B000A14C0008A14C0008A14C0008A14C00086B
:1001C00072B62E4880F3098840F20000CCF200009D
:1001D0004EF63471CEF20001086040F20000C0F229
:1001E000F0004EF68851CEF2000108604FF000009A
:1001F000E1EE100A4EF63C71CEF2000108600620D6
:1002000080F31488BFF36F8F0DF0D2F94FF05530A3
:100210001B491C4A91423CBF41F8040BFAE71A49BA
:10022000164A91423CBF41F8040BFAE71749184AB5
:10023000184B9A423EBF51F8040B42F8040BF8E702
:1002400000201549154A91423CBF41F8040BFAE7DA
:1002500004F00EFD124C134DAC4203DA54F8041BAB
:100260008847F9E701F004FC0F4C104DAC4203DA6B
:1002700054F8041B8847F9E704F00ABD0008002081
:10028000000000200004002000040020E8570108BE
:100290000008002014120020181200203053002003
:1002A000C0010008C0010008C0010008C00100082A
:1002B0002DE9F04F2DED108AC1F80CD0D0F80CD0FC
:1002C000BDEC108ABDE8F08F04F02AFE05F018FEA0
:1002D000002383F311882846A047002005F0B0FBD7
:1002E00005F0F6FD04F0FCFD05F01AFA04F018FE26
:1002F00005F006FE00DFFEE7000000000000000041
:1003000081F0004102E000BF83F0004330B54FEAC6
:1003100041044FEA430594EA050F08BF90EA020F33
:100320001FBF54EA000C55EA020C7FEA645C7FEAC6
:10033000655C00F0E2804FEA5454D4EB5555B8BFE9
:100340006D420CDD2C4480EA020281EA030382EA5A
:10035000000083EA010180EA020281EA0303362DEC
:1003600088BF30BD11F0004F4FEA01314FF4801CBF
:100370004CEA113102D0404261EB410113F0004FD1
:100380004FEA03334CEA133302D0524263EB430388
:1003900094EA050F00F0A780A4F10104D5F1200E26
:1003A0000DDB02FA0EFC22FA05F2801841F1000181
:1003B00003FA0EF2801843FA05F359410EE0A5F155
:1003C00020050EF1200E012A03FA0EFC28BF4CF086
:1003D000020C43FA05F3C01851EBE37101F000453C
:1003E00007D54FF0000EDCF1000C7EEB00006EEB49
:1003F0000101B1F5801F1BD3B1F5001F0CD34908D3
:100400005FEA30004FEA3C0C04F101044FEA445229
:1004100012F5800F80F09A80BCF1004F08BF5FEAB0
:10042000500C50F1000041EB045141EA050130BD90
:100430005FEA4C0C404141EB010111F4801FA4F133
:100440000104E9D191F0000F04BF01460020B1FA88
:1004500081F308BF2033A3F10B03B3F120020CDAC0
:100460000C3208DD02F1140CC2F10C0201FA0CF09E
:1004700021FA02F10CE002F11402D8BFC2F1200C03
:1004800001FA02F120FA0CFCDCBF41EA0C019040B9
:10049000E41AA2BF01EB0451294330BD6FEA040402
:1004A0001F3C1CDA0C340EDC04F11404C4F12002ED
:1004B00020FA04F001FA02F340EA030021FA04F3FF
:1004C00045EA030130BDC4F10C04C4F1200220FA56
:1004D00002F001FA04F340EA0300294630BD21FA94
:1004E00004F0294630BD94F0000F83F4801306BF5A
:1004F00081F480110134013D4EE77FEA645C18BF4E
:100500007FEA655C29D094EA050F08BF90EA020FE4
:1005100005D054EA000C04BF1946104630BD91EADC
:10052000030F1EBF0021002030BD5FEA545C05D1DF
:100530004000494128BF41F0004130BD14F580041E
:100540003CBF01F5801130BD01F0004545F0FE4192
:1005500041F470014FF0000030BD7FEA645C1ABFC7
:10056000194610467FEA655C1CBF0B46024650EAFE
:10057000013406BF52EA033591EA030F41F400212A
:1005800030BD00BF90F0000F04BF0021704730B5B0
:100590004FF4806404F132044FF000054FF0000185
:1005A00050E700BF90F0000F04BF0021704730B546
:1005B0004FF4806404F1320410F0004548BF40421B
:1005C0004FF000013EE700BF42004FEAE2014FEA70
:1005D00031014FEA02701FBF12F07F4393F07F4F4B
:1005E00081F06051704732F07F4208BF704793F04E
:1005F0007F4F04BF41F40021704730B54FF4607461
:1006000001F0004521F000411CE700BF50EA010263
:1006100008BF704730B54FF000050AE050EA01020C
:1006200008BF704730B511F0004502D5404261EB7C
:1006300041014FF4806404F132045FEA915C3FF4BD
:10064000D8AE4FF003025FEADC0C18BF03325FEA5A
:10065000DC0C18BF033202EBDC02C2F1200300FA0B
:1006600003FC20FA02F001FA03FE40EA0E0021FA30
:1006700002F11444BDE600BF0000000000000000CD
:1006800070B54FF0FF0C4CF4E06C1CEA11541DBF28
:100690001CEA135594EA0C0F95EA0C0F00F0DEF8F3
:1006A0002C4481EA030621EA4C5123EA4C5350EAD8
:1006B000013518BF52EA033541F4801143F4801329
:1006C00038D0A0FB02CE4FF00005E1FB02E506F0BA
:1006D0000042E0FB03E54FF00006E1FB03569CF00F
:1006E000000F18BF4EF0010EA4F1FF04B6F5007F15
:1006F00064F5407404D25FEA4E0E6D4146EB060687
:1007000042EAC62141EA55514FEAC52040EA5E500F
:100710004FEACE2EB4F1FD0C88BFBCF5E06F1ED8B9
:10072000BEF1004F08BF5FEA500E50F1000041EBF0
:10073000045170BD06F0004646EA010140EA02009D
:1007400081EA0301B4EB5C04C2BFD4EB0C0541EABF
:10075000045170BD41F480114FF0000E013C00F3D4
:10076000AB8014F1360FDEBF002001F0004170BDF8
:10077000C4F10004203C35DA0C341BDC04F1140411
:10078000C4F1200500FA05F320FA04F001FA05F29D
:1007900040EA020001F0004221F0004110EBD3706A
:1007A00021FA04F642EB06015EEA430E08BF20EA96
:1007B000D37070BDC4F10C04C4F1200500FA04F339
:1007C00020FA05F001FA04F240EA020001F00041CB
:1007D00010EBD37041F100015EEA430E08BF20EA3E
:1007E000D37070BDC4F1200500FA05F24EEA020E86
:1007F00020FA04F301FA05F243EA020321FA04F0B5
:1008000001F0004121FA04F220EA020000EBD3706B
:100810005EEA430E08BF20EAD37070BD94F0000F6B
:100820000FD101F00046400041EB010111F4801F9F
:1008300008BF013CF7D041EA060195F0000F18BF50
:10084000704703F00046520043EB030313F4801F8C
:1008500008BF013DF7D043EA0603704794EA0C0F46
:100860000CEA135518BF95EA0C0F0CD050EA41065C
:1008700018BF52EA4306D1D181EA030101F00041D9
:100880004FF0000070BD50EA410606BF1046194601
:1008900052EA430619D094EA0C0F02D150EA01360D
:1008A00013D195EA0C0F05D152EA03361CBF10464E
:1008B00019460AD181EA030101F0004141F0FE41ED
:1008C00041F470014FF0000070BD41F0FE4141F471
:1008D000780170BD70B54FF0FF0C4CF4E06C1CEA71
:1008E00011541DBF1CEA135594EA0C0F95EA0C0F26
:1008F00000F0A7F8A4EB050481EA030E52EA0335E1
:100900004FEA013100F088804FEA03334FF0805501
:1009100045EA131343EA12634FEA022245EA11152E
:1009200045EA10654FEA00260EF000419D4208BFDF
:10093000964244F1FD0404F5407402D25B084FEA8C
:100940003202B61A65EB03055B084FEA32024FF438
:1009500080104FF4002CB6EB020E75EB030E22BF95
:10096000B61A754640EA0C005B084FEA3202B6EB55
:10097000020E75EB030E22BFB61A754640EA5C0004
:100980005B084FEA3202B6EB020E75EB030E22BF94
:10099000B61A754640EA9C005B084FEA3202B6EB95
:1009A000020E75EB030E22BFB61A754640EADC0054
:1009B00055EA060E18D04FEA051545EA16754FEAB6
:1009C00006164FEAC30343EA52734FEAC2025FEAD4
:1009D0001C1CC0D111F4801F0BD141EA00014FF063
:1009E00000004FF0004CB6E711F4801F04BF014334
:1009F0000020B4F1FD0C88BFBCF5E06F3FF6AFAE50
:100A0000B5EB030C04BFB6EB020C5FEA500C50F1DF
:100A1000000041EB045170BD0EF0004E4EEA113162
:100A200014EB5C04C2BFD4EB0C0541EA045170BD69
:100A300041F480114FF0000E013C90E645EA060EAD
:100A40008DE60CEA135594EA0C0F08BF95EA0C0FDB
:100A50003FF43BAF94EA0C0F0AD150EA01347FF423
:100A600034AF95EA0C0F7FF425AF104619462CE7FA
:100A700095EA0C0F06D152EA03353FF4FDAE10465D
:100A8000194622E750EA410618BF52EA43067FF4AE
:100A9000C5AE50EA41047FF40DAF52EA43057FF43E
:100AA000EBAE12E7000000000000000000000000B4
:100AB0004FF0FF3C06E000BF4FF0010C02E000BF2A
:100AC0004FF0010C4DF804CD4FEA410C7FEA6C5C0D
:100AD0004FEA430C18BF7FEA6C5C1BD001B050EAB0
:100AE000410C0CBF52EA430C91EA030F02BF90EA9B
:100AF000020F0020704710F1000F91EA030F58BF5A
:100B0000994208BF90422CBFD8176FEAE37040F0BB
:100B1000010070474FEA410C7FEA6C5C02D150EA59
:100B2000013C07D14FEA430C7FEA6C5CD6D152EA14
:100B3000033CD3D05DF8040B704700BF84461046D9
:100B400062468C461946634600E000BF01B5FFF7D8
:100B5000B7FF002848BF10F1000F01BD4DF808EDA8
:100B6000FFF7F4FF0CBF012000205DF808FB00BF79
:100B70004DF808EDFFF7EAFF34BF012000205DF8D3
:100B800008FB00BF4DF808EDFFF7E0FF94BF012020
:100B900000205DF808FB00BF4DF808EDFFF7CEFF21
:100BA00094BF012000205DF808FB00BF4DF808ED60
:100BB000FFF7C4FF34BF012000205DF808FB00BF31
:100BC0004FEA410C7FEA6C5C02D150EA013C0AD149
:100BD0004FEA430C7FEA6C5C02D152EA033C02D13B
:100BE0004FF0000070474FF0010070470000000018
:100BF0004FEA410212F5001215D211D56FF4787345
:100C0000B3EB625212D94FEAC12343F0004343EAE7
:100C1000505311F0004F23FA02F018BF40427047C2
:100C20004FF00000704750EA013005D111F000404C
:100C300008BF6FF0004070474FF00000704700BFE2
:100C40004FEA4102B2F1E04324BFB3F5001CDCF1EE
:100C5000FE5C0DD901F0004C4FEAC0024CEA507026
:100C6000B2F1004F40EB830008BF20F00100704755
:100C700011F0804F21D113F13872BCBF01F0004058
:100C8000704741F480114FEA5252C2F11802C2F18A
:100C9000200C10FA0CF320FA02F018BF40F001000B
:100CA0004FEAC1234FEAD32303FA0CFC40EA0C00BD
:100CB00023FA02F34FEA4303CCE77FEA625307D1FA
:100CC00050EA01331EBF4FF0FE4040F44000704731
:100CD00001F0004040F0FE4040F40000704700BFCB
:100CE00053B94AB9002908BF00281CBF4FF0FF3193
:100CF0004FF0FF3000F074B9ADF1080C6DE904CE8F
:100D000000F006F8DDF804E0DDE9022304B07047E6
:100D10002DE9F047089E04468846002B4BD18A42B5
:100D2000154667D9B2FA82F24AB1C2F1200701FA38
:100D300002F320FA07F7954047EA030894404FEA88
:100D4000154E230CB8FBFEF71FFA85FC0EFB178827
:100D500043EA084307FB0CF1994209D9EB1807F164
:100D6000FF3080F01B81994240F21881023F2B44F2
:100D70005B1AA4B2B3FBFEF00EFB103344EA03444B
:100D800000FB0CFCA44509D92C1900F1FF3380F0BD
:100D90000781A44540F2048102382C4440EA074010
:100DA000A4EB0C0400271EB1D4400023C6E9004385
:100DB0003946BDE8F0878B4209D9002E00F0EB8060
:100DC0000027C6E9000138463946BDE8F087B3FA86
:100DD00083F7002F47D18B4202D3824200F2FA8080
:100DE000841A61EB030301209846002EE0D0C6E987
:100DF0000048DDE702B9FFDEB2FA82F2002A40F0D5
:100E00008F80491B4FEA154E1FFA85F80127B1FB69
:100E1000FEFC230C0EFB1C1143EA014308FB0CF102
:100E2000994207D9EB180CF1FF3002D2994200F237
:100E3000CD808446591AA3B2B1FBFEF00EFB10140C
:100E400043EA044408FB00F8A04507D92C1900F137
:100E5000FF3302D2A04500F2B6801846A4EB080486
:100E600040EA0C409FE7C7F1200CBB4022FA0CFE81
:100E70004EEA030E01FA07F420FA0CF521FA0CF3FE
:100E80004FEA1E482543B3FBF8F92C0C08FB193335
:100E90001FFA8EFA44EA034309FB0AF49C4202FA61
:100EA00007F200FA07F10BD91EEB030309F1FF303B
:100EB00080F087809C4240F28480A9F1020973444B
:100EC0001B1BADB2B3FBF8F008FB103345EA03443B
:100ED00000FB0AFAA24508D91EEB040400F1FF3317
:100EE0006BD2A24569D90238744440EA0940A0FB9C
:100EF0000289A4EB0A044C45C2464B4654D351D058
:100F0000002E69D0B1EB0A0564EB030404FA0CFC73
:100F1000FD40FC404CEA0505C6E90054002747E7C0
:100F2000C2F1200320FA03F7954001FA02F021FAFA
:100F300003F34FEA154E3843010CB3FBFEF71FFADB
:100F400085F80EFB173341EA034107FB08F38B4298
:100F500004FA02F407D9691807F1FF3C2FD28B423B
:100F60002DD9023F2944CB1A81B2B3FBFEF00EFB10
:100F7000103341EA034100FB08F38B4207D969189B
:100F800000F1FF3C17D28B4215D902382944C91A07
:100F900040EA07473BE73746304609E70746E7E6BA
:100FA0001846FBE64145ABD2B8EB020A69EB0E02EC
:100FB00001381346A4E76046E9E7184695E7674617
:100FC000D1E781467CE702382C4447E7ACF1020CBC
:100FD0002B442FE7384608E73746E9E600000000D3
:100FE000704700BF0000000000000000000000008B
:100FF000844641EA000313F003036DD1403A41D324
:1010000051F8043B40F8043B51F8043B40F8043BE2
:1010100051F8043B40F8043B51F8043B40F8043BD2
:1010200051F8043B40F8043B51F8043B40F8043BC2
:1010300051F8043B40F8043B51F8043B40F8043BB2
:1010400051F8043B40F8043B51F8043B40F8043BA2
:1010500051F8043B40F8043B51F8043B40F8043B92
:1010600051F8043B40F8043B51F8043B40F8043B82
:1010700051F8043B40F8043B51F8043B40F8043B72
:10108000403ABDD2303211D351F8043B40F8043B12
:1010900051F8043B40F8043B51F8043B40F8043B52
:1010A00051F8043B40F8043B103AEDD20C3205D322
:1010B00051F8043B40F8043B043AF9D2043208D01A
:1010C000D2071CBF11F8013B00F8013B01D30B888C
:1010D00003806046704700BF082A13D38B078DD06A
:1010E00010F003038AD0C3F10403D21ADB071CBF3C
:1010F00011F8013B00F8013B80D331F8023B20F8A6
:10110000023B7BE7043AD9D3013A11F8013B00F8DE
:10111000013BF9D20B7803704B7843708B78837066
:101120006046704700000000000000000000000062
:1011300090F800F06DE9024520F007016FF0000C17
:1011400010F0070491F820F040F049804FF00004BF
:101150006FF00700D1E9002391F840F000F108009A
:1011600082FA4CF2A4FA8CF283FA4CF3A2FA8CF3D2
:101170004BBBD1E9022382FA4CF200F10800A4FA39
:101180008CF283FA4CF3A2FA8CF3E3B9D1E904238D
:1011900082FA4CF200F10800A4FA8CF283FA4CF3C4
:1011A000A2FA8CF37BB9D1E9062301F1200182FA7E
:1011B0004CF200F10800A4FA8CF283FA4CF3A2FA84
:1011C0008CF3002BC6D0002A04BF04301A4612BA92
:1011D000B2FA82F2FDE8024500EBD2007047D1E995
:1011E000002304F00305C4F100004FEAC50514F024
:1011F000040F91F840F00CFA05F562EA05021CBFF5
:1012000063EA050362464FF00004A9E7000000000E
:1012100001F0FF01102A2BDB10F0070F08D010F8A7
:10122000013B013A8B422DD010F0070F42B3F6D1AB
:10123000F0B441EA012141EA014122F007047FF0C4
:1012400000070023F0E80256083C85EA010586EA1B
:10125000010685FA47F5A3FA87F586FA47F6A5FA57
:1012600087F68EB9EED1F0BC01F0FF0102F0070263
:1012700032B110F8013B013A83EA010313B1F8D10E
:101280000020704701387047002D06BF35460338EF
:10129000073815F0010F07D1013015F4807F02BF28
:1012A000013015F4C03F0130F0BC0138704700BF79
:1012B00000B5084B83B01A680192019A1B689A42E4
:1012C00005D1054803B05DF804EB03F069BDFFF7F5
:1012D000EFFF00BF000800203040010800000000C0
:1012E00010B5124C82B02368019301F0E1F850B9B7
:1012F00001F0C6F8019A23689A4215D102B0BDE800
:10130000104001F01DBD01F0EBFC4FF42F7004F014
:101310001FFB01F0E5F8019A23689A4204D102B05C
:10132000BDE8104001F0F4BCFFF7C2FF0008002048
:101330002DE9F0412DED028BC54C82B0236801935D
:1013400050B9C44D2B78042B3CD8DFE813F04F0084
:1013500022006500F200590001F0FAF80388962B8C
:101360003AD901F0F5F80388B3F5E17F34D201F002
:10137000EFF84388282B2FD901F0EAF84388312B66
:101380002AD8A02001F02CF9B24DB34A01231370E2
:101390002B7000F0EDFE002800F0D78000F0E8FE92
:1013A000012800F0D28001F06BFC58B1AA4D2B78D7
:1013B000002B00F04781142001F012F92B7883F004
:1013C00001032B70019A23689A4240F03F8102B0DA
:1013D000BDEC028BBDE8F081A04B9E4D1B6802A8BE
:1013E00040F8083D01F01CF900232B7001F060FC6F
:1013F0000028E7D0A02001F0F3F801232B70E1E7EB
:1014000001F03EFC0028DDD000F0B2FE002840F0E4
:10141000D58002232B70D5E700F0AAFE012800F04A
:10142000DA8000F0A5FE002840F0CD8000F070FECC
:1014300000F086FEB0F90230002BC3DA00F080FE27
:10144000B0F9007000F07CFEB0F9006000F078FEAA
:10145000B0F9028000F074FE438813FB08F307FB29
:101460000636082EAEDD00F053FEB0F9026000F043
:1014700067FE7A4BB0F902201B680093C6F1320672
:1014800096FBF2F607EE906AF8EEE78A00F040FE6F
:10149000B0F9003007EE903AB8EEE78A00F050FE5F
:1014A000B0F9003007EE903AF8EEE77AA7EEA88A96
:1014B000FDEEC87A17EE903A1BB2A3F1970292B2F2
:1014C000B2F5957FADF800303FF67CAF684601F08D
:1014D000A7F800F01DFEBDF90220B0F902309B1AFA
:1014E00007EE903AB8EEE78A00F012FEBDF9002050
:1014F000B0F900309B1A00EE903AB0EE480AF8EED0
:10150000E00A0CF085FEDFED567A9FED567A564ADA
:1015100020EE270AC0EE077AFDEEE77A17EE903A42
:101520001BB2002BB8BF03F5B473138003232B70D9
:1015300048E701F0BDFB00283FF444AF4A4B188850
:1015400001F04EF804232B703CE700F0E1FDB0F908
:10155000026000F0FDFFB0F90230F61A07EE906A63
:10156000B8EEE78A00F0D4FDB0F9006000F0F0FFBB
:10157000B0F90230F31A00EE903AB0EE480AF8EEF5
:10158000E00A0CF045FEDFED367A9FED367A20EE6C
:10159000270AC0EE077AF5EEC07AF1EE10FA03D50D
:1015A0009FED327A77EE877AFCEEE77A17EE903A83
:1015B00098B201F015F802232B7003E700F0D8FD74
:1015C00001283FF426AF00F0D3FD02287FF4FAAEE5
:1015D00001232B70F6E600F09BFDB0F9025000F0FD
:1015E000B7FFB0F90230ED1A07EE905AB8EEE78A6D
:1015F00000F08EFDB0F9005000F0AAFFB0F9003005
:10160000EB1A00EE903AB0EE480AF8EEE00A0CF061
:10161000FFFDDFED137A9FED137A20EE270AC0EE6F
:10162000077AF5EEC07AF1EE10FA44BF9FED0F7A1B
:1016300077EE877AFCEEE77A17EE903A98B200F0F0
:10164000CFFFBFE6A02000F0CBFFB7E6FFF730FEEC
:1016500000080020040800200508002020400108A0
:1016600000003443DB0F49401E1200200000B44349
:101670002DE9F0432DED028BD04D85B02B680393FF
:10168000002840F0C880CE4C2178B1FA81F1490998
:10169000002002F06DFD21780120091AB1FA81F1D4
:1016A000490902F065FD21780220091AB1FA81F199
:1016B000490902F05DFD21780320091AB1FA81F190
:1016C000490902F055FD2378042B00F29A80DFE8E7
:1016D00013F0B900050000010B01AE0000F048FD59
:1016E000002840F01D8100F013FDB0F90230B54E26
:1016F000B54FC3F57A7307EE903AB8EEE78A00F07B
:1017000007FDB0F90030C3F5967300EE903AB0EEE5
:10171000480AF8EEE00A0CF07BFDDFEDAE7A9FEDB3
:10172000AE7A20EE270AC0EE077AFDEEE77A17EED2
:10173000903A1BB2002BB8BF03F5B473338000F0AE
:10174000E7FC8046B6F90000FEF72CFF41EC100BD9
:101750000CF05EFAB8F900008DED000BFEF722FFE9
:101760009DED000B80468946002251EC100B974BF3
:10177000FEF786FF02460B4640464946FEF7C4FD8B
:10178000FFF736FA388000F0C3FC8046B6F9000057
:10179000FEF708FF41EC100B0CF09AFAB8F90200C2
:1017A0008DED000BFEF7FEFE9DED000B8046894699
:1017B000002251EC100B854BFEF762FF0B460246F0
:1017C00049464046FEF7A0FDFFF712FAB7F9003090
:1017D00000B2282B788040F3EB80B3F50C7F04DB5C
:1017E0004FF40C725A233A803380282800F3318159
:1017F000282200237A803380734800F011FF0223EF
:101800002370039A2B689A4240F02D8105B0BDECFD
:10181000028BBDE8F0834FF45C7003F019F8684C5C
:101820006B4802F0FDFF00232370012130E701F037
:1018300057FA4FF4617004F08BF801F069FA012354
:101840002370DEE74FF45C7003F002F8604802F0AA
:10185000E7FF00F08DFC18B100F08AFC0128D0D120
:1018600000F056FCB0F9026000F072FEB0F90230F0
:10187000F61A07EE906AB8EEE78A00F049FCB0F974
:10188000006000F065FEB0F90030F31A00EE903A07
:10189000B0EE480AF8EEE00A0CF0BAFCDFED4D7A43
:1018A0009FED4D7A20EE270AC0EE077AF5EEC07A5A
:1018B000F1EE10FA03D59FED497A77EE877AFCEEC8
:1018C000E77A17EE903A98B200F08AFE012323706F
:1018D00097E701F0EDF9002893D03A4B188800F013
:1018E0007FFE032323708CE701F0CAF9002888D01B
:1018F00000F03EFC08B90423237000F039FC0128F5
:101900006ED000F035FC02287FF47BAF4FF45C70A2
:1019100002F09EFF2E4802F083FF0023237070E741
:1019200000F026FC0228F1D000F022FC01287FF410
:1019300068AF00F0EDFBB0F9024000F009FEB0F92D
:101940000230E41A07EE904AB8EEE78A00F0E0FBB6
:10195000B0F9004000F0FCFDB0F90030E31A00EEF1
:10196000903AB0EE480AF8EEE00A0CF051FCDFEDD8
:10197000197A9FED197A039A2B6820EE270AC0EE98
:10198000077AF5EEC07AF1EE10FA44BF9FED137AB4
:1019900077EE877A9A4266D1FCEEE77A17EE903AB4
:1019A00098B205B0BDEC028BBDE8F04300F018BE64
:1019B00028225A233A80338017E700BF000800200E
:1019C0001C12002020120020181200200000544099
:1019D00090FCFFFF00003443DB0F49400000B4439C
:1019E00000F096FBB0F9026000F0B2FDB0F90230F1
:1019F000F61A07EE906AB8EEE78A00F089FBB0F9B4
:101A0000006000F0A5FDB0F90030F31A00EE903A46
:101A1000B0EE480AF8EEE00A0CF0FAFB5FED137A3C
:101A20001FED137A20EE270AC0EE077AF5EEC07A92
:101A3000F1EE10FA44BF1FED177A77EE877AFCEECD
:101A4000E77A17EE903A98B200F0CAFD01232370AE
:101A500057E7B0F5707FFFF6CFAE4FF470720023FA
:101A60007A803380C8E6FFF723FC00BF0000000047
:101A700030B51D4B83B01B68019305F001FA03F0EC
:101A800027F902F025FC1949194806F039FC02240F
:101A900003F056F801F0CCFD02F0A2F902F050FF7D
:101AA00000F07EFB01F024FA00F032FD01F0B0F905
:101AB00007E014D3032801D1FFF712FC1E2003F026
:101AC00047FF01F0FDF9051B18BF012501F0F8F9EA
:101AD00001280446EDD12846FFF7CAFDEEE7284667
:101AE000FFF726FCEAE700BF0008002008080020F6
:101AF00084520020000000000000000000000000F0
:101B000080B5274C274AA3692749996186B00323EA
:101B10002025002116680093EF224FF42073CDE9B1
:101B200001554420059601F003FF2D2002F088F9AD
:101B3000002002F0D5F91D4E1D4F002002F0A0F943
:101B400001F0FEFD002001F033FEB04601F098FDEB
:101B500013E003F0BDFD03F0E3F904F0D1F92368CD
:101B6000A34207D0A2699B6892689A4202D2384683
:101B700003F016F9002383F3118801F059FE01F0F8
:101B8000BFFD85F3118804F0A3F903F0A9F903F070
:101B900077FAB368002BDCDC404604F071FAD8E732
:101BA0006044002000080020504001081808002070
:101BB000704001080000000000000000000000006C
:101BC0002DE9F04F2B4D04782D680C7044784C7043
:101BD00087B090F87F420595002581F87F42CDE9D6
:101BE000015290F87E42DFF89080039381F87E42A4
:101BF00001F1010C00F5F06BAA4602270CF801AFC9
:101C00001FFA87F9C6190BEB070E002316F8024CD2
:101C100016F8012C3578B178224474782A4422448D
:101C20000A44A8FB021203EBD20306F52076DBB2CE
:101C3000B6458CF80030E9D10A2B06D8019B93B940
:101C4000029BA3F8009001230193013740F27E2309
:101C50009F42D3D1074B059A1B6801989A4206D13F
:101C600007B0BDE8F08F039BA3F80090EDE7FFF706
:101C70001FFB00BF00080020898888880000000042
:101C8000F0B51F4D0C882B6883B0092C019313D934
:101C90001C4F06192744737816F801CDA3EB0C03EB
:101CA00003EBD3735B1007F8013901330C8003DBBE
:101CB000013CA4B2012CEED1118840F27523994267
:101CC00015D8104C08440C4440F27F2710F8013F0F
:101CD00010F8026C9B1B03EBD3735B10012B04F811
:101CE000013B118003DC013189B2B942EED1019A86
:101CF0002B689A4201D103B0F0BDFFF7D9FA00BFBB
:101D00000008002038120020000000000000000041
:101D10002DE9F04F2DED0A8BC94E83B03368019346
:101D20000A2807460C46A1EB000303D9B1F51D7F35
:101D300040F26E81C34A0121117007EE903ADFED47
:101D4000C2AA9FEDC27A9FEDC2AADFEDC29A9FEDB3
:101D5000C2BADFF82C83C14DF8EEE77AB6EE009AEE
:101D600067EEAA7A3C4487EE870A20EE090A0CF057
:101D700037F907EE904A9FEDBA6ADFEDBA6AF8EEDE
:101D8000E77AC6EE80BA87EE867A39EE479A00F097
:101D9000DFFBB0F9003008EE903A00F001FC07EEEE
:101DA000900AB8EEE70AF8EEE88A20EE0A0A80EE1A
:101DB000290A0CF0C5F8E0EE0B8A00F0F1FB07EE03
:101DC000900AF8EEE77A67EE8A7A87EEA90AA9EE1A
:101DD0002A0A0CF0B5F8B0EE40CA00F0B9FBB0F931
:101DE000023008EE103A00F0DBFB07EE900AB8EE86
:101DF000E70AB8EEC88A20EE0A0A80EE290A0CF03B
:101E0000EFF8A0EE0B8A00F0CBFB07EE900AF8EE9D
:101E1000E77A27EE8AAA8AEE290AA9EE2A0A0CF0A6
:101E2000DFF8F0EE687AEBEE8C7AB8F90030B5F9AD
:101E30000070DFED8D5A9FED8D6AABEE808AFDEE6E
:101E4000E77A06EE903A17EE902AB8F90230BDEE26
:101E5000C88A12B207EE103A07EE902A18EE102A3E
:101E6000F8EEE66A12B2B8EEC77AF8EEE77A66EEF6
:101E7000A56A08EE102A27EE257AE7EE866A202367
:101E8000B8EEC88AF0EE477AE8EE067ABDEEE67A5A
:101E9000FDEEE77A17EE102A14B217EE902AA8F892
:101EA0000040A8F8022083F31188DFF8D89104F0ED
:101EB0000FF803F015F8D9F828B003F031F804F062
:101EC0001FF8D9F800204A4506D0D9F81830926892
:101ED0009B689342C0F0AA80002383F31188DFF847
:101EE000A8A1634ADAF80030DFED626AABEB030BBE
:101EF0004FF47A730BFB0333013BA2FB0323E41B78
:101F00009B0907EE903A07EE104AF8EEE77AB8EE32
:101F1000C77AB5F90220B8F90230C7EE278A9B1AB2
:101F2000202207EE903A68EEA68AB8EEE78A82F39E
:101F3000118803F0CDFF02F0D3FFD9F8284002F05A
:101F4000EFFF03F0DDFFD9F800304B4505D0D9F89D
:101F500018209B6892689A4260D3002383F311880B
:101F6000DAF80030424A9FED405ADFED424ADFED99
:101F70003F5AB8F800102980E41A4FF47A7304FB32
:101F80000333013BA2FB03239B0907EE903AF8EED3
:101F9000E77A394BB8F80220D3ED016A93ED007A65
:101FA0006A8088EE276A202266EE856A67EE057AE7
:101FB00026EE246AB0EE667AA6EE257AE8EEA57AD9
:101FC00083ED017AC3ED007A82F3118803F080FF7C
:101FD00002F086FFD9F8284002F0A2FF03F090FF3C
:101FE000D9F800304B4505D0D9F818209B68926885
:101FF0009A4217D3002383F31188CAF80040019A4C
:1020000033689A421AD103B0BDEC0A8BBDE8F08F59
:102010000E2B0FDC0B4B02221A70F0E7174802F070
:10202000BFFE9AE7154802F0BBFEE3E7134802F053
:10203000B7FE51E7034A002111707EE6FFF738F939
:102040000008002014080020F90F493F0000204438
:10205000DB0F49400000344300000C4224120020F2
:102060000000A04448E19541CDCC4C3FCDCC4C3E46
:10207000D34D62100000C8422C12002070400108AD
:1020800028120020604400203412002000000000CC
:1020900070B5194A194B926919499161ADF5227DC4
:1020A0001B68A19301A84FF4207200210EF0E8FDF7
:1020B000144E154C0023ADF80030ADF80230022567
:1020C000204603F0A5FF01F08BFB0DF102036A46E9
:1020D00001A9FFF775FD08B93570F1E7694601A858
:1020E0000DF10202FFF7CCFDBDF80210BDF80000B3
:1020F000FFF70EFEE4E700BF604400200008002068
:1021000060400108140800201808002000000000AA
:1021100000B5074B83B01A680192019A1B689A4276
:1021200003D1044803B05DF804FBFFF7C1F800BF1A
:10213000000800202812002000000000000000001D
:1021400000B5074B83B01A680192019A1B689A4246
:1021500003D1044803B05DF804FBFFF7A9F800BF02
:10216000000800202C1200200000000000000000E9
:1021700000B5074B07491A68087883B00192019AA5
:102180001B689A4202D103B05DF804FBFFF790F898
:1021900000080020140800200000000000000000DB
:1021A00030B50E4C0E4B22680E4885B000250392C8
:1021B00042F278114022009503F072FB0A4B009521
:1021C00040220A484FF41E7103F06AFB039A236809
:1021D0009A4201D105B030BDFFF76AF8000800202F
:1021E0009120000830170020011B0008B8140020BF
:1021F0000EB410B50A4C0B4923680B4883B0019309
:1022000006AB1A4600930BF02BFA019A23689A4208
:1022100004D103B0BDE8104003B07047FFF748F8A1
:1022200000080020904001088452002000000000B7
:102230002DE9F041104F114E3B6882B00546302227
:10224000202101936C1E0EF01BFD2F35B04601E0DE
:10225000AC4208D033684046DB689847C0B22D28AE
:1022600004F8010FF4D1019A3B689A4202D102B0FE
:10227000BDE8F081FFF71CF8000800208452002020
:1022800030B50C4C83B02368019300F061F90588E8
:1022900000F05EF901992368994208D14388064904
:1022A00006482A4603B0BDE83040FFF7A1BFFEF75D
:1022B000FFFF00BF0008002090400108845200206A
:1022C00000B56138C3B20B4A152B83B0116898BFB3
:1022D0000948019198BFD8400199136894BF00F054
:1022E00001000020994202D103B05DF804FBFEF723
:1022F000DFFF00BF000800208D003000000000005C
:102300002DE9F04F474EDFF83091336885B04FF03C
:102310000008039399F800300093434B1B78019316
:10232000834600F1300547465C4614F801ABBAF12C
:102330002D0F1ED05046FFF7C3FFB8B123783A2BBC
:1023400023D00022AAF1610ABAF1150F0ED8DFE8F6
:102350000AF0490D433D0D0D0D370D0D0D0D0D0D01
:102360000D0D0D0D0D0D4F0B304B5A80AC42A34699
:10237000DAD1002F50D1B8F1000F48D1039A336859
:102380009A4242D105B0BDE8F08F0BF10601A44698
:1023900000221CF801EFAEF130035FFA83FBBBF1C2
:1023A000090F2BD81A4492B202EB82025200614507
:1023B00092B2EED11E4BA3FB023242F3CF02C1E731
:1023C000AC4207460090A346AED1D2E7194BAC42CF
:1023D0001A80A346A8D1CCE7AC4280460190A34620
:1023E000A2D1C6E7134BAC425A80A3469CD1C0E7AA
:1023F0000E4BAC421A80A34696D1BAE7BEF1200F2D
:10240000D8D0AC42A3468FD1B3E7FEF751FF064BBD
:102410009DF804201A70B1E79DF8003089F800306B
:10242000A9E700BF00080020A8380020B438002029
:10243000CDCCCCCCAC380020B0380020000000005F
:1024400000B50A4A0A4B92690A491B680A4C916115
:1024500083B001932046FFF7EBFE2046FFF750FFC5
:10246000FFF70EFF322003F073FAF3E76044002019
:102470000008002080400108B8380020000000005B
:1024800000B5074B83B01A680192019A1B689A4203
:1024900003D1044803B05DF804FBFEF709FF00BF59
:1024A00000080020AC380020000000000000000000
:1024B00000B5074B07491A68087883B00192019A62
:1024C0001B689A4202D103B05DF804FBFEF7F0FEF0
:1024D00000080020B03800200000000000000000CC
:1024E00000B5084B08491A6883B000200192019A90
:1024F0001B6808709A4202D103B05DF804FBFEF736
:10250000D7FE00BF00080020B03800200000000007
:1025100010B50A4C0A4B22680A4884B04FF45E7129
:10252000039200220092402203F0BAF9039A236832
:102530009A4201D104B010BDFEF7BAFE0008002097
:1025400041240008E83800200000000000000000DE
:1025500000B50E4A0E4B92ED007AD2ED017A196861
:102560000C4883B0BDEEC77A0191FDEEE77A17EE15
:10257000101A019A1B68018017EE901A9A42418046
:1025800002D103B05DF804FBFEF792FE280800209C
:1025900000080020683C002000000000000000004F
:1025A00000B50A4B0A491A68D1ED007A83B001924E
:1025B000019A1B689A4207D1FDEEE77A17EE901A4E
:1025C00008B203B05DF804FBFEF772FE00080020BD
:1025D000643C00200000000000000000000000003B
:1025E00010B50B4B0B4C1A680B4982B007EE900AE2
:1025F0000192019A1B68F8EE677A00209A422070D7
:10260000C1ED007A01D102B010BDFEF751FE00BF4E
:102610000008002024080020603C0020000000008A
:1026200030B5B0F90020214B214D93ED007AD3ED68
:10263000017A20492B6800EE902AB0F9022000EEC2
:10264000102A83B0F8EEE00AB8EEC00A1A4A0193E5
:1026500070EEC70A002330EE670A04460B70137051
:102660000BF0D6FD9FED157ADFED156AB4F9003059
:1026700001992A68134820EE070A07EE903A80EE87
:10268000267A114B9142F8EEE77A80ED007AC3ED9D
:10269000007AB4F9024007EE904AF8EEE77AC3ED0B
:1026A000017A01D103B030BDFEF702FE28080020F8
:1026B00000080020240800203008002000003443D7
:1026C000DB0F4940603C00206C3C00200000000013
:1026D000F0B52DED068BDFED368A364D70EE287A9B
:1026E00085B02B68039317EE900AB0EE609A30EE37
:1026F000608AFDF769FF9FED2C1B41EC100B41EC4C
:102700001A0B0BF0BDFC79EE287A57EC106B17EE24
:10271000900AFDF759FF9FED241B41EC100B41EC93
:10272000190B0BF0ADFCFDEEC87A53EC102B17EE35
:10273000904A3046002C3946B8BF6442FDF7E4FDAC
:10274000FEF756FA0028B8BF404284421DDBB0EEC7
:102750004A0AF0EE6A0A9FED141B0BF091FC51EC53
:10276000100BB0EE490AF0EE690A9FED0F1BCDE9A0
:1027700000010BF085FCDDE9000153EC102BFDF7A7
:10278000C3FDFEF75DFA08EE100A039A2B689A4221
:10279000B0EE480A03D105B0BDEC068BF0BDFEF7E4
:1027A00087FD00BFAFF3008000000000008076408E
:1027B000000034430008002000000000000000007A
:1027C00070B52DED028B404E90ED007AD0ED017A80
:1027D000D1ED000A91ED010A336882B070EEC70AAC
:1027E00030EE670A04460D4601930BF011FDDFED54
:1027F000377A9FED377A374B20EE270A93ED008A20
:10280000C0EE078AB0EE480AF0EE680AFFF760FFF4
:10281000DFED317AB4EEE70AF1EE10FA0CD5F0EE06
:10282000680AB0EE480AFFF753FFDFED2C7AB4EEEA
:10283000E70AF1EE10FA27DC94ED016AD5ED017A92
:10284000D4ED006A95ED007A77EEC67A37EE667AB7
:1028500067EEA77AE7EE077A17EE900AFDF7B4FE67
:1028600041EC100B0BF074FC51EC100BFEF7E8F987
:1028700080F00040019A33689A4200EE100A20D19D
:1028800002B0BDEC028B70BD94ED016AD5ED017A0A
:10289000D4ED006A95ED007A77EEC67A37EE667A67
:1028A00067EEA77AE7EE077A17EE900AFDF78CFE3F
:1028B00041EC100B0BF04CFC51EC100BFEF7C0F987
:1028C000D8E7FEF7F5FC00BF000800200000344305
:1028D000DB0F4940643C00200000B4420000B4C259
:1028E0002DE9F04F2DED0A8BD14AD24B9269D24996
:1028F0001B68916185B000200393002401F0F0FF74
:10290000002002F005F8CD4ECD4DCE4FDFF86C83A0
:10291000DFF858A39FEDCC8ADFEDCC9A9FEDCC9ADF
:10292000DFEDCC8ADFEDCCAA9FEDCCAAA3461CE05C
:10293000F4EECA7AF1EE10FAC8BF77EECA7AC6EDA5
:10294000007A01F09DFF834601F0B2FF97F80090F6
:102950000446B9F1000F5FD098F80090B9F1000F6C
:1029600000F08780142002F0F3FF01F089FF814618
:1029700001F09EFFA9EB0B0B041B4FFA8BFB64B21B
:102980000BEB040307EE903AD6ED00BAF8EEE77AC7
:102990002BEE887A67EE887AC7EE28CAA4EB0B0480
:1029A00067EEA97AB0EE6C0A87EE89BA0BF0C8FA26
:1029B00095ED007A2BEE000AB6EE00CAA0EE0C7A76
:1029C000B0EE6C0A85ED007A0BF00AFB07EE904A38
:1029D000F8EEE77A2BEE000A67EE887A95ED017A39
:1029E00067EEA97AA0EE0C7A87EE890A85ED017A66
:1029F00080EE2A0A0BF0CCF920EE280AC0EE087A05
:102A000077EEAB7AF5EEC07AF1EE10FA90D577EE6C
:102A10008A7AC6ED007A94E7914B96ED000AD3EDE1
:102A2000000AFFF755FEFDEEC07A9FED8E7A17EE95
:102A3000903A002BB8BF5B4207EE903AF8EEE77A87
:102A4000F4EEC77AF1EE10FA67D4B5EEC00AF1EEF3
:102A500010FA6BDDB1EE047AB4EEC70AF1EE10FAAB
:102A600073DD4FF4C87001F0DBFE7F4801F0F0FE2B
:102A700078E77E497248FFF7A3FEFDEEC07AB0EE1C
:102A800040BA17EE902A0132022A09D8012248469C
:102A900088F8002001F0C4FE484601F0D9FE61E745
:102AA00095ED007AD5ED017ADAED000A9AED010A8A
:102AB000D6ED00BA70EEC70A30EE670A0BF0A8FB3D
:102AC00060EE280AB0EE6B0AC0EE880AFFF700FE3F
:102AD000B5EEC0BAF1EE10FAF0EE40BA63DDB1EE39
:102AE000047AB4EEC7BAF1EE10FA7ADD9FED60BA5F
:102AF000B2EE04CAF0EE4B7AE0EE0C7AFDEEE77A25
:102B000017EE900A01F08CFEABEECCBAFDEECB7A5C
:102B100017EE900A01F09CFE24E7012248463A7025
:102B200001F07EFE484601F093FE1BE7F9EE047AC1
:102B3000B4EEE70AF1EE10FA1DD54B4801F070FE35
:102B40004FF4C87001F084FE0CE7C0EE076ADFEDB9
:102B5000497A66EEA77A67EEA67AFDEEE77A17EE77
:102B6000903A0FFA83F9484601F05AFEC9F1000085
:102B700001F06EFEF6E6F1EE047A80EE277ADFEDE4
:102B80003D7A67EE277A67EE877AFDEEE77A17EEF1
:102B9000903A0FFA83F9C9F1000001F041FE48466E
:102BA00001F056FEDEE6F9EE047AB4EEE7BAF1EE95
:102BB00010FA2CD59FED30BAB2EE04CAF0EE4B7A83
:102BC000E0EE4C7AFDEEE77A17EE900A01F028FE6F
:102BD000ABEE8CBAFDEECB7A17EE900A01F038FE20
:102BE000C0E6CBEE076ADFED227A66EEA77A67EEE3
:102BF000A67AFDEEE77A17EE903A1BB218460193DB
:102C000001F00EFE019B184601F022FEAAE6F1EE4D
:102C1000047A8BEE277ADFED167A67EE277A67EE75
:102C2000877AFDEEE77A17EE903A1BB25B42E5E752
:102C30006044002000080020A0400108643C0020FF
:102C40002808002024080020DB0F4940000024420F
:102C500000007A4400003443000054420000B443B2
:102C6000603C0020CDCCCC3D70FEFFFF6C3C0020D2
:102C700000005C440000C84300005CC43008002031
:102C800000B5074B07491A68087883B00192019A8A
:102C90001B689A4202D103B05DF804FBFEF708FB03
:102CA00000080020240800200000000000000000B0
:102CB00000B5074B07491A68087883B00192019A5A
:102CC0001B689A4202D103B05DF804FBFEF7F0FAEC
:102CD0000008002030080020000000000000000074
:102CE00010B50A4C82B02368019340F24C4001F0C9
:102CF00097FD019A23689A4206D140F24C4002B0F7
:102D0000BDE8104001F0A4BDFEF7D2FA0008002093
:102D100010B5094C82B023680193002001F080FDBA
:102D2000019A23689A4205D1002002B0BDE8104004
:102D300001F08EBDFEF7BCFA000800200000000084
:102D40002DE9F0472DED028B0646DFF8B4A00078A0
:102D5000DAF8003082B0C0000193FDF723FC7388DD
:102D6000DFED256A9FED257A07EE903AF8EEE77AD7
:102D7000044667EEA67A0D46C7EE877A17EE900AEC
:102D8000FDF722FC41EC100B41EC180B0AF040FF60
:102D900057EC106BB0EE480AF0EE680A0AF098FFA4
:102DA00059EC108B10EE102A4B4630463946FDF791
:102DB000ADFA22462B46FDF763FCFDF719FF01F043
:102DC0002FFD019ADAF800309A4212D142464B4662
:102DD00030463946FDF798FA22462B46FDF750FC5F
:102DE000FDF706FF02B0BDEC028BBDE8F04701F035
:102DF0002FBDFEF75DFA00BFDB0F494000003443F2
:102E0000000800200000000000000000000000009A
:102E100010B50A4C0A4B22680A4884B04FF41E7160
:102E2000039200220092412202F03AFD039A2368A5
:102E30009A4201D104B010BDFEF73AFA0008002012
:102E4000E1280008783C002000000000000000009D
:102E5000F0B5144A144B926914491B68144C9161E3
:102E600083B0032701930226012508E0022AA0F17E
:102E7000060010D825704FF4FA7002F069FD01F0D9
:102E8000D7FDC0B2C31E022BA0F10B024FF000030E
:102E9000ECD82370EFE704288CBF3B463346237001
:102EA000E9E700BF6044002000080020B0400108AE
:102EB00031080020000000000000000000000000B9
:102EC00000B5074B07491A68087883B00192019A48
:102ED0001B689A4202D103B05DF804FBFEF7E8F9E3
:102EE0000008002031080020000000000000000061
:102EF00010B50A4C0A4B22680A4884B04FF4FC71A2
:102F00000392002200923F2202F0CAFC039A236837
:102F10009A4201D104B010BDFEF7CAF900080020A2
:102F2000512E0008F03E00200000000000000000CC
:102F300030B5104D81682B680F4A83B001930B6840
:102F400023F001030B608168946A03E0936A1B1B02
:102F5000C72B09D8086810F00100F7D1019A2B6837
:102F60009A4204D103B030BD4FF0FF30F6E7FEF7D0
:102F70009FF900BF0008002060440020000000000E
:102F800030B5184D83B02B68019311F00C0F044637
:102F90000AD00378032B13D00622636822709A6844
:102FA0001AB100212046904763685B688BB1019994
:102FB0002A68914213D1204603B0BDE8304018473B
:102FC000FFF7B6FF0622636822709A68002AE8D1EC
:102FD000EBE7019A2B689A4201D103B030BDFEF7AE
:102FE00067F900BF0008002000000000000000009A
:102FF000F0B5284D83B02B68019302F031FF01F04A
:10300000EFFF254B1E69F20715D55A69234C42F094
:1030100001025A612778BB1F012B2AD90522636858
:1030200022701B680BB120469847042F27D0022F2F
:1030300025D003232370B30710D5174A174C5369C3
:1030400043F0020353612378032B1DD063689B6810
:103050000622227013B101211048984701F0E8FFC1
:10306000019A2B689A4213D103B0BDE8F04003F0F7
:10307000C7BE019A2B689A420AD103B0F0BD022361
:103080002370B307EAD5D8E72046FFF751FFDDE705
:10309000FEF70EF90008002000000550E84000206F
:1030A00030B50B4D0B4C2B6883B02046019300F0DC
:1030B0002FF9019A2B680848084D094921619A4265
:1030C000C4E9025001D103B030BDFEF7F1F800BFF2
:1030D00000080020E84000200C4C010800000550CA
:1030E0001655020200000000000000000000000071
:1030F0002DE9F0412F4C0578266882B0012D01960C
:1031000006D0019A23689A4252D102B0BDE8F081FC
:10311000294DA842F5D10E4690461F46274AE86839
:103120002B460C2106F054FC002839D1D5E9023297
:10313000126828339360EB681A68042151611B6898
:10314000C3F80C80EB681A6817611B68B6085E60EC
:103150002B694FB343F480232B61E968184A09684F
:103160000B60EB6819680B6843F001030B60536B4D
:1031700043F0010353630B214E2006F009F9D5E912
:103180000113DA6842F00102DA60DA6842F0020202
:10319000DA60CA6822F4804222F001021A60B0E7C5
:1031A000084801F0FDFDC1E723F480232B61D4E73B
:1031B000FEF77EF800080020E8400020812F00087C
:1031C00000380240C040010800000000000000007C
:1031D00030B5184C0378226883B0022B019205D0D9
:1031E000019A23689A4223D103B030BD124B984212
:1031F0000546F5D18168114A0B6823F4804323F01A
:1032000001030B608168CB6823F00F03CB60536B25
:1032100023F0010353634E2006F0E2F8019A23687D
:103220009A4205D1E86803B0BDE8304006F038BCEA
:10323000FEF73EF800080020E84000200038024079
:1032400000B50F4B0278196883B0022A01910ED1A4
:1032500081680A6842F002020A6081680A6842F4E2
:1032600080420A6081680A6842F001020A60019A9D
:103270001B689A4202D103B05DF804FBFEF718F810
:103280000008002000000000000000000000000016
:1032900000B50F4B0278196883B0022A01910ED154
:1032A00081680A6822F002020A6081680A6842F4B2
:1032B00080420A6081680A6842F001020A60019A4D
:1032C0001B689A4202D103B05DF804FBFDF7F0FFE2
:1032D00000080020000000000000000000000000C6
:1032E00000B5074B83B01A680192019A1B689A4295
:1032F00004D103B05DF804EBFFF7D2BEFDF7D8FFB1
:103300000008002000000000000000000000000095
:1033100000B5084B83B01A68019201220270019A2D
:103320001B6800219A42416002D103B05DF804FBA2
:10333000FDF7BEFF000800200000000000000000B4
:103340002DE9F043254D83B02C680194DDF82890D9
:103350000F4616469846044618B111B1204B9A42C2
:103360002FD9204801F01CFD202383F3118802F09F
:10337000AFFD01F0B5FD2378012B02D0194801F013
:103380000FFD4246314620464B466760FFF7B0FED0
:103390000223237001F0C4FD02F0B2FD124B1A6843
:1033A0009A4204D0996993688A689A420FD300239D
:1033B00083F31188019A2B689A420CD103B0BDE8BF
:1033C000F0839307CDD1B8F1000FCDD1C9E70748FD
:1033D00001F0E6FCEBE7FDF76BFF00BF0008002003
:1033E000FCFF0300F040010860440020E0400108B9
:1033F00030B51C4D83B02B680193044658B320238D
:1034000083F3118802F064FD01F06AFD2378022B3A
:1034100002D0154801F0C4FC2046FFF7D9FE012375
:10342000237001F07DFD02F06BFD104B1A689A428B
:1034300004D0996993688A689A4208D3002383F379
:103440001188019A2B689A4209D103B030BD08480F
:1034500001F0A6FCF2E7044801F0A2FCCFE7FDF77B
:1034600027FF00BF00080020004101086044002041
:10347000E040010800000000000000000000000023
:1034800030B51C4D83B02B680193044658B32023FC
:1034900083F3118802F01CFD01F022FD2378022B3A
:1034A00002D0154801F07CFC2046FFF7C9FE04233A
:1034B000237001F035FD02F023FD104B1A689A428B
:1034C00004D0996993688A689A4208D3002383F3E9
:1034D0001188019A2B689A4209D103B030BD08487F
:1034E00001F05EFCF2E7044801F05AFCCFE7FDF77B
:1034F000DFFE00BF000800201041010860440020EA
:10350000E040010800000000000000000000000092
:1035100030B51C4D83B02B680193044658B320236B
:1035200083F3118802F0D4FC01F0DAFC2378022B3B
:1035300002D0154801F034FC2046FFF7A9FE032312
:10354000237001F0EDFC02F0DBFC104B1A689A428C
:1035500004D0996993688A689A4208D3002383F358
:103560001188019A2B689A4209D103B030BD0848EE
:1035700001F016FCF2E7044801F012FCCFE7FDF77A
:1035800097FE00BF00080020304101086044002081
:10359000E040010800000000000000000000000002
:1035A00000B5064B83B01A680192019A1B689A42D3
:1035B00002D103B05DF804FBFDF77AFE000800209D
:1035C00000B5064B83B01A680192019A1B689A42B3
:1035D00002D103B05DF804FBFDF76AFE000800208D
:1035E00010B5104C104B226882B0019201221A7063
:1035F000202383F3118802F09BFC01F0B1FC0B48FF
:1036000002F09EFF01F0CCFC02F0AAFC002383F341
:103610001188019A23689A4201D102B010BDFDF7CA
:1036200047FE00BF000800200841002034080020A9
:1036300030B50E4D0E4C2B6883B00193FFF750FE52
:10364000206808B10DF054F84FF496400DF048F89A
:1036500001992A682060B0FA80F35B099142C3F1B6
:10366000000001D103B030BDFDF722FE00080020AC
:1036700000410020000000000000000000000000E9
:1036800030B5174D174C2B78226885B0012B03926B
:1036900020D000F055FC144B1B78ABB9B0F5964F19
:1036A00015D8124A124B12681B6812490092024642
:1036B0001148FFF745FE01232B700020039A236871
:1036C0009A420BD105B030BDB0F5165FE9D94FF085
:1036D000FF30F3E70848FFF78BFEDAE7FDF7E8FD78
:1036E000FD40002000080020FE4000200441002092
:1036F0000041002040410108E84000200000000097
:1037000010B50B4C0B48236882B0019302F0E0FD2A
:10371000094802F085FF019A23689A4205D10548BD
:1037200002B0BDE8104002F00BBEFDF7C1FD00BFC6
:10373000000800203C0800203408002000000000A1
:1037400030B5154D154C164B2268286883B0019290
:1037500001221A7008B10CF0CBFF4FF416500CF098
:10376000BFFF286098B10F4D286808B10CF0C0FF6A
:103770004FF416500CF0B4FFB0FA80F35B092860E8
:103780005842019A23689A4204D103B030BD4FF0E9
:10379000FF30F6E7FDF78CFD004100200008002017
:1037A000FE40002004410020000000000000000056
:1037B00000B5074B07491A68087083B00192019A57
:1037C0001B689A4202D103B05DF804FBFDF770FD5F
:1037D00000080020FC400020000000000000000065
:1037E00000B50D4A0D4B1278196883B0019142B1B2
:1037F0000B4AD26812681268120302D4094A106890
:1038000001E0094A1068019A1B689A4202D103B08C
:103810005DF804FBFDF74CFDFE4000200008002091
:10382000E84000200441002000410020000000008A
:1038300000B50E4A0E4B1278196883B001914AB157
:10384000019A1B689A420FD10A4803B05DF804EB55
:10385000FFF75EBE019A1B689A4205D1054803B086
:103860005DF804EBFFF70CBEFDF722FDFC400020E5
:1038700000080020E84000200000000000000000D8
:1038800070B5274D82B02B680193064601220321B3
:103890006E2000F01DFC044630B1019A2B689A425C
:1038A00020463AD102B070BD32464E216E2000F063
:1038B0000FFC04460028F0D1442E07D00246B72161
:1038C0006E2000F005FCB8B10446E6E70122B721FE
:1038D0006E2000F0FDFB0028F6D1224603216E2069
:1038E00000F0F6FB0028EFD1032211216E2000F03A
:1038F000EFFB78B10446D0E7224603216E2000F0AA
:10390000E7FB0028E0D10A2211216E2000F0E0FB45
:103910000028D9D1034B1E71BFE7FDF7C9FC00BFDA
:10392000000800200C410020000000000000000002
:103930002DE9F04F8FB0DFF80084DDF860C0D8F8D3
:1039400000400D940CF1FF355C1EB3F5207F9DF80F
:1039500064909DF868B00C44154400F21282BCF5E6
:10396000F07F00F20E82B1F5207F0E4600F2128247
:10397000B2F5F07F174600F21082A14280F0048277
:10398000B4F5207F00F20082AA4280F00082B5F5F3
:10399000F07F00F2FC81B9F1400F824600F0B08167
:1039A000B9F1800F23D0B9F1200F00F09C810023E2
:1039B000CDE90033BBF1400F2FD0BBF1800F00F0F9
:1039C000CB81BBF1200F00F0B9810023CDE9023398
:1039D000002203216E2000F07BFBA0B30D9AD8F8E3
:1039E00000309A4240F0E2810FB0BDE8F08F9A07B4
:1039F00040F0D681CC4A8C085900661CA2FB01011C
:103A0000A2FB030204EB930406EBD2030093BBF189
:103A1000400F06EBD1030193CFD11CF0010F40F012
:103A2000C281C14B7D084FEA4C026F1CA3FB0212FE
:103A3000A3FB0C1307EB9303029307EB920305EB35
:103A40005C050393C4E702465B216E2000F040FB57
:103A50000028C3D15046FFF713FF0028BED102460D
:103A600003216E2000F034FB0028B7D1C6F30723F2
:103A70001A4608216E20049300F02AFB0028ADD1DD
:103A8000F3B21A4609216E20059300F021FB0028AD
:103A9000A4D1C7F307231A460A216E20069300F02B
:103AA00017FB00289AD1FBB21A460B216E20079310
:103AB00000F00EFB002891D1C4F307231A460C2115
:103AC0006E20089300F004FB002887D1E3B21A4669
:103AD0000D216E20099300F0FBFA00287FF47EAFE1
:103AE000C5F307231A460E216E200A9300F0F0FA60
:103AF00000287FF473AFEBB21A460F216E200B93B0
:103B000000F0E6FA00287FF469AF049A35216E20B0
:103B100000F0DEFA00287FF461AF059A36216E20AE
:103B200000F0D6FA00287FF459AF089A37216E20AA
:103B300000F0CEFA00287FF451AF099A38216E20A8
:103B400000F0C6FA00287FF449AF069A39216E20AA
:103B500000F0BEFA00287FF441AF079A3A216E20A8
:103B600000F0B6FA00287FF439AF0A9A3B216E20A4
:103B700000F0AEFA00287FF431AF0B9A3C216E20A2
:103B800000F0A6FA00287FF429AF009B3D21C3F383
:103B900007226E2000F09CFA00287FF41FAF9DF8EA
:103BA00000203E216E2000F093FA00287FF416AF2B
:103BB000019B3F21C3F307226E2000F089FA002801
:103BC0007FF40CAF9DF8042040216E2000F080FAB5
:103BD00000287FF403AF029B4121C3F307226E202C
:103BE00000F076FA00287FF4F9AE9DF80820422113
:103BF0006E2000F06DFA00287FF4F0AE039B4321A5
:103C0000C3F307226E2000F063FA00287FF4E6AECB
:103C10009DF80C2044216E2000F05AFA00287FF411
:103C2000DDAE012203216E2000F052FA00287FF45D
:103C3000D5AE4A4693216E2000F04AFA00287FF460
:103C4000CDAE5A4694216E2000F042FA00287FF44F
:103C5000C5AE012203216E2000F03AFA00287FF45D
:103C6000BDAE0134A31B07EE103ADFED307AB8EE9B
:103C7000477ABAF1440F77EEC77A00F09980B0EE38
:103C8000006AF2EE006AE7EE066A77EEA77AB0EE17
:103C9000667A67EE877ADFED266A87EEA67AFCEE13
:103CA000C77ACDED007A009B9521C3F307226E20E1
:103CB00000F00EFA00287FF491AE9DF800209621C6
:103CC0006E2000F005FA00287FF488AE194B01350C
:103CD000EF1BA41B5F801C8083F804A083F8059071
:103CE00083F806B07AE610495A00A1FB030306EBFD
:103CF0005303A1FB0212009306EB5203019359E612
:103D0000D9074DD4084A74085900661CA2FB01016A
:103D1000A2FB030204EB530406EB9203009306EBB1
:103D20009103019346E600BFABAAAAAA0000224471
:103D30000000A3440C41002000080020244A4FEA60
:103D40004C03A2FB0C1CA2FB032307EB530307EB62
:103D50005C02029203933BE61CF0030F23D11C4B41
:103D6000BD084FEA4C026F1CA3FB0212A3FB0C130D
:103D700007EBD303029307EBD20305EB9C050393F8
:103D800026E66FF0070029E66FF0030026E66FF0E5
:103D9000040023E66FF0010020E66FF002001DE64C
:103DA0006FF005001AE66FF0060017E6FDF780FADF
:103DB000F2EE006A37EE267ADFED066A67EE277AC2
:103DC00087EEA67AFCEEC77ACDED007A6BE700BFEE
:103DD000ABAAAAAA000024440000000000000000D2
:103DE00010B5114C86B02368059300F001F90F4916
:103DF0000F4803F01DFC012200210D4803F0B0FC28
:103E000020237822CDE901330092A023B422F021AF
:103E10000220FFF78DFD059A23689A4201D106B072
:103E200010BDFDF745FA00BF000800205041010811
:103E300068520020000000000000000000000000A8
:103E400030B50E4C83B0236801930122054603214F
:103E50006E2000F03DF9019A236818B19A420BD107
:103E600003B030BD9A4207D12A469D216E2003B08F
:103E7000BDE8304000F02CB9FDF71AFA0008002028
:103E800030B5164C83B02368019305460023022207
:103E900003216E208DF8033000F01AF928B1019A41
:103EA00023689A4218D103B030BD0DF103020421FA
:103EB0006E2000F0BDF80028F1D19DF80320012DFF
:103EC0000CBF02F0FB0242F0040204216E208DF8C8
:103ED000032000F0FDF8E2E7FDF7EAF90008002012
:103EE00030B5164C83B023680193054600230222A7
:103EF00003216E208DF8033000F0EAF828B1019A12
:103F000023689A4218D103B030BD0DF10302042199
:103F10006E2000F08DF80028F1D19DF80320012DCE
:103F20000CBF02F0FC0242F0030204216E208DF867
:103F3000032000F0CDF8E2E7FDF7BAF90008002011
:103F400010B50A4B0A4A1988146858881B7982B040
:103F5000442B019400FB01F00199136818BF400045
:103F6000994201D102B010BDFDF7A2F90C41002029
:103F70000008002000000000000000000000000019
:103F800070B5164E16483368154D82B005224FF4B1
:103F90008071019307F0CCF920246B6983F480735E
:103FA0006B61012001F0D4FC631E13F0FF04F4D117
:103FB0004FF4807140F206222983094807F0B8F9CE
:103FC000019A33689A4206D10649074802B0BDE813
:103FD000704003F075B9FDF76BF900BF00080020D1
:103FE0000004024090410108E04E00200000000063
:103FF00000B50C4A0C4B1278196883B0012A019164
:10400000019A1B6804D09A4209D103B05DF804FB01
:104010009A4204D103B05DF804EBFFF7B1BFFDF79E
:1040200047F900BFE04E002000080020000000001B
:104030002DE9F041224C234E88B0002335688DF8DD
:104040001830804620468DF814101746079503F067
:104050004FFA2378012B0CD00420012306AACDE9C6
:1040600001300092414605AA204603F0D1F90546E9
:1040700068B9134803F05CFA9DF818303B700020D3
:10408000079A33689A4218D108B0BDE8F0812046FB
:1040900003F0A6F923780C4A052B106004D00848D9
:1040A00003F046FA68B2EBE7204603F051F92378B3
:1040B000012BF4D1FFF764FFF1E7FDF7F9F800BF3A
:1040C000E04E002000080020144100200000000005
:1040D000F0B5214C214E89B033680793074600257F
:1040E00020468DF818108DF819208DF8145003F023
:1040F000FFF92378012B0CD0042205AB0195029225
:1041000000933946022306AA204603F081F90546AA
:1041100048B9114803F00CFA0020079A33689A4214
:1041200017D109B0F0BD204603F05AF923780C4AA4
:10413000052B106004D0084803F0FAF968B2ECE7E8
:10414000204603F005F92378012BF4D1FFF718FF7F
:10415000F1E7FDF7ADF800BFE04E002000080020B9
:1041600014410020000000000000000000000000DA
:1041700070B5294D82B02B6801930E46032841D8B3
:10418000DFE800F01A120A02012922D9234A5369F2
:1041900083F40063536116E0012926D91F4A53694D
:1041A00083F4806353610EE0012918D91B4A5369D7
:1041B00083F04003536106E001291CD9174A536973
:1041C00083F020035361019A2B689A4218D102B000
:1041D00070BD124B4FF4006229B15A83F3E70F4BC5
:1041E00040220029F9D11A83EDE70C4B4FF480628D
:1041F0000029F8D0F1E7094B20220029F3D0ECE7A1
:10420000FDF756F80024E0B231460134FFF7B0FF65
:10421000042CF8D1D7E700BF00080020000C0240B2
:104220002DE9F043254E83B034680194042A9DF8AB
:104230002890144605460F46984639D9B9F1000F23
:1042400014BF00224FF08052640002EB0863013C6F
:104250001C4405F00F0527F01F07202383F3118866
:1042600001F036FE3D4300F03BFE154B1035DD609E
:104270001C6100F055FE01F043FE124B1A689A4291
:1042800004D0996993688A689A420DD3002383F316
:104290001188BFF36F8FBFF34F8F019A33689A4233
:1042A0000AD103B0BDE8F083074800F079FDEDE7DF
:1042B000064800F075FDC1E7FCF7FAFF0008002092
:1042C00090ED00E060440020204201080042010817
:1042D00030B5224D224C2B68224A85B00393636887
:1042E00043F004036360536A43F480335362202332
:1042F00083F3118801F0ECFD00F0F2FD17221A4B58
:10430000E260236100F00CFE01F0FAFD174B1A6821
:104310009A4204D0996993688A689A4218D3002017
:1043200080F31188BFF36F8FBFF34F8F03231D22DC
:1043300000904FF00051FFF773FF094A536843F0B4
:1043400001035360039A2B689A4205D105B030BD32
:10435000074800F025FDE2E7FCF7AAFF000800206F
:1043600090ED00E000ED00E0090000106044002046
:1043700020420108000000000000000000000000D2
:1043800070B51A4D1A4C1B4E0FCD0FC49EB02A6843
:10439000336822801D93EFF30981682203A8FCF79C
:1043A00027FE154B9D6AAA0714D4EB0708D5124BBC
:1043B00008995B6B114A00910D4880210CF0B0FC0C
:1043C0001D9A33689A420FD109481EB0BDE870406B
:1043D00000F0E6BC099A5B6B0092A4F11000084A59
:1043E00080210CF09DFCE0E7FCF762FFE44101084E
:1043F000184100200008002000ED00E0C041010845
:10440000A0410108000000000000000000000000C2
:1044100000B51F4B0278196883B00191E2B11D4AC3
:104420004FF4005111834278EAB11A4A4FF4805197
:1044300011838278F2B1174A4FF480411183C27818
:10444000FAB9144A4FF400415183019A1B689A4209
:104450001CD103B05DF804FB0E4A4FF400515183A8
:104460004278002AE1D10B4A4FF48051518382787F
:10447000002AE0D1074A4FF480415183C278002AD4
:10448000DFD0044A4FF400411183DEE7FCF710FF50
:1044900000080020001002400000000000000000A2
:1044A00000B51F4B0278196883B00191E2B11D4A33
:1044B0004FF4007111834278EAB11A4A4FF48071C7
:1044C00011838278F2B1174A4FF400611183C278E8
:1044D000FAB9144A4FF480615183019A1B689A42D9
:1044E0001CD103B05DF804FB0E4A4FF400715183F8
:1044F0004278002AE1D10B4A4FF4807151838278CF
:10450000002AE0D1074A4FF400615183C278002AA3
:10451000DFD0044A4FF480611183DEE7FCF7C8FE68
:104520000008002000100240000000000000000011
:1045300030B50C4A0C4B116883B04FF40055019113
:104540004FF480544FF400414FF480405D835C830E
:104550005883598301991368994201D103B030BD42
:10456000FCF7A6FE0008002000100240000000003A
:1045700030B50C4A0C4B116883B04FF400750191B3
:104580004FF480744FF480614FF400605D835C836E
:104590005883598301991368994201D103B030BD02
:1045A000FCF786FE0008002000100240000000001A
:1045B00010B50B4C0B48236882B09922002101935F
:1045C00003F0CEF8019A23689A4206D105480021EB
:1045D00002B0BDE8104003F0ABB9FCF769FE00BFC4
:1045E0000008002030520020000000000000000001
:1045F00010B50B4C0B48236882B09922002101931F
:1046000003F0AEF8019A23689A4206D105480021CA
:1046100002B0BDE8104003F08BB9FCF749FE00BFC3
:10462000000800204C5200200000000000000000A4
:1046300000B5084B83B01A680192019A1B689A4230
:1046400006D10548002103B05DF804EB03F0D8B8AB
:10465000FCF72EFE00080020305200200000000071
:1046600000B5084B83B01A680192019A1B689A4200
:1046700006D10548002103B05DF804EB03F0C0B893
:10468000FCF716FE000800204C520020000000003D
:1046900070B51A4C1A4E2378326882B0022B019200
:1046A000A26811D165781748013505F0070500EBC0
:1046B0008500904763686570013B6360019A3368C9
:1046C0009A4219D102B070BD012B08D0019933680C
:1046D000994211D10C4802B0BDE87040104765788E
:1046E0000848013D05F0070500EB85009047636829
:1046F000657001336360E1E7FCF7DAFDB04100204B
:1047000000080020C0420108B0420108000000007B
:1047100070B51A4C1A4E2378326882B0012B019280
:10472000A26811D165781748013505F0070500EB3F
:10473000850090476368657001336360019A336850
:104740009A4219D102B070BD022B08D0019933688A
:10475000994211D10C4802B0BDE87040104765780D
:104760000848013D05F0070500EB850090476368A8
:104770006570013B6360E1E7FCF79AFD984100201A
:1047800000080020C0420108B042010800000000FB
:1047900030B51F4D85B02B68039340F24C439942CE
:1047A000044626DCA3F69803994211DB4B00002B4C
:1047B00029D10370036998474FF47A71039A2B68E3
:1047C0009A421ED1606905B0BDE8304002F080BF5A
:1047D000104B02225B42227040F2892293420E4922
:1047E00091FBF3F189B207DC0191E36898470199E5
:1047F000E4E7012303702D21019123699847019972
:10480000DCE7FCF755FDE4DD01220270E4E700BFC0
:104810000008002068F7FFFFA086010000000000EC
:1048200000B5084B83B01A680192019A1B689A423E
:1048300006D10146044803B05DF804EBFFF7A8BFBA
:10484000FCF736FD00080020984100200000000021
:1048500000B5084B83B01A680192019A1B689A420E
:1048600006D10146044803B05DF804EBFFF790BFA2
:10487000FCF71EFD00080020B041002000000000F1
:1048800000B5094B094A1968506883B000EBD07035
:104890000191019A1B689A4203D1401003B05DF860
:1048A00004FBFCF705FD00BF000800209841002034
:1048B00000B5094B094A1968506883B000EBD07005
:1048C0000191019A1B689A4203D1401003B05DF830
:1048D00004FBFCF7EDFC00BF00080020B041002005
:1048E00000B5084B08491A6883B040000192019A4C
:1048F0001B6848609A4202D103B05DF804FBFCF7E4
:10490000D7FC00BF000800209841002000000000F4
:1049100000B5084B08491A6883B040000192019A1B
:104920001B6848609A4202D103B05DF804FBFCF7B3
:10493000BFFC00BF00080020B041002000000000C4
:1049400070B51D4E1D4A1E4B30681E491E4C9160AD
:1049500082B00021D46001901C4C1D481D4D9D600B
:10496000117051705160106154611B481B4A1C4DFD
:10497000D8601C48197059705960C3E90425FFF7C5
:1049800047FD1848FFF78CFD1749204602F050FEFE
:10499000204602F085FF2846144902F049FE019A9C
:1049A00033689A4205D1284602B0BDE8704002F053
:1049B00077BFFCF77DFC00BF00080020B04100205D
:1049C0009841002011440008B145000830520020F1
:1049D00031460008A1440008F1450008614600087E
:1049E0004C520020B04201087042010830420108D8
:1049F0000A490B4B09680B4A82B0202001914021E3
:104A000058834FF4806559834FF400644FF480401D
:104A100004215D835C8358835183FEE700080020F6
:104A2000000C0240000402400000000000000000F2
:104A300030B5104C104B2268104983B001921869B0
:104A40001A6909691B69019D2468C2F3C032C1F368
:104A5000001102EB4102C3F38033C0F3403003EB9B
:104A60004203A54200EB430001D103B030BDFCF787
:104A70001FFC00BF0008002000080240000C02409C
:104A800000B50F4B83B01868019002290CD00329A0
:104A90000CD001290B4818BF0020019A1B689A42CC
:104AA0000BD103B05DF804FB0748F6E7032A96BF75
:104AB0000648002000EBC200EFE7FCF7F9FB00BF5F
:104AC00000080020C0430108604301087044010849
:104AD00070B5154C82B02368019302291CD10D4694
:104AE0000646202383F3118801F022FA00F038FAF9
:104AF00030460E4A012104F0A3F829460C4A3046FC
:104B000004F09EF80B4803F09BFE00F049FA01F018
:104B100027FA002383F31188019A23689A4201D16E
:104B200002B070BDFCF7C4FB00080020E0420108A1
:104B300010430108C84100200000000000000000F0
:104B400030B5134D134C2B68134883B0019303F019
:104B5000EFFD1249104803F01BFE226D936B23F406
:104B6000002393634FF47A7000F0F2FE20460C4964
:104B700004F016F8226D936B43F400239363019ABB
:104B80002B689A4201D103B030BDFCF791FB00BF06
:104B900000080020204F0020C841002040430108A9
:104BA0005043010800000000000000000000000069
:104BB00000B5084B83B01A680192019A1B689A42AB
:104BC00005D1054803B05DF804EB01F081BBFCF7AB
:104BD0006FFB00BF0008002050080020000000000C
:104BE00000B5084B83B01A680192019A1B689A427B
:104BF00005D1054803B05DF804EB01F0A1BBFCF75B
:104C000057FB00BF000800205008002000000000F3
:104C100070B50D4C82B0236801930D1E06460DDD64
:104C2000284602F065F818B90C2333604FF0FF30C6
:104C3000019A23689A4205D102B070BD034800F082
:104C4000AFF8EDE7FCF734FB0008002090440108C2
:104C500000B5064B83B01A680192019A1B689A420C
:104C600002D103B05DF804FBFCF722FB0008002032
:104C700000B5064B83B01A680192019A1B689A42EC
:104C800002D103B05DF804FBFCF712FB0008002022
:104C9000024B82B01B680193FEE700BF00080020B2
:104CA00000B5044B04481B6883B0019300F078F80A
:104CB000FEE700BF00080020A0440108000000003B
:104CC000024B82B01B680193FEE700BF0008002082
:104CD000F0B5294E294B3268294885B0002403924B
:104CE0009C60D968274A4FF6FF0529400A43DA60DD
:104CF000C2682549254D42F08072C2600A6842F0C0
:104D000001020A6010202022D87783F8222000F0C8
:104D1000DFFA00F045FA01F02BF801F0C1FF02F0D4
:104D20002FF801F07DF800F0FBF9402105F58860CF
:104D300000F01EFD0127164BC36180F82070A861AA
:104D400000F0A6F884F3118862B6AB69114A9A6143
:104D50004FF4C4713A46104B009405F59D6000F085
:104D60009FFD039A33680D4981619A4201D105B0D4
:104D7000F0BDFCF79DFA00BF0008002000ED00E048
:104D8000F0ED00E00003FA05001000E060440020B0
:104D90000004002040460108C14C0008C04401083E
:104DA00000B5054B83B01B680193044672B6FFF74C
:104DB0001FFE024BDC62FEE700080020604400207A
:104DC0002DE9F047DFF890A0224DDAF8003082B0EC
:104DD000019300F055F9AB6993F8232012B1013A21
:104DE00083F823205A6ADFF8748001325A6200F097
:104DF00047F9AB6AEA6901334245AB6220D0936858
:104E0000013B9360EC69A668D6B94FF0200923688E
:104E1000E768E660C3F804802368EB6100F0C0F83F
:104E200001F09EF886F311882069B84789F311884C
:104E300001F07EF800F094F8EC69A368002BE6D04E
:104E4000019ADAF800309A4202D102B0BDE8F08748
:104E5000FCF72EFA60440020000800207C4400206B
:104E600010B5094C094A236882B001935168536810
:104E70005B1A9842FBD8019A23689A4201D102B08A
:104E800010BDFCF715FA00BF00080020001000E07C
:104E900000B50E4A0E4B116B186883B0019009B92A
:104EA000526B4AB1019A1B689A420CD1094803B06F
:104EB0005DF804EBFFF774BF019A1B689A4202D1B8
:104EC00003B05DF804FBFCF7F3F900BF6044002079
:104ED00000080020D044010800000000000000008D
:104EE00030B50B4C0B4D236B2A6883B001920BB984
:104EF000636B13B10848FFF753FF019A2B68012138
:104F00009A42616301D103B030BDFCF7D1F900BF13
:104F10006044002000080020004501080000000057
:104F200030B50C4C0C4D236B2A6883B0019253B9F9
:104F3000636B002B07DD019A2B6800219A426163A5
:104F400005D103B030BD0548FFF72AFFF3E7FCF7B2
:104F5000AFF900BF60440020000800202045010890
:104F600030B50B4C0B4D236B2A6883B0002B01929C
:104F700001DD636B13B10848FFF712FF019A2B683C
:104F800001219A42616301D103B030BDFCF790F971
:104F900060440020000800201045010800000000C7
:104FA00030B50C4C0C4D236B2A6883B0002B01925A
:104FB0000ADD636B002B07DD019A2B6800219A4202
:104FC000616305D103B030BD0448FFF7E9FEF3E7A4
:104FD000FCF76EF96044002000080020304501080D
:104FE00030B50F4D83B02B680193202383F31188D4
:104FF0000C4C236B002B01DB626B1AB10A48FFF7E4
:10500000CFFE236B01332363002383F31188019ABE
:105010002B689A4201D103B030BDFCF749F900BFBB
:105020000008002060440020E04401080000000067
:1050300030B50F4D83B02B680193202383F3118883
:105040000C4C236B002B01DD626B1AB10A48FFF791
:10505000A7FE236B013B2363002383F31188019A8E
:105060002B689A4201D103B030BDFCF721F900BF93
:105070000008002060440020F04401080000000007
:1050800000B50F4A0F4B116B186883B000290190CF
:1050900009DB526B002A06DD019A1B689A420CD18B
:1050A00003B05DF804FB019A1B689A4205D10648DB
:1050B00003B05DF804EBFFF773BEFCF7F9F800BF2F
:1050C0006044002000080020404501080000000066
:1050D00000B50E4A0E4B116B186883B0019049B9A8
:1050E000526B002A06DD019A1B689A420CD103B06C
:1050F0005DF804FB019A1B689A4205D1054803B08C
:105100005DF804EBFFF74CBEFCF7D2F860440020DA
:1051100000080020504501080000000000000000C9
:1051200010B5084A084B116882B0402401910199DA
:10513000126818199142C3E90E4001D102B010BDA6
:10514000FCF7B6F8000800206044002000000000D2
:1051500010B51149114B0A6882B00192DA6B9C6A52
:105160001460DA6B9C695460DA6B846A9460DA6B61
:1051700090F820001073DA6B03F5886010328242D9
:1051800028BF03F14002DA63019A0B689A4201D109
:1051900002B010BDFCF78CF800080020604400202D
:1051A00010B50B4A0B4B116882B04FF0FF340191E0
:1051B00000219962019811685C6203F11C02884227
:1051C000C3E9072201D102B010BDFCF771F800BF9E
:1051D00000080020604400200000000000000000E3
:1051E0002DE9F041184E82B00546306801900C461A
:1051F00017469846FFF744FF05B3FFB1F4B1C5E980
:1052000003781248C3699A68944204D91B68A41AA7
:105210009A68A242FAD32B605A686A6015605D6092
:10522000AC609968019D3268091B95424FF0FF34CC
:105230009960446206D102B0BDE8F0810448FFF7EE
:10524000AFFDDCE7FCF734F80008002060440020E4
:1052500060450108000000000000000000000000A0
:1052600030B5164D83B004462B680193FFF708FF55
:10527000ECB1E368BBB12268A0689368019903446C
:105280009360D4E900231A6020682B680C4A656893
:10529000456099424FF000054FF0FF30E5605062E5
:1052A00009D103B030BD0748FFF77AFDE3E70548B1
:1052B000FFF776FDDDE7FBF7FBFF00BF00080020EE
:1052C000604400207045010800000000000000005C
:1052D00000B50A4A0A4B11681B6083B00020019197
:1052E000019912685B609142C3E90433986002D16E
:1052F00003B05DF804FBFBF7DBFF00BF00080020F4
:1053000060440020000000000000000000000000D9
:1053100030B5164D83B004462B680193FFF7B0FEFD
:10532000ECB194F82030B3B10F2B14D00022A16857
:105330000F4B84F820201B689A688A42FBD22360B6
:105340005A686260146001992A685C609142204644
:1053500009D103B030BD0748FFF722FDE6E7054855
:10536000FFF71EFDDDE7FBF7A3FF00BF00080020ED
:10537000604400208045010800000000000000009B
:1053800070B5204D82B02B6801930446202383F32F
:10539000118800F0CDFDFFF7E3FD94F82030072BD6
:1053A00011D8DFE803F0161010230A04100AA66AC9
:1053B000FFF766FEB3680133B360D4E900231A60D7
:1053C000D4E900325A604FF0FF33A3622046FFF762
:1053D0009FFFFFF7E5FD00F0C3FD002383F3118875
:1053E000019A2B689A420BD102B070BDA36A0022C9
:1053F0001A604FF0FF33A3622046FFF789FFE8E70A
:10540000FBF756FF0008002000000000000000002D
:10541000F0B5194E194C336883B007460193FFF776
:1054200057FEA569236885F82070142285F823208B
:105430001A68226001215460284683F82010A36175
:10544000FFF786FE2946A06900F022FDEFF30983ED
:10545000EA69643B9A4202D90948FFF7A1FC019A24
:1054600033689A4206D1A069294603B0BDE8F040EE
:10547000FAF71EBFFBF71CFF000800206044002065
:10548000904501080000000000000000000000003E
:10549000F0B5154C87B0236805930E460746FFF715
:1054A00017FE731C18D0114D114AAB69314668467E
:1054B000FFF796FE3846FFF7ABFFFFF7E1FD039BD2
:1054C00013B16846FFF7CCFE059A2368A9699A4292
:1054D000886A06D107B0F0BD3846FFF799FF034D43
:1054E000F2E7FBF7E5FE00BF000800206044002063
:1054F00081530008000000000000000000000000D0
:10550000F0B51E4D1E4E2B6883B0044601930F4626
:10551000FFF7DEFDB069A7628368A2689A421DD9D1
:10552000FFF7F6FE0123074684F82030B461FFF749
:105530000FFE3946204600F0ABFCEFF30983FA6911
:10554000643B9A4214D8019A2B689A4214D1394686
:10555000204603B0BDE8F040FAF7AABE019A2B68D6
:105560009A4209D1204603B0BDE8F040FFF7D0BE13
:105570000448FFF715FCE6E7FBF79AFE0008002059
:105580006044002090450108000000000000000079
:1055900010B50E490E4B8A69086892F823101C68F2
:1055A0008068926882B0019449B9904234BF00206B
:1055B0000120019A1B689A4206D102B010BD9042A8
:1055C00094BF00200120F4E7FBF772FE6044002046
:1055D00000080020000000000000000000000000A3
:1055E00070B5184C184E2368A5691A68226054607B
:1055F000012283F8202082B01422316885F823200C
:105600002846A3610191FFF783FE2846FFF7A0FD1E
:105610002946A06900F03CFCEFF30983EA69643B8A
:105620009A4202D90948FFF7BBFB019A33689A42B4
:1056300006D1A069294602B0BDE87040FAF738BE2D
:10564000FBF736FE6044002000080020904501086A
:1056500070B51C4D1C4E2A68AC6913682B60012183
:1056600082B05D60002082F82010AA613268A168D3
:1056700084F82000019200E01B689A688A42FBD8F7
:1056800023605A686260204614605C60FFF760FD2A
:105690002146A86900F0FCFBEFF30983E269643B53
:1056A0009A4202D90948FFF77BFB019A33689A4274
:1056B00006D1A869214602B0BDE87040FAF7F8BDEE
:1056C000FBF7F6FD6044002000080020904501082B
:1056D00010B50F4C82B023680193FFF7F9FCFFF778
:1056E000CFFC0C4B1A689B6992689B689A42019A9E
:1056F000236803D89A4208D102B010BD9A4204D15F
:1057000002B0BDE81040FFF7A3BFFBF7D1FD00BF1B
:10571000000800206044002000000000000000009D
:1057200000B50E4A0E4B9269196892F8232083B097
:10573000019142B1019A1B689A420DD103B05DF804
:1057400004EBFFF785BF019A1B689A4204D103B0AE
:105750005DF804EBFFF744BFFBF7AAFD60440020AF
:105760000008002000000000000000000000000011
:10577000F0B51A4A1A4D02610446816083B01423C1
:1057800050692E68616484F82330022700230121C8
:10579000278484F82210C4E90F3304F16801A3615F
:1057A000019604F12C07636204F1500604F1300302
:1057B00060610461C4E90C33E1613046E762546121
:1057C00000F06EFA304600F08BFA019A2B689A428C
:1057D00002D1204603B0F0BDFBF76AFD6044002013
:1057E0000008002000000000000000000000000091
:1057F00010B5094B82B01C680194884203D200F8AE
:10580000012B8142FBD1019A1B689A4201D102B05F
:1058100010BDFBF74DFD00BF000800200000000098
:105820002DE9F043184E83B0346801940546DDF845
:1058300028900C4617469846FFF722FC15B1B4F5A0
:10584000BC7F19D21148FFF7ABFAA4F164012944D7
:10585000E960C1F84080EB68019AC3F8449033686E
:10586000E9680B4808669A420CD13946284603B0CD
:10587000BDE8F043FFF77CBF7F2FE3D8B8F1000FFE
:10588000E3D1DFE7FBF714FD00080020E045010845
:10589000C902000800000000000000000000000035
:1058A0002DE9F04FDFF8A48087B0D8F80040DDF88C
:1058B0004090059407468A46934600F168060446E0
:1058C000FF2504F8015BA642FBD107EB0A05A542C0
:1058D00004D9552604F8016BA542FBD1039320227D
:1058E00082F3118800F0F4FAFFF7FAFA039BCDF87F
:1058F00000905A4651463846FFF792FF0021044671
:10590000FFF7FEFDFFF70CFB00F0FAFA0D4B1A68EB
:105910009A4204D0996993688A689A420BD300230B
:1059200083F31188059AD8F800309A42204606D1B0
:1059300007B0BDE8F08F0448FFF732FAEFE7FBF756
:10594000B7FC00BF60440020A0450108000800200B
:1059500030B5184C83B0236801930546202383F3A8
:10596000118800F0B5FAFFF7BBFA15B91248FFF736
:1059700017FA29460820FFF78BFDFFF7D1FA00F050
:10598000BFFA0E4B1A689A4204D0996993688A68E4
:105990009A4208D3002383F31188019A23689A421C
:1059A00005D103B030BD0648FFF7FAF9F2E7FBF77F
:1059B0007FFC00BF00080020B045010860440020C3
:1059C000A0450108000000000000000000000000E9
:1059D00070B5164B164E9C693268E36AA06282B0BD
:1059E00004F12C05AB42019207D01A68E262184616
:1059F000FFF78EFCE36AAB42F7D194F821309B07A6
:105A000005D1D4E904231A61D4E904325A610F2084
:105A1000FFF7FEFC019A33689A4205D1054802B0AF
:105A2000BDE87040FFF7BCB9FBF742FC60440020C2
:105A300000080020F0450108000000000000000000
:105A400030B50C4C83B0236801930546202383F3C3
:105A5000118800F03DFAFFF743FA019A23689A4251
:105A600005D1284603B0BDE83040FFF7B1BFFBF7D2
:105A70001FFC00BF00080020000000000000000024
:105A8000F0B50D4D0D4E03682A68B76983B0044622
:105A9000019213B10A48FFF783F927600320BC6223
:105AA000FFF7B6FC019A2B68B1699A42886A01D166
:105AB00003B0F0BDFBF7FCFB0008002060440020B1
:105AC0000046010800000000000000000000000087
:105AD000F0B5124D0368124A83B00446286801905D
